{
  "_format": "hh-sol-artifact-1",
  "contractName": "ERC20Guild",
  "sourceName": "contracts/erc20guild/ERC20Guild.sol",
  "abi": [
    {
      "anonymous": false,
      "inputs": [
        {
          "indexed": true,
          "internalType": "bytes32",
          "name": "proposalId",
          "type": "bytes32"
        },
        {
          "indexed": false,
          "internalType": "uint256",
          "name": "newState",
          "type": "uint256"
        }
      ],
      "name": "ProposalStateChanged",
      "type": "event"
    },
    {
      "anonymous": false,
      "inputs": [
        {
          "indexed": false,
          "internalType": "address",
          "name": "voter",
          "type": "address"
        },
        {
          "indexed": false,
          "internalType": "uint256",
          "name": "value",
          "type": "uint256"
        }
      ],
      "name": "TokensLocked",
      "type": "event"
    },
    {
      "anonymous": false,
      "inputs": [
        {
          "indexed": false,
          "internalType": "address",
          "name": "voter",
          "type": "address"
        },
        {
          "indexed": false,
          "internalType": "uint256",
          "name": "value",
          "type": "uint256"
        }
      ],
      "name": "TokensWithdrawn",
      "type": "event"
    },
    {
      "anonymous": false,
      "inputs": [
        {
          "indexed": true,
          "internalType": "bytes32",
          "name": "proposalId",
          "type": "bytes32"
        },
        {
          "indexed": true,
          "internalType": "uint256",
          "name": "action",
          "type": "uint256"
        },
        {
          "indexed": false,
          "internalType": "address",
          "name": "voter",
          "type": "address"
        },
        {
          "indexed": false,
          "internalType": "uint256",
          "name": "votingPower",
          "type": "uint256"
        }
      ],
      "name": "VoteAdded",
      "type": "event"
    },
    {
      "stateMutability": "payable",
      "type": "fallback"
    },
    {
      "inputs": [],
      "name": "ANY_SIGNATURE",
      "outputs": [
        {
          "internalType": "bytes4",
          "name": "",
          "type": "bytes4"
        }
      ],
      "stateMutability": "view",
      "type": "function"
    },
    {
      "inputs": [],
      "name": "ERC20_APPROVE_SIGNATURE",
      "outputs": [
        {
          "internalType": "bytes4",
          "name": "",
          "type": "bytes4"
        }
      ],
      "stateMutability": "view",
      "type": "function"
    },
    {
      "inputs": [],
      "name": "ERC20_TRANSFER_SIGNATURE",
      "outputs": [
        {
          "internalType": "bytes4",
          "name": "",
          "type": "bytes4"
        }
      ],
      "stateMutability": "view",
      "type": "function"
    },
    {
      "inputs": [
        {
          "internalType": "address[]",
          "name": "to",
          "type": "address[]"
        },
        {
          "internalType": "bytes[]",
          "name": "data",
          "type": "bytes[]"
        },
        {
          "internalType": "uint256[]",
          "name": "value",
          "type": "uint256[]"
        },
        {
          "internalType": "uint256",
          "name": "totalActions",
          "type": "uint256"
        },
        {
          "internalType": "string",
          "name": "title",
          "type": "string"
        },
        {
          "internalType": "bytes",
          "name": "contentHash",
          "type": "bytes"
        }
      ],
      "name": "createProposal",
      "outputs": [
        {
          "internalType": "bytes32",
          "name": "",
          "type": "bytes32"
        }
      ],
      "stateMutability": "nonpayable",
      "type": "function"
    },
    {
      "inputs": [
        {
          "internalType": "bytes32",
          "name": "proposalId",
          "type": "bytes32"
        }
      ],
      "name": "endProposal",
      "outputs": [],
      "stateMutability": "nonpayable",
      "type": "function"
    },
    {
      "inputs": [
        {
          "internalType": "bytes",
          "name": "_data",
          "type": "bytes"
        }
      ],
      "name": "erc20TransferOrApproveDecode",
      "outputs": [
        {
          "internalType": "address",
          "name": "to",
          "type": "address"
        },
        {
          "internalType": "uint256",
          "name": "value",
          "type": "uint256"
        }
      ],
      "stateMutability": "pure",
      "type": "function"
    },
    {
      "inputs": [],
      "name": "getActiveProposalsNow",
      "outputs": [
        {
          "internalType": "uint256",
          "name": "",
          "type": "uint256"
        }
      ],
      "stateMutability": "view",
      "type": "function"
    },
    {
      "inputs": [
        {
          "internalType": "bytes32",
          "name": "_hash",
          "type": "bytes32"
        }
      ],
      "name": "getEIP1271SignedHash",
      "outputs": [
        {
          "internalType": "bool",
          "name": "",
          "type": "bool"
        }
      ],
      "stateMutability": "view",
      "type": "function"
    },
    {
      "inputs": [
        {
          "internalType": "bytes",
          "name": "data",
          "type": "bytes"
        }
      ],
      "name": "getFuncSignature",
      "outputs": [
        {
          "internalType": "bytes4",
          "name": "",
          "type": "bytes4"
        }
      ],
      "stateMutability": "view",
      "type": "function"
    },
    {
      "inputs": [],
      "name": "getLockTime",
      "outputs": [
        {
          "internalType": "uint256",
          "name": "",
          "type": "uint256"
        }
      ],
      "stateMutability": "view",
      "type": "function"
    },
    {
      "inputs": [],
      "name": "getMaxActiveProposals",
      "outputs": [
        {
          "internalType": "uint256",
          "name": "",
          "type": "uint256"
        }
      ],
      "stateMutability": "view",
      "type": "function"
    },
    {
      "inputs": [],
      "name": "getMaxGasPrice",
      "outputs": [
        {
          "internalType": "uint256",
          "name": "",
          "type": "uint256"
        }
      ],
      "stateMutability": "view",
      "type": "function"
    },
    {
      "inputs": [],
      "name": "getName",
      "outputs": [
        {
          "internalType": "string",
          "name": "",
          "type": "string"
        }
      ],
      "stateMutability": "view",
      "type": "function"
    },
    {
      "inputs": [],
      "name": "getPermissionRegistry",
      "outputs": [
        {
          "internalType": "address",
          "name": "",
          "type": "address"
        }
      ],
      "stateMutability": "view",
      "type": "function"
    },
    {
      "inputs": [
        {
          "internalType": "bytes32",
          "name": "proposalId",
          "type": "bytes32"
        }
      ],
      "name": "getProposal",
      "outputs": [
        {
          "internalType": "address",
          "name": "creator",
          "type": "address"
        },
        {
          "internalType": "uint256",
          "name": "startTime",
          "type": "uint256"
        },
        {
          "internalType": "uint256",
          "name": "endTime",
          "type": "uint256"
        },
        {
          "internalType": "address[]",
          "name": "to",
          "type": "address[]"
        },
        {
          "internalType": "bytes[]",
          "name": "data",
          "type": "bytes[]"
        },
        {
          "internalType": "uint256[]",
          "name": "value",
          "type": "uint256[]"
        },
        {
          "internalType": "uint256",
          "name": "totalActions",
          "type": "uint256"
        },
        {
          "internalType": "string",
          "name": "title",
          "type": "string"
        },
        {
          "internalType": "bytes",
          "name": "contentHash",
          "type": "bytes"
        },
        {
          "internalType": "enum ERC20Guild.ProposalState",
          "name": "state",
          "type": "uint8"
        },
        {
          "internalType": "uint256[]",
          "name": "totalVotes",
          "type": "uint256[]"
        }
      ],
      "stateMutability": "view",
      "type": "function"
    },
    {
      "inputs": [],
      "name": "getProposalTime",
      "outputs": [
        {
          "internalType": "uint256",
          "name": "",
          "type": "uint256"
        }
      ],
      "stateMutability": "view",
      "type": "function"
    },
    {
      "inputs": [
        {
          "internalType": "bytes32",
          "name": "proposalId",
          "type": "bytes32"
        },
        {
          "internalType": "address",
          "name": "voter",
          "type": "address"
        }
      ],
      "name": "getProposalVotesOfVoter",
      "outputs": [
        {
          "internalType": "uint256",
          "name": "action",
          "type": "uint256"
        },
        {
          "internalType": "uint256",
          "name": "votingPower",
          "type": "uint256"
        }
      ],
      "stateMutability": "view",
      "type": "function"
    },
    {
      "inputs": [],
      "name": "getProposalsIds",
      "outputs": [
        {
          "internalType": "bytes32[]",
          "name": "",
          "type": "bytes32[]"
        }
      ],
      "stateMutability": "view",
      "type": "function"
    },
    {
      "inputs": [],
      "name": "getProposalsIdsLength",
      "outputs": [
        {
          "internalType": "uint256",
          "name": "",
          "type": "uint256"
        }
      ],
      "stateMutability": "view",
      "type": "function"
    },
    {
      "inputs": [
        {
          "internalType": "bytes32",
          "name": "signedVoteHash",
          "type": "bytes32"
        }
      ],
      "name": "getSignedVote",
      "outputs": [
        {
          "internalType": "bool",
          "name": "",
          "type": "bool"
        }
      ],
      "stateMutability": "view",
      "type": "function"
    },
    {
      "inputs": [],
      "name": "getTimeForExecution",
      "outputs": [
        {
          "internalType": "uint256",
          "name": "",
          "type": "uint256"
        }
      ],
      "stateMutability": "view",
      "type": "function"
    },
    {
      "inputs": [],
      "name": "getToken",
      "outputs": [
        {
          "internalType": "address",
          "name": "",
          "type": "address"
        }
      ],
      "stateMutability": "view",
      "type": "function"
    },
    {
      "inputs": [],
      "name": "getTokenVault",
      "outputs": [
        {
          "internalType": "address",
          "name": "",
          "type": "address"
        }
      ],
      "stateMutability": "view",
      "type": "function"
    },
    {
      "inputs": [],
      "name": "getTotalLocked",
      "outputs": [
        {
          "internalType": "uint256",
          "name": "",
          "type": "uint256"
        }
      ],
      "stateMutability": "view",
      "type": "function"
    },
    {
      "inputs": [],
      "name": "getTotalProposals",
      "outputs": [
        {
          "internalType": "uint256",
          "name": "",
          "type": "uint256"
        }
      ],
      "stateMutability": "view",
      "type": "function"
    },
    {
      "inputs": [],
      "name": "getVoteGas",
      "outputs": [
        {
          "internalType": "uint256",
          "name": "",
          "type": "uint256"
        }
      ],
      "stateMutability": "view",
      "type": "function"
    },
    {
      "inputs": [
        {
          "internalType": "address",
          "name": "voter",
          "type": "address"
        }
      ],
      "name": "getVoterLockTimestamp",
      "outputs": [
        {
          "internalType": "uint256",
          "name": "",
          "type": "uint256"
        }
      ],
      "stateMutability": "view",
      "type": "function"
    },
    {
      "inputs": [],
      "name": "getVotingPowerForProposalCreation",
      "outputs": [
        {
          "internalType": "uint256",
          "name": "",
          "type": "uint256"
        }
      ],
      "stateMutability": "view",
      "type": "function"
    },
    {
      "inputs": [],
      "name": "getVotingPowerForProposalExecution",
      "outputs": [
        {
          "internalType": "uint256",
          "name": "",
          "type": "uint256"
        }
      ],
      "stateMutability": "view",
      "type": "function"
    },
    {
      "inputs": [
        {
          "internalType": "address",
          "name": "voter",
          "type": "address"
        },
        {
          "internalType": "bytes32",
          "name": "proposalId",
          "type": "bytes32"
        },
        {
          "internalType": "uint256",
          "name": "action",
          "type": "uint256"
        },
        {
          "internalType": "uint256",
          "name": "votingPower",
          "type": "uint256"
        }
      ],
      "name": "hashVote",
      "outputs": [
        {
          "internalType": "bytes32",
          "name": "",
          "type": "bytes32"
        }
      ],
      "stateMutability": "pure",
      "type": "function"
    },
    {
      "inputs": [
        {
          "internalType": "address",
          "name": "_token",
          "type": "address"
        },
        {
          "internalType": "uint256",
          "name": "_proposalTime",
          "type": "uint256"
        },
        {
          "internalType": "uint256",
          "name": "_timeForExecution",
          "type": "uint256"
        },
        {
          "internalType": "uint256",
          "name": "_votingPowerForProposalExecution",
          "type": "uint256"
        },
        {
          "internalType": "uint256",
          "name": "_votingPowerForProposalCreation",
          "type": "uint256"
        },
        {
          "internalType": "string",
          "name": "_name",
          "type": "string"
        },
        {
          "internalType": "uint256",
          "name": "_voteGas",
          "type": "uint256"
        },
        {
          "internalType": "uint256",
          "name": "_maxGasPrice",
          "type": "uint256"
        },
        {
          "internalType": "uint256",
          "name": "_maxActiveProposals",
          "type": "uint256"
        },
        {
          "internalType": "uint256",
          "name": "_lockTime",
          "type": "uint256"
        },
        {
          "internalType": "address",
          "name": "_permissionRegistry",
          "type": "address"
        }
      ],
      "name": "initialize",
      "outputs": [],
      "stateMutability": "nonpayable",
      "type": "function"
    },
    {
      "inputs": [
        {
          "internalType": "bytes32",
          "name": "hash",
          "type": "bytes32"
        },
        {
          "internalType": "bytes",
          "name": "signature",
          "type": "bytes"
        }
      ],
      "name": "isValidSignature",
      "outputs": [
        {
          "internalType": "bytes4",
          "name": "magicValue",
          "type": "bytes4"
        }
      ],
      "stateMutability": "view",
      "type": "function"
    },
    {
      "inputs": [
        {
          "internalType": "uint256",
          "name": "tokenAmount",
          "type": "uint256"
        }
      ],
      "name": "lockTokens",
      "outputs": [],
      "stateMutability": "nonpayable",
      "type": "function"
    },
    {
      "inputs": [
        {
          "internalType": "uint256",
          "name": "_proposalTime",
          "type": "uint256"
        },
        {
          "internalType": "uint256",
          "name": "_timeForExecution",
          "type": "uint256"
        },
        {
          "internalType": "uint256",
          "name": "_votingPowerForProposalExecution",
          "type": "uint256"
        },
        {
          "internalType": "uint256",
          "name": "_votingPowerForProposalCreation",
          "type": "uint256"
        },
        {
          "internalType": "uint256",
          "name": "_voteGas",
          "type": "uint256"
        },
        {
          "internalType": "uint256",
          "name": "_maxGasPrice",
          "type": "uint256"
        },
        {
          "internalType": "uint256",
          "name": "_maxActiveProposals",
          "type": "uint256"
        },
        {
          "internalType": "uint256",
          "name": "_lockTime",
          "type": "uint256"
        }
      ],
      "name": "setConfig",
      "outputs": [],
      "stateMutability": "nonpayable",
      "type": "function"
    },
    {
      "inputs": [
        {
          "internalType": "bytes32",
          "name": "_hash",
          "type": "bytes32"
        },
        {
          "internalType": "bool",
          "name": "isValid",
          "type": "bool"
        }
      ],
      "name": "setEIP1271SignedHash",
      "outputs": [],
      "stateMutability": "nonpayable",
      "type": "function"
    },
    {
      "inputs": [
        {
          "internalType": "address[]",
          "name": "asset",
          "type": "address[]"
        },
        {
          "internalType": "address[]",
          "name": "to",
          "type": "address[]"
        },
        {
          "internalType": "bytes4[]",
          "name": "functionSignature",
          "type": "bytes4[]"
        },
        {
          "internalType": "uint256[]",
          "name": "valueAllowed",
          "type": "uint256[]"
        },
        {
          "internalType": "bool[]",
          "name": "allowance",
          "type": "bool[]"
        }
      ],
      "name": "setPermission",
      "outputs": [],
      "stateMutability": "nonpayable",
      "type": "function"
    },
    {
      "inputs": [
        {
          "internalType": "uint256",
          "name": "permissionDelay",
          "type": "uint256"
        }
      ],
      "name": "setPermissionDelay",
      "outputs": [],
      "stateMutability": "nonpayable",
      "type": "function"
    },
    {
      "inputs": [
        {
          "internalType": "bytes32",
          "name": "proposalId",
          "type": "bytes32"
        },
        {
          "internalType": "uint256",
          "name": "action",
          "type": "uint256"
        },
        {
          "internalType": "uint256",
          "name": "votingPower",
          "type": "uint256"
        },
        {
          "internalType": "address",
          "name": "voter",
          "type": "address"
        },
        {
          "internalType": "bytes",
          "name": "signature",
          "type": "bytes"
        }
      ],
      "name": "setSignedVote",
      "outputs": [],
      "stateMutability": "nonpayable",
      "type": "function"
    },
    {
      "inputs": [
        {
          "internalType": "bytes32[]",
          "name": "proposalIds",
          "type": "bytes32[]"
        },
        {
          "internalType": "uint256[]",
          "name": "actions",
          "type": "uint256[]"
        },
        {
          "internalType": "uint256[]",
          "name": "votingPowers",
          "type": "uint256[]"
        },
        {
          "internalType": "address[]",
          "name": "voters",
          "type": "address[]"
        },
        {
          "internalType": "bytes[]",
          "name": "signatures",
          "type": "bytes[]"
        }
      ],
      "name": "setSignedVotes",
      "outputs": [],
      "stateMutability": "nonpayable",
      "type": "function"
    },
    {
      "inputs": [
        {
          "internalType": "bytes32",
          "name": "proposalId",
          "type": "bytes32"
        },
        {
          "internalType": "uint256",
          "name": "action",
          "type": "uint256"
        },
        {
          "internalType": "uint256",
          "name": "votingPower",
          "type": "uint256"
        }
      ],
      "name": "setVote",
      "outputs": [],
      "stateMutability": "nonpayable",
      "type": "function"
    },
    {
      "inputs": [
        {
          "internalType": "bytes32[]",
          "name": "proposalIds",
          "type": "bytes32[]"
        },
        {
          "internalType": "uint256[]",
          "name": "actions",
          "type": "uint256[]"
        },
        {
          "internalType": "uint256[]",
          "name": "votingPowers",
          "type": "uint256[]"
        }
      ],
      "name": "setVotes",
      "outputs": [],
      "stateMutability": "nonpayable",
      "type": "function"
    },
    {
      "inputs": [
        {
          "internalType": "address",
          "name": "account",
          "type": "address"
        }
      ],
      "name": "votingPowerOf",
      "outputs": [
        {
          "internalType": "uint256",
          "name": "",
          "type": "uint256"
        }
      ],
      "stateMutability": "view",
      "type": "function"
    },
    {
      "inputs": [
        {
          "internalType": "address[]",
          "name": "accounts",
          "type": "address[]"
        }
      ],
      "name": "votingPowerOfMultiple",
      "outputs": [
        {
          "internalType": "uint256[]",
          "name": "",
          "type": "uint256[]"
        }
      ],
      "stateMutability": "view",
      "type": "function"
    },
    {
      "inputs": [
        {
          "internalType": "uint256",
          "name": "tokenAmount",
          "type": "uint256"
        }
      ],
      "name": "withdrawTokens",
      "outputs": [],
      "stateMutability": "nonpayable",
      "type": "function"
    },
    {
      "stateMutability": "payable",
      "type": "receive"
    }
  ],
  "bytecode": "0x608060405234801561001057600080fd5b50614e58806100206000396000f3fe6080604052600436106102525760003560e01c80636c8b72f611610138578063b2c342d5116100b0578063bcc3f3bd11610077578063bcc3f3bd14610793578063c0a4d64d146107c9578063c93e01e3146107de578063cac7d205146107f3578063f4732da614610827578063f5447c0a1461083c57005b8063b2c342d5146106e1578063b3b4706114610711578063b7c15f8d14610731578063b82bb28514610746578063bb2ce44c1461077357005b80638029eff1116100ff5780638029eff11461061957806389c98c061461065957806392b716541461066e578063a16fe3421461068e578063a5234bce146106ac578063ae619234146106cc57005b80636c8b72f61461058f5780636e27d889146105a457806377027ff4146105c4578063785b3ed8146105d95780637fa0ff29146105f957005b80632467ef94116101cb57806336f8f8d91161019257806336f8f8d9146104a65780633b72b3c7146104c65780633f330ff8146104fa578063430694cf1461051a57806354f2f7af146105515780636140b8141461056f57005b80632467ef94146103f857806329b412e31461040d5780632d5b17de1461042d5780632d757c3e1461044d578063315a095d1461048657005b80631626ba7e1161021a5780631626ba7e1461033457806316bbecde1461035457806317d7de7c146103745780631a5007dd1461039657806321df0da7146103ab5780632229a0e2146103e357005b80623a40d01461025b578063069dfc5b14610286578063088af182146102ba5780630a366a63146102dc578063130485fe146102ff57005b3661025957005b005b34801561026757600080fd5b50610270610885565b60405161027d91906137c0565b60405180910390f35b34801561029257600080fd5b506102a1635555555560e11b81565b6040516001600160e01b0319909116815260200161027d565b3480156102c657600080fd5b506102a16102d53660046138b9565b6020015190565b3480156102e857600080fd5b506102f16108dd565b60405190815260200161027d565b34801561030b57600080fd5b5061031f61031a366004613911565b610905565b6040805192835260208301919091520161027d565b34801561034057600080fd5b506102a161034f36600461393d565b61093a565b34801561036057600080fd5b5061025961036f366004613983565b610980565b34801561038057600080fd5b50610389610991565b60405161027d91906139fc565b3480156103a257600080fd5b50600a546102f1565b3480156103b757600080fd5b506000546201000090046001600160a01b03165b6040516001600160a01b03909116815260200161027d565b3480156103ef57600080fd5b506013546102f1565b34801561040457600080fd5b50600b546102f1565b34801561041957600080fd5b50610259610428366004613a0f565b610a1a565b34801561043957600080fd5b50610259610448366004613a28565b610aa3565b34801561045957600080fd5b506102f1610468366004613a92565b6001600160a01b03166000908152600f602052604090206001015490565b34801561049257600080fd5b506102596104a1366004613a0f565b610c00565b3480156104b257600080fd5b506102596104c1366004613aad565b610dbb565b3480156104d257600080fd5b506102a17fa9059cbb2ab09eb219583f4a59a5d0623ade346d962bcd4e46b11da047c9049b81565b34801561050657600080fd5b50610259610515366004613b5b565b610e8c565b34801561052657600080fd5b5061053a610535366004613a0f565b610ea6565b60405161027d9b9a99989796959493929190613cb1565b34801561055d57600080fd5b50600e546001600160a01b03166103cb565b34801561057b57600080fd5b5061025961058a366004613dff565b611229565b34801561059b57600080fd5b506007546102f1565b3480156105b057600080fd5b506102596105bf366004613a0f565b61132a565b3480156105d057600080fd5b506009546102f1565b3480156105e557600080fd5b506102596105f4366004613e96565b611420565b34801561060557600080fd5b50610259610614366004613fb0565b61149e565b34801561062557600080fd5b50610649610634366004613a0f565b60009081526010602052604090205460ff1690565b604051901515815260200161027d565b34801561066557600080fd5b506008546102f1565b34801561067a57600080fd5b506102f1610689366004614074565b61154e565b34801561069a57600080fd5b506001546001600160a01b03166103cb565b3480156106b857600080fd5b506102596106c7366004614197565b6115a5565b3480156106d857600080fd5b506102f1611b66565b3480156106ed57600080fd5b506106496106fc366004613a0f565b60009081526011602052604090205460ff1690565b34801561071d57600080fd5b5061025961072c366004613a0f565b611b7d565b34801561073d57600080fd5b506004546102f1565b34801561075257600080fd5b5061076661076136600461425b565b611b89565b60405161027d919061428f565b34801561077f57600080fd5b506102f161078e3660046142a2565b611c4c565b34801561079f57600080fd5b506102f16107ae366004613a92565b6001600160a01b03166000908152600f602052604090205490565b3480156107d557600080fd5b50600c546102f1565b3480156107ea57600080fd5b506003546102f1565b3480156107ff57600080fd5b506102a17f095ea7b334ae44009aa867bfb386f5c3b4b443ac6f0ee573fa91c4608fbadfba81565b34801561083357600080fd5b50600d546102f1565b34801561084857600080fd5b506108666108573660046138b9565b60248101516044909101519091565b604080516001600160a01b03909316835260208301919091520161027d565b606060138054806020026020016040519081016040528092919081815260200182805480156108d357602002820191906000526020600020905b8154815260200190600101908083116108bf575b5050505050905090565b60006109006127106108fa6006546108f4600d5490565b90611c67565b90611c73565b905090565b60008281526012602090815260408083206001600160a01b0385168452600a01909152902080546001909101545b9250929050565b60008061094a6107ae8585611c7f565b118015610965575060008381526011602052604090205460ff165b610970576000610979565b630b135d3f60e11b5b9392505050565b61098c33848484611ca3565b505050565b6060600280546109a09061437b565b80601f01602080910402602001604051908101604052809291908181526020018280546109cc9061437b565b80156108d35780601f106109ee576101008083540402835291602001916108d3565b820191906000526020600020905b8154815290600101906020018083116109fc57509395945050505050565b333014610a425760405162461bcd60e51b8152600401610a39906143b6565b60405180910390fd5b6001546040516329b412e360e01b8152600481018390526001600160a01b03909116906329b412e390602401600060405180830381600087803b158015610a8857600080fd5b505af1158015610a9c573d6000803e3d6000fd5b5050505050565b6000610ab18387878761154e565b60008181526010602052604090205490915060ff1615610b135760405162461bcd60e51b815260206004820152601960248201527f45524332304775696c643a20416c726561647920766f746564000000000000006044820152606401610a39565b610b7482610b6e836040517f19457468657265756d205369676e6564204d6573736167653a0a3332000000006020820152603c8101829052600090605c01604051602081830303815290604052805190602001209050919050565b90611c7f565b6001600160a01b0316836001600160a01b031614610bd45760405162461bcd60e51b815260206004820152601860248201527f45524332304775696c643a2057726f6e67207369676e657200000000000000006044820152606401610a39565b610be083878787611ca3565b6000908152601060205260409020805460ff191660011790555050505050565b336000908152600f6020526040902054811115610c7e5760405162461bcd60e51b815260206004820152603660248201527f45524332304775696c643a20556e61626c6520746f207769746864726177206d6044820152751bdc99481d1bdad95b9cc81d1a185b881b1bd8dad95960521b6064820152608401610a39565b336000908152600f60205260409020600101544211610cdf5760405162461bcd60e51b815260206004820152601f60248201527f45524332304775696c643a20546f6b656e73207374696c6c206c6f636b6564006044820152606401610a39565b336000908152600f6020526040902054610cf9908261200c565b336000908152600f6020526040902055600d54610d16908261200c565b600d55600e5460405163f3fef3a360e01b8152336004820152602481018390526001600160a01b039091169063f3fef3a390604401600060405180830381600087803b158015610d6557600080fd5b505af1158015610d79573d6000803e3d6000fd5b505060408051338152602081018590527f6352c5382c4a4578e712449ca65e83cdb392d045dfcf1cad9615189db2da244b93500190505b60405180910390a150565b600054610100900460ff1680610dd4575060005460ff16155b610e375760405162461bcd60e51b815260206004820152602e60248201527f496e697469616c697a61626c653a20636f6e747261637420697320616c72656160448201526d191e481a5b9a5d1a585b1a5e995960921b6064820152608401610a39565b600054610100900460ff16158015610e59576000805461ffff19166101011790555b610e6c8c8c8c8c8c8c8c8c8c8c8c612018565b8015610e7e576000805461ff00191690555b505050505050505050505050565b610e9c8888888888888888612429565b5050505050505050565b600081815260126020526040812080546001808301546002840154600985015486958695606095869586958995879586958895879592946001600160a01b0390921693600386019160048701916005880191610f02919061200c565b600888015484546040805160208084028201810190925282815260068c019360078d019360ff9091169260098e0192918a91830182828015610f6d57602002820191906000526020600020905b81546001600160a01b03168152600190910190602001808311610f4f575b5050505050975086805480602002602001604051908101604052809291908181526020016000905b82821015611041578382906000526020600020018054610fb49061437b565b80601f0160208091040260200160405190810160405280929190818152602001828054610fe09061437b565b801561102d5780601f106110025761010080835404028352916020019161102d565b820191906000526020600020905b81548152906001019060200180831161101057829003601f168201915b505050505081526020019060010190610f95565b5050505096508580548060200260200160405190810160405280929190818152602001828054801561109257602002820191906000526020600020905b81548152602001906001019080831161107e575b505050505095508380546110a59061437b565b80601f01602080910402602001604051908101604052809291908181526020018280546110d19061437b565b801561111e5780601f106110f35761010080835404028352916020019161111e565b820191906000526020600020905b81548152906001019060200180831161110157829003601f168201915b505050505093508280546111319061437b565b80601f016020809104026020016040519081016040528092919081815260200182805461115d9061437b565b80156111aa5780601f1061117f576101008083540402835291602001916111aa565b820191906000526020600020905b81548152906001019060200180831161118d57829003601f168201915b50505050509250808054806020026020016040519081016040528092919081815260200182805480156111fc57602002820191906000526020600020905b8154815260200190600101908083116111e8575b505050505090509b509b509b509b509b509b509b509b509b509b509b505091939597999b90929496989a50565b8051835114801561123b575081518351145b6112af576040805162461bcd60e51b81526020600482015260248101919091527f45524332304775696c643a2057726f6e67206c656e677468206f662070726f7060448201527f6f73616c4964732c20616374696f6e73206f7220766f74696e67506f776572736064820152608401610a39565b60005b835181101561132457611312338583815181106112d1576112d1614404565b60200260200101518584815181106112eb576112eb614404565b602002602001015185858151811061130557611305614404565b6020026020010151611ca3565b8061131c81614430565b9150506112b2565b50505050565b600e546040516311f9fbc960e21b8152336004820152602481018390526001600160a01b03909116906347e7ef2490604401600060405180830381600087803b15801561137657600080fd5b505af115801561138a573d6000803e3d6000fd5b5050336000908152600f60205260409020546113a99250905082612524565b336000908152600f6020526040902055600c546113c7904290612524565b336000908152600f6020526040902060010155600d546113e79082612524565b600d5560408051338152602081018390527fac87f20a77d28ee8bbb58ec87ea8fa968b3393efae1a368fd50b767c2847391c9101610db0565b33301461147e5760405162461bcd60e51b815260206004820152602660248201527f45524332304775696c643a204f6e6c792063616c6c61626c65206279207468656044820152650819dd5a5b1960d21b6064820152608401610a39565b600091825260116020526040909120805460ff1916911515919091179055565b60005b8551811015611546576115348682815181106114bf576114bf614404565b60200260200101518683815181106114d9576114d9614404565b60200260200101518684815181106114f3576114f3614404565b602002602001015186858151811061150d5761150d614404565b602002602001015186868151811061152757611527614404565b6020026020010151610aa3565b8061153e81614430565b9150506114a1565b505050505050565b6040516bffffffffffffffffffffffff19606086901b166020820152603481018490526054810183905260748101829052600090609401604051602081830303815290604052805190602001209050949350505050565b3330146115c45760405162461bcd60e51b8152600401610a39906143b6565b825184511480156115d6575081518451145b80156115e3575080518451145b80156115f0575084518451145b6116775760405162461bcd60e51b815260206004820152604c60248201527f45524332304775696c643a2057726f6e67206c656e677468206f66206173736560448201527f742c20746f2c2066756e6374696f6e5369676e6174757265206f7220616c6c6f60648201526b77616e63652061727261797360a01b608482015260a401610a39565b60005b845181101561180957835160009085908390811061169a5761169a614404565b60200260200101516001600160e01b031916141561170b5760405162461bcd60e51b815260206004820152602860248201527f45524332304775696c643a20456d707479207369676e617475726573206e6f7460448201526708185b1b1bddd95960c21b6064820152608401610a39565b60015486516001600160a01b0390911690639b2dccdd9088908490811061173457611734614404565b602002602001015187848151811061174e5761174e614404565b602002602001015187858151811061176857611768614404565b602002602001015187868151811061178257611782614404565b602002602001015187878151811061179c5761179c614404565b60200260200101516040518663ffffffff1660e01b81526004016117c495949392919061444b565b600060405180830381600087803b1580156117de57600080fd5b505af11580156117f2573d6000803e3d6000fd5b50505050808061180190614430565b91505061167a565b5060015460405163fd9233a960e01b81526000916001600160a01b03169063fd9233a990611861908490309081907f3f330ff86dd1b379b10f18bab5301bb628f28784f70482a01774042ed08621d590600401614486565b60206040518083038186803b15801561187957600080fd5b505afa15801561188d573d6000803e3d6000fd5b505050506040513d601f19601f820116820180604052508101906118b191906144b9565b116119245760405162461bcd60e51b815260206004820152603b60248201527f45524332304775696c643a20736574436f6e6669672066756e6374696f6e206160448201527f6c6c6f77616e63652063616e74206265207475726e6564206f666600000000006064820152608401610a39565b60015460405163fd9233a960e01b81526000916001600160a01b03169063fd9233a99061197b908490309081907fa5234bce363054cb38e3dfeca861627611d626c5c363ab716da0106f1600399c90600401614486565b60206040518083038186803b15801561199357600080fd5b505afa1580156119a7573d6000803e3d6000fd5b505050506040513d601f19601f820116820180604052508101906119cb91906144b9565b11611a3e5760405162461bcd60e51b815260206004820152603f60248201527f45524332304775696c643a207365745065726d697373696f6e2066756e63746960448201527f6f6e20616c6c6f77616e63652063616e74206265207475726e6564206f6666006064820152608401610a39565b60015460405163fd9233a960e01b81526000916001600160a01b03169063fd9233a990611a95908490309081907f29b412e31bd60c46f11150420851edff43d71c82bd81c13331d702842993c93790600401614486565b60206040518083038186803b158015611aad57600080fd5b505afa158015611ac1573d6000803e3d6000fd5b505050506040513d601f19601f82011682018060405250810190611ae591906144b9565b11610a9c5760405162461bcd60e51b8152602060048201526044602482018190527f45524332304775696c643a207365745065726d697373696f6e44656c61792066908201527f756e6374696f6e20616c6c6f77616e63652063616e74206265207475726e65646064820152631037b33360e11b608482015260a401610a39565b60006109006127106108fa6005546108f4600d5490565b611b8681612530565b50565b6060600082516001600160401b03811115611ba657611ba6613804565b604051908082528060200260200182016040528015611bcf578160200160208202803683370190505b50905060005b8351811015611c4557611c16848281518110611bf357611bf3614404565b60200260200101516001600160a01b03166000908152600f602052604090205490565b828281518110611c2857611c28614404565b602090810291909101015280611c3d81614430565b915050611bd5565b5092915050565b6000611c5c878787878787612df6565b979650505050505050565b600061097982846144d2565b600061097982846144f1565b6000806000611c8e8585613281565b91509150611c9b816132ee565b509392505050565b6000838152601260205260409020600201544210611d155760405162461bcd60e51b815260206004820152602960248201527f45524332304775696c643a2050726f706f73616c20656e6465642c2063616e74604482015268081899481d9bdd195960ba1b6064820152608401610a39565b80611d35856001600160a01b03166000908152600f602052604090205490565b10158015611d6a575060008381526012602090815260408083206001600160a01b0388168452600a0190915290206001015481115b611dc55760405162461bcd60e51b815260206004820152602660248201527f45524332304775696c643a20496e76616c696420766f74696e67506f77657220604482015265185b5bdd5b9d60d21b6064820152608401610a39565b60008381526012602090815260408083206001600160a01b0388168452600a019091529020541580611e1b575060008381526012602090815260408083206001600160a01b0388168452600a0190915290205482145b611e8d5760405162461bcd60e51b815260206004820152603f60248201527f45524332304775696c643a2043616e74206368616e676520616374696f6e207660448201527f6f7465642c206f6e6c7920696e63726561736520766f74696e67506f776572006064820152608401610a39565b60008381526012602081815260408084206001600160a01b0389168552600a8101835290842060010154938790529190526009018054611efc928492611ef69287908110611edd57611edd614404565b906000526020600020015461200c90919063ffffffff16565b90612524565b6000848152601260205260409020600901805484908110611f1f57611f1f614404565b6000918252602080832091909101929092558481526012825260408082206001600160a01b038816808452600a9091018452918190208581556001018490558051918252918101839052839185917f583c62f152711bcb1ca6186c1065821ff17a7cbe226dcb559a1c889dcf0d769b910160405180910390a360075415611324576000611fc3611fba6008543a6134a990919063ffffffff16565b60075490611c67565b9050804710610a9c5760405133908290600081818185875af1925050503d8060008114610e9c576040519150601f19603f3d011682016040523d82523d6000602084013e610e9c565b60006109798284614513565b6001600160a01b038b1661207d5760405162461bcd60e51b815260206004820152602660248201527f45524332304775696c643a20746f6b656e2063616e74206265207a65726f206160448201526564647265737360d01b6064820152608401610a39565b60008a1161209d5760405162461bcd60e51b8152600401610a399061452a565b898210156120bd5760405162461bcd60e51b8152600401610a3990614578565b600088116120dd5760405162461bcd60e51b8152600401610a39906145d5565b85516120f09060029060208901906135db565b506000805462010000600160b01b031916620100006001600160a01b038e160217905560405161211f9061365f565b604051809103906000f08015801561213b573d6000803e3d6000fd5b50600e80546001600160a01b0319166001600160a01b0392831690811790915560005460405163485cc95560e01b81526201000090910490921660048301523060248301529063485cc95590604401600060405180830381600087803b1580156121a457600080fd5b505af11580156121b8573d6000803e3d6000fd5b50505060038b905550600489815560058990556006889055600786905560088590556009849055600c839055600180546001600160a01b0319166001600160a01b0384169081178255604051639b2dccdd60e01b81529092639b2dccdd926122499260009230927f3f330ff86dd1b379b10f18bab5301bb628f28784f70482a01774042ed08621d59285920161444b565b600060405180830381600087803b15801561226357600080fd5b505af1158015612277573d6000803e3d6000fd5b505060018054604051639b2dccdd60e01b81526001600160a01b039091169350639b2dccdd92506122d49160009130917fa5234bce363054cb38e3dfeca861627611d626c5c363ab716da0106f1600399c9184919060040161444b565b600060405180830381600087803b1580156122ee57600080fd5b505af1158015612302573d6000803e3d6000fd5b505060018054604051639b2dccdd60e01b81526001600160a01b039091169350639b2dccdd925061235f9160009130917f29b412e31bd60c46f11150420851edff43d71c82bd81c13331d702842993c9379184919060040161444b565b600060405180830381600087803b15801561237957600080fd5b505af115801561238d573d6000803e3d6000fd5b505060018054604051639b2dccdd60e01b81526001600160a01b039091169350639b2dccdd92506123ea9160009130917f785b3ed8f1babbb20b6a85d572b5e50637a4c77796e0e444290d8b90490101d69184919060040161444b565b600060405180830381600087803b15801561240457600080fd5b505af1158015612418573d6000803e3d6000fd5b505050505050505050505050505050565b33301461249e5760405162461bcd60e51b815260206004820152603f60248201527f45524332304775696c643a204f6e6c792063616c6c61626c652062792045524360448201527f32306775696c6420697473656c66207768656e20696e697469616c697a6564006064820152608401610a39565b600088116124be5760405162461bcd60e51b8152600401610a399061452a565b878110156124de5760405162461bcd60e51b8152600401610a3990614578565b600086116124fe5760405162461bcd60e51b8152600401610a39906145d5565b600397909755600495909555600593909355600691909155600755600855600955600c55565b60006109798284614632565b60145460ff161561258f5760405162461bcd60e51b8152602060048201526024808201527f45524332304775696c643a2050726f706f73616c20756e6465722065786563756044820152633a34b7b760e11b6064820152608401610a39565b600160008281526012602052604090206008015460ff1660048111156125b7576125b7613c79565b146126125760405162461bcd60e51b815260206004820152602560248201527f45524332304775696c643a2050726f706f73616c20616c72656164792065786560448201526418dd5d195960da1b6064820152608401610a39565b60008181526012602052604090206002015442116126805760405162461bcd60e51b815260206004820152602560248201527f45524332304775696c643a2050726f706f73616c206861736e277420656e646560448201526419081e595d60da1b6064820152608401610a39565b600060015b60008381526012602052604090206009015481101561275a576126a6611b66565b60008481526012602052604090206009018054839081106126c9576126c9614404565b90600052602060002001541015801561273f5750600083815260126020526040902060090180548390811061270057612700614404565b906000526020600020015460126000858152602001908152602001600020600901828154811061273257612732614404565b9060005260206000200154115b15612748578091505b8061275281614430565b915050612685565b816127a7576000838152601260205260409020600801805460ff191660029081179091558390600080516020614e03833981519152905b60405190815260200160405180910390a2612de0565b60045460008481526012602052604090206002015442916127c89190612524565b1015612804576000838152601260205260409020600801805460ff191660049081179091558390600080516020614e0383398151915290612791565b600083815260126020526040812060088101805460ff191660031790556009015461284c9061283490600161200c565b60008681526012602052604090206003015490611c73565b905061286361285c84600161200c565b8290611c67565b915060006128718383612524565b90505b80831015612dba57600085815260126020526040812060030180548590811061289f5761289f614404565b6000918252602090912001546001600160a01b0316148015906128f9575060008581526012602052604081206004018054859081106128e0576128e0614404565b9060005260206000200180546128f59061437b565b9050115b15612da857600085815260126020526040812060040180546129c091908690811061292657612926614404565b90600052602060002001805461293b9061437b565b80601f01602080910402602001604051908101604052809291908181526020018280546129679061437b565b80156129b45780601f10612989576101008083540402835291602001916129b4565b820191906000526020600020905b81548152906001019060200180831161299757829003601f168201915b50505050506020015190565b90506000806012600089815260200190815260200160002060030186815481106129ec576129ec614404565b60009182526020808320909101548a835260129091526040822060050180546001600160a01b0390921693509088908110612a2957612a29614404565b600091825260209091200154905063a9059cbb60e01b6001600160e01b031985161480612a66575063095ea7b360e01b6001600160e01b03198516145b15612b81576000898152601260205260409020600301805488908110612a8e57612a8e614404565b60009182526020808320909101548b8352601290915260409091206004018054635555555560e11b96506001600160a01b039092169450612b7b9189908110612ad957612ad9614404565b906000526020600020018054612aee9061437b565b80601f0160208091040260200160405190810160405280929190818152602001828054612b1a9061437b565b8015612b675780601f10612b3c57610100808354040283529160200191612b67565b820191906000526020600020905b815481529060010190602001808311612b4a57829003601f168201915b505050505060248101516044909101519091565b90925090505b6001546040516306f09e0b60e01b81526001600160a01b03858116600483015230602483015284811660448301526001600160e01b03198716606483015260848201849052909116906306f09e0b9060a401600060405180830381600087803b158015612bed57600080fd5b505af1925050508015612bfe575060015b612c5057612c0a61464a565b806308c379a01415612c445750612c1f614666565b80612c2a5750612c46565b8060405162461bcd60e51b8152600401610a3991906139fc565b505b3d6000803e3d6000fd5b6014805460ff191660011790556000898152601260205260408120600301805489908110612c8057612c80614404565b60009182526020808320909101548c83526012909152604090912060050180546001600160a01b03909216918a908110612cbc57612cbc614404565b9060005260206000200154601260008d81526020019081526020016000206004018a81548110612cee57612cee614404565b90600052602060002001604051612d0591906146ef565b60006040518083038185875af1925050503d8060008114612d42576040519150601f19603f3d011682016040523d82523d6000602084013e612d47565b606091505b5050905080612d985760405162461bcd60e51b815260206004820181905260248201527f45524332304775696c643a2050726f706f73616c2063616c6c206661696c65646044820152606401610a39565b50506014805460ff191690555050505b82612db281614430565b935050612874565b84600080516020614e03833981519152600360405190815260200160405180910390a250505b600b54612dee90600161200c565b600b55505050565b6000612e0160095490565b600b5410612e705760405162461bcd60e51b815260206004820152603660248201527f45524332304775696c643a204d6178696d756d20616d6f756e74206f662061636044820152751d1a5d99481c1c9bdc1bdcd85b1cc81c995858da195960521b6064820152608401610a39565b612e786108dd565b336000908152600f60205260409020541015612eee5760405162461bcd60e51b815260206004820152602f60248201527f45524332304775696c643a204e6f7420656e6f75676820766f74657320746f2060448201526e18dc99585d19481c1c9bdc1bdcd85b608a1b6064820152608401610a39565b85518751148015612f00575084518751145b612f695760405162461bcd60e51b815260206004820152603460248201527f45524332304775696c643a2057726f6e67206c656e677468206f6620746f2c2060448201527364617461206f722076616c75652061727261797360601b6064820152608401610a39565b6000875111612fd45760405162461bcd60e51b815260206004820152603160248201527f45524332304775696c643a20746f2c20646174612076616c7565206172726179604482015270732063616e6e6f7420626520656d70747960781b6064820152608401610a39565b60005b875181101561308f5760015488516001600160a01b039091169089908390811061300357613003614404565b60200260200101516001600160a01b0316141561307d5760405162461bcd60e51b815260206004820152603260248201527f45524332304775696c643a2043616e742063616c6c207065726d697373696f6e604482015271207265676973747279206469726563746c7960701b6064820152608401610a39565b8061308781614430565b915050612fd7565b50600a546040516bffffffffffffffffffffffff193360601b16602082015242603482015260548101919091526000906074016040516020818303038152906040528051906020012090506130f06001600a5461252490919063ffffffff16565b600a55600081815260126020526040902080546001600160a01b0319163317815542600182018190556003546131269190612524565b6002820155885161314090600383019060208c019061366c565b50875161315690600483019060208b01906136c1565b50865161316c90600583019060208a019061371a565b50845161318290600683019060208801906135db565b50835161319890600783019060208701906135db565b506131a4866001612524565b6001600160401b038111156131bb576131bb613804565b6040519080825280602002602001820160405280156131e4578160200160208202803683370190505b5080516131fb91600984019160209091019061371a565b5060088101805460ff19166001908117909155600b5461321a91612524565b600b5581600080516020614e03833981519152600160405190815260200160405180910390a250601380546001810182556000919091527f66de8ffda797e3de9c05e8fc57b3bf0ec28a930d40b0d285d93c06501cf6a09001819055979650505050505050565b6000808251604114156132b85760208301516040840151606085015160001a6132ac878285856134bf565b94509450505050610933565b8251604014156132e257602083015160408401516132d78683836135ac565b935093505050610933565b50600090506002610933565b600081600481111561330257613302613c79565b141561330b5750565b600181600481111561331f5761331f613c79565b141561336d5760405162461bcd60e51b815260206004820152601860248201527f45434453413a20696e76616c6964207369676e617475726500000000000000006044820152606401610a39565b600281600481111561338157613381613c79565b14156133cf5760405162461bcd60e51b815260206004820152601f60248201527f45434453413a20696e76616c6964207369676e6174757265206c656e677468006044820152606401610a39565b60038160048111156133e3576133e3613c79565b141561343c5760405162461bcd60e51b815260206004820152602260248201527f45434453413a20696e76616c6964207369676e6174757265202773272076616c604482015261756560f01b6064820152608401610a39565b600481600481111561345057613450613c79565b1415611b865760405162461bcd60e51b815260206004820152602260248201527f45434453413a20696e76616c6964207369676e6174757265202776272076616c604482015261756560f01b6064820152608401610a39565b60008183106134b85781610979565b5090919050565b6000807f7fffffffffffffffffffffffffffffff5d576e7357a4501ddfe92f46681b20a08311156134f657506000905060036135a3565b8460ff16601b1415801561350e57508460ff16601c14155b1561351f57506000905060046135a3565b6040805160008082526020820180845289905260ff881692820192909252606081018690526080810185905260019060a0016020604051602081039080840390855afa158015613573573d6000803e3d6000fd5b5050604051601f1901519150506001600160a01b03811661359c576000600192509250506135a3565b9150600090505b94509492505050565b6000806001600160ff1b03831660ff84901c601b016135cd878288856134bf565b935093505050935093915050565b8280546135e79061437b565b90600052602060002090601f016020900481019282613609576000855561364f565b82601f1061362257805160ff191683800117855561364f565b8280016001018555821561364f579182015b8281111561364f578251825591602001919060010190613634565b5061365b929150613754565b5090565b6106778061478c83390190565b82805482825590600052602060002090810192821561364f579160200282015b8281111561364f57825182546001600160a01b0319166001600160a01b0390911617825560209092019160019091019061368c565b82805482825590600052602060002090810192821561370e579160200282015b8281111561370e57825180516136fe9184916020909101906135db565b50916020019190600101906136e1565b5061365b929150613769565b82805482825590600052602060002090810192821561364f579160200282018281111561364f578251825591602001919060010190613634565b5b8082111561365b5760008155600101613755565b8082111561365b57600061377d8282613786565b50600101613769565b5080546137929061437b565b6000825580601f106137a2575050565b601f016020900490600052602060002090810190611b869190613754565b6020808252825182820181905260009190848201906040850190845b818110156137f8578351835292840192918401916001016137dc565b50909695505050505050565b634e487b7160e01b600052604160045260246000fd5b601f8201601f191681016001600160401b038111828210171561383f5761383f613804565b6040525050565b600082601f83011261385757600080fd5b81356001600160401b0381111561387057613870613804565b604051613887601f8301601f19166020018261381a565b81815284602083860101111561389c57600080fd5b816020850160208301376000918101602001919091529392505050565b6000602082840312156138cb57600080fd5b81356001600160401b038111156138e157600080fd5b6138ed84828501613846565b949350505050565b80356001600160a01b038116811461390c57600080fd5b919050565b6000806040838503121561392457600080fd5b82359150613934602084016138f5565b90509250929050565b6000806040838503121561395057600080fd5b8235915060208301356001600160401b0381111561396d57600080fd5b61397985828601613846565b9150509250929050565b60008060006060848603121561399857600080fd5b505081359360208301359350604090920135919050565b6000815180845260005b818110156139d5576020818501810151868301820152016139b9565b818111156139e7576000602083870101525b50601f01601f19169290920160200192915050565b60208152600061097960208301846139af565b600060208284031215613a2157600080fd5b5035919050565b600080600080600060a08688031215613a4057600080fd5b853594506020860135935060408601359250613a5e606087016138f5565b915060808601356001600160401b03811115613a7957600080fd5b613a8588828901613846565b9150509295509295909350565b600060208284031215613aa457600080fd5b610979826138f5565b60008060008060008060008060008060006101608c8e031215613acf57600080fd5b613ad88c6138f5565b9a5060208c0135995060408c0135985060608c0135975060808c0135965060a08c01356001600160401b03811115613b0f57600080fd5b613b1b8e828f01613846565b96505060c08c0135945060e08c013593506101008c013592506101208c01359150613b496101408d016138f5565b90509295989b509295989b9093969950565b600080600080600080600080610100898b031215613b7857600080fd5b505086359860208801359850604088013597606081013597506080810135965060a0810135955060c0810135945060e0013592509050565b600081518084526020808501945080840160005b83811015613be95781516001600160a01b031687529582019590820190600101613bc4565b509495945050505050565b600081518084526020808501808196508360051b8101915082860160005b85811015613c3c578284038952613c2a8483516139af565b98850198935090840190600101613c12565b5091979650505050505050565b600081518084526020808501945080840160005b83811015613be957815187529582019590820190600101613c5d565b634e487b7160e01b600052602160045260246000fd5b60058110613cad57634e487b7160e01b600052602160045260246000fd5b9052565b600061016060018060a01b038e1683528c60208401528b6040840152806060840152613cdf8184018c613bb0565b90508281036080840152613cf3818b613bf4565b905082810360a0840152613d07818a613c49565b90508760c084015282810360e0840152613d2181886139af565b9050828103610100840152613d3681876139af565b9050613d46610120840186613c8f565b828103610140840152613d598185613c49565b9e9d5050505050505050505050505050565b60006001600160401b03821115613d8457613d84613804565b5060051b60200190565b600082601f830112613d9f57600080fd5b81356020613dac82613d6b565b604051613db9828261381a565b83815260059390931b8501820192828101915086841115613dd957600080fd5b8286015b84811015613df45780358352918301918301613ddd565b509695505050505050565b600080600060608486031215613e1457600080fd5b83356001600160401b0380821115613e2b57600080fd5b613e3787838801613d8e565b94506020860135915080821115613e4d57600080fd5b613e5987838801613d8e565b93506040860135915080821115613e6f57600080fd5b50613e7c86828701613d8e565b9150509250925092565b8035801515811461390c57600080fd5b60008060408385031215613ea957600080fd5b8235915061393460208401613e86565b600082601f830112613eca57600080fd5b81356020613ed782613d6b565b604051613ee4828261381a565b83815260059390931b8501820192828101915086841115613f0457600080fd5b8286015b84811015613df457613f19816138f5565b8352918301918301613f08565b600082601f830112613f3757600080fd5b81356020613f4482613d6b565b604051613f51828261381a565b83815260059390931b8501820192828101915086841115613f7157600080fd5b8286015b84811015613df45780356001600160401b03811115613f945760008081fd5b613fa28986838b0101613846565b845250918301918301613f75565b600080600080600060a08688031215613fc857600080fd5b85356001600160401b0380821115613fdf57600080fd5b613feb89838a01613d8e565b9650602088013591508082111561400157600080fd5b61400d89838a01613d8e565b9550604088013591508082111561402357600080fd5b61402f89838a01613d8e565b9450606088013591508082111561404557600080fd5b61405189838a01613eb9565b9350608088013591508082111561406757600080fd5b50613a8588828901613f26565b6000806000806080858703121561408a57600080fd5b614093856138f5565b966020860135965060408601359560600135945092505050565b600082601f8301126140be57600080fd5b813560206140cb82613d6b565b6040516140d8828261381a565b83815260059390931b85018201928281019150868411156140f857600080fd5b8286015b84811015613df45780356001600160e01b03198116811461411d5760008081fd5b83529183019183016140fc565b600082601f83011261413b57600080fd5b8135602061414882613d6b565b604051614155828261381a565b83815260059390931b850182019282810191508684111561417557600080fd5b8286015b84811015613df45761418a81613e86565b8352918301918301614179565b600080600080600060a086880312156141af57600080fd5b85356001600160401b03808211156141c657600080fd5b6141d289838a01613eb9565b965060208801359150808211156141e857600080fd5b6141f489838a01613eb9565b9550604088013591508082111561420a57600080fd5b61421689838a016140ad565b9450606088013591508082111561422c57600080fd5b61423889838a01613d8e565b9350608088013591508082111561424e57600080fd5b50613a858882890161412a565b60006020828403121561426d57600080fd5b81356001600160401b0381111561428357600080fd5b6138ed84828501613eb9565b6020815260006109796020830184613c49565b60008060008060008060c087890312156142bb57600080fd5b86356001600160401b03808211156142d257600080fd5b6142de8a838b01613eb9565b975060208901359150808211156142f457600080fd5b6143008a838b01613f26565b9650604089013591508082111561431657600080fd5b6143228a838b01613d8e565b955060608901359450608089013591508082111561433f57600080fd5b61434b8a838b01613846565b935060a089013591508082111561436157600080fd5b5061436e89828a01613846565b9150509295509295509295565b600181811c9082168061438f57607f821691505b602082108114156143b057634e487b7160e01b600052602260045260246000fd5b50919050565b6020808252602e908201527f45524332304775696c643a204f6e6c792063616c6c61626c652062792045524360408201526d191833bab4b6321034ba39b2b63360911b606082015260800190565b634e487b7160e01b600052603260045260246000fd5b634e487b7160e01b600052601160045260246000fd5b60006000198214156144445761444461441a565b5060010190565b6001600160a01b0395861681529390941660208401526001600160e01b03199190911660408301526060820152901515608082015260a00190565b6001600160a01b0394851681529284166020840152921660408201526001600160e01b0319909116606082015260800190565b6000602082840312156144cb57600080fd5b5051919050565b60008160001904831182151516156144ec576144ec61441a565b500290565b60008261450e57634e487b7160e01b600052601260045260246000fd5b500490565b6000828210156145255761452561441a565b500390565b6020808252602e908201527f45524332304775696c643a2070726f706f73616c2074696d652068617320746f60408201526d0206265206d6f72652074686120360941b606082015260800190565b6020808252603e908201527f45524332304775696c643a206c6f636b54696d652068617320746f206265206860408201527f6967686572206f7220657175616c20746f2070726f706f73616c54696d650000606082015260800190565b6020808252603c908201527f45524332304775696c643a20766f74696e6720706f77657220666f722065786560408201527f637574696f6e2068617320746f206265206d6f7265207468616e203000000000606082015260800190565b600082198211156146455761464561441a565b500190565b600060033d11156146635760046000803e5060005160e01c5b90565b600060443d10156146745790565b6040516003193d81016004833e81513d6001600160401b0381602484011181841117156146a357505050505090565b82850191508151818111156146bb5750505050505090565b843d87010160208285010111156146d55750505050505090565b6146e46020828601018761381a565b509095945050505050565b600080835481600182811c91508083168061470b57607f831692505b602080841082141561472b57634e487b7160e01b86526022600452602486fd5b81801561473f57600181146147505761477d565b60ff1986168952848901965061477d565b60008a81526020902060005b868110156147755781548b82015290850190830161475c565b505084890196505b50949897505050505050505056fe60806040526001805460ff60a01b1916905534801561001d57600080fd5b5061064a8061002d6000396000f3fe608060405234801561001057600080fd5b50600436106100935760003560e01c8063485cc95511610066578063485cc9551461012f5780636e9960c314610142578063f3fef3a314610153578063f851a44014610166578063fc0c546a1461017957600080fd5b8063158ef93e1461009857806321df0da7146100c157806327e235e3146100ec57806347e7ef241461011a575b600080fd5b6001546100ac90600160a01b900460ff1681565b60405190151581526020015b60405180910390f35b6000546201000090046001600160a01b03165b6040516001600160a01b0390911681526020016100b8565b61010c6100fa366004610535565b60026020526000908152604090205481565b6040519081526020016100b8565b61012d610128366004610550565b610192565b005b61012d61013d36600461057a565b6102de565b6001546001600160a01b03166100d4565b61012d610161366004610550565b6103d9565b6001546100d4906001600160a01b031681565b6000546100d4906201000090046001600160a01b031681565b600154600160a01b900460ff166101f05760405162461bcd60e51b815260206004820152601a60248201527f546f6b656e5661756c743a204e6f7420696e6974696c697a656400000000000060448201526064015b60405180910390fd5b6001546001600160a01b0316331461020757600080fd5b6000546040516323b872dd60e01b81526001600160a01b0384811660048301523060248301526044820184905262010000909204909116906323b872dd90606401602060405180830381600087803b15801561026257600080fd5b505af1158015610276573d6000803e3d6000fd5b505050506040513d601f19601f8201168201806040525081019061029a91906105ad565b506001600160a01b0382166000908152600260205260409020546102be90826104fa565b6001600160a01b0390921660009081526002602052604090209190915550565b600054610100900460ff16806102f7575060005460ff16155b61035a5760405162461bcd60e51b815260206004820152602e60248201527f496e697469616c697a61626c653a20636f6e747261637420697320616c72656160448201526d191e481a5b9a5d1a585b1a5e995960921b60648201526084016101e7565b600054610100900460ff1615801561037c576000805461ffff19166101011790555b600080546001600160a01b03808616620100000262010000600160b01b031990921691909117909155600180546001600160a81b03191691841691909117600160a01b17905580156103d4576000805461ff00191690555b505050565b600154600160a01b900460ff166104325760405162461bcd60e51b815260206004820152601a60248201527f546f6b656e5661756c743a204e6f7420696e6974696c697a656400000000000060448201526064016101e7565b6001546001600160a01b0316331461044957600080fd5b60005460405163a9059cbb60e01b81526001600160a01b03848116600483015260248201849052620100009092049091169063a9059cbb90604401602060405180830381600087803b15801561049e57600080fd5b505af11580156104b2573d6000803e3d6000fd5b505050506040513d601f19601f820116820180604052508101906104d691906105ad565b506001600160a01b0382166000908152600260205260409020546102be908261050d565b600061050682846105e5565b9392505050565b600061050682846105fd565b80356001600160a01b038116811461053057600080fd5b919050565b60006020828403121561054757600080fd5b61050682610519565b6000806040838503121561056357600080fd5b61056c83610519565b946020939093013593505050565b6000806040838503121561058d57600080fd5b61059683610519565b91506105a460208401610519565b90509250929050565b6000602082840312156105bf57600080fd5b8151801515811461050657600080fd5b634e487b7160e01b600052601160045260246000fd5b600082198211156105f8576105f86105cf565b500190565b60008282101561060f5761060f6105cf565b50039056fea26469706673582212205e604c823716fd4f2347f8433037f1c8e36795b36e3c8f406c67235176a7f99064736f6c63430008080033fee62a9eec0be50eb061c711990ef0f1e17b40ea131d9347b0468acdaf8bf243a264697066735822122056c8780cbcc5c633baba1cf9b574143d9a03adc1178243a313b350baa403738564736f6c63430008080033",
  "linkReferences": {},
  "deployedLinkReferences": {}
}