{
  "_format": "hh-sol-artifact-1",
  "contractName": "DxController",
  "sourceName": "dxdao-contracts/contracts/dxdao/DxController.sol",
  "abi": [
    {
      "inputs": [
        {
          "internalType": "contract Avatar",
          "name": "_avatar",
          "type": "address"
        }
      ],
      "payable": false,
      "stateMutability": "nonpayable",
      "type": "constructor"
    },
    {
      "anonymous": false,
      "inputs": [
        {
          "indexed": true,
          "internalType": "address",
          "name": "_globalConstraint",
          "type": "address"
        },
        {
          "indexed": false,
          "internalType": "bytes32",
          "name": "_params",
          "type": "bytes32"
        },
        {
          "indexed": false,
          "internalType": "enum GlobalConstraintInterface.CallPhase",
          "name": "_when",
          "type": "uint8"
        }
      ],
      "name": "AddGlobalConstraint",
      "type": "event"
    },
    {
      "anonymous": false,
      "inputs": [
        {
          "indexed": true,
          "internalType": "address",
          "name": "_sender",
          "type": "address"
        },
        {
          "indexed": true,
          "internalType": "address",
          "name": "_from",
          "type": "address"
        },
        {
          "indexed": false,
          "internalType": "uint256",
          "name": "_amount",
          "type": "uint256"
        }
      ],
      "name": "BurnReputation",
      "type": "event"
    },
    {
      "anonymous": false,
      "inputs": [
        {
          "indexed": true,
          "internalType": "address",
          "name": "_sender",
          "type": "address"
        },
        {
          "indexed": true,
          "internalType": "address",
          "name": "_to",
          "type": "address"
        },
        {
          "indexed": false,
          "internalType": "uint256",
          "name": "_amount",
          "type": "uint256"
        }
      ],
      "name": "MintReputation",
      "type": "event"
    },
    {
      "anonymous": false,
      "inputs": [
        {
          "indexed": true,
          "internalType": "address",
          "name": "_sender",
          "type": "address"
        },
        {
          "indexed": true,
          "internalType": "address",
          "name": "_beneficiary",
          "type": "address"
        },
        {
          "indexed": false,
          "internalType": "uint256",
          "name": "_amount",
          "type": "uint256"
        }
      ],
      "name": "MintTokens",
      "type": "event"
    },
    {
      "anonymous": false,
      "inputs": [
        {
          "indexed": true,
          "internalType": "address",
          "name": "_sender",
          "type": "address"
        },
        {
          "indexed": true,
          "internalType": "address",
          "name": "_scheme",
          "type": "address"
        }
      ],
      "name": "RegisterScheme",
      "type": "event"
    },
    {
      "anonymous": false,
      "inputs": [
        {
          "indexed": true,
          "internalType": "address",
          "name": "_globalConstraint",
          "type": "address"
        },
        {
          "indexed": false,
          "internalType": "uint256",
          "name": "_index",
          "type": "uint256"
        },
        {
          "indexed": false,
          "internalType": "bool",
          "name": "_isPre",
          "type": "bool"
        }
      ],
      "name": "RemoveGlobalConstraint",
      "type": "event"
    },
    {
      "anonymous": false,
      "inputs": [
        {
          "indexed": true,
          "internalType": "address",
          "name": "_sender",
          "type": "address"
        },
        {
          "indexed": true,
          "internalType": "address",
          "name": "_scheme",
          "type": "address"
        }
      ],
      "name": "UnregisterScheme",
      "type": "event"
    },
    {
      "anonymous": false,
      "inputs": [
        {
          "indexed": true,
          "internalType": "address",
          "name": "_oldController",
          "type": "address"
        },
        {
          "indexed": false,
          "internalType": "address",
          "name": "_newController",
          "type": "address"
        }
      ],
      "name": "UpgradeController",
      "type": "event"
    },
    {
      "payable": false,
      "stateMutability": "nonpayable",
      "type": "fallback"
    },
    {
      "constant": false,
      "inputs": [
        {
          "internalType": "address",
          "name": "_globalConstraint",
          "type": "address"
        },
        {
          "internalType": "bytes32",
          "name": "_params",
          "type": "bytes32"
        },
        {
          "internalType": "address",
          "name": "_avatar",
          "type": "address"
        }
      ],
      "name": "addGlobalConstraint",
      "outputs": [
        {
          "internalType": "bool",
          "name": "",
          "type": "bool"
        }
      ],
      "payable": false,
      "stateMutability": "nonpayable",
      "type": "function"
    },
    {
      "constant": true,
      "inputs": [],
      "name": "avatar",
      "outputs": [
        {
          "internalType": "contract Avatar",
          "name": "",
          "type": "address"
        }
      ],
      "payable": false,
      "stateMutability": "view",
      "type": "function"
    },
    {
      "constant": false,
      "inputs": [
        {
          "internalType": "uint256",
          "name": "_amount",
          "type": "uint256"
        },
        {
          "internalType": "address",
          "name": "_from",
          "type": "address"
        },
        {
          "internalType": "address",
          "name": "_avatar",
          "type": "address"
        }
      ],
      "name": "burnReputation",
      "outputs": [
        {
          "internalType": "bool",
          "name": "",
          "type": "bool"
        }
      ],
      "payable": false,
      "stateMutability": "nonpayable",
      "type": "function"
    },
    {
      "constant": false,
      "inputs": [
        {
          "internalType": "contract IERC20",
          "name": "_externalToken",
          "type": "address"
        },
        {
          "internalType": "address",
          "name": "_spender",
          "type": "address"
        },
        {
          "internalType": "uint256",
          "name": "_value",
          "type": "uint256"
        },
        {
          "internalType": "contract Avatar",
          "name": "_avatar",
          "type": "address"
        }
      ],
      "name": "externalTokenApproval",
      "outputs": [
        {
          "internalType": "bool",
          "name": "",
          "type": "bool"
        }
      ],
      "payable": false,
      "stateMutability": "nonpayable",
      "type": "function"
    },
    {
      "constant": false,
      "inputs": [
        {
          "internalType": "contract IERC20",
          "name": "_externalToken",
          "type": "address"
        },
        {
          "internalType": "address",
          "name": "_to",
          "type": "address"
        },
        {
          "internalType": "uint256",
          "name": "_value",
          "type": "uint256"
        },
        {
          "internalType": "contract Avatar",
          "name": "_avatar",
          "type": "address"
        }
      ],
      "name": "externalTokenTransfer",
      "outputs": [
        {
          "internalType": "bool",
          "name": "",
          "type": "bool"
        }
      ],
      "payable": false,
      "stateMutability": "nonpayable",
      "type": "function"
    },
    {
      "constant": false,
      "inputs": [
        {
          "internalType": "contract IERC20",
          "name": "_externalToken",
          "type": "address"
        },
        {
          "internalType": "address",
          "name": "_from",
          "type": "address"
        },
        {
          "internalType": "address",
          "name": "_to",
          "type": "address"
        },
        {
          "internalType": "uint256",
          "name": "_value",
          "type": "uint256"
        },
        {
          "internalType": "contract Avatar",
          "name": "_avatar",
          "type": "address"
        }
      ],
      "name": "externalTokenTransferFrom",
      "outputs": [
        {
          "internalType": "bool",
          "name": "",
          "type": "bool"
        }
      ],
      "payable": false,
      "stateMutability": "nonpayable",
      "type": "function"
    },
    {
      "constant": false,
      "inputs": [
        {
          "internalType": "address",
          "name": "_contract",
          "type": "address"
        },
        {
          "internalType": "bytes",
          "name": "_data",
          "type": "bytes"
        },
        {
          "internalType": "contract Avatar",
          "name": "_avatar",
          "type": "address"
        },
        {
          "internalType": "uint256",
          "name": "_value",
          "type": "uint256"
        }
      ],
      "name": "genericCall",
      "outputs": [
        {
          "internalType": "bool",
          "name": "",
          "type": "bool"
        },
        {
          "internalType": "bytes",
          "name": "",
          "type": "bytes"
        }
      ],
      "payable": false,
      "stateMutability": "nonpayable",
      "type": "function"
    },
    {
      "constant": true,
      "inputs": [
        {
          "internalType": "address",
          "name": "_globalConstraint",
          "type": "address"
        },
        {
          "internalType": "address",
          "name": "",
          "type": "address"
        }
      ],
      "name": "getGlobalConstraintParameters",
      "outputs": [
        {
          "internalType": "bytes32",
          "name": "",
          "type": "bytes32"
        }
      ],
      "payable": false,
      "stateMutability": "view",
      "type": "function"
    },
    {
      "constant": true,
      "inputs": [
        {
          "internalType": "address",
          "name": "_avatar",
          "type": "address"
        }
      ],
      "name": "getNativeReputation",
      "outputs": [
        {
          "internalType": "address",
          "name": "",
          "type": "address"
        }
      ],
      "payable": false,
      "stateMutability": "view",
      "type": "function"
    },
    {
      "constant": true,
      "inputs": [
        {
          "internalType": "address",
          "name": "_scheme",
          "type": "address"
        },
        {
          "internalType": "address",
          "name": "_avatar",
          "type": "address"
        }
      ],
      "name": "getSchemeParameters",
      "outputs": [
        {
          "internalType": "bytes32",
          "name": "",
          "type": "bytes32"
        }
      ],
      "payable": false,
      "stateMutability": "view",
      "type": "function"
    },
    {
      "constant": true,
      "inputs": [
        {
          "internalType": "address",
          "name": "_scheme",
          "type": "address"
        },
        {
          "internalType": "address",
          "name": "_avatar",
          "type": "address"
        }
      ],
      "name": "getSchemePermissions",
      "outputs": [
        {
          "internalType": "bytes4",
          "name": "",
          "type": "bytes4"
        }
      ],
      "payable": false,
      "stateMutability": "view",
      "type": "function"
    },
    {
      "constant": true,
      "inputs": [
        {
          "internalType": "address",
          "name": "_avatar",
          "type": "address"
        }
      ],
      "name": "globalConstraintsCount",
      "outputs": [
        {
          "internalType": "uint256",
          "name": "",
          "type": "uint256"
        },
        {
          "internalType": "uint256",
          "name": "",
          "type": "uint256"
        }
      ],
      "payable": false,
      "stateMutability": "view",
      "type": "function"
    },
    {
      "constant": true,
      "inputs": [
        {
          "internalType": "uint256",
          "name": "",
          "type": "uint256"
        }
      ],
      "name": "globalConstraintsPost",
      "outputs": [
        {
          "internalType": "address",
          "name": "gcAddress",
          "type": "address"
        },
        {
          "internalType": "bytes32",
          "name": "params",
          "type": "bytes32"
        }
      ],
      "payable": false,
      "stateMutability": "view",
      "type": "function"
    },
    {
      "constant": true,
      "inputs": [
        {
          "internalType": "uint256",
          "name": "",
          "type": "uint256"
        }
      ],
      "name": "globalConstraintsPre",
      "outputs": [
        {
          "internalType": "address",
          "name": "gcAddress",
          "type": "address"
        },
        {
          "internalType": "bytes32",
          "name": "params",
          "type": "bytes32"
        }
      ],
      "payable": false,
      "stateMutability": "view",
      "type": "function"
    },
    {
      "constant": true,
      "inputs": [
        {
          "internalType": "address",
          "name": "",
          "type": "address"
        }
      ],
      "name": "globalConstraintsRegisterPost",
      "outputs": [
        {
          "internalType": "bool",
          "name": "isRegistered",
          "type": "bool"
        },
        {
          "internalType": "uint256",
          "name": "index",
          "type": "uint256"
        }
      ],
      "payable": false,
      "stateMutability": "view",
      "type": "function"
    },
    {
      "constant": true,
      "inputs": [
        {
          "internalType": "address",
          "name": "",
          "type": "address"
        }
      ],
      "name": "globalConstraintsRegisterPre",
      "outputs": [
        {
          "internalType": "bool",
          "name": "isRegistered",
          "type": "bool"
        },
        {
          "internalType": "uint256",
          "name": "index",
          "type": "uint256"
        }
      ],
      "payable": false,
      "stateMutability": "view",
      "type": "function"
    },
    {
      "constant": true,
      "inputs": [
        {
          "internalType": "address",
          "name": "_globalConstraint",
          "type": "address"
        },
        {
          "internalType": "address",
          "name": "_avatar",
          "type": "address"
        }
      ],
      "name": "isGlobalConstraintRegistered",
      "outputs": [
        {
          "internalType": "bool",
          "name": "",
          "type": "bool"
        }
      ],
      "payable": false,
      "stateMutability": "view",
      "type": "function"
    },
    {
      "constant": true,
      "inputs": [
        {
          "internalType": "address",
          "name": "_scheme",
          "type": "address"
        },
        {
          "internalType": "address",
          "name": "_avatar",
          "type": "address"
        }
      ],
      "name": "isSchemeRegistered",
      "outputs": [
        {
          "internalType": "bool",
          "name": "",
          "type": "bool"
        }
      ],
      "payable": false,
      "stateMutability": "view",
      "type": "function"
    },
    {
      "constant": false,
      "inputs": [
        {
          "internalType": "string",
          "name": "_metaData",
          "type": "string"
        },
        {
          "internalType": "contract Avatar",
          "name": "_avatar",
          "type": "address"
        }
      ],
      "name": "metaData",
      "outputs": [
        {
          "internalType": "bool",
          "name": "",
          "type": "bool"
        }
      ],
      "payable": false,
      "stateMutability": "nonpayable",
      "type": "function"
    },
    {
      "constant": false,
      "inputs": [
        {
          "internalType": "uint256[]",
          "name": "_amount",
          "type": "uint256[]"
        },
        {
          "internalType": "address[]",
          "name": "_to",
          "type": "address[]"
        },
        {
          "internalType": "address",
          "name": "_avatar",
          "type": "address"
        }
      ],
      "name": "mintMultipleReputation",
      "outputs": [
        {
          "internalType": "bool",
          "name": "",
          "type": "bool"
        }
      ],
      "payable": false,
      "stateMutability": "nonpayable",
      "type": "function"
    },
    {
      "constant": false,
      "inputs": [
        {
          "internalType": "uint256",
          "name": "_amount",
          "type": "uint256"
        },
        {
          "internalType": "address",
          "name": "_to",
          "type": "address"
        },
        {
          "internalType": "address",
          "name": "_avatar",
          "type": "address"
        }
      ],
      "name": "mintReputation",
      "outputs": [
        {
          "internalType": "bool",
          "name": "",
          "type": "bool"
        }
      ],
      "payable": false,
      "stateMutability": "nonpayable",
      "type": "function"
    },
    {
      "constant": false,
      "inputs": [
        {
          "internalType": "uint256",
          "name": "_amount",
          "type": "uint256"
        },
        {
          "internalType": "address",
          "name": "_beneficiary",
          "type": "address"
        },
        {
          "internalType": "address",
          "name": "_avatar",
          "type": "address"
        }
      ],
      "name": "mintTokens",
      "outputs": [
        {
          "internalType": "bool",
          "name": "",
          "type": "bool"
        }
      ],
      "payable": false,
      "stateMutability": "nonpayable",
      "type": "function"
    },
    {
      "constant": true,
      "inputs": [],
      "name": "nativeReputation",
      "outputs": [
        {
          "internalType": "contract Reputation",
          "name": "",
          "type": "address"
        }
      ],
      "payable": false,
      "stateMutability": "view",
      "type": "function"
    },
    {
      "constant": true,
      "inputs": [],
      "name": "nativeToken",
      "outputs": [
        {
          "internalType": "contract DAOToken",
          "name": "",
          "type": "address"
        }
      ],
      "payable": false,
      "stateMutability": "view",
      "type": "function"
    },
    {
      "constant": true,
      "inputs": [],
      "name": "newController",
      "outputs": [
        {
          "internalType": "address",
          "name": "",
          "type": "address"
        }
      ],
      "payable": false,
      "stateMutability": "view",
      "type": "function"
    },
    {
      "constant": false,
      "inputs": [
        {
          "internalType": "address",
          "name": "_scheme",
          "type": "address"
        },
        {
          "internalType": "bytes32",
          "name": "_paramsHash",
          "type": "bytes32"
        },
        {
          "internalType": "bytes4",
          "name": "_permissions",
          "type": "bytes4"
        },
        {
          "internalType": "address",
          "name": "_avatar",
          "type": "address"
        }
      ],
      "name": "registerScheme",
      "outputs": [
        {
          "internalType": "bool",
          "name": "",
          "type": "bool"
        }
      ],
      "payable": false,
      "stateMutability": "nonpayable",
      "type": "function"
    },
    {
      "constant": false,
      "inputs": [
        {
          "internalType": "address",
          "name": "_globalConstraint",
          "type": "address"
        },
        {
          "internalType": "address",
          "name": "_avatar",
          "type": "address"
        }
      ],
      "name": "removeGlobalConstraint",
      "outputs": [
        {
          "internalType": "bool",
          "name": "",
          "type": "bool"
        }
      ],
      "payable": false,
      "stateMutability": "nonpayable",
      "type": "function"
    },
    {
      "constant": true,
      "inputs": [
        {
          "internalType": "address",
          "name": "",
          "type": "address"
        }
      ],
      "name": "schemes",
      "outputs": [
        {
          "internalType": "bytes32",
          "name": "paramsHash",
          "type": "bytes32"
        },
        {
          "internalType": "bytes4",
          "name": "permissions",
          "type": "bytes4"
        }
      ],
      "payable": false,
      "stateMutability": "view",
      "type": "function"
    },
    {
      "constant": false,
      "inputs": [
        {
          "internalType": "uint256",
          "name": "_amountInWei",
          "type": "uint256"
        },
        {
          "internalType": "address payable",
          "name": "_to",
          "type": "address"
        },
        {
          "internalType": "contract Avatar",
          "name": "_avatar",
          "type": "address"
        }
      ],
      "name": "sendEther",
      "outputs": [
        {
          "internalType": "bool",
          "name": "",
          "type": "bool"
        }
      ],
      "payable": false,
      "stateMutability": "nonpayable",
      "type": "function"
    },
    {
      "constant": false,
      "inputs": [
        {
          "internalType": "address",
          "name": "_scheme",
          "type": "address"
        },
        {
          "internalType": "address",
          "name": "_avatar",
          "type": "address"
        }
      ],
      "name": "unregisterScheme",
      "outputs": [
        {
          "internalType": "bool",
          "name": "",
          "type": "bool"
        }
      ],
      "payable": false,
      "stateMutability": "nonpayable",
      "type": "function"
    },
    {
      "constant": false,
      "inputs": [
        {
          "internalType": "address",
          "name": "_avatar",
          "type": "address"
        }
      ],
      "name": "unregisterSelf",
      "outputs": [
        {
          "internalType": "bool",
          "name": "",
          "type": "bool"
        }
      ],
      "payable": false,
      "stateMutability": "nonpayable",
      "type": "function"
    },
    {
      "constant": false,
      "inputs": [
        {
          "internalType": "address",
          "name": "_newController",
          "type": "address"
        },
        {
          "internalType": "contract Avatar",
          "name": "_avatar",
          "type": "address"
        }
      ],
      "name": "upgradeController",
      "outputs": [
        {
          "internalType": "bool",
          "name": "",
          "type": "bool"
        }
      ],
      "payable": false,
      "stateMutability": "nonpayable",
      "type": "function"
    }
  ],
  "bytecode": "0x60806040523480156200001157600080fd5b5060405162003f2a38038062003f2a833981810160405260208110156200003757600080fd5b5051600180546001600160a01b0319166001600160a01b03808416919091179182905560408051631c2eb17b60e31b8152905184939092169163e1758bd891600480820192602092909190829003018186803b1580156200009757600080fd5b505afa158015620000ac573d6000803e3d6000fd5b505050506040513d6020811015620000c357600080fd5b5051600280546001600160a01b0319166001600160a01b039283161790556001546040805163089ae1c960e41b8152905191909216916389ae1c90916004808301926020929190829003018186803b1580156200011f57600080fd5b505afa15801562000134573d6000803e3d6000fd5b505050506040513d60208110156200014b57600080fd5b5051600380546001600160a01b0319166001600160a01b0390921691909117905550506040805180820182526000808252601f60e01b6020808401918252338352829052928120915182559151600191909101805463ffffffff191660e09290921c919091179055613d66908190620001c490396000f3fe608060405234801561001057600080fd5b50600436106101f05760003560e01c806389ae1c901161010f578063e08738da116100a2578063e8c98b2211610071578063e8c98b221461090c578063eaf994b214610929578063f76488be1461095d578063fb4856a21461098b576101f0565b8063e08738da1461085c578063e1758bd81461088a578063e4537a7414610892578063e869d45f146108c8576101f0565b8063b9a04cdd116100de578063b9a04cdd14610651578063c9b62eb11461068d578063d1b7089a14610704578063db6149ce14610814576101f0565b806389ae1c90146105aa5780638da03997146105b25780639b51e35a146105d85780639be2faed14610623576101f0565b806351803cd8116101875780636c525b13116101565780636c525b13146104eb5780636e94d27814610511578063814784f614610545578063824f2f1f1461056b576101f0565b806351803cd81461043f5780635aef7de61461047b578063634965da146104835780636407e432146104b7576101f0565b80633a02263c116101c35780633a02263c1461037f57806342427bf8146103a35780634422d372146103d15780634f52b5be14610411576101f0565b8063039de01d146101f55780631687a8f914610237578063177eebb0146102fe5780631c4d56081461033f575b600080fd5b6102236004803603604081101561020b57600080fd5b506001600160a01b03813581169160200135166109d1565b604080519115158252519081900360200190f35b6102236004803603606081101561024d57600080fd5b810190602081018135600160201b81111561026757600080fd5b82018360208201111561027957600080fd5b803590602001918460208302840111600160201b8311171561029a57600080fd5b919390929091602081019035600160201b8111156102b757600080fd5b8201836020820111156102c957600080fd5b803590602001918460208302840111600160201b831117156102ea57600080fd5b9193509150356001600160a01b0316610cd7565b6103246004803603602081101561031457600080fd5b50356001600160a01b0316610ffc565b60408051921515835260208301919091528051918290030190f35b61036d6004803603604081101561035557600080fd5b506001600160a01b038135811691602001351661101b565b60408051918252519081900360200190f35b61038761105d565b604080516001600160a01b039092168252519081900360200190f35b610223600480360360408110156103b957600080fd5b506001600160a01b038135811691602001351661106c565b6103ee600480360360208110156103e757600080fd5b503561152e565b604080516001600160a01b03909316835260208301919091528051918290030190f35b6102236004803603604081101561042757600080fd5b506001600160a01b0381358116916020013516611563565b6102236004803603608081101561045557600080fd5b506001600160a01b0381358116916020810135821691604082013591606001351661195e565b610387611c42565b6102236004803603606081101561049957600080fd5b508035906001600160a01b0360208201358116916040013516611c51565b610223600480360360608110156104cd57600080fd5b508035906001600160a01b0360208201358116916040013516611f18565b6102236004803603602081101561050157600080fd5b50356001600160a01b0316612217565b6102236004803603606081101561052757600080fd5b508035906001600160a01b036020820135811691604001351661229e565b6103246004803603602081101561055b57600080fd5b50356001600160a01b03166125a1565b6105916004803603602081101561058157600080fd5b50356001600160a01b03166125c0565b6040805192835260208301919091528051918290030190f35b6103876125f2565b610387600480360360208110156105c857600080fd5b50356001600160a01b0316612601565b610606600480360360408110156105ee57600080fd5b506001600160a01b0381358116916020013516612633565b604080516001600160e01b03199092168252519081900360200190f35b6102236004803603604081101561063957600080fd5b506001600160a01b0381358116916020013516612676565b6102236004803603608081101561066757600080fd5b506001600160a01b038135811691602081013582169160408201359160600135166126a6565b610223600480360360408110156106a357600080fd5b810190602081018135600160201b8111156106bd57600080fd5b8201836020820111156106cf57600080fd5b803590602001918460018302840111600160201b831117156106f057600080fd5b9193509150356001600160a01b0316612978565b6107916004803603608081101561071a57600080fd5b6001600160a01b038235169190810190604081016020820135600160201b81111561074457600080fd5b82018360208201111561075657600080fd5b803590602001918460018302840111600160201b8311171561077757600080fd5b91935091506001600160a01b038135169060200135612a68565b604051808315151515815260200180602001828103825283818151815260200191508051906020019080838360005b838110156107d85781810151838201526020016107c0565b50505050905090810190601f1680156108055780820380516001836020036101000a031916815260200191505b50935050505060405180910390f35b61083a6004803603602081101561082a57600080fd5b50356001600160a01b0316612e37565b604080519283526001600160e01b031990911660208301528051918290030190f35b61036d6004803603604081101561087257600080fd5b506001600160a01b0381358116916020013516612e53565b610387612f1f565b610223600480360360608110156108a857600080fd5b506001600160a01b03813581169160208101359160409091013516612f2e565b610223600480360360808110156108de57600080fd5b506001600160a01b0381358116916020810135916001600160e01b03196040830135169160600135166132fa565b6103ee6004803603602081101561092257600080fd5b5035613637565b6102236004803603606081101561093f57600080fd5b508035906001600160a01b0360208201358116916040013516613644565b6102236004803603604081101561097357600080fd5b506001600160a01b0381358116916020013516613947565b610223600480360360a08110156109a157600080fd5b506001600160a01b03813581169160208101358216916040820135811691606081013591608090910135166139a9565b3360009081526020819052604081206001015460e01b600160e11b908116146109f957600080fd5b6f756e7265676973746572536368656d6560801b60005b600554811015610b005760058181548110610a2757fe5b6000918252602090912060029091020154600580546001600160a01b039092169163c1786ab291339185908110610a5a57fe5b906000526020600020906002020160010154856040518463ffffffff1660e01b815260040180846001600160a01b03166001600160a01b031681526020018381526020018281526020019350505050602060405180830381600087803b158015610ac357600080fd5b505af1158015610ad7573d6000803e3d6000fd5b505050506040513d6020811015610aed57600080fd5b5051610af857600080fd5b600101610a10565b60015484906001600160a01b03808316911614610b1c57600080fd5b610b2586613c8b565b610b325760009350610bd9565b336000908152602081905260408082206001908101546001600160a01b038a168452919092209091015460e091821b19911b16601f60e01b1615610b7557600080fd5b6040516001600160a01b0387169033907f10bb2cf04cb8b902a8e736d494f1a51003be6d4b16ef6fb95ce62c38445023bf90600090a36001600160a01b03861660009081526020819052604081209081556001908101805463ffffffff1916905593505b50600090505b600654811015610ccf5760068181548110610bf657fe5b6000918252602090912060029091020154600680546001600160a01b0390921691638043154d91339185908110610c2957fe5b906000526020600020906002020160010154856040518463ffffffff1660e01b815260040180846001600160a01b03166001600160a01b031681526020018381526020018281526020019350505050602060405180830381600087803b158015610c9257600080fd5b505af1158015610ca6573d6000803e3d6000fd5b505050506040513d6020811015610cbc57600080fd5b5051610cc757600080fd5b600101610bdf565b505092915050565b3360009081526020819052604081206001015460e01b600160e01b90811614610cff57600080fd5b6d36b4b73a2932b83aba30ba34b7b760911b60005b600554811015610e045760058181548110610d2b57fe5b6000918252602090912060029091020154600580546001600160a01b039092169163c1786ab291339185908110610d5e57fe5b906000526020600020906002020160010154856040518463ffffffff1660e01b815260040180846001600160a01b03166001600160a01b031681526020018381526020018281526020019350505050602060405180830381600087803b158015610dc757600080fd5b505af1158015610ddb573d6000803e3d6000fd5b505050506040513d6020811015610df157600080fd5b5051610dfc57600080fd5b600101610d14565b60015484906001600160a01b03808316911614610e2057600080fd5b600354604080516307ea547760e01b815260048101918252604481018990526001600160a01b03909216916307ea5477918a918a918e918e919081906024810190606401876020880280828437600083820152601f01601f19169091018481038352858152602090810191508690860280828437600081840152601f19601f8201169050808301925050509650505050505050602060405180830381600087803b158015610ecd57600080fd5b505af1158015610ee1573d6000803e3d6000fd5b505050506040513d6020811015610ef757600080fd5b5051935050600090505b600654811015610ff15760068181548110610f1857fe5b6000918252602090912060029091020154600680546001600160a01b0390921691638043154d91339185908110610f4b57fe5b906000526020600020906002020160010154856040518463ffffffff1660e01b815260040180846001600160a01b03166001600160a01b031681526020018381526020018281526020019350505050602060405180830381600087803b158015610fb457600080fd5b505af1158015610fc8573d6000803e3d6000fd5b505050506040513d6020811015610fde57600080fd5b5051610fe957600080fd5b600101610f01565b505095945050505050565b6007602052600090815260409020805460019091015460ff9091169082565b60015460009082906001600160a01b0380831691161461103a57600080fd5b6001600160a01b03841660009081526020819052604090205491505b5092915050565b6004546001600160a01b031681565b3360009081526020819052604081206001015460e01b600160e31b9081161461109457600080fd5b60015482906001600160a01b038083169116146110b057600080fd5b6004546001600160a01b0316156110c657600080fd5b6001600160a01b0384166110d957600080fd5b600480546001600160a01b0319166001600160a01b0386811691821783556001546040805163f2fde38b60e01b815294850193909352915191169163f2fde38b91602480830192600092919082900301818387803b15801561113a57600080fd5b505af115801561114e573d6000803e3d6000fd5b50505050836001600160a01b0316600160009054906101000a90046001600160a01b03166001600160a01b0316638da5cb5b6040518163ffffffff1660e01b815260040160206040518083038186803b1580156111aa57600080fd5b505afa1580156111be573d6000803e3d6000fd5b505050506040513d60208110156111d457600080fd5b50516001600160a01b0316146111e957600080fd5b60025460408051638da5cb5b60e01b8152905130926001600160a01b031691638da5cb5b916004808301926020929190829003018186803b15801561122d57600080fd5b505afa158015611241573d6000803e3d6000fd5b505050506040513d602081101561125757600080fd5b50516001600160a01b03161415611365576002546040805163f2fde38b60e01b81526001600160a01b0387811660048301529151919092169163f2fde38b91602480830192600092919082900301818387803b1580156112b657600080fd5b505af11580156112ca573d6000803e3d6000fd5b50505050836001600160a01b0316600260009054906101000a90046001600160a01b03166001600160a01b0316638da5cb5b6040518163ffffffff1660e01b815260040160206040518083038186803b15801561132657600080fd5b505afa15801561133a573d6000803e3d6000fd5b505050506040513d602081101561135057600080fd5b50516001600160a01b03161461136557600080fd5b60035460408051638da5cb5b60e01b8152905130926001600160a01b031691638da5cb5b916004808301926020929190829003018186803b1580156113a957600080fd5b505afa1580156113bd573d6000803e3d6000fd5b505050506040513d60208110156113d357600080fd5b50516001600160a01b031614156114e1576003546040805163f2fde38b60e01b81526001600160a01b0387811660048301529151919092169163f2fde38b91602480830192600092919082900301818387803b15801561143257600080fd5b505af1158015611446573d6000803e3d6000fd5b50505050836001600160a01b0316600360009054906101000a90046001600160a01b03166001600160a01b0316638da5cb5b6040518163ffffffff1660e01b815260040160206040518083038186803b1580156114a257600080fd5b505afa1580156114b6573d6000803e3d6000fd5b505050506040513d60208110156114cc57600080fd5b50516001600160a01b0316146114e157600080fd5b600454604080516001600160a01b039290921682525130917fdb7cbacf8df312d794506c0cc9af07f64d29ca075796ea2e950a3832cc9a63dd919081900360200190a25060019392505050565b6005818154811061153b57fe5b6000918252602090912060029091020180546001909101546001600160a01b03909116915082565b3360009081526020819052604081206001015460e01b600160e21b9081161461158b57600080fd5b60015482906001600160a01b038083169116146115a757600080fd5b6115af613cb7565b6115b7613cb7565b6000866001600160a01b031663e2b0caef6040518163ffffffff1660e01b8152600401602060405180830381600087803b1580156115f457600080fd5b505af1158015611608573d6000803e3d6000fd5b505050506040513d602081101561161e57600080fd5b5051905060008082600281111561163157fe5b14806116485750600282600281111561164657fe5b145b1561178c576001600160a01b0388166000908152600760209081526040918290208251808401909352805460ff1615801584526001909101549183019190915290945061178c576001600580549050038460200151101561174d576005805460001981019081106116b557fe5b60009182526020918290206040805180820190915260029092020180546001600160a01b0316825260010154818301529085015160058054929550859290919081106116fd57fe5b6000918252602080832084516002939093020180546001600160a01b0319166001600160a01b03938416178155938101516001948501558781015187519092168352600790526040909120909101555b6005805490611760906000198301613cce565b50506001600160a01b0387166000908152600760205260408120805460ff191681556001908101919091555b600182600281111561179a57fe5b14806117b1575060028260028111156117af57fe5b145b156118f5576001600160a01b0388166000908152600860209081526040918290208251808401909352805460ff161580158452600190910154918301919091529094506118f557600160068054905003846020015110156118b65760068054600019810190811061181e57fe5b60009182526020918290206040805180820190915260029092020180546001600160a01b03168252600101548183015290850151600680549295508592909190811061186657fe5b6000918252602080832084516002939093020180546001600160a01b0319166001600160a01b03938416178155938101516001948501558781015187519092168352600890526040909120909101555b60068054906118c9906000198301613cce565b50506001600160a01b0387166000908152600860205260408120805460ff191681556001908101919091555b80156119535760208401516001600160a01b038916907fcdf1a50ea6b7de555bd409f8a4a53ea43c6dc6b4caa961889da9e005f21bbaa990600085600281111561193b57fe5b60408051938452911460208301528051918290030190a25b979650505050505050565b3360009081526020819052604081206001015460e01b600160e01b9081161461198657600080fd5b7f65787465726e616c546f6b656e496e637265617365417070726f76616c00000060005b600554811015611a9a57600581815481106119c157fe5b6000918252602090912060029091020154600580546001600160a01b039092169163c1786ab2913391859081106119f457fe5b906000526020600020906002020160010154856040518463ffffffff1660e01b815260040180846001600160a01b03166001600160a01b031681526020018381526020018281526020019350505050602060405180830381600087803b158015611a5d57600080fd5b505af1158015611a71573d6000803e3d6000fd5b505050506040513d6020811015611a8757600080fd5b5051611a9257600080fd5b6001016119aa565b60015484906001600160a01b03808316911614611ab657600080fd5b6001546040805163ab751f7160e01b81526001600160a01b038b811660048301528a81166024830152604482018a90529151919092169163ab751f719160648083019260209291908290030181600087803b158015611b1457600080fd5b505af1158015611b28573d6000803e3d6000fd5b505050506040513d6020811015611b3e57600080fd5b5051935050600090505b600654811015611c385760068181548110611b5f57fe5b6000918252602090912060029091020154600680546001600160a01b0390921691638043154d91339185908110611b9257fe5b906000526020600020906002020160010154856040518463ffffffff1660e01b815260040180846001600160a01b03166001600160a01b031681526020018381526020018281526020019350505050602060405180830381600087803b158015611bfb57600080fd5b505af1158015611c0f573d6000803e3d6000fd5b505050506040513d6020811015611c2557600080fd5b5051611c3057600080fd5b600101611b48565b5050949350505050565b6001546001600160a01b031681565b3360009081526020819052604081206001015460e01b600160e01b90811614611c7957600080fd5b6839b2b73222ba3432b960b91b60005b600554811015611d795760058181548110611ca057fe5b6000918252602090912060029091020154600580546001600160a01b039092169163c1786ab291339185908110611cd357fe5b906000526020600020906002020160010154856040518463ffffffff1660e01b815260040180846001600160a01b03166001600160a01b031681526020018381526020018281526020019350505050602060405180830381600087803b158015611d3c57600080fd5b505af1158015611d50573d6000803e3d6000fd5b505050506040513d6020811015611d6657600080fd5b5051611d7157600080fd5b600101611c89565b60015484906001600160a01b03808316911614611d9557600080fd5b6001546040805163658b6a5160e11b8152600481018a90526001600160a01b0389811660248301529151919092169163cb16d4a29160448083019260209291908290030181600087803b158015611deb57600080fd5b505af1158015611dff573d6000803e3d6000fd5b505050506040513d6020811015611e1557600080fd5b5051935050600090505b600654811015611f0f5760068181548110611e3657fe5b6000918252602090912060029091020154600680546001600160a01b0390921691638043154d91339185908110611e6957fe5b906000526020600020906002020160010154856040518463ffffffff1660e01b815260040180846001600160a01b03166001600160a01b031681526020018381526020018281526020019350505050602060405180830381600087803b158015611ed257600080fd5b505af1158015611ee6573d6000803e3d6000fd5b505050506040513d6020811015611efc57600080fd5b5051611f0757600080fd5b600101611e1f565b50509392505050565b3360009081526020819052604081206001015460e01b600160e01b90811614611f4057600080fd5b696d696e74546f6b656e7360b01b60005b6005548110156120415760058181548110611f6857fe5b6000918252602090912060029091020154600580546001600160a01b039092169163c1786ab291339185908110611f9b57fe5b906000526020600020906002020160010154856040518463ffffffff1660e01b815260040180846001600160a01b03166001600160a01b031681526020018381526020018281526020019350505050602060405180830381600087803b15801561200457600080fd5b505af1158015612018573d6000803e3d6000fd5b505050506040513d602081101561202e57600080fd5b505161203957600080fd5b600101611f51565b60015484906001600160a01b0380831691161461205d57600080fd5b6040805188815290516001600160a01b0388169133917f21f9c9a1a1f9a311a50f15fec5c1faa9e21fc9edf964f0fdecba5bd490484c5e9181900360200190a3600254604080516340c10f1960e01b81526001600160a01b038981166004830152602482018b9052915191909216916340c10f199160448083019260209291908290030181600087803b1580156120f357600080fd5b505af1158015612107573d6000803e3d6000fd5b505050506040513d602081101561211d57600080fd5b5051935050600090505b600654811015611f0f576006818154811061213e57fe5b6000918252602090912060029091020154600680546001600160a01b0390921691638043154d9133918590811061217157fe5b906000526020600020906002020160010154856040518463ffffffff1660e01b815260040180846001600160a01b03166001600160a01b031681526020018381526020018281526020019350505050602060405180830381600087803b1580156121da57600080fd5b505af11580156121ee573d6000803e3d6000fd5b505050506040513d602081101561220457600080fd5b505161220f57600080fd5b600101612127565b60015460009082906001600160a01b0380831691161461223657600080fd5b61223f33613c8b565b61224c5760009150612298565b33600081815260208190526040808220828155600101805463ffffffff191690555182917f10bb2cf04cb8b902a8e736d494f1a51003be6d4b16ef6fb95ce62c38445023bf91a3600191505b50919050565b3360009081526020819052604081206001015460e01b600160e01b908116146122c657600080fd5b6d313ab9372932b83aba30ba34b7b760911b60005b6005548110156123cb57600581815481106122f257fe5b6000918252602090912060029091020154600580546001600160a01b039092169163c1786ab29133918590811061232557fe5b906000526020600020906002020160010154856040518463ffffffff1660e01b815260040180846001600160a01b03166001600160a01b031681526020018381526020018281526020019350505050602060405180830381600087803b15801561238e57600080fd5b505af11580156123a2573d6000803e3d6000fd5b505050506040513d60208110156123b857600080fd5b50516123c357600080fd5b6001016122db565b60015484906001600160a01b038083169116146123e757600080fd5b6040805188815290516001600160a01b0388169133917f186d8887e1b22f9d9b16849c36baa748950d09d9c9b67a4a6ea140eaad00c21c9181900360200190a360035460408051632770a7eb60e21b81526001600160a01b038981166004830152602482018b905291519190921691639dc29fac9160448083019260209291908290030181600087803b15801561247d57600080fd5b505af1158015612491573d6000803e3d6000fd5b505050506040513d60208110156124a757600080fd5b5051935050600090505b600654811015611f0f57600681815481106124c857fe5b6000918252602090912060029091020154600680546001600160a01b0390921691638043154d913391859081106124fb57fe5b906000526020600020906002020160010154856040518463ffffffff1660e01b815260040180846001600160a01b03166001600160a01b031681526020018381526020018281526020019350505050602060405180830381600087803b15801561256457600080fd5b505af1158015612578573d6000803e3d6000fd5b505050506040513d602081101561258e57600080fd5b505161259957600080fd5b6001016124b1565b6008602052600090815260409020805460019091015460ff9091169082565b600154600090819083906001600160a01b038083169116146125e157600080fd5b600554600654909350915050915091565b6003546001600160a01b031681565b60015460009082906001600160a01b0380831691161461262057600080fd5b50506003546001600160a01b0316919050565b60015460009082906001600160a01b0380831691161461265257600080fd5b5050506001600160a01b031660009081526020819052604090206001015460e01b90565b60015460009082906001600160a01b0380831691161461269557600080fd5b61269e84613c8b565b949350505050565b3360009081526020819052604081206001015460e01b600160e01b908116146126ce57600080fd5b7432bc3a32b93730b62a37b5b2b72a3930b739b332b960591b60005b6005548110156127da576005818154811061270157fe5b6000918252602090912060029091020154600580546001600160a01b039092169163c1786ab29133918590811061273457fe5b906000526020600020906002020160010154856040518463ffffffff1660e01b815260040180846001600160a01b03166001600160a01b031681526020018381526020018281526020019350505050602060405180830381600087803b15801561279d57600080fd5b505af11580156127b1573d6000803e3d6000fd5b505050506040513d60208110156127c757600080fd5b50516127d257600080fd5b6001016126ea565b60015484906001600160a01b038083169116146127f657600080fd5b6001546040805163dab0efff60e01b81526001600160a01b038b811660048301528a81166024830152604482018a90529151919092169163dab0efff9160648083019260209291908290030181600087803b15801561285457600080fd5b505af1158015612868573d6000803e3d6000fd5b505050506040513d602081101561287e57600080fd5b5051935050600090505b600654811015611c38576006818154811061289f57fe5b6000918252602090912060029091020154600680546001600160a01b0390921691638043154d913391859081106128d257fe5b906000526020600020906002020160010154856040518463ffffffff1660e01b815260040180846001600160a01b03166001600160a01b031681526020018381526020018281526020019350505050602060405180830381600087803b15801561293b57600080fd5b505af115801561294f573d6000803e3d6000fd5b505050506040513d602081101561296557600080fd5b505161297057600080fd5b600101612888565b3360009081526020819052604081206001015460e01b600160e41b908116146129a057600080fd5b60015482906001600160a01b038083169116146129bc57600080fd5b600154604051632242b11b60e21b8152602060048201908152602482018790526001600160a01b039092169163890ac46c91889188918190604401848480828437600081840152601f19601f8201169050808301925050509350505050602060405180830381600087803b158015612a3357600080fd5b505af1158015612a47573d6000803e3d6000fd5b505050506040513d6020811015612a5d57600080fd5b505195945050505050565b3360009081526020819052604081206001015460609060e01b600160e41b90811614612a9357600080fd5b6a19d95b995c9a58d0d85b1b60aa1b60005b600554811015612b955760058181548110612abc57fe5b6000918252602090912060029091020154600580546001600160a01b039092169163c1786ab291339185908110612aef57fe5b906000526020600020906002020160010154856040518463ffffffff1660e01b815260040180846001600160a01b03166001600160a01b031681526020018381526020018281526020019350505050602060405180830381600087803b158015612b5857600080fd5b505af1158015612b6c573d6000803e3d6000fd5b505050506040513d6020811015612b8257600080fd5b5051612b8d57600080fd5b600101612aa5565b60015486906001600160a01b03808316911614612bb157600080fd5b60015460405163057e2c8b60e31b81526001600160a01b038c811660048301908152604483018a9052606060248401908152606484018d90529190931692632bf16458928e928e928e928d9290608401858580828437600081840152601f19601f82011690508083019250505095505050505050600060405180830381600087803b158015612c3f57600080fd5b505af1158015612c53573d6000803e3d6000fd5b505050506040513d6000823e601f3d908101601f191682016040908152811015612c7c57600080fd5b815160208301805160405192949293830192919084600160201b821115612ca257600080fd5b908301906020820185811115612cb757600080fd5b8251600160201b811182820188101715612cd057600080fd5b82525081516020918201929091019080838360005b83811015612cfd578181015183820152602001612ce5565b50505050905090810190601f168015612d2a5780820380516001836020036101000a031916815260200191505b506040525050509450945050600090505b600654811015612e2b5760068181548110612d5257fe5b6000918252602090912060029091020154600680546001600160a01b0390921691638043154d91339185908110612d8557fe5b906000526020600020906002020160010154856040518463ffffffff1660e01b815260040180846001600160a01b03166001600160a01b031681526020018381526020018281526020019350505050602060405180830381600087803b158015612dee57600080fd5b505af1158015612e02573d6000803e3d6000fd5b505050506040513d6020811015612e1857600080fd5b5051612e2357600080fd5b600101612d3b565b50509550959350505050565b6000602081905290815260409020805460019091015460e01b82565b6000612e5d613cb7565b506001600160a01b0383166000908152600760209081526040918290208251808401909352805460ff16158015845260019091015491830191909152612ec8576005816020015181548110612eae57fe5b906000526020600020906002020160010154915050612f19565b506001600160a01b0383166000908152600860209081526040918290208251808401909352805460ff16158015845260019091015491830191909152611056576006816020015181548110612eae57fe5b92915050565b6002546001600160a01b031681565b3360009081526020819052604081206001015460e01b600160e21b90811614612f5657600080fd5b60015482906001600160a01b03808316911614612f7257600080fd5b6000856001600160a01b031663e2b0caef6040518163ffffffff1660e01b8152600401602060405180830381600087803b158015612faf57600080fd5b505af1158015612fc3573d6000803e3d6000fd5b505050506040513d6020811015612fd957600080fd5b505190506000816002811115612feb57fe5b14806130025750600281600281111561300057fe5b145b1561313a576001600160a01b03861660009081526007602052604090205460ff166130f9576040805180820182526001600160a01b0388811680835260208084018a81526005805460018082018355600083815297517f036b6384b5eca791c62761152d0c79bb0604c104a5fb6f4eb0703f3154bb3db0600290930292830180546001600160a01b031916919098161790965591517f036b6384b5eca791c62761152d0c79bb0604c104a5fb6f4eb0703f3154bb3db190920191909155855180870187528481529054600019018183019081529285526007909152939092209251835460ff1916901515178355905191015561313a565b6001600160a01b03861660009081526007602052604090206001015460058054879290811061312457fe5b9060005260206000209060020201600101819055505b600181600281111561314857fe5b148061315f5750600281600281111561315d57fe5b145b15613297576001600160a01b03861660009081526008602052604090205460ff16613256576040805180820182526001600160a01b0388811680835260208084018a81526006805460018082018355600083815297517ff652222313e28459528d920b65115c16c04f3efc82aaedc97be59f3f377c0d3f600290930292830180546001600160a01b031916919098161790965591517ff652222313e28459528d920b65115c16c04f3efc82aaedc97be59f3f377c0d4090920191909155855180870187528481529054600019018183019081529285526008909152939092209251835460ff19169015151783559051910155613297565b6001600160a01b03861660009081526008602052604090206001015460068054879290811061328157fe5b9060005260206000209060020201600101819055505b856001600160a01b03167f78800d7333b8d0174a0845569e3913b7ce4a3c03ca444dd9904172fc14f2fdad8683604051808381526020018260028111156132da57fe5b60ff1681526020019250505060405180910390a250600195945050505050565b3360009081526020819052604081206001015460e01b600160e11b9081161461332257600080fd5b6d7265676973746572536368656d6560901b60005b600554811015613427576005818154811061334e57fe5b6000918252602090912060029091020154600580546001600160a01b039092169163c1786ab29133918590811061338157fe5b906000526020600020906002020160010154856040518463ffffffff1660e01b815260040180846001600160a01b03166001600160a01b031681526020018381526020018281526020019350505050602060405180830381600087803b1580156133ea57600080fd5b505af11580156133fe573d6000803e3d6000fd5b505050506040513d602081101561341457600080fd5b505161341f57600080fd5b600101613337565b60015484906001600160a01b0380831691161461344357600080fd5b61344b613cb7565b506001600160a01b03881660009081526020818152604080832081518083018352815481526001918201546001600160e01b031960e091821b16828601908152338752948690529290942001549151891891901b1916601f60e01b16156134b157600080fd5b336000908152602081815260409091206001015490820151601f60e01b60e09290921b191616156134e157600080fd5b6001600160a01b0389166000818152602081905260408082208b8155600101805463ffffffff1916600160e01b8c1760e01c1790555133917f546816e99403df442acb68ef69562682a50762c20a3fb6b472f7af9923736cfc91a3600194505050600090505b600654811015611c38576006818154811061355e57fe5b6000918252602090912060029091020154600680546001600160a01b0390921691638043154d9133918590811061359157fe5b906000526020600020906002020160010154856040518463ffffffff1660e01b815260040180846001600160a01b03166001600160a01b031681526020018381526020018281526020019350505050602060405180830381600087803b1580156135fa57600080fd5b505af115801561360e573d6000803e3d6000fd5b505050506040513d602081101561362457600080fd5b505161362f57600080fd5b600101613547565b6006818154811061153b57fe5b3360009081526020819052604081206001015460e01b600160e01b9081161461366c57600080fd5b6d36b4b73a2932b83aba30ba34b7b760911b60005b600554811015613771576005818154811061369857fe5b6000918252602090912060029091020154600580546001600160a01b039092169163c1786ab2913391859081106136cb57fe5b906000526020600020906002020160010154856040518463ffffffff1660e01b815260040180846001600160a01b03166001600160a01b031681526020018381526020018281526020019350505050602060405180830381600087803b15801561373457600080fd5b505af1158015613748573d6000803e3d6000fd5b505050506040513d602081101561375e57600080fd5b505161376957600080fd5b600101613681565b60015484906001600160a01b0380831691161461378d57600080fd5b6040805188815290516001600160a01b0388169133917f837f2931e3df0592458212be4e470025f197feb7a8e39deb5b7f1f1d42e6f2629181900360200190a3600354604080516340c10f1960e01b81526001600160a01b038981166004830152602482018b9052915191909216916340c10f199160448083019260209291908290030181600087803b15801561382357600080fd5b505af1158015613837573d6000803e3d6000fd5b505050506040513d602081101561384d57600080fd5b5051935050600090505b600654811015611f0f576006818154811061386e57fe5b6000918252602090912060029091020154600680546001600160a01b0390921691638043154d913391859081106138a157fe5b906000526020600020906002020160010154856040518463ffffffff1660e01b815260040180846001600160a01b03166001600160a01b031681526020018381526020018281526020019350505050602060405180830381600087803b15801561390a57600080fd5b505af115801561391e573d6000803e3d6000fd5b505050506040513d602081101561393457600080fd5b505161393f57600080fd5b600101613857565b60015460009082906001600160a01b0380831691161461396657600080fd5b6001600160a01b03841660009081526007602052604090205460ff168061269e57505050506001600160a01b031660009081526008602052604090205460ff1690565b3360009081526020819052604081206001015460e01b600160e01b908116146139d157600080fd5b7f65787465726e616c546f6b656e5472616e7366657246726f6d0000000000000060005b600554811015613ae55760058181548110613a0c57fe5b6000918252602090912060029091020154600580546001600160a01b039092169163c1786ab291339185908110613a3f57fe5b906000526020600020906002020160010154856040518463ffffffff1660e01b815260040180846001600160a01b03166001600160a01b031681526020018381526020018281526020019350505050602060405180830381600087803b158015613aa857600080fd5b505af1158015613abc573d6000803e3d6000fd5b505050506040513d6020811015613ad257600080fd5b5051613add57600080fd5b6001016139f5565b60015484906001600160a01b03808316911614613b0157600080fd5b60015460408051635bab6ad160e11b81526001600160a01b038c811660048301528b811660248301528a81166044830152606482018a90529151919092169163b756d5a29160848083019260209291908290030181600087803b158015613b6757600080fd5b505af1158015613b7b573d6000803e3d6000fd5b505050506040513d6020811015613b9157600080fd5b5051935050600090505b600654811015610ff15760068181548110613bb257fe5b6000918252602090912060029091020154600680546001600160a01b0390921691638043154d91339185908110613be557fe5b906000526020600020906002020160010154856040518463ffffffff1660e01b815260040180846001600160a01b03166001600160a01b031681526020018381526020018281526020019350505050602060405180830381600087803b158015613c4e57600080fd5b505af1158015613c62573d6000803e3d6000fd5b505050506040513d6020811015613c7857600080fd5b5051613c8357600080fd5b600101613b9b565b6001600160a01b03811660009081526020819052604090206001015460e01b600160e01b161515919050565b604080518082019091526000808252602082015290565b815481835581811115613cfa57600202816002028360005260206000209182019101613cfa9190613cff565b505050565b613d2e91905b80821115613d2a5780546001600160a01b031916815560006001820155600201613d05565b5090565b9056fea265627a7a72315820a9039d79ef1d587887e0ec5a045d7e57ae2e20e70f781a79abe60d4e8eeec7cf64736f6c63430005110032",
  "linkReferences": {},
  "deployedLinkReferences": {}
}