{
  "contractName": "DxController",
  "abi": [
    {
      "inputs": [
        {
          "internalType": "contract Avatar",
          "name": "_avatar",
          "type": "address"
        }
      ],
      "payable": false,
      "stateMutability": "nonpayable",
      "type": "constructor"
    },
    {
      "anonymous": false,
      "inputs": [
        {
          "indexed": true,
          "internalType": "address",
          "name": "_globalConstraint",
          "type": "address"
        },
        {
          "indexed": false,
          "internalType": "bytes32",
          "name": "_params",
          "type": "bytes32"
        },
        {
          "indexed": false,
          "internalType": "enum GlobalConstraintInterface.CallPhase",
          "name": "_when",
          "type": "uint8"
        }
      ],
      "name": "AddGlobalConstraint",
      "type": "event"
    },
    {
      "anonymous": false,
      "inputs": [
        {
          "indexed": true,
          "internalType": "address",
          "name": "_sender",
          "type": "address"
        },
        {
          "indexed": true,
          "internalType": "address",
          "name": "_from",
          "type": "address"
        },
        {
          "indexed": false,
          "internalType": "uint256",
          "name": "_amount",
          "type": "uint256"
        }
      ],
      "name": "BurnReputation",
      "type": "event"
    },
    {
      "anonymous": false,
      "inputs": [
        {
          "indexed": true,
          "internalType": "address",
          "name": "_sender",
          "type": "address"
        },
        {
          "indexed": true,
          "internalType": "address",
          "name": "_to",
          "type": "address"
        },
        {
          "indexed": false,
          "internalType": "uint256",
          "name": "_amount",
          "type": "uint256"
        }
      ],
      "name": "MintReputation",
      "type": "event"
    },
    {
      "anonymous": false,
      "inputs": [
        {
          "indexed": true,
          "internalType": "address",
          "name": "_sender",
          "type": "address"
        },
        {
          "indexed": true,
          "internalType": "address",
          "name": "_beneficiary",
          "type": "address"
        },
        {
          "indexed": false,
          "internalType": "uint256",
          "name": "_amount",
          "type": "uint256"
        }
      ],
      "name": "MintTokens",
      "type": "event"
    },
    {
      "anonymous": false,
      "inputs": [
        {
          "indexed": true,
          "internalType": "address",
          "name": "_sender",
          "type": "address"
        },
        {
          "indexed": true,
          "internalType": "address",
          "name": "_scheme",
          "type": "address"
        }
      ],
      "name": "RegisterScheme",
      "type": "event"
    },
    {
      "anonymous": false,
      "inputs": [
        {
          "indexed": true,
          "internalType": "address",
          "name": "_globalConstraint",
          "type": "address"
        },
        {
          "indexed": false,
          "internalType": "uint256",
          "name": "_index",
          "type": "uint256"
        },
        {
          "indexed": false,
          "internalType": "bool",
          "name": "_isPre",
          "type": "bool"
        }
      ],
      "name": "RemoveGlobalConstraint",
      "type": "event"
    },
    {
      "anonymous": false,
      "inputs": [
        {
          "indexed": true,
          "internalType": "address",
          "name": "_sender",
          "type": "address"
        },
        {
          "indexed": true,
          "internalType": "address",
          "name": "_scheme",
          "type": "address"
        }
      ],
      "name": "UnregisterScheme",
      "type": "event"
    },
    {
      "anonymous": false,
      "inputs": [
        {
          "indexed": true,
          "internalType": "address",
          "name": "_oldController",
          "type": "address"
        },
        {
          "indexed": false,
          "internalType": "address",
          "name": "_newController",
          "type": "address"
        }
      ],
      "name": "UpgradeController",
      "type": "event"
    },
    {
      "payable": false,
      "stateMutability": "nonpayable",
      "type": "fallback"
    },
    {
      "constant": false,
      "inputs": [
        {
          "internalType": "address",
          "name": "_globalConstraint",
          "type": "address"
        },
        {
          "internalType": "bytes32",
          "name": "_params",
          "type": "bytes32"
        },
        {
          "internalType": "address",
          "name": "_avatar",
          "type": "address"
        }
      ],
      "name": "addGlobalConstraint",
      "outputs": [
        {
          "internalType": "bool",
          "name": "",
          "type": "bool"
        }
      ],
      "payable": false,
      "stateMutability": "nonpayable",
      "type": "function"
    },
    {
      "constant": true,
      "inputs": [],
      "name": "avatar",
      "outputs": [
        {
          "internalType": "contract Avatar",
          "name": "",
          "type": "address"
        }
      ],
      "payable": false,
      "stateMutability": "view",
      "type": "function"
    },
    {
      "constant": false,
      "inputs": [
        {
          "internalType": "uint256",
          "name": "_amount",
          "type": "uint256"
        },
        {
          "internalType": "address",
          "name": "_from",
          "type": "address"
        },
        {
          "internalType": "address",
          "name": "_avatar",
          "type": "address"
        }
      ],
      "name": "burnReputation",
      "outputs": [
        {
          "internalType": "bool",
          "name": "",
          "type": "bool"
        }
      ],
      "payable": false,
      "stateMutability": "nonpayable",
      "type": "function"
    },
    {
      "constant": false,
      "inputs": [
        {
          "internalType": "contract IERC20",
          "name": "_externalToken",
          "type": "address"
        },
        {
          "internalType": "address",
          "name": "_spender",
          "type": "address"
        },
        {
          "internalType": "uint256",
          "name": "_value",
          "type": "uint256"
        },
        {
          "internalType": "contract Avatar",
          "name": "_avatar",
          "type": "address"
        }
      ],
      "name": "externalTokenApproval",
      "outputs": [
        {
          "internalType": "bool",
          "name": "",
          "type": "bool"
        }
      ],
      "payable": false,
      "stateMutability": "nonpayable",
      "type": "function"
    },
    {
      "constant": false,
      "inputs": [
        {
          "internalType": "contract IERC20",
          "name": "_externalToken",
          "type": "address"
        },
        {
          "internalType": "address",
          "name": "_to",
          "type": "address"
        },
        {
          "internalType": "uint256",
          "name": "_value",
          "type": "uint256"
        },
        {
          "internalType": "contract Avatar",
          "name": "_avatar",
          "type": "address"
        }
      ],
      "name": "externalTokenTransfer",
      "outputs": [
        {
          "internalType": "bool",
          "name": "",
          "type": "bool"
        }
      ],
      "payable": false,
      "stateMutability": "nonpayable",
      "type": "function"
    },
    {
      "constant": false,
      "inputs": [
        {
          "internalType": "contract IERC20",
          "name": "_externalToken",
          "type": "address"
        },
        {
          "internalType": "address",
          "name": "_from",
          "type": "address"
        },
        {
          "internalType": "address",
          "name": "_to",
          "type": "address"
        },
        {
          "internalType": "uint256",
          "name": "_value",
          "type": "uint256"
        },
        {
          "internalType": "contract Avatar",
          "name": "_avatar",
          "type": "address"
        }
      ],
      "name": "externalTokenTransferFrom",
      "outputs": [
        {
          "internalType": "bool",
          "name": "",
          "type": "bool"
        }
      ],
      "payable": false,
      "stateMutability": "nonpayable",
      "type": "function"
    },
    {
      "constant": false,
      "inputs": [
        {
          "internalType": "address",
          "name": "_contract",
          "type": "address"
        },
        {
          "internalType": "bytes",
          "name": "_data",
          "type": "bytes"
        },
        {
          "internalType": "contract Avatar",
          "name": "_avatar",
          "type": "address"
        },
        {
          "internalType": "uint256",
          "name": "_value",
          "type": "uint256"
        }
      ],
      "name": "genericCall",
      "outputs": [
        {
          "internalType": "bool",
          "name": "",
          "type": "bool"
        },
        {
          "internalType": "bytes",
          "name": "",
          "type": "bytes"
        }
      ],
      "payable": false,
      "stateMutability": "nonpayable",
      "type": "function"
    },
    {
      "constant": true,
      "inputs": [
        {
          "internalType": "address",
          "name": "_globalConstraint",
          "type": "address"
        },
        {
          "internalType": "address",
          "name": "",
          "type": "address"
        }
      ],
      "name": "getGlobalConstraintParameters",
      "outputs": [
        {
          "internalType": "bytes32",
          "name": "",
          "type": "bytes32"
        }
      ],
      "payable": false,
      "stateMutability": "view",
      "type": "function"
    },
    {
      "constant": true,
      "inputs": [
        {
          "internalType": "address",
          "name": "_avatar",
          "type": "address"
        }
      ],
      "name": "getNativeReputation",
      "outputs": [
        {
          "internalType": "address",
          "name": "",
          "type": "address"
        }
      ],
      "payable": false,
      "stateMutability": "view",
      "type": "function"
    },
    {
      "constant": true,
      "inputs": [
        {
          "internalType": "address",
          "name": "_scheme",
          "type": "address"
        },
        {
          "internalType": "address",
          "name": "_avatar",
          "type": "address"
        }
      ],
      "name": "getSchemeParameters",
      "outputs": [
        {
          "internalType": "bytes32",
          "name": "",
          "type": "bytes32"
        }
      ],
      "payable": false,
      "stateMutability": "view",
      "type": "function"
    },
    {
      "constant": true,
      "inputs": [
        {
          "internalType": "address",
          "name": "_scheme",
          "type": "address"
        },
        {
          "internalType": "address",
          "name": "_avatar",
          "type": "address"
        }
      ],
      "name": "getSchemePermissions",
      "outputs": [
        {
          "internalType": "bytes4",
          "name": "",
          "type": "bytes4"
        }
      ],
      "payable": false,
      "stateMutability": "view",
      "type": "function"
    },
    {
      "constant": true,
      "inputs": [
        {
          "internalType": "address",
          "name": "_avatar",
          "type": "address"
        }
      ],
      "name": "globalConstraintsCount",
      "outputs": [
        {
          "internalType": "uint256",
          "name": "",
          "type": "uint256"
        },
        {
          "internalType": "uint256",
          "name": "",
          "type": "uint256"
        }
      ],
      "payable": false,
      "stateMutability": "view",
      "type": "function"
    },
    {
      "constant": true,
      "inputs": [
        {
          "internalType": "uint256",
          "name": "",
          "type": "uint256"
        }
      ],
      "name": "globalConstraintsPost",
      "outputs": [
        {
          "internalType": "address",
          "name": "gcAddress",
          "type": "address"
        },
        {
          "internalType": "bytes32",
          "name": "params",
          "type": "bytes32"
        }
      ],
      "payable": false,
      "stateMutability": "view",
      "type": "function"
    },
    {
      "constant": true,
      "inputs": [
        {
          "internalType": "uint256",
          "name": "",
          "type": "uint256"
        }
      ],
      "name": "globalConstraintsPre",
      "outputs": [
        {
          "internalType": "address",
          "name": "gcAddress",
          "type": "address"
        },
        {
          "internalType": "bytes32",
          "name": "params",
          "type": "bytes32"
        }
      ],
      "payable": false,
      "stateMutability": "view",
      "type": "function"
    },
    {
      "constant": true,
      "inputs": [
        {
          "internalType": "address",
          "name": "",
          "type": "address"
        }
      ],
      "name": "globalConstraintsRegisterPost",
      "outputs": [
        {
          "internalType": "bool",
          "name": "isRegistered",
          "type": "bool"
        },
        {
          "internalType": "uint256",
          "name": "index",
          "type": "uint256"
        }
      ],
      "payable": false,
      "stateMutability": "view",
      "type": "function"
    },
    {
      "constant": true,
      "inputs": [
        {
          "internalType": "address",
          "name": "",
          "type": "address"
        }
      ],
      "name": "globalConstraintsRegisterPre",
      "outputs": [
        {
          "internalType": "bool",
          "name": "isRegistered",
          "type": "bool"
        },
        {
          "internalType": "uint256",
          "name": "index",
          "type": "uint256"
        }
      ],
      "payable": false,
      "stateMutability": "view",
      "type": "function"
    },
    {
      "constant": true,
      "inputs": [
        {
          "internalType": "address",
          "name": "_globalConstraint",
          "type": "address"
        },
        {
          "internalType": "address",
          "name": "_avatar",
          "type": "address"
        }
      ],
      "name": "isGlobalConstraintRegistered",
      "outputs": [
        {
          "internalType": "bool",
          "name": "",
          "type": "bool"
        }
      ],
      "payable": false,
      "stateMutability": "view",
      "type": "function"
    },
    {
      "constant": true,
      "inputs": [
        {
          "internalType": "address",
          "name": "_scheme",
          "type": "address"
        },
        {
          "internalType": "address",
          "name": "_avatar",
          "type": "address"
        }
      ],
      "name": "isSchemeRegistered",
      "outputs": [
        {
          "internalType": "bool",
          "name": "",
          "type": "bool"
        }
      ],
      "payable": false,
      "stateMutability": "view",
      "type": "function"
    },
    {
      "constant": false,
      "inputs": [
        {
          "internalType": "string",
          "name": "_metaData",
          "type": "string"
        },
        {
          "internalType": "contract Avatar",
          "name": "_avatar",
          "type": "address"
        }
      ],
      "name": "metaData",
      "outputs": [
        {
          "internalType": "bool",
          "name": "",
          "type": "bool"
        }
      ],
      "payable": false,
      "stateMutability": "nonpayable",
      "type": "function"
    },
    {
      "constant": false,
      "inputs": [
        {
          "internalType": "uint256",
          "name": "_amount",
          "type": "uint256"
        },
        {
          "internalType": "address",
          "name": "_to",
          "type": "address"
        },
        {
          "internalType": "address",
          "name": "_avatar",
          "type": "address"
        }
      ],
      "name": "mintReputation",
      "outputs": [
        {
          "internalType": "bool",
          "name": "",
          "type": "bool"
        }
      ],
      "payable": false,
      "stateMutability": "nonpayable",
      "type": "function"
    },
    {
      "constant": false,
      "inputs": [
        {
          "internalType": "uint256",
          "name": "_amount",
          "type": "uint256"
        },
        {
          "internalType": "address",
          "name": "_beneficiary",
          "type": "address"
        },
        {
          "internalType": "address",
          "name": "_avatar",
          "type": "address"
        }
      ],
      "name": "mintTokens",
      "outputs": [
        {
          "internalType": "bool",
          "name": "",
          "type": "bool"
        }
      ],
      "payable": false,
      "stateMutability": "nonpayable",
      "type": "function"
    },
    {
      "constant": true,
      "inputs": [],
      "name": "nativeReputation",
      "outputs": [
        {
          "internalType": "contract Reputation",
          "name": "",
          "type": "address"
        }
      ],
      "payable": false,
      "stateMutability": "view",
      "type": "function"
    },
    {
      "constant": true,
      "inputs": [],
      "name": "nativeToken",
      "outputs": [
        {
          "internalType": "contract DAOToken",
          "name": "",
          "type": "address"
        }
      ],
      "payable": false,
      "stateMutability": "view",
      "type": "function"
    },
    {
      "constant": true,
      "inputs": [],
      "name": "newController",
      "outputs": [
        {
          "internalType": "address",
          "name": "",
          "type": "address"
        }
      ],
      "payable": false,
      "stateMutability": "view",
      "type": "function"
    },
    {
      "constant": false,
      "inputs": [
        {
          "internalType": "address",
          "name": "_scheme",
          "type": "address"
        },
        {
          "internalType": "bytes32",
          "name": "_paramsHash",
          "type": "bytes32"
        },
        {
          "internalType": "bytes4",
          "name": "_permissions",
          "type": "bytes4"
        },
        {
          "internalType": "address",
          "name": "_avatar",
          "type": "address"
        }
      ],
      "name": "registerScheme",
      "outputs": [
        {
          "internalType": "bool",
          "name": "",
          "type": "bool"
        }
      ],
      "payable": false,
      "stateMutability": "nonpayable",
      "type": "function"
    },
    {
      "constant": false,
      "inputs": [
        {
          "internalType": "address",
          "name": "_globalConstraint",
          "type": "address"
        },
        {
          "internalType": "address",
          "name": "_avatar",
          "type": "address"
        }
      ],
      "name": "removeGlobalConstraint",
      "outputs": [
        {
          "internalType": "bool",
          "name": "",
          "type": "bool"
        }
      ],
      "payable": false,
      "stateMutability": "nonpayable",
      "type": "function"
    },
    {
      "constant": true,
      "inputs": [
        {
          "internalType": "address",
          "name": "",
          "type": "address"
        }
      ],
      "name": "schemes",
      "outputs": [
        {
          "internalType": "bytes32",
          "name": "paramsHash",
          "type": "bytes32"
        },
        {
          "internalType": "bytes4",
          "name": "permissions",
          "type": "bytes4"
        }
      ],
      "payable": false,
      "stateMutability": "view",
      "type": "function"
    },
    {
      "constant": false,
      "inputs": [
        {
          "internalType": "uint256",
          "name": "_amountInWei",
          "type": "uint256"
        },
        {
          "internalType": "address payable",
          "name": "_to",
          "type": "address"
        },
        {
          "internalType": "contract Avatar",
          "name": "_avatar",
          "type": "address"
        }
      ],
      "name": "sendEther",
      "outputs": [
        {
          "internalType": "bool",
          "name": "",
          "type": "bool"
        }
      ],
      "payable": false,
      "stateMutability": "nonpayable",
      "type": "function"
    },
    {
      "constant": false,
      "inputs": [
        {
          "internalType": "address",
          "name": "_scheme",
          "type": "address"
        },
        {
          "internalType": "address",
          "name": "_avatar",
          "type": "address"
        }
      ],
      "name": "unregisterScheme",
      "outputs": [
        {
          "internalType": "bool",
          "name": "",
          "type": "bool"
        }
      ],
      "payable": false,
      "stateMutability": "nonpayable",
      "type": "function"
    },
    {
      "constant": false,
      "inputs": [
        {
          "internalType": "address",
          "name": "_avatar",
          "type": "address"
        }
      ],
      "name": "unregisterSelf",
      "outputs": [
        {
          "internalType": "bool",
          "name": "",
          "type": "bool"
        }
      ],
      "payable": false,
      "stateMutability": "nonpayable",
      "type": "function"
    },
    {
      "constant": false,
      "inputs": [
        {
          "internalType": "address",
          "name": "_newController",
          "type": "address"
        },
        {
          "internalType": "contract Avatar",
          "name": "_avatar",
          "type": "address"
        }
      ],
      "name": "upgradeController",
      "outputs": [
        {
          "internalType": "bool",
          "name": "",
          "type": "bool"
        }
      ],
      "payable": false,
      "stateMutability": "nonpayable",
      "type": "function"
    }
  ],
  "bytecode": "0x60806040523480156200001157600080fd5b5060405162003b4438038062003b44833981810160405260208110156200003757600080fd5b5051600180546001600160a01b0319166001600160a01b03808416919091179182905560408051631c2eb17b60e31b8152905184939092169163e1758bd891600480820192602092909190829003018186803b1580156200009757600080fd5b505afa158015620000ac573d6000803e3d6000fd5b505050506040513d6020811015620000c357600080fd5b5051600280546001600160a01b0319166001600160a01b039283161790556001546040805163089ae1c960e41b8152905191909216916389ae1c90916004808301926020929190829003018186803b1580156200011f57600080fd5b505afa15801562000134573d6000803e3d6000fd5b505050506040513d60208110156200014b57600080fd5b5051600380546001600160a01b0319166001600160a01b0390921691909117905550506040805180820182526000808252601f60e01b6020808401918252338352829052928120915182559151600191909101805463ffffffff191660e09290921c919091179055613980908190620001c490396000f3fe608060405234801561001057600080fd5b50600436106101e55760003560e01c806389ae1c901161010f578063e08738da116100a2578063e8c98b2211610071578063e8c98b221461083e578063eaf994b21461085b578063f76488be1461088f578063fb4856a2146108bd576101e5565b8063e08738da1461078e578063e1758bd8146107bc578063e4537a74146107c4578063e869d45f146107fa576101e5565b8063b9a04cdd116100de578063b9a04cdd1461057f578063c9b62eb1146105bb578063d1b7089a14610634578063db6149ce14610746576101e5565b806389ae1c90146104d85780638da03997146104e05780639b51e35a146105065780639be2faed14610551576101e5565b806351803cd8116101875780636c525b13116101565780636c525b13146104195780636e94d2781461043f578063814784f614610473578063824f2f1f14610499576101e5565b806351803cd81461036d5780635aef7de6146103a9578063634965da146103b15780636407e432146103e5576101e5565b80633a02263c116101c35780633a02263c146102ad57806342427bf8146102d15780634422d372146102ff5780634f52b5be1461033f576101e5565b8063039de01d146101ea578063177eebb01461022c5780631c4d56081461026d575b600080fd5b6102186004803603604081101561020057600080fd5b506001600160a01b0381358116916020013516610903565b604080519115158252519081900360200190f35b6102526004803603602081101561024257600080fd5b50356001600160a01b0316610c09565b60408051921515835260208301919091528051918290030190f35b61029b6004803603604081101561028357600080fd5b506001600160a01b0381358116916020013516610c28565b60408051918252519081900360200190f35b6102b5610c6a565b604080516001600160a01b039092168252519081900360200190f35b610218600480360360408110156102e757600080fd5b506001600160a01b0381358116916020013516610c79565b61031c6004803603602081101561031557600080fd5b503561113b565b604080516001600160a01b03909316835260208301919091528051918290030190f35b6102186004803603604081101561035557600080fd5b506001600160a01b0381358116916020013516611170565b6102186004803603608081101561038357600080fd5b506001600160a01b0381358116916020810135821691604082013591606001351661156b565b6102b561184f565b610218600480360360608110156103c757600080fd5b508035906001600160a01b036020820135811691604001351661185e565b610218600480360360608110156103fb57600080fd5b508035906001600160a01b0360208201358116916040013516611b25565b6102186004803603602081101561042f57600080fd5b50356001600160a01b0316611e24565b6102186004803603606081101561045557600080fd5b508035906001600160a01b0360208201358116916040013516611eab565b6102526004803603602081101561048957600080fd5b50356001600160a01b03166121ae565b6104bf600480360360208110156104af57600080fd5b50356001600160a01b03166121cd565b6040805192835260208301919091528051918290030190f35b6102b56121ff565b6102b5600480360360208110156104f657600080fd5b50356001600160a01b031661220e565b6105346004803603604081101561051c57600080fd5b506001600160a01b0381358116916020013516612240565b604080516001600160e01b03199092168252519081900360200190f35b6102186004803603604081101561056757600080fd5b506001600160a01b0381358116916020013516612283565b6102186004803603608081101561059557600080fd5b506001600160a01b038135811691602081013582169160408201359160600135166122b3565b610218600480360360408110156105d157600080fd5b8101906020810181356401000000008111156105ec57600080fd5b8201836020820111156105fe57600080fd5b8035906020019184600183028401116401000000008311171561062057600080fd5b9193509150356001600160a01b0316612585565b6106c36004803603608081101561064a57600080fd5b6001600160a01b03823516919081019060408101602082013564010000000081111561067557600080fd5b82018360208201111561068757600080fd5b803590602001918460018302840111640100000000831117156106a957600080fd5b91935091506001600160a01b038135169060200135612675565b604051808315151515815260200180602001828103825283818151815260200191508051906020019080838360005b8381101561070a5781810151838201526020016106f2565b50505050905090810190601f1680156107375780820380516001836020036101000a031916815260200191505b50935050505060405180910390f35b61076c6004803603602081101561075c57600080fd5b50356001600160a01b0316612a46565b604080519283526001600160e01b031990911660208301528051918290030190f35b61029b600480360360408110156107a457600080fd5b506001600160a01b0381358116916020013516612a62565b6102b5612b2e565b610218600480360360608110156107da57600080fd5b506001600160a01b03813581169160208101359160409091013516612b3d565b6102186004803603608081101561081057600080fd5b506001600160a01b0381358116916020810135916001600160e01b0319604083013516916060013516612f09565b61031c6004803603602081101561085457600080fd5b5035613246565b6102186004803603606081101561087157600080fd5b508035906001600160a01b0360208201358116916040013516613253565b610218600480360360408110156108a557600080fd5b506001600160a01b0381358116916020013516613556565b610218600480360360a08110156108d357600080fd5b506001600160a01b03813581169160208101358216916040820135811691606081013591608090910135166135b8565b3360009081526020819052604081206001015460e01b600160e11b9081161461092b57600080fd5b6f756e7265676973746572536368656d6560801b60005b600554811015610a32576005818154811061095957fe5b6000918252602090912060029091020154600580546001600160a01b039092169163c1786ab29133918590811061098c57fe5b906000526020600020906002020160010154856040518463ffffffff1660e01b815260040180846001600160a01b03166001600160a01b031681526020018381526020018281526020019350505050602060405180830381600087803b1580156109f557600080fd5b505af1158015610a09573d6000803e3d6000fd5b505050506040513d6020811015610a1f57600080fd5b5051610a2a57600080fd5b600101610942565b60015484906001600160a01b03808316911614610a4e57600080fd5b610a57866138a5565b610a645760009350610b0b565b336000908152602081905260408082206001908101546001600160a01b038a168452919092209091015460e091821b19911b16601f60e01b1615610aa757600080fd5b6040516001600160a01b0387169033907f10bb2cf04cb8b902a8e736d494f1a51003be6d4b16ef6fb95ce62c38445023bf90600090a36001600160a01b03861660009081526020819052604081209081556001908101805463ffffffff1916905593505b50600090505b600654811015610c015760068181548110610b2857fe5b6000918252602090912060029091020154600680546001600160a01b0390921691638043154d91339185908110610b5b57fe5b906000526020600020906002020160010154856040518463ffffffff1660e01b815260040180846001600160a01b03166001600160a01b031681526020018381526020018281526020019350505050602060405180830381600087803b158015610bc457600080fd5b505af1158015610bd8573d6000803e3d6000fd5b505050506040513d6020811015610bee57600080fd5b5051610bf957600080fd5b600101610b11565b505092915050565b6007602052600090815260409020805460019091015460ff9091169082565b60015460009082906001600160a01b03808316911614610c4757600080fd5b6001600160a01b03841660009081526020819052604090205491505b5092915050565b6004546001600160a01b031681565b3360009081526020819052604081206001015460e01b600160e31b90811614610ca157600080fd5b60015482906001600160a01b03808316911614610cbd57600080fd5b6004546001600160a01b031615610cd357600080fd5b6001600160a01b038416610ce657600080fd5b600480546001600160a01b0319166001600160a01b0386811691821783556001546040805163f2fde38b60e01b815294850193909352915191169163f2fde38b91602480830192600092919082900301818387803b158015610d4757600080fd5b505af1158015610d5b573d6000803e3d6000fd5b50505050836001600160a01b0316600160009054906101000a90046001600160a01b03166001600160a01b0316638da5cb5b6040518163ffffffff1660e01b815260040160206040518083038186803b158015610db757600080fd5b505afa158015610dcb573d6000803e3d6000fd5b505050506040513d6020811015610de157600080fd5b50516001600160a01b031614610df657600080fd5b60025460408051638da5cb5b60e01b8152905130926001600160a01b031691638da5cb5b916004808301926020929190829003018186803b158015610e3a57600080fd5b505afa158015610e4e573d6000803e3d6000fd5b505050506040513d6020811015610e6457600080fd5b50516001600160a01b03161415610f72576002546040805163f2fde38b60e01b81526001600160a01b0387811660048301529151919092169163f2fde38b91602480830192600092919082900301818387803b158015610ec357600080fd5b505af1158015610ed7573d6000803e3d6000fd5b50505050836001600160a01b0316600260009054906101000a90046001600160a01b03166001600160a01b0316638da5cb5b6040518163ffffffff1660e01b815260040160206040518083038186803b158015610f3357600080fd5b505afa158015610f47573d6000803e3d6000fd5b505050506040513d6020811015610f5d57600080fd5b50516001600160a01b031614610f7257600080fd5b60035460408051638da5cb5b60e01b8152905130926001600160a01b031691638da5cb5b916004808301926020929190829003018186803b158015610fb657600080fd5b505afa158015610fca573d6000803e3d6000fd5b505050506040513d6020811015610fe057600080fd5b50516001600160a01b031614156110ee576003546040805163f2fde38b60e01b81526001600160a01b0387811660048301529151919092169163f2fde38b91602480830192600092919082900301818387803b15801561103f57600080fd5b505af1158015611053573d6000803e3d6000fd5b50505050836001600160a01b0316600360009054906101000a90046001600160a01b03166001600160a01b0316638da5cb5b6040518163ffffffff1660e01b815260040160206040518083038186803b1580156110af57600080fd5b505afa1580156110c3573d6000803e3d6000fd5b505050506040513d60208110156110d957600080fd5b50516001600160a01b0316146110ee57600080fd5b600454604080516001600160a01b039290921682525130917fdb7cbacf8df312d794506c0cc9af07f64d29ca075796ea2e950a3832cc9a63dd919081900360200190a25060019392505050565b6005818154811061114857fe5b6000918252602090912060029091020180546001909101546001600160a01b03909116915082565b3360009081526020819052604081206001015460e01b600160e21b9081161461119857600080fd5b60015482906001600160a01b038083169116146111b457600080fd5b6111bc6138d1565b6111c46138d1565b6000866001600160a01b031663e2b0caef6040518163ffffffff1660e01b8152600401602060405180830381600087803b15801561120157600080fd5b505af1158015611215573d6000803e3d6000fd5b505050506040513d602081101561122b57600080fd5b5051905060008082600281111561123e57fe5b14806112555750600282600281111561125357fe5b145b15611399576001600160a01b0388166000908152600760209081526040918290208251808401909352805460ff16158015845260019091015491830191909152909450611399576001600580549050038460200151101561135a576005805460001981019081106112c257fe5b60009182526020918290206040805180820190915260029092020180546001600160a01b03168252600101548183015290850151600580549295508592909190811061130a57fe5b6000918252602080832084516002939093020180546001600160a01b0319166001600160a01b03938416178155938101516001948501558781015187519092168352600790526040909120909101555b600580549061136d9060001983016138e8565b50506001600160a01b0387166000908152600760205260408120805460ff191681556001908101919091555b60018260028111156113a757fe5b14806113be575060028260028111156113bc57fe5b145b15611502576001600160a01b0388166000908152600860209081526040918290208251808401909352805460ff1615801584526001909101549183019190915290945061150257600160068054905003846020015110156114c35760068054600019810190811061142b57fe5b60009182526020918290206040805180820190915260029092020180546001600160a01b03168252600101548183015290850151600680549295508592909190811061147357fe5b6000918252602080832084516002939093020180546001600160a01b0319166001600160a01b03938416178155938101516001948501558781015187519092168352600890526040909120909101555b60068054906114d69060001983016138e8565b50506001600160a01b0387166000908152600860205260408120805460ff191681556001908101919091555b80156115605760208401516001600160a01b038916907fcdf1a50ea6b7de555bd409f8a4a53ea43c6dc6b4caa961889da9e005f21bbaa990600085600281111561154857fe5b60408051938452911460208301528051918290030190a25b979650505050505050565b3360009081526020819052604081206001015460e01b600160e01b9081161461159357600080fd5b7f65787465726e616c546f6b656e496e637265617365417070726f76616c00000060005b6005548110156116a757600581815481106115ce57fe5b6000918252602090912060029091020154600580546001600160a01b039092169163c1786ab29133918590811061160157fe5b906000526020600020906002020160010154856040518463ffffffff1660e01b815260040180846001600160a01b03166001600160a01b031681526020018381526020018281526020019350505050602060405180830381600087803b15801561166a57600080fd5b505af115801561167e573d6000803e3d6000fd5b505050506040513d602081101561169457600080fd5b505161169f57600080fd5b6001016115b7565b60015484906001600160a01b038083169116146116c357600080fd5b6001546040805163ab751f7160e01b81526001600160a01b038b811660048301528a81166024830152604482018a90529151919092169163ab751f719160648083019260209291908290030181600087803b15801561172157600080fd5b505af1158015611735573d6000803e3d6000fd5b505050506040513d602081101561174b57600080fd5b5051935050600090505b600654811015611845576006818154811061176c57fe5b6000918252602090912060029091020154600680546001600160a01b0390921691638043154d9133918590811061179f57fe5b906000526020600020906002020160010154856040518463ffffffff1660e01b815260040180846001600160a01b03166001600160a01b031681526020018381526020018281526020019350505050602060405180830381600087803b15801561180857600080fd5b505af115801561181c573d6000803e3d6000fd5b505050506040513d602081101561183257600080fd5b505161183d57600080fd5b600101611755565b5050949350505050565b6001546001600160a01b031681565b3360009081526020819052604081206001015460e01b600160e01b9081161461188657600080fd5b6839b2b73222ba3432b960b91b60005b60055481101561198657600581815481106118ad57fe5b6000918252602090912060029091020154600580546001600160a01b039092169163c1786ab2913391859081106118e057fe5b906000526020600020906002020160010154856040518463ffffffff1660e01b815260040180846001600160a01b03166001600160a01b031681526020018381526020018281526020019350505050602060405180830381600087803b15801561194957600080fd5b505af115801561195d573d6000803e3d6000fd5b505050506040513d602081101561197357600080fd5b505161197e57600080fd5b600101611896565b60015484906001600160a01b038083169116146119a257600080fd5b6001546040805163658b6a5160e11b8152600481018a90526001600160a01b0389811660248301529151919092169163cb16d4a29160448083019260209291908290030181600087803b1580156119f857600080fd5b505af1158015611a0c573d6000803e3d6000fd5b505050506040513d6020811015611a2257600080fd5b5051935050600090505b600654811015611b1c5760068181548110611a4357fe5b6000918252602090912060029091020154600680546001600160a01b0390921691638043154d91339185908110611a7657fe5b906000526020600020906002020160010154856040518463ffffffff1660e01b815260040180846001600160a01b03166001600160a01b031681526020018381526020018281526020019350505050602060405180830381600087803b158015611adf57600080fd5b505af1158015611af3573d6000803e3d6000fd5b505050506040513d6020811015611b0957600080fd5b5051611b1457600080fd5b600101611a2c565b50509392505050565b3360009081526020819052604081206001015460e01b600160e01b90811614611b4d57600080fd5b696d696e74546f6b656e7360b01b60005b600554811015611c4e5760058181548110611b7557fe5b6000918252602090912060029091020154600580546001600160a01b039092169163c1786ab291339185908110611ba857fe5b906000526020600020906002020160010154856040518463ffffffff1660e01b815260040180846001600160a01b03166001600160a01b031681526020018381526020018281526020019350505050602060405180830381600087803b158015611c1157600080fd5b505af1158015611c25573d6000803e3d6000fd5b505050506040513d6020811015611c3b57600080fd5b5051611c4657600080fd5b600101611b5e565b60015484906001600160a01b03808316911614611c6a57600080fd5b6040805188815290516001600160a01b0388169133917f21f9c9a1a1f9a311a50f15fec5c1faa9e21fc9edf964f0fdecba5bd490484c5e9181900360200190a3600254604080516340c10f1960e01b81526001600160a01b038981166004830152602482018b9052915191909216916340c10f199160448083019260209291908290030181600087803b158015611d0057600080fd5b505af1158015611d14573d6000803e3d6000fd5b505050506040513d6020811015611d2a57600080fd5b5051935050600090505b600654811015611b1c5760068181548110611d4b57fe5b6000918252602090912060029091020154600680546001600160a01b0390921691638043154d91339185908110611d7e57fe5b906000526020600020906002020160010154856040518463ffffffff1660e01b815260040180846001600160a01b03166001600160a01b031681526020018381526020018281526020019350505050602060405180830381600087803b158015611de757600080fd5b505af1158015611dfb573d6000803e3d6000fd5b505050506040513d6020811015611e1157600080fd5b5051611e1c57600080fd5b600101611d34565b60015460009082906001600160a01b03808316911614611e4357600080fd5b611e4c336138a5565b611e595760009150611ea5565b33600081815260208190526040808220828155600101805463ffffffff191690555182917f10bb2cf04cb8b902a8e736d494f1a51003be6d4b16ef6fb95ce62c38445023bf91a3600191505b50919050565b3360009081526020819052604081206001015460e01b600160e01b90811614611ed357600080fd5b6d313ab9372932b83aba30ba34b7b760911b60005b600554811015611fd85760058181548110611eff57fe5b6000918252602090912060029091020154600580546001600160a01b039092169163c1786ab291339185908110611f3257fe5b906000526020600020906002020160010154856040518463ffffffff1660e01b815260040180846001600160a01b03166001600160a01b031681526020018381526020018281526020019350505050602060405180830381600087803b158015611f9b57600080fd5b505af1158015611faf573d6000803e3d6000fd5b505050506040513d6020811015611fc557600080fd5b5051611fd057600080fd5b600101611ee8565b60015484906001600160a01b03808316911614611ff457600080fd5b6040805188815290516001600160a01b0388169133917f186d8887e1b22f9d9b16849c36baa748950d09d9c9b67a4a6ea140eaad00c21c9181900360200190a360035460408051632770a7eb60e21b81526001600160a01b038981166004830152602482018b905291519190921691639dc29fac9160448083019260209291908290030181600087803b15801561208a57600080fd5b505af115801561209e573d6000803e3d6000fd5b505050506040513d60208110156120b457600080fd5b5051935050600090505b600654811015611b1c57600681815481106120d557fe5b6000918252602090912060029091020154600680546001600160a01b0390921691638043154d9133918590811061210857fe5b906000526020600020906002020160010154856040518463ffffffff1660e01b815260040180846001600160a01b03166001600160a01b031681526020018381526020018281526020019350505050602060405180830381600087803b15801561217157600080fd5b505af1158015612185573d6000803e3d6000fd5b505050506040513d602081101561219b57600080fd5b50516121a657600080fd5b6001016120be565b6008602052600090815260409020805460019091015460ff9091169082565b600154600090819083906001600160a01b038083169116146121ee57600080fd5b600554600654909350915050915091565b6003546001600160a01b031681565b60015460009082906001600160a01b0380831691161461222d57600080fd5b50506003546001600160a01b0316919050565b60015460009082906001600160a01b0380831691161461225f57600080fd5b5050506001600160a01b031660009081526020819052604090206001015460e01b90565b60015460009082906001600160a01b038083169116146122a257600080fd5b6122ab846138a5565b949350505050565b3360009081526020819052604081206001015460e01b600160e01b908116146122db57600080fd5b7432bc3a32b93730b62a37b5b2b72a3930b739b332b960591b60005b6005548110156123e7576005818154811061230e57fe5b6000918252602090912060029091020154600580546001600160a01b039092169163c1786ab29133918590811061234157fe5b906000526020600020906002020160010154856040518463ffffffff1660e01b815260040180846001600160a01b03166001600160a01b031681526020018381526020018281526020019350505050602060405180830381600087803b1580156123aa57600080fd5b505af11580156123be573d6000803e3d6000fd5b505050506040513d60208110156123d457600080fd5b50516123df57600080fd5b6001016122f7565b60015484906001600160a01b0380831691161461240357600080fd5b6001546040805163dab0efff60e01b81526001600160a01b038b811660048301528a81166024830152604482018a90529151919092169163dab0efff9160648083019260209291908290030181600087803b15801561246157600080fd5b505af1158015612475573d6000803e3d6000fd5b505050506040513d602081101561248b57600080fd5b5051935050600090505b60065481101561184557600681815481106124ac57fe5b6000918252602090912060029091020154600680546001600160a01b0390921691638043154d913391859081106124df57fe5b906000526020600020906002020160010154856040518463ffffffff1660e01b815260040180846001600160a01b03166001600160a01b031681526020018381526020018281526020019350505050602060405180830381600087803b15801561254857600080fd5b505af115801561255c573d6000803e3d6000fd5b505050506040513d602081101561257257600080fd5b505161257d57600080fd5b600101612495565b3360009081526020819052604081206001015460e01b600160e41b908116146125ad57600080fd5b60015482906001600160a01b038083169116146125c957600080fd5b600154604051632242b11b60e21b8152602060048201908152602482018790526001600160a01b039092169163890ac46c91889188918190604401848480828437600081840152601f19601f8201169050808301925050509350505050602060405180830381600087803b15801561264057600080fd5b505af1158015612654573d6000803e3d6000fd5b505050506040513d602081101561266a57600080fd5b505195945050505050565b3360009081526020819052604081206001015460609060e01b600160e41b908116146126a057600080fd5b6a19d95b995c9a58d0d85b1b60aa1b60005b6005548110156127a257600581815481106126c957fe5b6000918252602090912060029091020154600580546001600160a01b039092169163c1786ab2913391859081106126fc57fe5b906000526020600020906002020160010154856040518463ffffffff1660e01b815260040180846001600160a01b03166001600160a01b031681526020018381526020018281526020019350505050602060405180830381600087803b15801561276557600080fd5b505af1158015612779573d6000803e3d6000fd5b505050506040513d602081101561278f57600080fd5b505161279a57600080fd5b6001016126b2565b60015486906001600160a01b038083169116146127be57600080fd5b60015460405163057e2c8b60e31b81526001600160a01b038c811660048301908152604483018a9052606060248401908152606484018d90529190931692632bf16458928e928e928e928d9290608401858580828437600081840152601f19601f82011690508083019250505095505050505050600060405180830381600087803b15801561284c57600080fd5b505af1158015612860573d6000803e3d6000fd5b505050506040513d6000823e601f3d908101601f19168201604090815281101561288957600080fd5b8151602083018051604051929492938301929190846401000000008211156128b057600080fd5b9083019060208201858111156128c557600080fd5b82516401000000008111828201881017156128df57600080fd5b82525081516020918201929091019080838360005b8381101561290c5781810151838201526020016128f4565b50505050905090810190601f1680156129395780820380516001836020036101000a031916815260200191505b506040525050509450945050600090505b600654811015612a3a576006818154811061296157fe5b6000918252602090912060029091020154600680546001600160a01b0390921691638043154d9133918590811061299457fe5b906000526020600020906002020160010154856040518463ffffffff1660e01b815260040180846001600160a01b03166001600160a01b031681526020018381526020018281526020019350505050602060405180830381600087803b1580156129fd57600080fd5b505af1158015612a11573d6000803e3d6000fd5b505050506040513d6020811015612a2757600080fd5b5051612a3257600080fd5b60010161294a565b50509550959350505050565b6000602081905290815260409020805460019091015460e01b82565b6000612a6c6138d1565b506001600160a01b0383166000908152600760209081526040918290208251808401909352805460ff16158015845260019091015491830191909152612ad7576005816020015181548110612abd57fe5b906000526020600020906002020160010154915050612b28565b506001600160a01b0383166000908152600860209081526040918290208251808401909352805460ff16158015845260019091015491830191909152610c63576006816020015181548110612abd57fe5b92915050565b6002546001600160a01b031681565b3360009081526020819052604081206001015460e01b600160e21b90811614612b6557600080fd5b60015482906001600160a01b03808316911614612b8157600080fd5b6000856001600160a01b031663e2b0caef6040518163ffffffff1660e01b8152600401602060405180830381600087803b158015612bbe57600080fd5b505af1158015612bd2573d6000803e3d6000fd5b505050506040513d6020811015612be857600080fd5b505190506000816002811115612bfa57fe5b1480612c1157506002816002811115612c0f57fe5b145b15612d49576001600160a01b03861660009081526007602052604090205460ff16612d08576040805180820182526001600160a01b0388811680835260208084018a81526005805460018082018355600083815297517f036b6384b5eca791c62761152d0c79bb0604c104a5fb6f4eb0703f3154bb3db0600290930292830180546001600160a01b031916919098161790965591517f036b6384b5eca791c62761152d0c79bb0604c104a5fb6f4eb0703f3154bb3db190920191909155855180870187528481529054600019018183019081529285526007909152939092209251835460ff19169015151783559051910155612d49565b6001600160a01b038616600090815260076020526040902060010154600580548792908110612d3357fe5b9060005260206000209060020201600101819055505b6001816002811115612d5757fe5b1480612d6e57506002816002811115612d6c57fe5b145b15612ea6576001600160a01b03861660009081526008602052604090205460ff16612e65576040805180820182526001600160a01b0388811680835260208084018a81526006805460018082018355600083815297517ff652222313e28459528d920b65115c16c04f3efc82aaedc97be59f3f377c0d3f600290930292830180546001600160a01b031916919098161790965591517ff652222313e28459528d920b65115c16c04f3efc82aaedc97be59f3f377c0d4090920191909155855180870187528481529054600019018183019081529285526008909152939092209251835460ff19169015151783559051910155612ea6565b6001600160a01b038616600090815260086020526040902060010154600680548792908110612e9057fe5b9060005260206000209060020201600101819055505b856001600160a01b03167f78800d7333b8d0174a0845569e3913b7ce4a3c03ca444dd9904172fc14f2fdad868360405180838152602001826002811115612ee957fe5b60ff1681526020019250505060405180910390a250600195945050505050565b3360009081526020819052604081206001015460e01b600160e11b90811614612f3157600080fd5b6d7265676973746572536368656d6560901b60005b6005548110156130365760058181548110612f5d57fe5b6000918252602090912060029091020154600580546001600160a01b039092169163c1786ab291339185908110612f9057fe5b906000526020600020906002020160010154856040518463ffffffff1660e01b815260040180846001600160a01b03166001600160a01b031681526020018381526020018281526020019350505050602060405180830381600087803b158015612ff957600080fd5b505af115801561300d573d6000803e3d6000fd5b505050506040513d602081101561302357600080fd5b505161302e57600080fd5b600101612f46565b60015484906001600160a01b0380831691161461305257600080fd5b61305a6138d1565b506001600160a01b03881660009081526020818152604080832081518083018352815481526001918201546001600160e01b031960e091821b16828601908152338752948690529290942001549151891891901b1916601f60e01b16156130c057600080fd5b336000908152602081815260409091206001015490820151601f60e01b60e09290921b191616156130f057600080fd5b6001600160a01b0389166000818152602081905260408082208b8155600101805463ffffffff1916600160e01b8c1760e01c1790555133917f546816e99403df442acb68ef69562682a50762c20a3fb6b472f7af9923736cfc91a3600194505050600090505b600654811015611845576006818154811061316d57fe5b6000918252602090912060029091020154600680546001600160a01b0390921691638043154d913391859081106131a057fe5b906000526020600020906002020160010154856040518463ffffffff1660e01b815260040180846001600160a01b03166001600160a01b031681526020018381526020018281526020019350505050602060405180830381600087803b15801561320957600080fd5b505af115801561321d573d6000803e3d6000fd5b505050506040513d602081101561323357600080fd5b505161323e57600080fd5b600101613156565b6006818154811061114857fe5b3360009081526020819052604081206001015460e01b600160e01b9081161461327b57600080fd5b6d36b4b73a2932b83aba30ba34b7b760911b60005b60055481101561338057600581815481106132a757fe5b6000918252602090912060029091020154600580546001600160a01b039092169163c1786ab2913391859081106132da57fe5b906000526020600020906002020160010154856040518463ffffffff1660e01b815260040180846001600160a01b03166001600160a01b031681526020018381526020018281526020019350505050602060405180830381600087803b15801561334357600080fd5b505af1158015613357573d6000803e3d6000fd5b505050506040513d602081101561336d57600080fd5b505161337857600080fd5b600101613290565b60015484906001600160a01b0380831691161461339c57600080fd5b6040805188815290516001600160a01b0388169133917f837f2931e3df0592458212be4e470025f197feb7a8e39deb5b7f1f1d42e6f2629181900360200190a3600354604080516340c10f1960e01b81526001600160a01b038981166004830152602482018b9052915191909216916340c10f199160448083019260209291908290030181600087803b15801561343257600080fd5b505af1158015613446573d6000803e3d6000fd5b505050506040513d602081101561345c57600080fd5b5051935050600090505b600654811015611b1c576006818154811061347d57fe5b6000918252602090912060029091020154600680546001600160a01b0390921691638043154d913391859081106134b057fe5b906000526020600020906002020160010154856040518463ffffffff1660e01b815260040180846001600160a01b03166001600160a01b031681526020018381526020018281526020019350505050602060405180830381600087803b15801561351957600080fd5b505af115801561352d573d6000803e3d6000fd5b505050506040513d602081101561354357600080fd5b505161354e57600080fd5b600101613466565b60015460009082906001600160a01b0380831691161461357557600080fd5b6001600160a01b03841660009081526007602052604090205460ff16806122ab57505050506001600160a01b031660009081526008602052604090205460ff1690565b3360009081526020819052604081206001015460e01b600160e01b908116146135e057600080fd5b7f65787465726e616c546f6b656e5472616e7366657246726f6d0000000000000060005b6005548110156136f4576005818154811061361b57fe5b6000918252602090912060029091020154600580546001600160a01b039092169163c1786ab29133918590811061364e57fe5b906000526020600020906002020160010154856040518463ffffffff1660e01b815260040180846001600160a01b03166001600160a01b031681526020018381526020018281526020019350505050602060405180830381600087803b1580156136b757600080fd5b505af11580156136cb573d6000803e3d6000fd5b505050506040513d60208110156136e157600080fd5b50516136ec57600080fd5b600101613604565b60015484906001600160a01b0380831691161461371057600080fd5b60015460408051635bab6ad160e11b81526001600160a01b038c811660048301528b811660248301528a81166044830152606482018a90529151919092169163b756d5a29160848083019260209291908290030181600087803b15801561377657600080fd5b505af115801561378a573d6000803e3d6000fd5b505050506040513d60208110156137a057600080fd5b5051935050600090505b60065481101561389a57600681815481106137c157fe5b6000918252602090912060029091020154600680546001600160a01b0390921691638043154d913391859081106137f457fe5b906000526020600020906002020160010154856040518463ffffffff1660e01b815260040180846001600160a01b03166001600160a01b031681526020018381526020018281526020019350505050602060405180830381600087803b15801561385d57600080fd5b505af1158015613871573d6000803e3d6000fd5b505050506040513d602081101561388757600080fd5b505161389257600080fd5b6001016137aa565b505095945050505050565b6001600160a01b03811660009081526020819052604090206001015460e01b600160e01b161515919050565b604080518082019091526000808252602082015290565b815481835581811115613914576002028160020283600052602060002091820191016139149190613919565b505050565b61394891905b808211156139445780546001600160a01b03191681556000600182015560020161391f565b5090565b9056fea265627a7a723158209f5cda60a3bd176ff6ea5e575b15f1291b825ebd15469fc7b389e9e7e184330b64736f6c63430005110032",
  "source": "/**\n *Submitted for verification at Etherscan.io on 2019-04-02\n */\n\n// File: openzeppelin-solidity/contracts/ownership/Ownable.sol\n\npragma solidity ^0.5.0;\n\n/**\n * @title Ownable\n * @dev The Ownable contract has an owner address, and provides basic authorization control\n * functions, this simplifies the implementation of \"user permissions\".\n */\ncontract Ownable {\n    address private _owner;\n\n    event OwnershipTransferred(address indexed previousOwner, address indexed newOwner);\n\n    /**\n     * @dev The Ownable constructor sets the original `owner` of the contract to the sender\n     * account.\n     */\n    constructor() internal {\n        _owner = msg.sender;\n        emit OwnershipTransferred(address(0), _owner);\n    }\n\n    /**\n     * @return the address of the owner.\n     */\n    function owner() public view returns (address) {\n        return _owner;\n    }\n\n    /**\n     * @dev Throws if called by any account other than the owner.\n     */\n    modifier onlyOwner() {\n        require(isOwner());\n        _;\n    }\n\n    /**\n     * @return true if `msg.sender` is the owner of the contract.\n     */\n    function isOwner() public view returns (bool) {\n        return msg.sender == _owner;\n    }\n\n    /**\n     * @dev Allows the current owner to relinquish control of the contract.\n     * @notice Renouncing to ownership will leave the contract without an owner.\n     * It will not be possible to call the functions with the `onlyOwner`\n     * modifier anymore.\n     */\n    function renounceOwnership() public onlyOwner {\n        emit OwnershipTransferred(_owner, address(0));\n        _owner = address(0);\n    }\n\n    /**\n     * @dev Allows the current owner to transfer control of the contract to a newOwner.\n     * @param newOwner The address to transfer ownership to.\n     */\n    function transferOwnership(address newOwner) public onlyOwner {\n        _transferOwnership(newOwner);\n    }\n\n    /**\n     * @dev Transfers control of the contract to a newOwner.\n     * @param newOwner The address to transfer ownership to.\n     */\n    function _transferOwnership(address newOwner) internal {\n        require(newOwner != address(0));\n        emit OwnershipTransferred(_owner, newOwner);\n        _owner = newOwner;\n    }\n}\n\n// File: @daostack/infra/contracts/Reputation.sol\n\npragma solidity ^0.5.4;\n\n/**\n * @title Reputation system\n * @dev A DAO has Reputation System which allows peers to rate other peers in order to build trust .\n * A reputation is use to assign influence measure to a DAO'S peers.\n * Reputation is similar to regular tokens but with one crucial difference: It is non-transferable.\n * The Reputation contract maintain a map of address to reputation value.\n * It provides an onlyOwner functions to mint and burn reputation _to (or _from) a specific address.\n */\n\ncontract Reputation is Ownable {\n    uint8 public decimals = 18; //Number of decimals of the smallest unit\n    // Event indicating minting of reputation to an address.\n    event Mint(address indexed _to, uint256 _amount);\n    // Event indicating burning of reputation for an address.\n    event Burn(address indexed _from, uint256 _amount);\n\n    /// @dev `Checkpoint` is the structure that attaches a block number to a\n    ///  given value, the block number attached is the one that last changed the\n    ///  value\n    struct Checkpoint {\n        // `fromBlock` is the block number that the value was generated from\n        uint128 fromBlock;\n        // `value` is the amount of reputation at a specific block number\n        uint128 value;\n    }\n\n    // `balances` is the map that tracks the balance of each address, in this\n    //  contract when the balance changes the block number that the change\n    //  occurred is also included in the map\n    mapping(address => Checkpoint[]) balances;\n\n    // Tracks the history of the `totalSupply` of the reputation\n    Checkpoint[] totalSupplyHistory;\n\n    /// @notice Constructor to create a Reputation\n    constructor() public {}\n\n    /// @dev This function makes it easy to get the total number of reputation\n    /// @return The total number of reputation\n    function totalSupply() public view returns (uint256) {\n        return totalSupplyAt(block.number);\n    }\n\n    ////////////////\n    // Query balance and totalSupply in History\n    ////////////////\n    /**\n     * @dev return the reputation amount of a given owner\n     * @param _owner an address of the owner which we want to get his reputation\n     */\n    function balanceOf(address _owner) public view returns (uint256 balance) {\n        return balanceOfAt(_owner, block.number);\n    }\n\n    /// @dev Queries the balance of `_owner` at a specific `_blockNumber`\n    /// @param _owner The address from which the balance will be retrieved\n    /// @param _blockNumber The block number when the balance is queried\n    /// @return The balance at `_blockNumber`\n    function balanceOfAt(address _owner, uint256 _blockNumber) public view returns (uint256) {\n        if ((balances[_owner].length == 0) || (balances[_owner][0].fromBlock > _blockNumber)) {\n            return 0;\n            // This will return the expected balance during normal situations\n        } else {\n            return getValueAt(balances[_owner], _blockNumber);\n        }\n    }\n\n    /// @notice Total amount of reputation at a specific `_blockNumber`.\n    /// @param _blockNumber The block number when the totalSupply is queried\n    /// @return The total amount of reputation at `_blockNumber`\n    function totalSupplyAt(uint256 _blockNumber) public view returns (uint256) {\n        if ((totalSupplyHistory.length == 0) || (totalSupplyHistory[0].fromBlock > _blockNumber)) {\n            return 0;\n            // This will return the expected totalSupply during normal situations\n        } else {\n            return getValueAt(totalSupplyHistory, _blockNumber);\n        }\n    }\n\n    /// @notice Generates `_amount` reputation that are assigned to `_owner`\n    /// @param _user The address that will be assigned the new reputation\n    /// @param _amount The quantity of reputation generated\n    /// @return True if the reputation are generated correctly\n    function mint(address _user, uint256 _amount) public onlyOwner returns (bool) {\n        uint256 curTotalSupply = totalSupply();\n        require(curTotalSupply + _amount >= curTotalSupply); // Check for overflow\n        uint256 previousBalanceTo = balanceOf(_user);\n        require(previousBalanceTo + _amount >= previousBalanceTo); // Check for overflow\n        updateValueAtNow(totalSupplyHistory, curTotalSupply + _amount);\n        updateValueAtNow(balances[_user], previousBalanceTo + _amount);\n        emit Mint(_user, _amount);\n        return true;\n    }\n\n    /// @notice Burns `_amount` reputation from `_owner`\n    /// @param _user The address that will lose the reputation\n    /// @param _amount The quantity of reputation to burn\n    /// @return True if the reputation are burned correctly\n    function burn(address _user, uint256 _amount) public onlyOwner returns (bool) {\n        uint256 curTotalSupply = totalSupply();\n        uint256 amountBurned = _amount;\n        uint256 previousBalanceFrom = balanceOf(_user);\n        if (previousBalanceFrom < amountBurned) {\n            amountBurned = previousBalanceFrom;\n        }\n        updateValueAtNow(totalSupplyHistory, curTotalSupply - amountBurned);\n        updateValueAtNow(balances[_user], previousBalanceFrom - amountBurned);\n        emit Burn(_user, amountBurned);\n        return true;\n    }\n\n    ////////////////\n    // Internal helper functions to query and set a value in a snapshot array\n    ////////////////\n\n    /// @dev `getValueAt` retrieves the number of reputation at a given block number\n    /// @param checkpoints The history of values being queried\n    /// @param _block The block number to retrieve the value at\n    /// @return The number of reputation being queried\n    function getValueAt(Checkpoint[] storage checkpoints, uint256 _block) internal view returns (uint256) {\n        if (checkpoints.length == 0) {\n            return 0;\n        }\n\n        // Shortcut for the actual value\n        if (_block >= checkpoints[checkpoints.length - 1].fromBlock) {\n            return checkpoints[checkpoints.length - 1].value;\n        }\n        if (_block < checkpoints[0].fromBlock) {\n            return 0;\n        }\n\n        // Binary search of the value in the array\n        uint256 min = 0;\n        uint256 max = checkpoints.length - 1;\n        while (max > min) {\n            uint256 mid = (max + min + 1) / 2;\n            if (checkpoints[mid].fromBlock <= _block) {\n                min = mid;\n            } else {\n                max = mid - 1;\n            }\n        }\n        return checkpoints[min].value;\n    }\n\n    /// @dev `updateValueAtNow` used to update the `balances` map and the\n    ///  `totalSupplyHistory`\n    /// @param checkpoints The history of data being updated\n    /// @param _value The new number of reputation\n    function updateValueAtNow(Checkpoint[] storage checkpoints, uint256 _value) internal {\n        require(uint128(_value) == _value); //check value is in the 128 bits bounderies\n        if ((checkpoints.length == 0) || (checkpoints[checkpoints.length - 1].fromBlock < block.number)) {\n            Checkpoint storage newCheckPoint = checkpoints[checkpoints.length++];\n            newCheckPoint.fromBlock = uint128(block.number);\n            newCheckPoint.value = uint128(_value);\n        } else {\n            Checkpoint storage oldCheckPoint = checkpoints[checkpoints.length - 1];\n            oldCheckPoint.value = uint128(_value);\n        }\n    }\n}\n\n// File: openzeppelin-solidity/contracts/token/ERC20/IERC20.sol\n\npragma solidity ^0.5.0;\n\n/**\n * @title ERC20 interface\n * @dev see https://github.com/ethereum/EIPs/issues/20\n */\ninterface IERC20 {\n    function transfer(address to, uint256 value) external returns (bool);\n\n    function approve(address spender, uint256 value) external returns (bool);\n\n    function transferFrom(\n        address from,\n        address to,\n        uint256 value\n    ) external returns (bool);\n\n    function totalSupply() external view returns (uint256);\n\n    function balanceOf(address who) external view returns (uint256);\n\n    function allowance(address owner, address spender) external view returns (uint256);\n\n    event Transfer(address indexed from, address indexed to, uint256 value);\n\n    event Approval(address indexed owner, address indexed spender, uint256 value);\n}\n\n// File: openzeppelin-solidity/contracts/math/SafeMath.sol\n\npragma solidity ^0.5.0;\n\n/**\n * @title SafeMath\n * @dev Unsigned math operations with safety checks that revert on error\n */\nlibrary SafeMath {\n    /**\n     * @dev Multiplies two unsigned integers, reverts on overflow.\n     */\n    function mul(uint256 a, uint256 b) internal pure returns (uint256) {\n        // Gas optimization: this is cheaper than requiring 'a' not being zero, but the\n        // benefit is lost if 'b' is also tested.\n        // See: https://github.com/OpenZeppelin/openzeppelin-solidity/pull/522\n        if (a == 0) {\n            return 0;\n        }\n\n        uint256 c = a * b;\n        require(c / a == b);\n\n        return c;\n    }\n\n    /**\n     * @dev Integer division of two unsigned integers truncating the quotient, reverts on division by zero.\n     */\n    function div(uint256 a, uint256 b) internal pure returns (uint256) {\n        // Solidity only automatically asserts when dividing by 0\n        require(b > 0);\n        uint256 c = a / b;\n        // assert(a == b * c + a % b); // There is no case in which this doesn't hold\n\n        return c;\n    }\n\n    /**\n     * @dev Subtracts two unsigned integers, reverts on overflow (i.e. if subtrahend is greater than minuend).\n     */\n    function sub(uint256 a, uint256 b) internal pure returns (uint256) {\n        require(b <= a);\n        uint256 c = a - b;\n\n        return c;\n    }\n\n    /**\n     * @dev Adds two unsigned integers, reverts on overflow.\n     */\n    function add(uint256 a, uint256 b) internal pure returns (uint256) {\n        uint256 c = a + b;\n        require(c >= a);\n\n        return c;\n    }\n\n    /**\n     * @dev Divides two unsigned integers and returns the remainder (unsigned integer modulo),\n     * reverts when dividing by zero.\n     */\n    function mod(uint256 a, uint256 b) internal pure returns (uint256) {\n        require(b != 0);\n        return a % b;\n    }\n}\n\n// File: openzeppelin-solidity/contracts/token/ERC20/ERC20.sol\n\npragma solidity ^0.5.0;\n\n/**\n * @title Standard ERC20 token\n *\n * @dev Implementation of the basic standard token.\n * https://github.com/ethereum/EIPs/blob/master/EIPS/eip-20.md\n * Originally based on code by FirstBlood:\n * https://github.com/Firstbloodio/token/blob/master/smart_contract/FirstBloodToken.sol\n *\n * This implementation emits additional Approval events, allowing applications to reconstruct the allowance status for\n * all accounts just by listening to said events. Note that this isn't required by the specification, and other\n * compliant implementations may not do it.\n */\ncontract ERC20 is IERC20 {\n    using SafeMath for uint256;\n\n    mapping(address => uint256) private _balances;\n\n    mapping(address => mapping(address => uint256)) private _allowed;\n\n    uint256 private _totalSupply;\n\n    /**\n     * @dev Total number of tokens in existence\n     */\n    function totalSupply() public view returns (uint256) {\n        return _totalSupply;\n    }\n\n    /**\n     * @dev Gets the balance of the specified address.\n     * @param owner The address to query the balance of.\n     * @return An uint256 representing the amount owned by the passed address.\n     */\n    function balanceOf(address owner) public view returns (uint256) {\n        return _balances[owner];\n    }\n\n    /**\n     * @dev Function to check the amount of tokens that an owner allowed to a spender.\n     * @param owner address The address which owns the funds.\n     * @param spender address The address which will spend the funds.\n     * @return A uint256 specifying the amount of tokens still available for the spender.\n     */\n    function allowance(address owner, address spender) public view returns (uint256) {\n        return _allowed[owner][spender];\n    }\n\n    /**\n     * @dev Transfer token for a specified address\n     * @param to The address to transfer to.\n     * @param value The amount to be transferred.\n     */\n    function transfer(address to, uint256 value) public returns (bool) {\n        _transfer(msg.sender, to, value);\n        return true;\n    }\n\n    /**\n     * @dev Approve the passed address to spend the specified amount of tokens on behalf of msg.sender.\n     * Beware that changing an allowance with this method brings the risk that someone may use both the old\n     * and the new allowance by unfortunate transaction ordering. One possible solution to mitigate this\n     * race condition is to first reduce the spender's allowance to 0 and set the desired value afterwards:\n     * https://github.com/ethereum/EIPs/issues/20#issuecomment-263524729\n     * @param spender The address which will spend the funds.\n     * @param value The amount of tokens to be spent.\n     */\n    function approve(address spender, uint256 value) public returns (bool) {\n        require(spender != address(0));\n\n        _allowed[msg.sender][spender] = value;\n        emit Approval(msg.sender, spender, value);\n        return true;\n    }\n\n    /**\n     * @dev Transfer tokens from one address to another.\n     * Note that while this function emits an Approval event, this is not required as per the specification,\n     * and other compliant implementations may not emit the event.\n     * @param from address The address which you want to send tokens from\n     * @param to address The address which you want to transfer to\n     * @param value uint256 the amount of tokens to be transferred\n     */\n    function transferFrom(\n        address from,\n        address to,\n        uint256 value\n    ) public returns (bool) {\n        _allowed[from][msg.sender] = _allowed[from][msg.sender].sub(value);\n        _transfer(from, to, value);\n        emit Approval(from, msg.sender, _allowed[from][msg.sender]);\n        return true;\n    }\n\n    /**\n     * @dev Increase the amount of tokens that an owner allowed to a spender.\n     * approve should be called when allowed_[_spender] == 0. To increment\n     * allowed value is better to use this function to avoid 2 calls (and wait until\n     * the first transaction is mined)\n     * From MonolithDAO Token.sol\n     * Emits an Approval event.\n     * @param spender The address which will spend the funds.\n     * @param addedValue The amount of tokens to increase the allowance by.\n     */\n    function increaseAllowance(address spender, uint256 addedValue) public returns (bool) {\n        require(spender != address(0));\n\n        _allowed[msg.sender][spender] = _allowed[msg.sender][spender].add(addedValue);\n        emit Approval(msg.sender, spender, _allowed[msg.sender][spender]);\n        return true;\n    }\n\n    /**\n     * @dev Decrease the amount of tokens that an owner allowed to a spender.\n     * approve should be called when allowed_[_spender] == 0. To decrement\n     * allowed value is better to use this function to avoid 2 calls (and wait until\n     * the first transaction is mined)\n     * From MonolithDAO Token.sol\n     * Emits an Approval event.\n     * @param spender The address which will spend the funds.\n     * @param subtractedValue The amount of tokens to decrease the allowance by.\n     */\n    function decreaseAllowance(address spender, uint256 subtractedValue) public returns (bool) {\n        require(spender != address(0));\n\n        _allowed[msg.sender][spender] = _allowed[msg.sender][spender].sub(subtractedValue);\n        emit Approval(msg.sender, spender, _allowed[msg.sender][spender]);\n        return true;\n    }\n\n    /**\n     * @dev Transfer token for a specified addresses\n     * @param from The address to transfer from.\n     * @param to The address to transfer to.\n     * @param value The amount to be transferred.\n     */\n    function _transfer(\n        address from,\n        address to,\n        uint256 value\n    ) internal {\n        require(to != address(0));\n\n        _balances[from] = _balances[from].sub(value);\n        _balances[to] = _balances[to].add(value);\n        emit Transfer(from, to, value);\n    }\n\n    /**\n     * @dev Internal function that mints an amount of the token and assigns it to\n     * an account. This encapsulates the modification of balances such that the\n     * proper events are emitted.\n     * @param account The account that will receive the created tokens.\n     * @param value The amount that will be created.\n     */\n    function _mint(address account, uint256 value) internal {\n        require(account != address(0));\n\n        _totalSupply = _totalSupply.add(value);\n        _balances[account] = _balances[account].add(value);\n        emit Transfer(address(0), account, value);\n    }\n\n    /**\n     * @dev Internal function that burns an amount of the token of a given\n     * account.\n     * @param account The account whose tokens will be burnt.\n     * @param value The amount that will be burnt.\n     */\n    function _burn(address account, uint256 value) internal {\n        require(account != address(0));\n\n        _totalSupply = _totalSupply.sub(value);\n        _balances[account] = _balances[account].sub(value);\n        emit Transfer(account, address(0), value);\n    }\n\n    /**\n     * @dev Internal function that burns an amount of the token of a given\n     * account, deducting from the sender's allowance for said account. Uses the\n     * internal burn function.\n     * Emits an Approval event (reflecting the reduced allowance).\n     * @param account The account whose tokens will be burnt.\n     * @param value The amount that will be burnt.\n     */\n    function _burnFrom(address account, uint256 value) internal {\n        _allowed[account][msg.sender] = _allowed[account][msg.sender].sub(value);\n        _burn(account, value);\n        emit Approval(account, msg.sender, _allowed[account][msg.sender]);\n    }\n}\n\n// File: openzeppelin-solidity/contracts/token/ERC20/ERC20Burnable.sol\n\npragma solidity ^0.5.0;\n\n/**\n * @title Burnable Token\n * @dev Token that can be irreversibly burned (destroyed).\n */\ncontract ERC20Burnable is ERC20 {\n    /**\n     * @dev Burns a specific amount of tokens.\n     * @param value The amount of token to be burned.\n     */\n    function burn(uint256 value) public {\n        _burn(msg.sender, value);\n    }\n\n    /**\n     * @dev Burns a specific amount of tokens from the target address and decrements allowance\n     * @param from address The address which you want to send tokens from\n     * @param value uint256 The amount of token to be burned\n     */\n    function burnFrom(address from, uint256 value) public {\n        _burnFrom(from, value);\n    }\n}\n\n// File: @daostack/arc/contracts/controller/DAOToken.sol\n\npragma solidity ^0.5.4;\n\n/**\n * @title DAOToken, base on zeppelin contract.\n * @dev ERC20 compatible token. It is a mintable, burnable token.\n */\n\ncontract DAOToken is ERC20, ERC20Burnable, Ownable {\n    string public name;\n    string public symbol;\n    // solhint-disable-next-line const-name-snakecase\n    uint8 public constant decimals = 18;\n    uint256 public cap;\n\n    /**\n     * @dev Constructor\n     * @param _name - token name\n     * @param _symbol - token symbol\n     * @param _cap - token cap - 0 value means no cap\n     */\n    constructor(\n        string memory _name,\n        string memory _symbol,\n        uint256 _cap\n    ) public {\n        name = _name;\n        symbol = _symbol;\n        cap = _cap;\n    }\n\n    /**\n     * @dev Function to mint tokens\n     * @param _to The address that will receive the minted tokens.\n     * @param _amount The amount of tokens to mint.\n     */\n    function mint(address _to, uint256 _amount) public onlyOwner returns (bool) {\n        if (cap > 0) require(totalSupply().add(_amount) <= cap);\n        _mint(_to, _amount);\n        return true;\n    }\n}\n\n// File: openzeppelin-solidity/contracts/utils/Address.sol\n\npragma solidity ^0.5.0;\n\n/**\n * Utility library of inline functions on addresses\n */\nlibrary Address {\n    /**\n     * Returns whether the target address is a contract\n     * @dev This function will return false if invoked during the constructor of a contract,\n     * as the code is not actually created until after the constructor finishes.\n     * @param account address of the account to check\n     * @return whether the target address is a contract\n     */\n    function isContract(address account) internal view returns (bool) {\n        uint256 size;\n        // XXX Currently there is no better way to check if there is a contract in an address\n        // than to check the size of the code at that address.\n        // See https://ethereum.stackexchange.com/a/14016/36603\n        // for more details about how this works.\n        // TODO Check this again before the Serenity release, because all addresses will be\n        // contracts then.\n        // solhint-disable-next-line no-inline-assembly\n        assembly {\n            size := extcodesize(account)\n        }\n        return size > 0;\n    }\n}\n\n// File: @daostack/arc/contracts/libs/SafeERC20.sol\n\n/*\n\nSafeERC20 by daostack.\nThe code is based on a fix by SECBIT Team.\n\nUSE WITH CAUTION & NO WARRANTY\n\nREFERENCE & RELATED READING\n- https://github.com/ethereum/solidity/issues/4116\n- https://medium.com/@chris_77367/explaining-unexpected-reverts-starting-with-solidity-0-4-22-3ada6e82308c\n- https://medium.com/coinmonks/missing-return-value-bug-at-least-130-tokens-affected-d67bf08521ca\n- https://gist.github.com/BrendanChou/88a2eeb80947ff00bcf58ffdafeaeb61\n\n*/\npragma solidity ^0.5.4;\n\nlibrary SafeERC20 {\n    using Address for address;\n\n    bytes4 private constant TRANSFER_SELECTOR = bytes4(keccak256(bytes(\"transfer(address,uint256)\")));\n    bytes4 private constant TRANSFERFROM_SELECTOR = bytes4(keccak256(bytes(\"transferFrom(address,address,uint256)\")));\n    bytes4 private constant APPROVE_SELECTOR = bytes4(keccak256(bytes(\"approve(address,uint256)\")));\n\n    function safeTransfer(\n        address _erc20Addr,\n        address _to,\n        uint256 _value\n    ) internal {\n        // Must be a contract addr first!\n        require(_erc20Addr.isContract());\n\n        (\n            bool success,\n            bytes memory returnValue // solhint-disable-next-line avoid-low-level-calls\n        ) = _erc20Addr.call(abi.encodeWithSelector(TRANSFER_SELECTOR, _to, _value));\n        // call return false when something wrong\n        require(success);\n        //check return value\n        require(returnValue.length == 0 || (returnValue.length == 32 && (returnValue[31] != 0)));\n    }\n\n    function safeTransferFrom(\n        address _erc20Addr,\n        address _from,\n        address _to,\n        uint256 _value\n    ) internal {\n        // Must be a contract addr first!\n        require(_erc20Addr.isContract());\n\n        (\n            bool success,\n            bytes memory returnValue // solhint-disable-next-line avoid-low-level-calls\n        ) = _erc20Addr.call(abi.encodeWithSelector(TRANSFERFROM_SELECTOR, _from, _to, _value));\n        // call return false when something wrong\n        require(success);\n        //check return value\n        require(returnValue.length == 0 || (returnValue.length == 32 && (returnValue[31] != 0)));\n    }\n\n    function safeApprove(\n        address _erc20Addr,\n        address _spender,\n        uint256 _value\n    ) internal {\n        // Must be a contract addr first!\n        require(_erc20Addr.isContract());\n\n        // safeApprove should only be called when setting an initial allowance,\n        // or when resetting it to zero.\n        require((_value == 0) || (IERC20(_erc20Addr).allowance(address(this), _spender) == 0));\n\n        (\n            bool success,\n            bytes memory returnValue // solhint-disable-next-line avoid-low-level-calls\n        ) = _erc20Addr.call(abi.encodeWithSelector(APPROVE_SELECTOR, _spender, _value));\n        // call return false when something wrong\n        require(success);\n        //check return value\n        require(returnValue.length == 0 || (returnValue.length == 32 && (returnValue[31] != 0)));\n    }\n}\n\n// File: @daostack/arc/contracts/controller/Avatar.sol\n\npragma solidity ^0.5.4;\n\n/**\n * @title An Avatar holds tokens, reputation and ether for a controller\n */\ncontract Avatar is Ownable {\n    using SafeERC20 for address;\n\n    string public orgName;\n    DAOToken public nativeToken;\n    Reputation public nativeReputation;\n\n    event GenericCall(address indexed _contract, bytes _data, uint256 _value, bool _success);\n    event SendEther(uint256 _amountInWei, address indexed _to);\n    event ExternalTokenTransfer(address indexed _externalToken, address indexed _to, uint256 _value);\n    event ExternalTokenTransferFrom(address indexed _externalToken, address _from, address _to, uint256 _value);\n    event ExternalTokenApproval(address indexed _externalToken, address _spender, uint256 _value);\n    event ReceiveEther(address indexed _sender, uint256 _value);\n    event MetaData(string _metaData);\n\n    /**\n    * @dev the constructor takes organization name, native token and reputation system\n    and creates an avatar for a controller\n    */\n    constructor(\n        string memory _orgName,\n        DAOToken _nativeToken,\n        Reputation _nativeReputation\n    ) public {\n        orgName = _orgName;\n        nativeToken = _nativeToken;\n        nativeReputation = _nativeReputation;\n    }\n\n    /**\n     * @dev enables an avatar to receive ethers\n     */\n    function() external payable {\n        emit ReceiveEther(msg.sender, msg.value);\n    }\n\n    /**\n     * @dev perform a generic call to an arbitrary contract\n     * @param _contract  the contract's address to call\n     * @param _data ABI-encoded contract call to call `_contract` address.\n     * @param _value value (ETH) to transfer with the transaction\n     * @return bool    success or fail\n     *         bytes - the return bytes of the called contract's function.\n     */\n    function genericCall(\n        address _contract,\n        bytes memory _data,\n        uint256 _value\n    ) public onlyOwner returns (bool success, bytes memory returnValue) {\n        // solhint-disable-next-line avoid-call-value\n        (success, returnValue) = _contract.call.value(_value)(_data);\n        emit GenericCall(_contract, _data, _value, success);\n    }\n\n    /**\n     * @dev send ethers from the avatar's wallet\n     * @param _amountInWei amount to send in Wei units\n     * @param _to send the ethers to this address\n     * @return bool which represents success\n     */\n    function sendEther(uint256 _amountInWei, address payable _to) public onlyOwner returns (bool) {\n        _to.transfer(_amountInWei);\n        emit SendEther(_amountInWei, _to);\n        return true;\n    }\n\n    /**\n     * @dev external token transfer\n     * @param _externalToken the token contract\n     * @param _to the destination address\n     * @param _value the amount of tokens to transfer\n     * @return bool which represents success\n     */\n    function externalTokenTransfer(\n        IERC20 _externalToken,\n        address _to,\n        uint256 _value\n    ) public onlyOwner returns (bool) {\n        address(_externalToken).safeTransfer(_to, _value);\n        emit ExternalTokenTransfer(address(_externalToken), _to, _value);\n        return true;\n    }\n\n    /**\n     * @dev external token transfer from a specific account\n     * @param _externalToken the token contract\n     * @param _from the account to spend token from\n     * @param _to the destination address\n     * @param _value the amount of tokens to transfer\n     * @return bool which represents success\n     */\n    function externalTokenTransferFrom(\n        IERC20 _externalToken,\n        address _from,\n        address _to,\n        uint256 _value\n    ) public onlyOwner returns (bool) {\n        address(_externalToken).safeTransferFrom(_from, _to, _value);\n        emit ExternalTokenTransferFrom(address(_externalToken), _from, _to, _value);\n        return true;\n    }\n\n    /**\n     * @dev externalTokenApproval approve the spender address to spend a specified amount of tokens\n     *      on behalf of msg.sender.\n     * @param _externalToken the address of the Token Contract\n     * @param _spender address\n     * @param _value the amount of ether (in Wei) which the approval is referring to.\n     * @return bool which represents a success\n     */\n    function externalTokenApproval(\n        IERC20 _externalToken,\n        address _spender,\n        uint256 _value\n    ) public onlyOwner returns (bool) {\n        address(_externalToken).safeApprove(_spender, _value);\n        emit ExternalTokenApproval(address(_externalToken), _spender, _value);\n        return true;\n    }\n\n    /**\n     * @dev metaData emits an event with a string, should contain the hash of some meta data.\n     * @param _metaData a string representing a hash of the meta data\n     * @return bool which represents a success\n     */\n    function metaData(string memory _metaData) public onlyOwner returns (bool) {\n        emit MetaData(_metaData);\n        return true;\n    }\n}\n\n// File: @daostack/arc/contracts/globalConstraints/GlobalConstraintInterface.sol\n\npragma solidity ^0.5.4;\n\ncontract GlobalConstraintInterface {\n    enum CallPhase {Pre, Post, PreAndPost}\n\n    function pre(\n        address _scheme,\n        bytes32 _params,\n        bytes32 _method\n    ) public returns (bool);\n\n    function post(\n        address _scheme,\n        bytes32 _params,\n        bytes32 _method\n    ) public returns (bool);\n\n    /**\n     * @dev when return if this globalConstraints is pre, post or both.\n     * @return CallPhase enum indication  Pre, Post or PreAndPost.\n     */\n    function when() public returns (CallPhase);\n}\n\n// File: @daostack/arc/contracts/controller/ControllerInterface.sol\n\npragma solidity ^0.5.4;\n\n/**\n * @title Controller contract\n * @dev A controller controls the organizations tokens ,reputation and avatar.\n * It is subject to a set of schemes and constraints that determine its behavior.\n * Each scheme has it own parameters and operation permissions.\n */\ninterface ControllerInterface {\n    /**\n     * @dev Mint `_amount` of reputation that are assigned to `_to` .\n     * @param  _amount amount of reputation to mint\n     * @param _to beneficiary address\n     * @return bool which represents a success\n     */\n    function mintReputation(\n        uint256 _amount,\n        address _to,\n        address _avatar\n    ) external returns (bool);\n\n    /**\n     * @dev Burns `_amount` of reputation from `_from`\n     * @param _amount amount of reputation to burn\n     * @param _from The address that will lose the reputation\n     * @return bool which represents a success\n     */\n    function burnReputation(\n        uint256 _amount,\n        address _from,\n        address _avatar\n    ) external returns (bool);\n\n    /**\n     * @dev mint tokens .\n     * @param  _amount amount of token to mint\n     * @param _beneficiary beneficiary address\n     * @param _avatar address\n     * @return bool which represents a success\n     */\n    function mintTokens(\n        uint256 _amount,\n        address _beneficiary,\n        address _avatar\n    ) external returns (bool);\n\n    /**\n     * @dev register or update a scheme\n     * @param _scheme the address of the scheme\n     * @param _paramsHash a hashed configuration of the usage of the scheme\n     * @param _permissions the permissions the new scheme will have\n     * @param _avatar address\n     * @return bool which represents a success\n     */\n    function registerScheme(\n        address _scheme,\n        bytes32 _paramsHash,\n        bytes4 _permissions,\n        address _avatar\n    ) external returns (bool);\n\n    /**\n     * @dev unregister a scheme\n     * @param _avatar address\n     * @param _scheme the address of the scheme\n     * @return bool which represents a success\n     */\n    function unregisterScheme(address _scheme, address _avatar) external returns (bool);\n\n    /**\n     * @dev unregister the caller's scheme\n     * @param _avatar address\n     * @return bool which represents a success\n     */\n    function unregisterSelf(address _avatar) external returns (bool);\n\n    /**\n     * @dev add or update Global Constraint\n     * @param _globalConstraint the address of the global constraint to be added.\n     * @param _params the constraint parameters hash.\n     * @param _avatar the avatar of the organization\n     * @return bool which represents a success\n     */\n    function addGlobalConstraint(\n        address _globalConstraint,\n        bytes32 _params,\n        address _avatar\n    ) external returns (bool);\n\n    /**\n     * @dev remove Global Constraint\n     * @param _globalConstraint the address of the global constraint to be remove.\n     * @param _avatar the organization avatar.\n     * @return bool which represents a success\n     */\n    function removeGlobalConstraint(address _globalConstraint, address _avatar) external returns (bool);\n\n    /**\n     * @dev upgrade the Controller\n     *      The function will trigger an event 'UpgradeController'.\n     * @param  _newController the address of the new controller.\n     * @param _avatar address\n     * @return bool which represents a success\n     */\n    function upgradeController(address _newController, Avatar _avatar) external returns (bool);\n\n    /**\n     * @dev perform a generic call to an arbitrary contract\n     * @param _contract  the contract's address to call\n     * @param _data ABI-encoded contract call to call `_contract` address.\n     * @param _avatar the controller's avatar address\n     * @param _value value (ETH) to transfer with the transaction\n     * @return bool -success\n     *         bytes  - the return value of the called _contract's function.\n     */\n    function genericCall(\n        address _contract,\n        bytes calldata _data,\n        Avatar _avatar,\n        uint256 _value\n    ) external returns (bool, bytes memory);\n\n    /**\n     * @dev send some ether\n     * @param _amountInWei the amount of ether (in Wei) to send\n     * @param _to address of the beneficiary\n     * @param _avatar address\n     * @return bool which represents a success\n     */\n    function sendEther(\n        uint256 _amountInWei,\n        address payable _to,\n        Avatar _avatar\n    ) external returns (bool);\n\n    /**\n     * @dev send some amount of arbitrary ERC20 Tokens\n     * @param _externalToken the address of the Token Contract\n     * @param _to address of the beneficiary\n     * @param _value the amount of ether (in Wei) to send\n     * @param _avatar address\n     * @return bool which represents a success\n     */\n    function externalTokenTransfer(\n        IERC20 _externalToken,\n        address _to,\n        uint256 _value,\n        Avatar _avatar\n    ) external returns (bool);\n\n    /**\n     * @dev transfer token \"from\" address \"to\" address\n     *      One must to approve the amount of tokens which can be spend from the\n     *      \"from\" account.This can be done using externalTokenApprove.\n     * @param _externalToken the address of the Token Contract\n     * @param _from address of the account to send from\n     * @param _to address of the beneficiary\n     * @param _value the amount of ether (in Wei) to send\n     * @param _avatar address\n     * @return bool which represents a success\n     */\n    function externalTokenTransferFrom(\n        IERC20 _externalToken,\n        address _from,\n        address _to,\n        uint256 _value,\n        Avatar _avatar\n    ) external returns (bool);\n\n    /**\n     * @dev externalTokenApproval approve the spender address to spend a specified amount of tokens\n     *      on behalf of msg.sender.\n     * @param _externalToken the address of the Token Contract\n     * @param _spender address\n     * @param _value the amount of ether (in Wei) which the approval is referring to.\n     * @return bool which represents a success\n     */\n    function externalTokenApproval(\n        IERC20 _externalToken,\n        address _spender,\n        uint256 _value,\n        Avatar _avatar\n    ) external returns (bool);\n\n    /**\n     * @dev metaData emits an event with a string, should contain the hash of some meta data.\n     * @param _metaData a string representing a hash of the meta data\n     * @param _avatar Avatar\n     * @return bool which represents a success\n     */\n    function metaData(string calldata _metaData, Avatar _avatar) external returns (bool);\n\n    /**\n     * @dev getNativeReputation\n     * @param _avatar the organization avatar.\n     * @return organization native reputation\n     */\n    function getNativeReputation(address _avatar) external view returns (address);\n\n    function isSchemeRegistered(address _scheme, address _avatar) external view returns (bool);\n\n    function getSchemeParameters(address _scheme, address _avatar) external view returns (bytes32);\n\n    function getGlobalConstraintParameters(address _globalConstraint, address _avatar) external view returns (bytes32);\n\n    function getSchemePermissions(address _scheme, address _avatar) external view returns (bytes4);\n\n    /**\n     * @dev globalConstraintsCount return the global constraint pre and post count\n     * @return uint256 globalConstraintsPre count.\n     * @return uint256 globalConstraintsPost count.\n     */\n    function globalConstraintsCount(address _avatar) external view returns (uint256, uint256);\n\n    function isGlobalConstraintRegistered(address _globalConstraint, address _avatar) external view returns (bool);\n}\n\n// File: @daostack/arc/contracts/controller/Controller.sol\n\npragma solidity ^0.5.4;\n\n/**\n * @title Controller contract\n * @dev A controller controls the organizations tokens, reputation and avatar.\n * It is subject to a set of schemes and constraints that determine its behavior.\n * Each scheme has it own parameters and operation permissions.\n */\ncontract Controller is ControllerInterface {\n    struct Scheme {\n        bytes32 paramsHash; // a hash \"configuration\" of the scheme\n        bytes4 permissions; // A bitwise flags of permissions,\n        // All 0: Not registered,\n        // 1st bit: Flag if the scheme is registered,\n        // 2nd bit: Scheme can register other schemes\n        // 3rd bit: Scheme can add/remove global constraints\n        // 4th bit: Scheme can upgrade the controller\n        // 5th bit: Scheme can call genericCall on behalf of\n        //          the organization avatar\n    }\n\n    struct GlobalConstraint {\n        address gcAddress;\n        bytes32 params;\n    }\n\n    struct GlobalConstraintRegister {\n        bool isRegistered; //is registered\n        uint256 index; //index at globalConstraints\n    }\n\n    mapping(address => Scheme) public schemes;\n\n    Avatar public avatar;\n    DAOToken public nativeToken;\n    Reputation public nativeReputation;\n    // newController will point to the new controller after the present controller is upgraded\n    address public newController;\n    // globalConstraintsPre that determine pre conditions for all actions on the controller\n\n    GlobalConstraint[] public globalConstraintsPre;\n    // globalConstraintsPost that determine post conditions for all actions on the controller\n    GlobalConstraint[] public globalConstraintsPost;\n    // globalConstraintsRegisterPre indicate if a globalConstraints is registered as a pre global constraint\n    mapping(address => GlobalConstraintRegister) public globalConstraintsRegisterPre;\n    // globalConstraintsRegisterPost indicate if a globalConstraints is registered as a post global constraint\n    mapping(address => GlobalConstraintRegister) public globalConstraintsRegisterPost;\n\n    event MintReputation(address indexed _sender, address indexed _to, uint256 _amount);\n    event BurnReputation(address indexed _sender, address indexed _from, uint256 _amount);\n    event MintTokens(address indexed _sender, address indexed _beneficiary, uint256 _amount);\n    event RegisterScheme(address indexed _sender, address indexed _scheme);\n    event UnregisterScheme(address indexed _sender, address indexed _scheme);\n    event UpgradeController(address indexed _oldController, address _newController);\n\n    event AddGlobalConstraint(\n        address indexed _globalConstraint,\n        bytes32 _params,\n        GlobalConstraintInterface.CallPhase _when\n    );\n\n    event RemoveGlobalConstraint(address indexed _globalConstraint, uint256 _index, bool _isPre);\n\n    constructor(Avatar _avatar) public {\n        avatar = _avatar;\n        nativeToken = avatar.nativeToken();\n        nativeReputation = avatar.nativeReputation();\n        schemes[msg.sender] = Scheme({paramsHash: bytes32(0), permissions: bytes4(0x0000001F)});\n    }\n\n    // Do not allow mistaken calls:\n    // solhint-disable-next-line payable-fallback\n    function() external {\n        revert();\n    }\n\n    // Modifiers:\n    modifier onlyRegisteredScheme() {\n        require(schemes[msg.sender].permissions & bytes4(0x00000001) == bytes4(0x00000001));\n        _;\n    }\n\n    modifier onlyRegisteringSchemes() {\n        require(schemes[msg.sender].permissions & bytes4(0x00000002) == bytes4(0x00000002));\n        _;\n    }\n\n    modifier onlyGlobalConstraintsScheme() {\n        require(schemes[msg.sender].permissions & bytes4(0x00000004) == bytes4(0x00000004));\n        _;\n    }\n\n    modifier onlyUpgradingScheme() {\n        require(schemes[msg.sender].permissions & bytes4(0x00000008) == bytes4(0x00000008));\n        _;\n    }\n\n    modifier onlyGenericCallScheme() {\n        require(schemes[msg.sender].permissions & bytes4(0x00000010) == bytes4(0x00000010));\n        _;\n    }\n\n    modifier onlyMetaDataScheme() {\n        require(schemes[msg.sender].permissions & bytes4(0x00000010) == bytes4(0x00000010));\n        _;\n    }\n\n    modifier onlySubjectToConstraint(bytes32 func) {\n        uint256 idx;\n        for (idx = 0; idx < globalConstraintsPre.length; idx++) {\n            require(\n                (GlobalConstraintInterface(globalConstraintsPre[idx].gcAddress)).pre(\n                    msg.sender,\n                    globalConstraintsPre[idx].params,\n                    func\n                )\n            );\n        }\n        _;\n        for (idx = 0; idx < globalConstraintsPost.length; idx++) {\n            require(\n                (GlobalConstraintInterface(globalConstraintsPost[idx].gcAddress)).post(\n                    msg.sender,\n                    globalConstraintsPost[idx].params,\n                    func\n                )\n            );\n        }\n    }\n\n    modifier isAvatarValid(address _avatar) {\n        require(_avatar == address(avatar));\n        _;\n    }\n\n    /**\n     * @dev Mint `_amount` of reputation that are assigned to `_to` .\n     * @param  _amount amount of reputation to mint\n     * @param _to beneficiary address\n     * @return bool which represents a success\n     */\n    function mintReputation(\n        uint256 _amount,\n        address _to,\n        address _avatar\n    ) external onlyRegisteredScheme onlySubjectToConstraint(\"mintReputation\") isAvatarValid(_avatar) returns (bool) {\n        emit MintReputation(msg.sender, _to, _amount);\n        return nativeReputation.mint(_to, _amount);\n    }\n\n    /**\n     * @dev Burns `_amount` of reputation from `_from`\n     * @param _amount amount of reputation to burn\n     * @param _from The address that will lose the reputation\n     * @return bool which represents a success\n     */\n    function burnReputation(\n        uint256 _amount,\n        address _from,\n        address _avatar\n    ) external onlyRegisteredScheme onlySubjectToConstraint(\"burnReputation\") isAvatarValid(_avatar) returns (bool) {\n        emit BurnReputation(msg.sender, _from, _amount);\n        return nativeReputation.burn(_from, _amount);\n    }\n\n    /**\n     * @dev mint tokens .\n     * @param  _amount amount of token to mint\n     * @param _beneficiary beneficiary address\n     * @return bool which represents a success\n     */\n    function mintTokens(\n        uint256 _amount,\n        address _beneficiary,\n        address _avatar\n    ) external onlyRegisteredScheme onlySubjectToConstraint(\"mintTokens\") isAvatarValid(_avatar) returns (bool) {\n        emit MintTokens(msg.sender, _beneficiary, _amount);\n        return nativeToken.mint(_beneficiary, _amount);\n    }\n\n    /**\n     * @dev register a scheme\n     * @param _scheme the address of the scheme\n     * @param _paramsHash a hashed configuration of the usage of the scheme\n     * @param _permissions the permissions the new scheme will have\n     * @return bool which represents a success\n     */\n    function registerScheme(\n        address _scheme,\n        bytes32 _paramsHash,\n        bytes4 _permissions,\n        address _avatar\n    ) external onlyRegisteringSchemes onlySubjectToConstraint(\"registerScheme\") isAvatarValid(_avatar) returns (bool) {\n        Scheme memory scheme = schemes[_scheme];\n\n        // Check scheme has at least the permissions it is changing, and at least the current permissions:\n        // Implementation is a bit messy. One must recall logic-circuits ^^\n\n        // produces non-zero if sender does not have all of the perms that are changing between old and new\n        require(\n            bytes4(0x0000001f) & (_permissions ^ scheme.permissions) & (~schemes[msg.sender].permissions) == bytes4(0)\n        );\n\n        // produces non-zero if sender does not have all of the perms in the old scheme\n        require(bytes4(0x0000001f) & (scheme.permissions & (~schemes[msg.sender].permissions)) == bytes4(0));\n\n        // Add or change the scheme:\n        schemes[_scheme].paramsHash = _paramsHash;\n        schemes[_scheme].permissions = _permissions | bytes4(0x00000001);\n        emit RegisterScheme(msg.sender, _scheme);\n        return true;\n    }\n\n    /**\n     * @dev unregister a scheme\n     * @param _scheme the address of the scheme\n     * @return bool which represents a success\n     */\n    function unregisterScheme(address _scheme, address _avatar)\n        external\n        onlyRegisteringSchemes\n        onlySubjectToConstraint(\"unregisterScheme\")\n        isAvatarValid(_avatar)\n        returns (bool)\n    {\n        //check if the scheme is registered\n        if (_isSchemeRegistered(_scheme) == false) {\n            return false;\n        }\n        // Check the unregistering scheme has enough permissions:\n        require(bytes4(0x0000001f) & (schemes[_scheme].permissions & (~schemes[msg.sender].permissions)) == bytes4(0));\n\n        // Unregister:\n        emit UnregisterScheme(msg.sender, _scheme);\n        delete schemes[_scheme];\n        return true;\n    }\n\n    /**\n     * @dev unregister the caller's scheme\n     * @return bool which represents a success\n     */\n    function unregisterSelf(address _avatar) external isAvatarValid(_avatar) returns (bool) {\n        if (_isSchemeRegistered(msg.sender) == false) {\n            return false;\n        }\n        delete schemes[msg.sender];\n        emit UnregisterScheme(msg.sender, msg.sender);\n        return true;\n    }\n\n    /**\n     * @dev add or update Global Constraint\n     * @param _globalConstraint the address of the global constraint to be added.\n     * @param _params the constraint parameters hash.\n     * @return bool which represents a success\n     */\n    function addGlobalConstraint(\n        address _globalConstraint,\n        bytes32 _params,\n        address _avatar\n    ) external onlyGlobalConstraintsScheme isAvatarValid(_avatar) returns (bool) {\n        GlobalConstraintInterface.CallPhase when = GlobalConstraintInterface(_globalConstraint).when();\n        if (\n            (when == GlobalConstraintInterface.CallPhase.Pre) ||\n            (when == GlobalConstraintInterface.CallPhase.PreAndPost)\n        ) {\n            if (!globalConstraintsRegisterPre[_globalConstraint].isRegistered) {\n                globalConstraintsPre.push(GlobalConstraint(_globalConstraint, _params));\n                globalConstraintsRegisterPre[_globalConstraint] = GlobalConstraintRegister(\n                    true,\n                    globalConstraintsPre.length - 1\n                );\n            } else {\n                globalConstraintsPre[globalConstraintsRegisterPre[_globalConstraint].index].params = _params;\n            }\n        }\n        if (\n            (when == GlobalConstraintInterface.CallPhase.Post) ||\n            (when == GlobalConstraintInterface.CallPhase.PreAndPost)\n        ) {\n            if (!globalConstraintsRegisterPost[_globalConstraint].isRegistered) {\n                globalConstraintsPost.push(GlobalConstraint(_globalConstraint, _params));\n                globalConstraintsRegisterPost[_globalConstraint] = GlobalConstraintRegister(\n                    true,\n                    globalConstraintsPost.length - 1\n                );\n            } else {\n                globalConstraintsPost[globalConstraintsRegisterPost[_globalConstraint].index].params = _params;\n            }\n        }\n        emit AddGlobalConstraint(_globalConstraint, _params, when);\n        return true;\n    }\n\n    /**\n     * @dev remove Global Constraint\n     * @param _globalConstraint the address of the global constraint to be remove.\n     * @return bool which represents a success\n     */\n    // solhint-disable-next-line code-complexity\n    function removeGlobalConstraint(address _globalConstraint, address _avatar)\n        external\n        onlyGlobalConstraintsScheme\n        isAvatarValid(_avatar)\n        returns (bool)\n    {\n        GlobalConstraintRegister memory globalConstraintRegister;\n        GlobalConstraint memory globalConstraint;\n        GlobalConstraintInterface.CallPhase when = GlobalConstraintInterface(_globalConstraint).when();\n        bool retVal = false;\n\n        if (\n            (when == GlobalConstraintInterface.CallPhase.Pre) ||\n            (when == GlobalConstraintInterface.CallPhase.PreAndPost)\n        ) {\n            globalConstraintRegister = globalConstraintsRegisterPre[_globalConstraint];\n            if (globalConstraintRegister.isRegistered) {\n                if (globalConstraintRegister.index < globalConstraintsPre.length - 1) {\n                    globalConstraint = globalConstraintsPre[globalConstraintsPre.length - 1];\n                    globalConstraintsPre[globalConstraintRegister.index] = globalConstraint;\n                    globalConstraintsRegisterPre[globalConstraint.gcAddress].index = globalConstraintRegister.index;\n                }\n                globalConstraintsPre.length--;\n                delete globalConstraintsRegisterPre[_globalConstraint];\n                retVal = true;\n            }\n        }\n        if (\n            (when == GlobalConstraintInterface.CallPhase.Post) ||\n            (when == GlobalConstraintInterface.CallPhase.PreAndPost)\n        ) {\n            globalConstraintRegister = globalConstraintsRegisterPost[_globalConstraint];\n            if (globalConstraintRegister.isRegistered) {\n                if (globalConstraintRegister.index < globalConstraintsPost.length - 1) {\n                    globalConstraint = globalConstraintsPost[globalConstraintsPost.length - 1];\n                    globalConstraintsPost[globalConstraintRegister.index] = globalConstraint;\n                    globalConstraintsRegisterPost[globalConstraint.gcAddress].index = globalConstraintRegister.index;\n                }\n                globalConstraintsPost.length--;\n                delete globalConstraintsRegisterPost[_globalConstraint];\n                retVal = true;\n            }\n        }\n        if (retVal) {\n            emit RemoveGlobalConstraint(\n                _globalConstraint,\n                globalConstraintRegister.index,\n                when == GlobalConstraintInterface.CallPhase.Pre\n            );\n        }\n        return retVal;\n    }\n\n    /**\n     * @dev upgrade the Controller\n     *      The function will trigger an event 'UpgradeController'.\n     * @param  _newController the address of the new controller.\n     * @return bool which represents a success\n     */\n    function upgradeController(address _newController, Avatar _avatar)\n        external\n        onlyUpgradingScheme\n        isAvatarValid(address(_avatar))\n        returns (bool)\n    {\n        require(newController == address(0)); // so the upgrade could be done once for a contract.\n        require(_newController != address(0));\n        newController = _newController;\n        avatar.transferOwnership(_newController);\n        require(avatar.owner() == _newController);\n        if (nativeToken.owner() == address(this)) {\n            nativeToken.transferOwnership(_newController);\n            require(nativeToken.owner() == _newController);\n        }\n        if (nativeReputation.owner() == address(this)) {\n            nativeReputation.transferOwnership(_newController);\n            require(nativeReputation.owner() == _newController);\n        }\n        emit UpgradeController(address(this), newController);\n        return true;\n    }\n\n    /**\n     * @dev perform a generic call to an arbitrary contract\n     * @param _contract  the contract's address to call\n     * @param _data ABI-encoded contract call to call `_contract` address.\n     * @param _avatar the controller's avatar address\n     * @param _value value (ETH) to transfer with the transaction\n     * @return bool -success\n     *         bytes  - the return value of the called _contract's function.\n     */\n    function genericCall(\n        address _contract,\n        bytes calldata _data,\n        Avatar _avatar,\n        uint256 _value\n    )\n        external\n        onlyGenericCallScheme\n        onlySubjectToConstraint(\"genericCall\")\n        isAvatarValid(address(_avatar))\n        returns (bool, bytes memory)\n    {\n        return avatar.genericCall(_contract, _data, _value);\n    }\n\n    /**\n     * @dev send some ether\n     * @param _amountInWei the amount of ether (in Wei) to send\n     * @param _to address of the beneficiary\n     * @return bool which represents a success\n     */\n    function sendEther(\n        uint256 _amountInWei,\n        address payable _to,\n        Avatar _avatar\n    )\n        external\n        onlyRegisteredScheme\n        onlySubjectToConstraint(\"sendEther\")\n        isAvatarValid(address(_avatar))\n        returns (bool)\n    {\n        return avatar.sendEther(_amountInWei, _to);\n    }\n\n    /**\n     * @dev send some amount of arbitrary ERC20 Tokens\n     * @param _externalToken the address of the Token Contract\n     * @param _to address of the beneficiary\n     * @param _value the amount of ether (in Wei) to send\n     * @return bool which represents a success\n     */\n    function externalTokenTransfer(\n        IERC20 _externalToken,\n        address _to,\n        uint256 _value,\n        Avatar _avatar\n    )\n        external\n        onlyRegisteredScheme\n        onlySubjectToConstraint(\"externalTokenTransfer\")\n        isAvatarValid(address(_avatar))\n        returns (bool)\n    {\n        return avatar.externalTokenTransfer(_externalToken, _to, _value);\n    }\n\n    /**\n     * @dev transfer token \"from\" address \"to\" address\n     *      One must to approve the amount of tokens which can be spend from the\n     *      \"from\" account.This can be done using externalTokenApprove.\n     * @param _externalToken the address of the Token Contract\n     * @param _from address of the account to send from\n     * @param _to address of the beneficiary\n     * @param _value the amount of ether (in Wei) to send\n     * @return bool which represents a success\n     */\n    function externalTokenTransferFrom(\n        IERC20 _externalToken,\n        address _from,\n        address _to,\n        uint256 _value,\n        Avatar _avatar\n    )\n        external\n        onlyRegisteredScheme\n        onlySubjectToConstraint(\"externalTokenTransferFrom\")\n        isAvatarValid(address(_avatar))\n        returns (bool)\n    {\n        return avatar.externalTokenTransferFrom(_externalToken, _from, _to, _value);\n    }\n\n    /**\n     * @dev externalTokenApproval approve the spender address to spend a specified amount of tokens\n     *      on behalf of msg.sender.\n     * @param _externalToken the address of the Token Contract\n     * @param _spender address\n     * @param _value the amount of ether (in Wei) which the approval is referring to.\n     * @return bool which represents a success\n     */\n    function externalTokenApproval(\n        IERC20 _externalToken,\n        address _spender,\n        uint256 _value,\n        Avatar _avatar\n    )\n        external\n        onlyRegisteredScheme\n        onlySubjectToConstraint(\"externalTokenIncreaseApproval\")\n        isAvatarValid(address(_avatar))\n        returns (bool)\n    {\n        return avatar.externalTokenApproval(_externalToken, _spender, _value);\n    }\n\n    /**\n     * @dev metaData emits an event with a string, should contain the hash of some meta data.\n     * @param _metaData a string representing a hash of the meta data\n     * @param _avatar Avatar\n     * @return bool which represents a success\n     */\n    function metaData(string calldata _metaData, Avatar _avatar)\n        external\n        onlyMetaDataScheme\n        isAvatarValid(address(_avatar))\n        returns (bool)\n    {\n        return avatar.metaData(_metaData);\n    }\n\n    /**\n     * @dev getNativeReputation\n     * @param _avatar the organization avatar.\n     * @return organization native reputation\n     */\n    function getNativeReputation(address _avatar) external view isAvatarValid(_avatar) returns (address) {\n        return address(nativeReputation);\n    }\n\n    function isSchemeRegistered(address _scheme, address _avatar) external view isAvatarValid(_avatar) returns (bool) {\n        return _isSchemeRegistered(_scheme);\n    }\n\n    function getSchemeParameters(address _scheme, address _avatar)\n        external\n        view\n        isAvatarValid(_avatar)\n        returns (bytes32)\n    {\n        return schemes[_scheme].paramsHash;\n    }\n\n    function getSchemePermissions(address _scheme, address _avatar)\n        external\n        view\n        isAvatarValid(_avatar)\n        returns (bytes4)\n    {\n        return schemes[_scheme].permissions;\n    }\n\n    function getGlobalConstraintParameters(address _globalConstraint, address) external view returns (bytes32) {\n        GlobalConstraintRegister memory register = globalConstraintsRegisterPre[_globalConstraint];\n\n        if (register.isRegistered) {\n            return globalConstraintsPre[register.index].params;\n        }\n\n        register = globalConstraintsRegisterPost[_globalConstraint];\n\n        if (register.isRegistered) {\n            return globalConstraintsPost[register.index].params;\n        }\n    }\n\n    /**\n     * @dev globalConstraintsCount return the global constraint pre and post count\n     * @return uint256 globalConstraintsPre count.\n     * @return uint256 globalConstraintsPost count.\n     */\n    function globalConstraintsCount(address _avatar) external view isAvatarValid(_avatar) returns (uint256, uint256) {\n        return (globalConstraintsPre.length, globalConstraintsPost.length);\n    }\n\n    function isGlobalConstraintRegistered(address _globalConstraint, address _avatar)\n        external\n        view\n        isAvatarValid(_avatar)\n        returns (bool)\n    {\n        return (globalConstraintsRegisterPre[_globalConstraint].isRegistered ||\n            globalConstraintsRegisterPost[_globalConstraint].isRegistered);\n    }\n\n    function _isSchemeRegistered(address _scheme) private view returns (bool) {\n        return (schemes[_scheme].permissions & bytes4(0x00000001) != bytes4(0));\n    }\n}\n\n// File: contracts/DxController.sol\n\npragma solidity ^0.5.4;\n\ncontract DxController is Controller {\n    constructor(Avatar _avatar) public Controller(_avatar) {}\n}\n",
  "sourcePath": "/home/blackjak/Projects/DXdao/dxvote/contracts/dxdao/DxController.sol",
  "compiler": {
    "name": "solc",
    "version": "0.5.17+commit.d19bba13.Emscripten.clang"
  },
  "schemaVersion": "3.2.5",
  "updatedAt": "2020-12-02T01:05:28.320Z",
  "devdoc": {
    "methods": {
      "addGlobalConstraint(address,bytes32,address)": {
        "details": "add or update Global Constraint",
        "params": {
          "_globalConstraint": "the address of the global constraint to be added.",
          "_params": "the constraint parameters hash."
        },
        "return": "bool which represents a success"
      },
      "burnReputation(uint256,address,address)": {
        "details": "Burns `_amount` of reputation from `_from`",
        "params": {
          "_amount": "amount of reputation to burn",
          "_from": "The address that will lose the reputation"
        },
        "return": "bool which represents a success"
      },
      "externalTokenApproval(address,address,uint256,address)": {
        "details": "externalTokenApproval approve the spender address to spend a specified amount of tokens     on behalf of msg.sender.",
        "params": {
          "_externalToken": "the address of the Token Contract",
          "_spender": "address",
          "_value": "the amount of ether (in Wei) which the approval is referring to."
        },
        "return": "bool which represents a success"
      },
      "externalTokenTransfer(address,address,uint256,address)": {
        "details": "send some amount of arbitrary ERC20 Tokens",
        "params": {
          "_externalToken": "the address of the Token Contract",
          "_to": "address of the beneficiary",
          "_value": "the amount of ether (in Wei) to send"
        },
        "return": "bool which represents a success"
      },
      "externalTokenTransferFrom(address,address,address,uint256,address)": {
        "details": "transfer token \"from\" address \"to\" address     One must to approve the amount of tokens which can be spend from the     \"from\" account.This can be done using externalTokenApprove.",
        "params": {
          "_externalToken": "the address of the Token Contract",
          "_from": "address of the account to send from",
          "_to": "address of the beneficiary",
          "_value": "the amount of ether (in Wei) to send"
        },
        "return": "bool which represents a success"
      },
      "genericCall(address,bytes,address,uint256)": {
        "details": "perform a generic call to an arbitrary contract",
        "params": {
          "_avatar": "the controller's avatar address",
          "_contract": "the contract's address to call",
          "_data": "ABI-encoded contract call to call `_contract` address.",
          "_value": "value (ETH) to transfer with the transaction"
        },
        "return": "bool -success        bytes  - the return value of the called _contract's function."
      },
      "getNativeReputation(address)": {
        "details": "getNativeReputation",
        "params": {
          "_avatar": "the organization avatar."
        },
        "return": "organization native reputation"
      },
      "globalConstraintsCount(address)": {
        "details": "globalConstraintsCount return the global constraint pre and post count",
        "return": "uint256 globalConstraintsPre count.uint256 globalConstraintsPost count."
      },
      "metaData(string,address)": {
        "details": "metaData emits an event with a string, should contain the hash of some meta data.",
        "params": {
          "_avatar": "Avatar",
          "_metaData": "a string representing a hash of the meta data"
        },
        "return": "bool which represents a success"
      },
      "mintReputation(uint256,address,address)": {
        "details": "Mint `_amount` of reputation that are assigned to `_to` .",
        "params": {
          "_amount": "amount of reputation to mint",
          "_to": "beneficiary address"
        },
        "return": "bool which represents a success"
      },
      "mintTokens(uint256,address,address)": {
        "details": "mint tokens .",
        "params": {
          "_amount": "amount of token to mint",
          "_beneficiary": "beneficiary address"
        },
        "return": "bool which represents a success"
      },
      "registerScheme(address,bytes32,bytes4,address)": {
        "details": "register a scheme",
        "params": {
          "_paramsHash": "a hashed configuration of the usage of the scheme",
          "_permissions": "the permissions the new scheme will have",
          "_scheme": "the address of the scheme"
        },
        "return": "bool which represents a success"
      },
      "removeGlobalConstraint(address,address)": {
        "details": "remove Global Constraint",
        "params": {
          "_globalConstraint": "the address of the global constraint to be remove."
        },
        "return": "bool which represents a success"
      },
      "sendEther(uint256,address,address)": {
        "details": "send some ether",
        "params": {
          "_amountInWei": "the amount of ether (in Wei) to send",
          "_to": "address of the beneficiary"
        },
        "return": "bool which represents a success"
      },
      "unregisterScheme(address,address)": {
        "details": "unregister a scheme",
        "params": {
          "_scheme": "the address of the scheme"
        },
        "return": "bool which represents a success"
      },
      "unregisterSelf(address)": {
        "details": "unregister the caller's scheme",
        "return": "bool which represents a success"
      },
      "upgradeController(address,address)": {
        "details": "upgrade the Controller     The function will trigger an event 'UpgradeController'.",
        "params": {
          "_newController": "the address of the new controller."
        },
        "return": "bool which represents a success"
      }
    }
  },
  "userdoc": {
    "methods": {}
  }
}