{
  "_format": "hh-sol-artifact-1",
  "contractName": "DXdaoNFT",
  "sourceName": "contracts/dxvote/utils/DXdaoNFT.sol",
  "abi": [
    {
      "inputs": [],
      "stateMutability": "nonpayable",
      "type": "constructor"
    },
    {
      "anonymous": false,
      "inputs": [
        {
          "indexed": true,
          "internalType": "address",
          "name": "owner",
          "type": "address"
        },
        {
          "indexed": true,
          "internalType": "address",
          "name": "approved",
          "type": "address"
        },
        {
          "indexed": true,
          "internalType": "uint256",
          "name": "tokenId",
          "type": "uint256"
        }
      ],
      "name": "Approval",
      "type": "event"
    },
    {
      "anonymous": false,
      "inputs": [
        {
          "indexed": true,
          "internalType": "address",
          "name": "owner",
          "type": "address"
        },
        {
          "indexed": true,
          "internalType": "address",
          "name": "operator",
          "type": "address"
        },
        {
          "indexed": false,
          "internalType": "bool",
          "name": "approved",
          "type": "bool"
        }
      ],
      "name": "ApprovalForAll",
      "type": "event"
    },
    {
      "anonymous": false,
      "inputs": [
        {
          "indexed": true,
          "internalType": "address",
          "name": "previousOwner",
          "type": "address"
        },
        {
          "indexed": true,
          "internalType": "address",
          "name": "newOwner",
          "type": "address"
        }
      ],
      "name": "OwnershipTransferred",
      "type": "event"
    },
    {
      "anonymous": false,
      "inputs": [
        {
          "indexed": true,
          "internalType": "address",
          "name": "from",
          "type": "address"
        },
        {
          "indexed": true,
          "internalType": "address",
          "name": "to",
          "type": "address"
        },
        {
          "indexed": true,
          "internalType": "uint256",
          "name": "tokenId",
          "type": "uint256"
        }
      ],
      "name": "Transfer",
      "type": "event"
    },
    {
      "inputs": [
        {
          "internalType": "address",
          "name": "to",
          "type": "address"
        },
        {
          "internalType": "uint256",
          "name": "tokenId",
          "type": "uint256"
        }
      ],
      "name": "approve",
      "outputs": [],
      "stateMutability": "nonpayable",
      "type": "function"
    },
    {
      "inputs": [
        {
          "internalType": "address",
          "name": "owner",
          "type": "address"
        }
      ],
      "name": "balanceOf",
      "outputs": [
        {
          "internalType": "uint256",
          "name": "",
          "type": "uint256"
        }
      ],
      "stateMutability": "view",
      "type": "function"
    },
    {
      "inputs": [],
      "name": "baseURI",
      "outputs": [
        {
          "internalType": "string",
          "name": "",
          "type": "string"
        }
      ],
      "stateMutability": "view",
      "type": "function"
    },
    {
      "inputs": [
        {
          "internalType": "uint256",
          "name": "tokenId",
          "type": "uint256"
        }
      ],
      "name": "getApproved",
      "outputs": [
        {
          "internalType": "address",
          "name": "",
          "type": "address"
        }
      ],
      "stateMutability": "view",
      "type": "function"
    },
    {
      "inputs": [
        {
          "internalType": "address",
          "name": "owner",
          "type": "address"
        },
        {
          "internalType": "address",
          "name": "operator",
          "type": "address"
        }
      ],
      "name": "isApprovedForAll",
      "outputs": [
        {
          "internalType": "bool",
          "name": "",
          "type": "bool"
        }
      ],
      "stateMutability": "view",
      "type": "function"
    },
    {
      "inputs": [
        {
          "internalType": "address",
          "name": "recipient",
          "type": "address"
        },
        {
          "internalType": "string",
          "name": "tokenURI",
          "type": "string"
        }
      ],
      "name": "mint",
      "outputs": [
        {
          "internalType": "uint256",
          "name": "",
          "type": "uint256"
        }
      ],
      "stateMutability": "nonpayable",
      "type": "function"
    },
    {
      "inputs": [],
      "name": "name",
      "outputs": [
        {
          "internalType": "string",
          "name": "",
          "type": "string"
        }
      ],
      "stateMutability": "view",
      "type": "function"
    },
    {
      "inputs": [],
      "name": "owner",
      "outputs": [
        {
          "internalType": "address",
          "name": "",
          "type": "address"
        }
      ],
      "stateMutability": "view",
      "type": "function"
    },
    {
      "inputs": [
        {
          "internalType": "uint256",
          "name": "tokenId",
          "type": "uint256"
        }
      ],
      "name": "ownerOf",
      "outputs": [
        {
          "internalType": "address",
          "name": "",
          "type": "address"
        }
      ],
      "stateMutability": "view",
      "type": "function"
    },
    {
      "inputs": [],
      "name": "renounceOwnership",
      "outputs": [],
      "stateMutability": "nonpayable",
      "type": "function"
    },
    {
      "inputs": [
        {
          "internalType": "address",
          "name": "from",
          "type": "address"
        },
        {
          "internalType": "address",
          "name": "to",
          "type": "address"
        },
        {
          "internalType": "uint256",
          "name": "tokenId",
          "type": "uint256"
        }
      ],
      "name": "safeTransferFrom",
      "outputs": [],
      "stateMutability": "nonpayable",
      "type": "function"
    },
    {
      "inputs": [
        {
          "internalType": "address",
          "name": "from",
          "type": "address"
        },
        {
          "internalType": "address",
          "name": "to",
          "type": "address"
        },
        {
          "internalType": "uint256",
          "name": "tokenId",
          "type": "uint256"
        },
        {
          "internalType": "bytes",
          "name": "_data",
          "type": "bytes"
        }
      ],
      "name": "safeTransferFrom",
      "outputs": [],
      "stateMutability": "nonpayable",
      "type": "function"
    },
    {
      "inputs": [
        {
          "internalType": "address",
          "name": "operator",
          "type": "address"
        },
        {
          "internalType": "bool",
          "name": "approved",
          "type": "bool"
        }
      ],
      "name": "setApprovalForAll",
      "outputs": [],
      "stateMutability": "nonpayable",
      "type": "function"
    },
    {
      "inputs": [
        {
          "internalType": "bytes4",
          "name": "interfaceId",
          "type": "bytes4"
        }
      ],
      "name": "supportsInterface",
      "outputs": [
        {
          "internalType": "bool",
          "name": "",
          "type": "bool"
        }
      ],
      "stateMutability": "view",
      "type": "function"
    },
    {
      "inputs": [],
      "name": "symbol",
      "outputs": [
        {
          "internalType": "string",
          "name": "",
          "type": "string"
        }
      ],
      "stateMutability": "view",
      "type": "function"
    },
    {
      "inputs": [
        {
          "internalType": "uint256",
          "name": "index",
          "type": "uint256"
        }
      ],
      "name": "tokenByIndex",
      "outputs": [
        {
          "internalType": "uint256",
          "name": "",
          "type": "uint256"
        }
      ],
      "stateMutability": "view",
      "type": "function"
    },
    {
      "inputs": [
        {
          "internalType": "address",
          "name": "owner",
          "type": "address"
        },
        {
          "internalType": "uint256",
          "name": "index",
          "type": "uint256"
        }
      ],
      "name": "tokenOfOwnerByIndex",
      "outputs": [
        {
          "internalType": "uint256",
          "name": "",
          "type": "uint256"
        }
      ],
      "stateMutability": "view",
      "type": "function"
    },
    {
      "inputs": [
        {
          "internalType": "uint256",
          "name": "tokenId",
          "type": "uint256"
        }
      ],
      "name": "tokenURI",
      "outputs": [
        {
          "internalType": "string",
          "name": "",
          "type": "string"
        }
      ],
      "stateMutability": "view",
      "type": "function"
    },
    {
      "inputs": [],
      "name": "totalSupply",
      "outputs": [
        {
          "internalType": "uint256",
          "name": "",
          "type": "uint256"
        }
      ],
      "stateMutability": "view",
      "type": "function"
    },
    {
      "inputs": [
        {
          "internalType": "address",
          "name": "from",
          "type": "address"
        },
        {
          "internalType": "address",
          "name": "to",
          "type": "address"
        },
        {
          "internalType": "uint256",
          "name": "tokenId",
          "type": "uint256"
        }
      ],
      "name": "transferFrom",
      "outputs": [],
      "stateMutability": "nonpayable",
      "type": "function"
    },
    {
      "inputs": [
        {
          "internalType": "address",
          "name": "newOwner",
          "type": "address"
        }
      ],
      "name": "transferOwnership",
      "outputs": [],
      "stateMutability": "nonpayable",
      "type": "function"
    }
  ],
  "bytecode": "0x60806040523480156200001157600080fd5b506040805180820182526009815268111619185bc813919560ba1b60208083019190915282518084019093526005835264111613919560da1b9083015290620000616301ffc9a760e01b62000126565b815162000076906006906020850190620001af565b5080516200008c906007906020840190620001af565b506200009f6380ac58cd60e01b62000126565b620000b1635b5e139f60e01b62000126565b620000c363780e9d6360e01b62000126565b5060009050620000d2620001ab565b600a80546001600160a01b0319166001600160a01b038316908117909155604051919250906000907f8be0079c531659141344cd1fd0a4f28419497f9722a3daafe3b4186f6b6457e0908290a3506200025b565b6001600160e01b0319808216141562000186576040805162461bcd60e51b815260206004820152601c60248201527f4552433136353a20696e76616c696420696e7465726661636520696400000000604482015290519081900360640190fd5b6001600160e01b0319166000908152602081905260409020805460ff19166001179055565b3390565b828054600181600116156101000203166002900490600052602060002090601f016020900481019282620001e7576000855562000232565b82601f106200020257805160ff191683800117855562000232565b8280016001018555821562000232579182015b828111156200023257825182559160200191906001019062000215565b506200024092915062000244565b5090565b5b8082111562000240576000815560010162000245565b611fb9806200026b6000396000f3fe608060405234801561001057600080fd5b50600436106101375760003560e01c80636c0360eb116100b8578063a22cb4651161007c578063a22cb4651461038d578063b88d4fde146103bb578063c87b56dd14610481578063d0def5211461049e578063e985e9c514610554578063f2fde38b1461058257610137565b80636c0360eb1461034757806370a082311461034f578063715018a6146103755780638da5cb5b1461037d57806395d89b411461038557610137565b806323b872dd116100ff57806323b872dd146102755780632f745c59146102ab57806342842e0e146102d75780634f6ccce71461030d5780636352211e1461032a57610137565b806301ffc9a71461013c57806306fdde0314610177578063081812fc146101f4578063095ea7b31461022d57806318160ddd1461025b575b600080fd5b6101636004803603602081101561015257600080fd5b50356001600160e01b0319166105a8565b604080519115158252519081900360200190f35b61017f6105cb565b6040805160208082528351818301528351919283929083019185019080838360005b838110156101b95781810151838201526020016101a1565b50505050905090810190601f1680156101e65780820380516001836020036101000a031916815260200191505b509250505060405180910390f35b6102116004803603602081101561020a57600080fd5b5035610661565b604080516001600160a01b039092168252519081900360200190f35b6102596004803603604081101561024357600080fd5b506001600160a01b0381351690602001356106c3565b005b61026361079e565b60408051918252519081900360200190f35b6102596004803603606081101561028b57600080fd5b506001600160a01b038135811691602081013590911690604001356107af565b610263600480360360408110156102c157600080fd5b506001600160a01b038135169060200135610806565b610259600480360360608110156102ed57600080fd5b506001600160a01b03813581169160208101359091169060400135610831565b6102636004803603602081101561032357600080fd5b503561084c565b6102116004803603602081101561034057600080fd5b5035610862565b61017f61088a565b6102636004803603602081101561036557600080fd5b50356001600160a01b03166108eb565b610259610953565b610211610a11565b61017f610a20565b610259600480360360408110156103a357600080fd5b506001600160a01b0381351690602001351515610a81565b610259600480360360808110156103d157600080fd5b6001600160a01b0382358116926020810135909116916040820135919081019060808101606082013564010000000081111561040c57600080fd5b82018360208201111561041e57600080fd5b8035906020019184600183028401116401000000008311171561044057600080fd5b91908080601f016020809104026020016040519081016040528093929190818152602001838380828437600092019190915250929550610b86945050505050565b61017f6004803603602081101561049757600080fd5b5035610be4565b610263600480360360408110156104b457600080fd5b6001600160a01b0382351691908101906040810160208201356401000000008111156104df57600080fd5b8201836020820111156104f157600080fd5b8035906020019184600183028401116401000000008311171561051357600080fd5b91908080601f016020809104026020016040519081016040528093929190818152602001838380828437600092019190915250929550610e65945050505050565b6101636004803603604081101561056a57600080fd5b506001600160a01b0381358116916020013516610f07565b6102596004803603602081101561059857600080fd5b50356001600160a01b0316610f35565b6001600160e01b0319811660009081526020819052604090205460ff165b919050565b60068054604080516020601f60026000196101006001881615020190951694909404938401819004810282018101909252828152606093909290918301828280156106575780601f1061062c57610100808354040283529160200191610657565b820191906000526020600020905b81548152906001019060200180831161063a57829003601f168201915b5050505050905090565b600061066c8261104a565b6106a75760405162461bcd60e51b815260040180806020018281038252602c815260200180611e82602c913960400191505060405180910390fd5b506000908152600460205260409020546001600160a01b031690565b60006106ce82610862565b9050806001600160a01b0316836001600160a01b031614156107215760405162461bcd60e51b8152600401808060200182810382526021815260200180611f326021913960400191505060405180910390fd5b806001600160a01b0316610733611057565b6001600160a01b0316148061075457506107548161074f611057565b610f07565b61078f5760405162461bcd60e51b8152600401808060200182810382526038815260200180611dd56038913960400191505060405180910390fd5b610799838361105b565b505050565b60006107aa60026110c9565b905090565b6107c06107ba611057565b826110d4565b6107fb5760405162461bcd60e51b8152600401808060200182810382526031815260200180611f536031913960400191505060405180910390fd5b610799838383611178565b6001600160a01b038216600090815260016020526040812061082890836112c4565b90505b92915050565b61079983838360405180602001604052806000815250610b86565b60008061085a6002846112d0565b509392505050565b600061082b82604051806060016040528060298152602001611e3760299139600291906112ec565b60098054604080516020601f60026000196101006001881615020190951694909404938401819004810282018101909252828152606093909290918301828280156106575780601f1061062c57610100808354040283529160200191610657565b60006001600160a01b0382166109325760405162461bcd60e51b815260040180806020018281038252602a815260200180611e0d602a913960400191505060405180910390fd5b6001600160a01b038216600090815260016020526040902061082b906110c9565b61095b611057565b6001600160a01b031661096c610a11565b6001600160a01b0316146109c7576040805162461bcd60e51b815260206004820181905260248201527f4f776e61626c653a2063616c6c6572206973206e6f7420746865206f776e6572604482015290519081900360640190fd5b600a546040516000916001600160a01b0316907f8be0079c531659141344cd1fd0a4f28419497f9722a3daafe3b4186f6b6457e0908390a3600a80546001600160a01b0319169055565b600a546001600160a01b031690565b60078054604080516020601f60026000196101006001881615020190951694909404938401819004810282018101909252828152606093909290918301828280156106575780601f1061062c57610100808354040283529160200191610657565b610a89611057565b6001600160a01b0316826001600160a01b03161415610aef576040805162461bcd60e51b815260206004820152601960248201527f4552433732313a20617070726f766520746f2063616c6c657200000000000000604482015290519081900360640190fd5b8060056000610afc611057565b6001600160a01b03908116825260208083019390935260409182016000908120918716808252919093529120805460ff191692151592909217909155610b40611057565b6001600160a01b03167f17307eab39ab6107e8899845ad3d59bd9653f200f220920489ca2b5937696c318360405180821515815260200191505060405180910390a35050565b610b97610b91611057565b836110d4565b610bd25760405162461bcd60e51b8152600401808060200182810382526031815260200180611f536031913960400191505060405180910390fd5b610bde84848484611303565b50505050565b6060610bef8261104a565b610c2a5760405162461bcd60e51b815260040180806020018281038252602f815260200180611f03602f913960400191505060405180910390fd5b60008281526008602090815260408083208054825160026001831615610100026000190190921691909104601f810185900485028201850190935282815292909190830182828015610cbd5780601f10610c9257610100808354040283529160200191610cbd565b820191906000526020600020905b815481529060010190602001808311610ca057829003601f168201915b505050505090506000610cce61088a565b9050805160001415610ce2575090506105c6565b815115610da35780826040516020018083805190602001908083835b60208310610d1d5780518252601f199092019160209182019101610cfe565b51815160209384036101000a600019018019909216911617905285519190930192850191508083835b60208310610d655780518252601f199092019160209182019101610d46565b6001836020036101000a03801982511681845116808217855250505050505090500192505050604051602081830303815290604052925050506105c6565b80610dad85611355565b6040516020018083805190602001908083835b60208310610ddf5780518252601f199092019160209182019101610dc0565b51815160209384036101000a600019018019909216911617905285519190930192850191508083835b60208310610e275780518252601f199092019160209182019101610e08565b6001836020036101000a0380198251168184511680821785525050505050509050019250505060405160208183030381529060405292505050919050565b6000610e6f611057565b6001600160a01b0316610e80610a11565b6001600160a01b031614610edb576040805162461bcd60e51b815260206004820181905260248201527f4f776e61626c653a2063616c6c6572206973206e6f7420746865206f776e6572604482015290519081900360640190fd5b610ee5600b611430565b6000610ef1600b611439565b9050610efd848261143d565b610828818461156b565b6001600160a01b03918216600090815260056020908152604080832093909416825291909152205460ff1690565b610f3d611057565b6001600160a01b0316610f4e610a11565b6001600160a01b031614610fa9576040805162461bcd60e51b815260206004820181905260248201527f4f776e61626c653a2063616c6c6572206973206e6f7420746865206f776e6572604482015290519081900360640190fd5b6001600160a01b038116610fee5760405162461bcd60e51b8152600401808060200182810382526026815260200180611d5f6026913960400191505060405180910390fd5b600a546040516001600160a01b038084169216907f8be0079c531659141344cd1fd0a4f28419497f9722a3daafe3b4186f6b6457e090600090a3600a80546001600160a01b0319166001600160a01b0392909216919091179055565b600061082b6002836115ce565b3390565b600081815260046020526040902080546001600160a01b0319166001600160a01b038416908117909155819061109082610862565b6001600160a01b03167f8c5be1e5ebec7d5bd14f71427d1e84f3dd0314c0f7b2291e5b200ac8c7c3b92560405160405180910390a45050565b600061082b82611439565b60006110df8261104a565b61111a5760405162461bcd60e51b815260040180806020018281038252602c815260200180611da9602c913960400191505060405180910390fd5b600061112583610862565b9050806001600160a01b0316846001600160a01b031614806111605750836001600160a01b031661115584610661565b6001600160a01b0316145b8061117057506111708185610f07565b949350505050565b826001600160a01b031661118b82610862565b6001600160a01b0316146111d05760405162461bcd60e51b8152600401808060200182810382526029815260200180611eda6029913960400191505060405180910390fd5b6001600160a01b0382166112155760405162461bcd60e51b8152600401808060200182810382526024815260200180611d856024913960400191505060405180910390fd5b611220838383610799565b61122b60008261105b565b6001600160a01b038316600090815260016020526040902061124d90826115da565b506001600160a01b038216600090815260016020526040902061127090826115e6565b5061127d600282846115f2565b5080826001600160a01b0316846001600160a01b03167fddf252ad1be2c89b69c2b068fc378daa952ba7f163c4a11628f55a4df523b3ef60405160405180910390a4505050565b60006108288383611608565b60008080806112df868661166c565b9097909650945050505050565b60006112f98484846116e7565b90505b9392505050565b61130e848484611178565b61131a848484846117b1565b610bde5760405162461bcd60e51b8152600401808060200182810382526032815260200180611d2d6032913960400191505060405180910390fd5b60608161137a57506040805180820190915260018152600360fc1b60208201526105c6565b8160005b811561139257600101600a8204915061137e565b60008167ffffffffffffffff811180156113ab57600080fd5b506040519080825280601f01601f1916602001820160405280156113d6576020820181803683370190505b50859350905060001982015b831561142757600a840660300160f81b8282806001900393508151811061140557fe5b60200101906001600160f81b031916908160001a905350600a840493506113e2565b50949350505050565b80546001019055565b5490565b6001600160a01b038216611498576040805162461bcd60e51b815260206004820181905260248201527f4552433732313a206d696e7420746f20746865207a65726f2061646472657373604482015290519081900360640190fd5b6114a18161104a565b156114f3576040805162461bcd60e51b815260206004820152601c60248201527f4552433732313a20746f6b656e20616c7265616479206d696e74656400000000604482015290519081900360640190fd5b6114ff60008383610799565b6001600160a01b038216600090815260016020526040902061152190826115e6565b5061152e600282846115f2565b5060405181906001600160a01b038416906000907fddf252ad1be2c89b69c2b068fc378daa952ba7f163c4a11628f55a4df523b3ef908290a45050565b6115748261104a565b6115af5760405162461bcd60e51b815260040180806020018281038252602c815260200180611eae602c913960400191505060405180910390fd5b6000828152600860209081526040909120825161079992840190611c69565b60006108288383611919565b60006108288383611931565b600061082883836119f7565b60006112f984846001600160a01b038516611a41565b8154600090821061164a5760405162461bcd60e51b8152600401808060200182810382526022815260200180611d0b6022913960400191505060405180910390fd5b82600001828154811061165957fe5b9060005260206000200154905092915050565b8154600090819083106116b05760405162461bcd60e51b8152600401808060200182810382526022815260200180611e606022913960400191505060405180910390fd5b60008460000184815481106116c157fe5b906000526020600020906002020190508060000154816001015492509250509250929050565b600082815260018401602052604081205482816117825760405162461bcd60e51b81526004018080602001828103825283818151815260200191508051906020019080838360005b8381101561174757818101518382015260200161172f565b50505050905090810190601f1680156117745780820380516001836020036101000a031916815260200191505b509250505060405180910390fd5b5084600001600182038154811061179557fe5b9060005260206000209060020201600101549150509392505050565b60006117c5846001600160a01b0316611ad8565b6117d157506001611170565b60006118df630a85bd0160e11b6117e6611057565b88878760405160240180856001600160a01b03168152602001846001600160a01b0316815260200183815260200180602001828103825283818151815260200191508051906020019080838360005b8381101561184d578181015183820152602001611835565b50505050905090810190601f16801561187a5780820380516001836020036101000a031916815260200191505b5095505050505050604051602081830303815290604052906001600160e01b0319166020820180516001600160e01b038381831617835250505050604051806060016040528060328152602001611d2d603291396001600160a01b0388169190611ade565b905060008180602001905160208110156118f857600080fd5b50516001600160e01b031916630a85bd0160e11b1492505050949350505050565b60009081526001919091016020526040902054151590565b600081815260018301602052604081205480156119ed578354600019808301919081019060009087908390811061196457fe5b906000526020600020015490508087600001848154811061198157fe5b6000918252602080832090910192909255828152600189810190925260409020908401905586548790806119b157fe5b6001900381819060005260206000200160009055905586600101600087815260200190815260200160002060009055600194505050505061082b565b600091505061082b565b6000611a038383611919565b611a395750815460018181018455600084815260208082209093018490558454848252828601909352604090209190915561082b565b50600061082b565b600082815260018401602052604081205480611aa65750506040805180820182528381526020808201848152865460018181018955600089815284812095516002909302909501918255915190820155865486845281880190925292909120556112fc565b82856000016001830381548110611ab957fe5b90600052602060002090600202016001018190555060009150506112fc565b3b151590565b60606112f9848460008585611af285611ad8565b611b43576040805162461bcd60e51b815260206004820152601d60248201527f416464726573733a2063616c6c20746f206e6f6e2d636f6e7472616374000000604482015290519081900360640190fd5b600080866001600160a01b031685876040518082805190602001908083835b60208310611b815780518252601f199092019160209182019101611b62565b6001836020036101000a03801982511681845116808217855250505050505090500191505060006040518083038185875af1925050503d8060008114611be3576040519150601f19603f3d011682016040523d82523d6000602084013e611be8565b606091505b5091509150611bf8828286611c03565b979650505050505050565b60608315611c125750816112fc565b825115611c225782518084602001fd5b60405162461bcd60e51b815260206004820181815284516024840152845185939192839260440191908501908083836000831561174757818101518382015260200161172f565b828054600181600116156101000203166002900490600052602060002090601f016020900481019282611c9f5760008555611ce5565b82601f10611cb857805160ff1916838001178555611ce5565b82800160010185558215611ce5579182015b82811115611ce5578251825591602001919060010190611cca565b50611cf1929150611cf5565b5090565b5b80821115611cf15760008155600101611cf656fe456e756d657261626c655365743a20696e646578206f7574206f6620626f756e64734552433732313a207472616e7366657220746f206e6f6e20455243373231526563656976657220696d706c656d656e7465724f776e61626c653a206e6577206f776e657220697320746865207a65726f20616464726573734552433732313a207472616e7366657220746f20746865207a65726f20616464726573734552433732313a206f70657261746f7220717565727920666f72206e6f6e6578697374656e7420746f6b656e4552433732313a20617070726f76652063616c6c6572206973206e6f74206f776e6572206e6f7220617070726f76656420666f7220616c6c4552433732313a2062616c616e636520717565727920666f7220746865207a65726f20616464726573734552433732313a206f776e657220717565727920666f72206e6f6e6578697374656e7420746f6b656e456e756d657261626c654d61703a20696e646578206f7574206f6620626f756e64734552433732313a20617070726f76656420717565727920666f72206e6f6e6578697374656e7420746f6b656e4552433732314d657461646174613a2055524920736574206f66206e6f6e6578697374656e7420746f6b656e4552433732313a207472616e73666572206f6620746f6b656e2074686174206973206e6f74206f776e4552433732314d657461646174613a2055524920717565727920666f72206e6f6e6578697374656e7420746f6b656e4552433732313a20617070726f76616c20746f2063757272656e74206f776e65724552433732313a207472616e736665722063616c6c6572206973206e6f74206f776e6572206e6f7220617070726f766564a264697066735822122099333fb35c90e4db66d70d0ae681ad16230ef3b1e937729386ff3be0f806e77f64736f6c63430007060033",
  "linkReferences": {},
  "deployedLinkReferences": {}
}