{
  "contractName": "DXDVotingMachine",
  "abi": [
    {
      "inputs": [
        {
          "internalType": "contract IERC20",
          "name": "_stakingToken",
          "type": "address"
        }
      ],
      "payable": false,
      "stateMutability": "nonpayable",
      "type": "constructor"
    },
    {
      "anonymous": false,
      "inputs": [
        {
          "indexed": true,
          "internalType": "bytes32",
          "name": "_proposalId",
          "type": "bytes32"
        },
        {
          "indexed": true,
          "internalType": "address",
          "name": "_organization",
          "type": "address"
        }
      ],
      "name": "CancelProposal",
      "type": "event"
    },
    {
      "anonymous": false,
      "inputs": [
        {
          "indexed": true,
          "internalType": "bytes32",
          "name": "_proposalId",
          "type": "bytes32"
        },
        {
          "indexed": true,
          "internalType": "address",
          "name": "_organization",
          "type": "address"
        },
        {
          "indexed": true,
          "internalType": "address",
          "name": "_voter",
          "type": "address"
        }
      ],
      "name": "CancelVoting",
      "type": "event"
    },
    {
      "anonymous": false,
      "inputs": [
        {
          "indexed": true,
          "internalType": "bytes32",
          "name": "_proposalId",
          "type": "bytes32"
        },
        {
          "indexed": false,
          "internalType": "uint256",
          "name": "_confidenceThreshold",
          "type": "uint256"
        }
      ],
      "name": "ConfidenceLevelChange",
      "type": "event"
    },
    {
      "anonymous": false,
      "inputs": [
        {
          "indexed": true,
          "internalType": "bytes32",
          "name": "_proposalId",
          "type": "bytes32"
        },
        {
          "indexed": true,
          "internalType": "address",
          "name": "_organization",
          "type": "address"
        },
        {
          "indexed": false,
          "internalType": "uint256",
          "name": "_decision",
          "type": "uint256"
        },
        {
          "indexed": false,
          "internalType": "uint256",
          "name": "_totalReputation",
          "type": "uint256"
        }
      ],
      "name": "ExecuteProposal",
      "type": "event"
    },
    {
      "anonymous": false,
      "inputs": [
        {
          "indexed": true,
          "internalType": "bytes32",
          "name": "_proposalId",
          "type": "bytes32"
        },
        {
          "indexed": true,
          "internalType": "address",
          "name": "_beneficiary",
          "type": "address"
        },
        {
          "indexed": false,
          "internalType": "uint256",
          "name": "_amount",
          "type": "uint256"
        }
      ],
      "name": "ExpirationCallBounty",
      "type": "event"
    },
    {
      "anonymous": false,
      "inputs": [
        {
          "indexed": true,
          "internalType": "bytes32",
          "name": "_proposalId",
          "type": "bytes32"
        },
        {
          "indexed": false,
          "internalType": "enum GenesisProtocolLogic.ExecutionState",
          "name": "_executionState",
          "type": "uint8"
        }
      ],
      "name": "GPExecuteProposal",
      "type": "event"
    },
    {
      "anonymous": false,
      "inputs": [
        {
          "indexed": true,
          "internalType": "bytes32",
          "name": "_proposalId",
          "type": "bytes32"
        },
        {
          "indexed": true,
          "internalType": "address",
          "name": "_organization",
          "type": "address"
        },
        {
          "indexed": false,
          "internalType": "uint256",
          "name": "_numOfChoices",
          "type": "uint256"
        },
        {
          "indexed": false,
          "internalType": "address",
          "name": "_proposer",
          "type": "address"
        },
        {
          "indexed": false,
          "internalType": "bytes32",
          "name": "_paramsHash",
          "type": "bytes32"
        }
      ],
      "name": "NewProposal",
      "type": "event"
    },
    {
      "anonymous": false,
      "inputs": [
        {
          "indexed": true,
          "internalType": "bytes32",
          "name": "_proposalId",
          "type": "bytes32"
        },
        {
          "indexed": true,
          "internalType": "address",
          "name": "_organization",
          "type": "address"
        },
        {
          "indexed": true,
          "internalType": "address",
          "name": "_beneficiary",
          "type": "address"
        },
        {
          "indexed": false,
          "internalType": "uint256",
          "name": "_amount",
          "type": "uint256"
        }
      ],
      "name": "Redeem",
      "type": "event"
    },
    {
      "anonymous": false,
      "inputs": [
        {
          "indexed": true,
          "internalType": "bytes32",
          "name": "_proposalId",
          "type": "bytes32"
        },
        {
          "indexed": true,
          "internalType": "address",
          "name": "_organization",
          "type": "address"
        },
        {
          "indexed": true,
          "internalType": "address",
          "name": "_beneficiary",
          "type": "address"
        },
        {
          "indexed": false,
          "internalType": "uint256",
          "name": "_amount",
          "type": "uint256"
        }
      ],
      "name": "RedeemDaoBounty",
      "type": "event"
    },
    {
      "anonymous": false,
      "inputs": [
        {
          "indexed": true,
          "internalType": "bytes32",
          "name": "_proposalId",
          "type": "bytes32"
        },
        {
          "indexed": true,
          "internalType": "address",
          "name": "_organization",
          "type": "address"
        },
        {
          "indexed": true,
          "internalType": "address",
          "name": "_beneficiary",
          "type": "address"
        },
        {
          "indexed": false,
          "internalType": "uint256",
          "name": "_amount",
          "type": "uint256"
        }
      ],
      "name": "RedeemReputation",
      "type": "event"
    },
    {
      "anonymous": false,
      "inputs": [
        {
          "indexed": true,
          "internalType": "bytes32",
          "name": "_proposalId",
          "type": "bytes32"
        },
        {
          "indexed": true,
          "internalType": "address",
          "name": "_organization",
          "type": "address"
        },
        {
          "indexed": true,
          "internalType": "address",
          "name": "_staker",
          "type": "address"
        },
        {
          "indexed": false,
          "internalType": "uint256",
          "name": "_vote",
          "type": "uint256"
        },
        {
          "indexed": false,
          "internalType": "uint256",
          "name": "_amount",
          "type": "uint256"
        }
      ],
      "name": "Stake",
      "type": "event"
    },
    {
      "anonymous": false,
      "inputs": [
        {
          "indexed": true,
          "internalType": "bytes32",
          "name": "_proposalId",
          "type": "bytes32"
        },
        {
          "indexed": false,
          "internalType": "enum GenesisProtocolLogic.ProposalState",
          "name": "_proposalState",
          "type": "uint8"
        }
      ],
      "name": "StateChange",
      "type": "event"
    },
    {
      "anonymous": false,
      "inputs": [
        {
          "indexed": true,
          "internalType": "bytes32",
          "name": "_proposalId",
          "type": "bytes32"
        },
        {
          "indexed": true,
          "internalType": "address",
          "name": "_organization",
          "type": "address"
        },
        {
          "indexed": true,
          "internalType": "address",
          "name": "_voter",
          "type": "address"
        },
        {
          "indexed": false,
          "internalType": "uint256",
          "name": "_vote",
          "type": "uint256"
        },
        {
          "indexed": false,
          "internalType": "uint256",
          "name": "_reputation",
          "type": "uint256"
        }
      ],
      "name": "VoteProposal",
      "type": "event"
    },
    {
      "anonymous": false,
      "inputs": [
        {
          "indexed": false,
          "internalType": "bytes32",
          "name": "proposalId",
          "type": "bytes32"
        },
        {
          "indexed": false,
          "internalType": "address",
          "name": "voter",
          "type": "address"
        },
        {
          "indexed": false,
          "internalType": "uint256",
          "name": "voteDecision",
          "type": "uint256"
        },
        {
          "indexed": false,
          "internalType": "uint256",
          "name": "amount",
          "type": "uint256"
        }
      ],
      "name": "VoteSignaled",
      "type": "event"
    },
    {
      "anonymous": false,
      "inputs": [
        {
          "indexed": false,
          "internalType": "address",
          "name": "votingMachine",
          "type": "address"
        },
        {
          "indexed": false,
          "internalType": "bytes32",
          "name": "proposalId",
          "type": "bytes32"
        },
        {
          "indexed": false,
          "internalType": "address",
          "name": "voter",
          "type": "address"
        },
        {
          "indexed": false,
          "internalType": "uint256",
          "name": "voteDecision",
          "type": "uint256"
        },
        {
          "indexed": false,
          "internalType": "uint256",
          "name": "amount",
          "type": "uint256"
        },
        {
          "indexed": false,
          "internalType": "bytes",
          "name": "signature",
          "type": "bytes"
        }
      ],
      "name": "VoteSigned",
      "type": "event"
    },
    {
      "payable": true,
      "stateMutability": "payable",
      "type": "fallback"
    },
    {
      "constant": true,
      "inputs": [],
      "name": "DELEGATION_HASH_EIP712",
      "outputs": [
        {
          "internalType": "bytes32",
          "name": "",
          "type": "bytes32"
        }
      ],
      "payable": false,
      "stateMutability": "view",
      "type": "function"
    },
    {
      "constant": true,
      "inputs": [],
      "name": "NO",
      "outputs": [
        {
          "internalType": "uint256",
          "name": "",
          "type": "uint256"
        }
      ],
      "payable": false,
      "stateMutability": "view",
      "type": "function"
    },
    {
      "constant": true,
      "inputs": [],
      "name": "NUM_OF_CHOICES",
      "outputs": [
        {
          "internalType": "uint256",
          "name": "",
          "type": "uint256"
        }
      ],
      "payable": false,
      "stateMutability": "view",
      "type": "function"
    },
    {
      "constant": true,
      "inputs": [],
      "name": "YES",
      "outputs": [
        {
          "internalType": "uint256",
          "name": "",
          "type": "uint256"
        }
      ],
      "payable": false,
      "stateMutability": "view",
      "type": "function"
    },
    {
      "constant": true,
      "inputs": [
        {
          "internalType": "bytes32",
          "name": "",
          "type": "bytes32"
        }
      ],
      "name": "averagesDownstakesOfBoosted",
      "outputs": [
        {
          "internalType": "uint256",
          "name": "",
          "type": "uint256"
        }
      ],
      "payable": false,
      "stateMutability": "view",
      "type": "function"
    },
    {
      "constant": true,
      "inputs": [
        {
          "internalType": "bytes32",
          "name": "_proposalId",
          "type": "bytes32"
        }
      ],
      "name": "calcExecuteCallBounty",
      "outputs": [
        {
          "internalType": "uint256",
          "name": "",
          "type": "uint256"
        }
      ],
      "payable": false,
      "stateMutability": "view",
      "type": "function"
    },
    {
      "constant": false,
      "inputs": [
        {
          "internalType": "bytes32",
          "name": "_proposalId",
          "type": "bytes32"
        }
      ],
      "name": "cancelVote",
      "outputs": [],
      "payable": false,
      "stateMutability": "nonpayable",
      "type": "function"
    },
    {
      "constant": false,
      "inputs": [
        {
          "internalType": "bytes32",
          "name": "_proposalId",
          "type": "bytes32"
        }
      ],
      "name": "execute",
      "outputs": [
        {
          "internalType": "bool",
          "name": "",
          "type": "bool"
        }
      ],
      "payable": false,
      "stateMutability": "nonpayable",
      "type": "function"
    },
    {
      "constant": false,
      "inputs": [
        {
          "internalType": "bytes32",
          "name": "_proposalId",
          "type": "bytes32"
        }
      ],
      "name": "executeBoosted",
      "outputs": [
        {
          "internalType": "uint256",
          "name": "expirationCallBounty",
          "type": "uint256"
        }
      ],
      "payable": false,
      "stateMutability": "nonpayable",
      "type": "function"
    },
    {
      "constant": true,
      "inputs": [],
      "name": "getAllowedRangeOfChoices",
      "outputs": [
        {
          "internalType": "uint256",
          "name": "min",
          "type": "uint256"
        },
        {
          "internalType": "uint256",
          "name": "max",
          "type": "uint256"
        }
      ],
      "payable": false,
      "stateMutability": "pure",
      "type": "function"
    },
    {
      "constant": true,
      "inputs": [
        {
          "internalType": "bytes32",
          "name": "",
          "type": "bytes32"
        }
      ],
      "name": "getNumberOfChoices",
      "outputs": [
        {
          "internalType": "uint256",
          "name": "",
          "type": "uint256"
        }
      ],
      "payable": false,
      "stateMutability": "view",
      "type": "function"
    },
    {
      "constant": true,
      "inputs": [
        {
          "internalType": "uint256[11]",
          "name": "_params",
          "type": "uint256[11]"
        },
        {
          "internalType": "address",
          "name": "_voteOnBehalf",
          "type": "address"
        }
      ],
      "name": "getParametersHash",
      "outputs": [
        {
          "internalType": "bytes32",
          "name": "",
          "type": "bytes32"
        }
      ],
      "payable": false,
      "stateMutability": "pure",
      "type": "function"
    },
    {
      "constant": true,
      "inputs": [
        {
          "internalType": "bytes32",
          "name": "_proposalId",
          "type": "bytes32"
        }
      ],
      "name": "getProposalOrganization",
      "outputs": [
        {
          "internalType": "bytes32",
          "name": "",
          "type": "bytes32"
        }
      ],
      "payable": false,
      "stateMutability": "view",
      "type": "function"
    },
    {
      "constant": true,
      "inputs": [
        {
          "internalType": "bytes32",
          "name": "_proposalId",
          "type": "bytes32"
        }
      ],
      "name": "getProposalTimes",
      "outputs": [
        {
          "internalType": "uint256[3]",
          "name": "times",
          "type": "uint256[3]"
        }
      ],
      "payable": false,
      "stateMutability": "view",
      "type": "function"
    },
    {
      "constant": true,
      "inputs": [
        {
          "internalType": "bytes32",
          "name": "_proposalId",
          "type": "bytes32"
        },
        {
          "internalType": "address",
          "name": "_staker",
          "type": "address"
        }
      ],
      "name": "getStaker",
      "outputs": [
        {
          "internalType": "uint256",
          "name": "",
          "type": "uint256"
        },
        {
          "internalType": "uint256",
          "name": "",
          "type": "uint256"
        }
      ],
      "payable": false,
      "stateMutability": "view",
      "type": "function"
    },
    {
      "constant": true,
      "inputs": [],
      "name": "isAbstainAllow",
      "outputs": [
        {
          "internalType": "bool",
          "name": "",
          "type": "bool"
        }
      ],
      "payable": false,
      "stateMutability": "pure",
      "type": "function"
    },
    {
      "constant": true,
      "inputs": [
        {
          "internalType": "bytes32",
          "name": "_proposalId",
          "type": "bytes32"
        }
      ],
      "name": "isVotable",
      "outputs": [
        {
          "internalType": "bool",
          "name": "",
          "type": "bool"
        }
      ],
      "payable": false,
      "stateMutability": "view",
      "type": "function"
    },
    {
      "constant": true,
      "inputs": [
        {
          "internalType": "bytes32",
          "name": "",
          "type": "bytes32"
        }
      ],
      "name": "orgBoostedProposalsCnt",
      "outputs": [
        {
          "internalType": "uint256",
          "name": "",
          "type": "uint256"
        }
      ],
      "payable": false,
      "stateMutability": "view",
      "type": "function"
    },
    {
      "constant": true,
      "inputs": [
        {
          "internalType": "address",
          "name": "",
          "type": "address"
        }
      ],
      "name": "organizationRefunds",
      "outputs": [
        {
          "internalType": "uint256",
          "name": "balance",
          "type": "uint256"
        },
        {
          "internalType": "uint256",
          "name": "voteGas",
          "type": "uint256"
        },
        {
          "internalType": "uint256",
          "name": "maxGasPrice",
          "type": "uint256"
        }
      ],
      "payable": false,
      "stateMutability": "view",
      "type": "function"
    },
    {
      "constant": true,
      "inputs": [
        {
          "internalType": "bytes32",
          "name": "",
          "type": "bytes32"
        }
      ],
      "name": "organizations",
      "outputs": [
        {
          "internalType": "address",
          "name": "",
          "type": "address"
        }
      ],
      "payable": false,
      "stateMutability": "view",
      "type": "function"
    },
    {
      "constant": true,
      "inputs": [
        {
          "internalType": "bytes32",
          "name": "",
          "type": "bytes32"
        }
      ],
      "name": "parameters",
      "outputs": [
        {
          "internalType": "uint256",
          "name": "queuedVoteRequiredPercentage",
          "type": "uint256"
        },
        {
          "internalType": "uint256",
          "name": "queuedVotePeriodLimit",
          "type": "uint256"
        },
        {
          "internalType": "uint256",
          "name": "boostedVotePeriodLimit",
          "type": "uint256"
        },
        {
          "internalType": "uint256",
          "name": "preBoostedVotePeriodLimit",
          "type": "uint256"
        },
        {
          "internalType": "uint256",
          "name": "thresholdConst",
          "type": "uint256"
        },
        {
          "internalType": "uint256",
          "name": "limitExponentValue",
          "type": "uint256"
        },
        {
          "internalType": "uint256",
          "name": "quietEndingPeriod",
          "type": "uint256"
        },
        {
          "internalType": "uint256",
          "name": "proposingRepReward",
          "type": "uint256"
        },
        {
          "internalType": "uint256",
          "name": "votersReputationLossRatio",
          "type": "uint256"
        },
        {
          "internalType": "uint256",
          "name": "minimumDaoBounty",
          "type": "uint256"
        },
        {
          "internalType": "uint256",
          "name": "daoBountyConst",
          "type": "uint256"
        },
        {
          "internalType": "uint256",
          "name": "activationTime",
          "type": "uint256"
        },
        {
          "internalType": "address",
          "name": "voteOnBehalf",
          "type": "address"
        }
      ],
      "payable": false,
      "stateMutability": "view",
      "type": "function"
    },
    {
      "constant": true,
      "inputs": [
        {
          "internalType": "bytes32",
          "name": "_proposalId",
          "type": "bytes32"
        }
      ],
      "name": "proposalStatus",
      "outputs": [
        {
          "internalType": "uint256",
          "name": "",
          "type": "uint256"
        },
        {
          "internalType": "uint256",
          "name": "",
          "type": "uint256"
        },
        {
          "internalType": "uint256",
          "name": "",
          "type": "uint256"
        },
        {
          "internalType": "uint256",
          "name": "",
          "type": "uint256"
        }
      ],
      "payable": false,
      "stateMutability": "view",
      "type": "function"
    },
    {
      "constant": true,
      "inputs": [
        {
          "internalType": "bytes32",
          "name": "",
          "type": "bytes32"
        }
      ],
      "name": "proposals",
      "outputs": [
        {
          "internalType": "bytes32",
          "name": "organizationId",
          "type": "bytes32"
        },
        {
          "internalType": "address",
          "name": "callbacks",
          "type": "address"
        },
        {
          "internalType": "enum GenesisProtocolLogic.ProposalState",
          "name": "state",
          "type": "uint8"
        },
        {
          "internalType": "uint256",
          "name": "winningVote",
          "type": "uint256"
        },
        {
          "internalType": "address",
          "name": "proposer",
          "type": "address"
        },
        {
          "internalType": "uint256",
          "name": "currentBoostedVotePeriodLimit",
          "type": "uint256"
        },
        {
          "internalType": "bytes32",
          "name": "paramsHash",
          "type": "bytes32"
        },
        {
          "internalType": "uint256",
          "name": "daoBountyRemain",
          "type": "uint256"
        },
        {
          "internalType": "uint256",
          "name": "daoBounty",
          "type": "uint256"
        },
        {
          "internalType": "uint256",
          "name": "totalStakes",
          "type": "uint256"
        },
        {
          "internalType": "uint256",
          "name": "confidenceThreshold",
          "type": "uint256"
        },
        {
          "internalType": "uint256",
          "name": "secondsFromTimeOutTillExecuteBoosted",
          "type": "uint256"
        },
        {
          "internalType": "bool",
          "name": "daoRedeemItsWinnings",
          "type": "bool"
        }
      ],
      "payable": false,
      "stateMutability": "view",
      "type": "function"
    },
    {
      "constant": true,
      "inputs": [],
      "name": "proposalsCnt",
      "outputs": [
        {
          "internalType": "uint256",
          "name": "",
          "type": "uint256"
        }
      ],
      "payable": false,
      "stateMutability": "view",
      "type": "function"
    },
    {
      "constant": false,
      "inputs": [
        {
          "internalType": "uint256",
          "name": "",
          "type": "uint256"
        },
        {
          "internalType": "bytes32",
          "name": "_paramsHash",
          "type": "bytes32"
        },
        {
          "internalType": "address",
          "name": "_proposer",
          "type": "address"
        },
        {
          "internalType": "address",
          "name": "_organization",
          "type": "address"
        }
      ],
      "name": "propose",
      "outputs": [
        {
          "internalType": "bytes32",
          "name": "",
          "type": "bytes32"
        }
      ],
      "payable": false,
      "stateMutability": "nonpayable",
      "type": "function"
    },
    {
      "constant": false,
      "inputs": [
        {
          "internalType": "bytes32",
          "name": "_proposalId",
          "type": "bytes32"
        },
        {
          "internalType": "address",
          "name": "_beneficiary",
          "type": "address"
        }
      ],
      "name": "redeem",
      "outputs": [
        {
          "internalType": "uint256[3]",
          "name": "rewards",
          "type": "uint256[3]"
        }
      ],
      "payable": false,
      "stateMutability": "nonpayable",
      "type": "function"
    },
    {
      "constant": false,
      "inputs": [
        {
          "internalType": "bytes32",
          "name": "_proposalId",
          "type": "bytes32"
        },
        {
          "internalType": "address",
          "name": "_beneficiary",
          "type": "address"
        }
      ],
      "name": "redeemDaoBounty",
      "outputs": [
        {
          "internalType": "uint256",
          "name": "redeemedAmount",
          "type": "uint256"
        },
        {
          "internalType": "uint256",
          "name": "potentialAmount",
          "type": "uint256"
        }
      ],
      "payable": false,
      "stateMutability": "nonpayable",
      "type": "function"
    },
    {
      "constant": true,
      "inputs": [
        {
          "internalType": "bytes32",
          "name": "_proposalId",
          "type": "bytes32"
        }
      ],
      "name": "score",
      "outputs": [
        {
          "internalType": "uint256",
          "name": "",
          "type": "uint256"
        }
      ],
      "payable": false,
      "stateMutability": "view",
      "type": "function"
    },
    {
      "constant": false,
      "inputs": [
        {
          "internalType": "uint256[11]",
          "name": "_params",
          "type": "uint256[11]"
        },
        {
          "internalType": "address",
          "name": "_voteOnBehalf",
          "type": "address"
        }
      ],
      "name": "setParameters",
      "outputs": [
        {
          "internalType": "bytes32",
          "name": "",
          "type": "bytes32"
        }
      ],
      "payable": false,
      "stateMutability": "nonpayable",
      "type": "function"
    },
    {
      "constant": true,
      "inputs": [
        {
          "internalType": "bytes32",
          "name": "_proposalId",
          "type": "bytes32"
        }
      ],
      "name": "shouldBoost",
      "outputs": [
        {
          "internalType": "bool",
          "name": "",
          "type": "bool"
        }
      ],
      "payable": false,
      "stateMutability": "view",
      "type": "function"
    },
    {
      "constant": false,
      "inputs": [
        {
          "internalType": "bytes32",
          "name": "_proposalId",
          "type": "bytes32"
        },
        {
          "internalType": "uint256",
          "name": "_vote",
          "type": "uint256"
        },
        {
          "internalType": "uint256",
          "name": "_amount",
          "type": "uint256"
        }
      ],
      "name": "stake",
      "outputs": [
        {
          "internalType": "bool",
          "name": "",
          "type": "bool"
        }
      ],
      "payable": false,
      "stateMutability": "nonpayable",
      "type": "function"
    },
    {
      "constant": false,
      "inputs": [
        {
          "internalType": "bytes32",
          "name": "_proposalId",
          "type": "bytes32"
        },
        {
          "internalType": "uint256",
          "name": "_vote",
          "type": "uint256"
        },
        {
          "internalType": "uint256",
          "name": "_amount",
          "type": "uint256"
        },
        {
          "internalType": "uint256",
          "name": "_nonce",
          "type": "uint256"
        },
        {
          "internalType": "uint256",
          "name": "_signatureType",
          "type": "uint256"
        },
        {
          "internalType": "bytes",
          "name": "_signature",
          "type": "bytes"
        }
      ],
      "name": "stakeWithSignature",
      "outputs": [
        {
          "internalType": "bool",
          "name": "",
          "type": "bool"
        }
      ],
      "payable": false,
      "stateMutability": "nonpayable",
      "type": "function"
    },
    {
      "constant": true,
      "inputs": [
        {
          "internalType": "address",
          "name": "",
          "type": "address"
        }
      ],
      "name": "stakesNonce",
      "outputs": [
        {
          "internalType": "uint256",
          "name": "",
          "type": "uint256"
        }
      ],
      "payable": false,
      "stateMutability": "view",
      "type": "function"
    },
    {
      "constant": true,
      "inputs": [],
      "name": "stakingToken",
      "outputs": [
        {
          "internalType": "contract IERC20",
          "name": "",
          "type": "address"
        }
      ],
      "payable": false,
      "stateMutability": "view",
      "type": "function"
    },
    {
      "constant": true,
      "inputs": [
        {
          "internalType": "bytes32",
          "name": "_proposalId",
          "type": "bytes32"
        }
      ],
      "name": "state",
      "outputs": [
        {
          "internalType": "enum GenesisProtocolLogic.ProposalState",
          "name": "",
          "type": "uint8"
        }
      ],
      "payable": false,
      "stateMutability": "view",
      "type": "function"
    },
    {
      "constant": true,
      "inputs": [
        {
          "internalType": "bytes32",
          "name": "_paramsHash",
          "type": "bytes32"
        },
        {
          "internalType": "bytes32",
          "name": "_organizationId",
          "type": "bytes32"
        }
      ],
      "name": "threshold",
      "outputs": [
        {
          "internalType": "uint256",
          "name": "",
          "type": "uint256"
        }
      ],
      "payable": false,
      "stateMutability": "view",
      "type": "function"
    },
    {
      "constant": true,
      "inputs": [
        {
          "internalType": "bytes32",
          "name": "_proposalId",
          "type": "bytes32"
        },
        {
          "internalType": "address",
          "name": "_voter",
          "type": "address"
        }
      ],
      "name": "voteInfo",
      "outputs": [
        {
          "internalType": "uint256",
          "name": "",
          "type": "uint256"
        },
        {
          "internalType": "uint256",
          "name": "",
          "type": "uint256"
        }
      ],
      "payable": false,
      "stateMutability": "view",
      "type": "function"
    },
    {
      "constant": true,
      "inputs": [
        {
          "internalType": "bytes32",
          "name": "_proposalId",
          "type": "bytes32"
        },
        {
          "internalType": "uint256",
          "name": "_vote",
          "type": "uint256"
        }
      ],
      "name": "voteStake",
      "outputs": [
        {
          "internalType": "uint256",
          "name": "",
          "type": "uint256"
        }
      ],
      "payable": false,
      "stateMutability": "view",
      "type": "function"
    },
    {
      "constant": true,
      "inputs": [
        {
          "internalType": "bytes32",
          "name": "_proposalId",
          "type": "bytes32"
        },
        {
          "internalType": "uint256",
          "name": "_choice",
          "type": "uint256"
        }
      ],
      "name": "voteStatus",
      "outputs": [
        {
          "internalType": "uint256",
          "name": "",
          "type": "uint256"
        }
      ],
      "payable": false,
      "stateMutability": "view",
      "type": "function"
    },
    {
      "constant": true,
      "inputs": [
        {
          "internalType": "bytes32",
          "name": "",
          "type": "bytes32"
        },
        {
          "internalType": "address",
          "name": "",
          "type": "address"
        }
      ],
      "name": "votesSignaled",
      "outputs": [
        {
          "internalType": "uint256",
          "name": "voteDecision",
          "type": "uint256"
        },
        {
          "internalType": "uint256",
          "name": "amount",
          "type": "uint256"
        }
      ],
      "payable": false,
      "stateMutability": "view",
      "type": "function"
    },
    {
      "constant": true,
      "inputs": [
        {
          "internalType": "bytes32",
          "name": "_proposalId",
          "type": "bytes32"
        }
      ],
      "name": "winningVote",
      "outputs": [
        {
          "internalType": "uint256",
          "name": "",
          "type": "uint256"
        }
      ],
      "payable": false,
      "stateMutability": "view",
      "type": "function"
    },
    {
      "constant": false,
      "inputs": [
        {
          "internalType": "uint256",
          "name": "_voteGas",
          "type": "uint256"
        },
        {
          "internalType": "uint256",
          "name": "_maxGasPrice",
          "type": "uint256"
        }
      ],
      "name": "setOrganizationRefund",
      "outputs": [],
      "payable": false,
      "stateMutability": "nonpayable",
      "type": "function"
    },
    {
      "constant": false,
      "inputs": [
        {
          "internalType": "bytes32",
          "name": "_proposalId",
          "type": "bytes32"
        },
        {
          "internalType": "uint256",
          "name": "_vote",
          "type": "uint256"
        },
        {
          "internalType": "uint256",
          "name": "_amount",
          "type": "uint256"
        },
        {
          "internalType": "address",
          "name": "_voter",
          "type": "address"
        }
      ],
      "name": "vote",
      "outputs": [
        {
          "internalType": "bool",
          "name": "",
          "type": "bool"
        }
      ],
      "payable": false,
      "stateMutability": "nonpayable",
      "type": "function"
    },
    {
      "constant": false,
      "inputs": [
        {
          "internalType": "address",
          "name": "votingMachine",
          "type": "address"
        },
        {
          "internalType": "bytes32",
          "name": "proposalId",
          "type": "bytes32"
        },
        {
          "internalType": "uint256",
          "name": "voteDecision",
          "type": "uint256"
        },
        {
          "internalType": "uint256",
          "name": "amount",
          "type": "uint256"
        },
        {
          "internalType": "bytes",
          "name": "signature",
          "type": "bytes"
        }
      ],
      "name": "shareSignedVote",
      "outputs": [],
      "payable": false,
      "stateMutability": "nonpayable",
      "type": "function"
    },
    {
      "constant": false,
      "inputs": [
        {
          "internalType": "bytes32",
          "name": "proposalId",
          "type": "bytes32"
        },
        {
          "internalType": "uint256",
          "name": "voteDecision",
          "type": "uint256"
        },
        {
          "internalType": "uint256",
          "name": "amount",
          "type": "uint256"
        }
      ],
      "name": "signalVote",
      "outputs": [],
      "payable": false,
      "stateMutability": "nonpayable",
      "type": "function"
    },
    {
      "constant": false,
      "inputs": [
        {
          "internalType": "address",
          "name": "votingMachine",
          "type": "address"
        },
        {
          "internalType": "bytes32",
          "name": "proposalId",
          "type": "bytes32"
        },
        {
          "internalType": "address",
          "name": "voter",
          "type": "address"
        },
        {
          "internalType": "uint256",
          "name": "voteDecision",
          "type": "uint256"
        },
        {
          "internalType": "uint256",
          "name": "amount",
          "type": "uint256"
        },
        {
          "internalType": "bytes",
          "name": "signature",
          "type": "bytes"
        }
      ],
      "name": "executeSignedVote",
      "outputs": [],
      "payable": false,
      "stateMutability": "nonpayable",
      "type": "function"
    },
    {
      "constant": false,
      "inputs": [
        {
          "internalType": "bytes32",
          "name": "proposalId",
          "type": "bytes32"
        },
        {
          "internalType": "address",
          "name": "voter",
          "type": "address"
        },
        {
          "internalType": "uint256",
          "name": "voteDecision",
          "type": "uint256"
        },
        {
          "internalType": "uint256",
          "name": "amount",
          "type": "uint256"
        }
      ],
      "name": "executeSignaledVote",
      "outputs": [],
      "payable": false,
      "stateMutability": "nonpayable",
      "type": "function"
    },
    {
      "constant": true,
      "inputs": [
        {
          "internalType": "address",
          "name": "votingMachine",
          "type": "address"
        },
        {
          "internalType": "bytes32",
          "name": "proposalId",
          "type": "bytes32"
        },
        {
          "internalType": "address",
          "name": "voter",
          "type": "address"
        },
        {
          "internalType": "uint256",
          "name": "voteDecision",
          "type": "uint256"
        },
        {
          "internalType": "uint256",
          "name": "amount",
          "type": "uint256"
        }
      ],
      "name": "hashVote",
      "outputs": [
        {
          "internalType": "bytes32",
          "name": "",
          "type": "bytes32"
        }
      ],
      "payable": false,
      "stateMutability": "pure",
      "type": "function"
    },
    {
      "constant": true,
      "inputs": [
        {
          "internalType": "bytes32",
          "name": "_proposalId",
          "type": "bytes32"
        }
      ],
      "name": "proposalStatusWithVotes",
      "outputs": [
        {
          "internalType": "uint256",
          "name": "",
          "type": "uint256"
        },
        {
          "internalType": "uint256",
          "name": "",
          "type": "uint256"
        },
        {
          "internalType": "uint256",
          "name": "",
          "type": "uint256"
        },
        {
          "internalType": "uint256",
          "name": "",
          "type": "uint256"
        },
        {
          "internalType": "uint256",
          "name": "",
          "type": "uint256"
        },
        {
          "internalType": "uint256",
          "name": "",
          "type": "uint256"
        }
      ],
      "payable": false,
      "stateMutability": "view",
      "type": "function"
    }
  ],
  "bytecode": "0x60806040523480156200001157600080fd5b50604051620052e3380380620052e3833981810160405260208110156200003757600080fd5b505180806200006673543ff227f64aa17ea132bf9886cab5db55dcaddf62000138602090811b6200501d17901c565b156200009857600680546001600160a01b03191673543ff227f64aa17ea132bf9886cab5db55dcaddf179055620000b4565b600680546001600160a01b0319166001600160a01b0383161790555b50506001600160a01b03811662000112576040805162461bcd60e51b815260206004820152601360248201527f77726f6e67205f7374616b696e67546f6b656e00000000000000000000000000604482015290519081900360640190fd5b600680546001600160a01b0319166001600160a01b039290921691909117905562000175565b6000813f7fc5d2460186f7233c927e7db2dcc703c0e500b653ca82273b7bfad8045d85a47081158015906200016d5750808214155b949350505050565b61515e80620001856000396000f3fe6080604052600436106102ae5760003560e01c806379a1c1f611610175578063ba51b14e116100dc578063c8f526e811610095578063e5af18c51161006f578063e5af18c514610e03578063e751f27114610e2d578063fb6c0cbb14610e57578063fe0d261814610e81576102ae565b8063c8f526e814610d0b578063cc3bf9e914610d6d578063e09a2c3014610da6576102ae565b8063ba51b14e14610bee578063bb5a05ed14610c18578063bcb47fcf14610c42578063beda801514610c87578063c083510614610cb1578063c0ceec1e14610cdb576102ae565b80639bc5689d1161012e5780639bc5689d1461040d578063a003651d14610b16578063a05ea6e414610b40578063a30ccbe614610b73578063b2449d6514610ba9578063b451291314610bbe576102ae565b806379a1c1f61461095457806380f5e0a1146109a457806388737b5e146109ce5780638894c41b14610a1557806393b6257114610a4e5780639525c0cc14610aec576102ae565b8063359afa491161021957806351d997b2116101d257806351d997b21461080a57806361d585da1461081f5780636359036b1461086d57806370743768146108a657806372f702f3146108d65780637721384414610907576102ae565b8063359afa491461066f5780633c133818146106b45780633fead650146106de578063404748731461072f578063488c65fc146107595780635142bc1e146107f5576102ae565b806321b4b3dc1161026b57806321b4b3dc146104d75780632514e2bf146104ec5780632d598e58146105255780632daedd521461055557806330ca0a531461059f57806332ed5b12146105b4576102ae565b806302506804146102f957806307b4e1e3146103915780630d4834421461040d578063119ce91b1461042257806316db5172146104745780631702ef0c146104ad575b33600090815260086020526040902060010154156102f757336000908152600860205260409020546102e6903463ffffffff610f2916565b336000908152600860205260409020555b005b34801561030557600080fd5b506103236004803603602081101561031c57600080fd5b5035610f8c565b604080519d8e5260208e019c909c528c8c019a909a5260608c019890985260808b019690965260a08a019490945260c089019290925260e08801526101008701526101208601526101408501526101608401526001600160a01b031661018083015251908190036101a00190f35b34801561039d57600080fd5b506103fb60048036036101808110156103b557600080fd5b81019080806101600190600b806020026040519081016040528092919082600b602002808284376000920191909152509194505050356001600160a01b03169050610ffc565b60408051918252519081900360200190f35b34801561041957600080fd5b506103fb61110c565b34801561042e57600080fd5b5061045b6004803603604081101561044557600080fd5b50803590602001356001600160a01b0316611111565b6040805192835260208301919091528051918290030190f35b34801561048057600080fd5b5061045b6004803603604081101561049757600080fd5b50803590602001356001600160a01b0316611174565b3480156104b957600080fd5b506103fb600480360360208110156104d057600080fd5b50356111a5565b3480156104e357600080fd5b506103fb6111b7565b3480156104f857600080fd5b5061045b6004803603604081101561050f57600080fd5b50803590602001356001600160a01b03166111bd565b34801561053157600080fd5b506103fb6004803603604081101561054857600080fd5b50803590602001356111e1565b34801561056157600080fd5b5061058b6004803603606081101561057857600080fd5b508035906020810135906040013561122e565b604080519115158252519081900360200190f35b3480156105ab57600080fd5b506103fb611244565b3480156105c057600080fd5b506105de600480360360208110156105d757600080fd5b50356112f0565b604080518e81526001600160a01b038e1660208201529081018c600681111561060357fe5b60ff168152602081019b909b52506001600160a01b039098166040808b019190915260608a0197909752608089019590955260a088019390935260c087019190915260e08601526101008501526101208401529015156101408301525190819003610160019350915050f35b34801561067b57600080fd5b5061058b6004803603608081101561069257600080fd5b50803590602081013590604081013590606001356001600160a01b031661135e565b3480156106c057600080fd5b506103fb600480360360208110156106d757600080fd5b5035611495565b3480156106ea57600080fd5b506107116004803603602081101561070157600080fd5b50356001600160a01b03166114aa565b60408051938452602084019290925282820152519081900360600190f35b34801561073b57600080fd5b506103fb6004803603602081101561075257600080fd5b50356114cb565b34801561076557600080fd5b5061058b600480360360c081101561077c57600080fd5b8135916020810135916040820135916060810135916080820135919081019060c0810160a08201356401000000008111156107b657600080fd5b8201836020820111156107c857600080fd5b803590602001918460018302840111640100000000831117156107ea57600080fd5b50909250905061153b565b34801561080157600080fd5b5061045b6117d7565b34801561081657600080fd5b5061058b6117df565b34801561082b57600080fd5b506108496004803603602081101561084257600080fd5b50356117e5565b6040518082600681111561085957fe5b60ff16815260200191505060405180910390f35b34801561087957600080fd5b5061045b6004803603604081101561089057600080fd5b50803590602001356001600160a01b0316611805565b3480156108b257600080fd5b506103fb600480360360408110156108c957600080fd5b5080359060200135611a80565b3480156108e257600080fd5b506108eb611aa1565b604080516001600160a01b039092168252519081900360200190f35b34801561091357600080fd5b506103fb600480360360a081101561092a57600080fd5b506001600160a01b0381358116916020810135916040820135169060608101359060800135611ab0565b34801561096057600080fd5b5061097e6004803603602081101561097757600080fd5b5035611b10565b604080519485526020850193909352838301919091526060830152519081900360800190f35b3480156109b057600080fd5b5061058b600480360360208110156109c757600080fd5b5035611b53565b3480156109da57600080fd5b506103fb600480360360808110156109f157600080fd5b508035906020810135906001600160a01b0360408201358116916060013516611c90565b348015610a2157600080fd5b506103fb6004803603610180811015610a3957600080fd5b506001600160a01b0361016082013516612048565b348015610a5a57600080fd5b506102f7600480360360a0811015610a7157600080fd5b6001600160a01b038235169160208101359160408201359160608101359181019060a081016080820135640100000000811115610aad57600080fd5b820183602082011115610abf57600080fd5b80359060200191846001830284011164010000000083111715610ae157600080fd5b509092509050612435565b348015610af857600080fd5b506102f760048036036020811015610b0f57600080fd5b50356125ec565b348015610b2257600080fd5b506103fb60048036036020811015610b3957600080fd5b5035612603565b348015610b4c57600080fd5b506103fb60048036036020811015610b6357600080fd5b50356001600160a01b0316612609565b348015610b7f57600080fd5b506102f760048036036060811015610b9657600080fd5b508035906020810135906040013561261b565b348015610bb557600080fd5b506103fb612783565b348015610bca57600080fd5b506103fb60048036036040811015610be157600080fd5b5080359060200135612788565b348015610bfa57600080fd5b506108eb60048036036020811015610c1157600080fd5b50356127a9565b348015610c2457600080fd5b506103fb60048036036020811015610c3b57600080fd5b50356127c4565b348015610c4e57600080fd5b506102f760048036036080811015610c6557600080fd5b508035906001600160a01b0360208201351690604081013590606001356127d6565b348015610c9357600080fd5b506103fb60048036036020811015610caa57600080fd5b503561292c565b348015610cbd57600080fd5b5061058b60048036036020811015610cd457600080fd5b5035612b75565b348015610ce757600080fd5b506102f760048036036040811015610cfe57600080fd5b5080359060200135612b80565b348015610d1757600080fd5b50610d3560048036036020811015610d2e57600080fd5b5035612b9f565b6040518082606080838360005b83811015610d5a578181015183820152602001610d42565b5050505090500191505060405180910390f35b348015610d7957600080fd5b50610d3560048036036040811015610d9057600080fd5b50803590602001356001600160a01b0316612bee565b348015610db257600080fd5b50610dd060048036036020811015610dc957600080fd5b503561335f565b604080519687526020870195909552858501939093526060850191909152608084015260a0830152519081900360c00190f35b348015610e0f57600080fd5b506103fb60048036036020811015610e2657600080fd5b50356133ba565b348015610e3957600080fd5b5061058b60048036036020811015610e5057600080fd5b50356133c5565b348015610e6357600080fd5b506103fb60048036036020811015610e7a57600080fd5b50356133ea565b348015610e8d57600080fd5b506102f7600480360360c0811015610ea457600080fd5b6001600160a01b03823581169260208101359260408201359092169160608201359160808101359181019060c0810160a0820135640100000000811115610eea57600080fd5b820183602082011115610efc57600080fd5b80359060200191846001830284011164010000000083111715610f1e57600080fd5b5090925090506133fc565b600082820183811015610f83576040805162461bcd60e51b815260206004820152601b60248201527f536166654d6174683a206164646974696f6e206f766572666c6f770000000000604482015290519081900360640190fd5b90505b92915050565b600060208190529081526040902080546001820154600283015460038401546004850154600586015460068701546007880154600889015460098a0154600a8b0154600b8c0154600c909c01549a9b999a989997989697959694959394929391929091906001600160a01b03168d565b60008281602002015183600160200201518460026020020151856003602002015186600460200201518760056020020151886006602002015189600760200201518a600860200201518b600960200201518c600a6020020151604051602001808c81526020018b81526020018a81526020018981526020018881526020018781526020018681526020018581526020018481526020018381526020018281526020019b505050505050505050505050604051602081830303815290604052805190602001208260405160200180838152602001826001600160a01b03166001600160a01b031660601b81526014019250505060405160208183030381529060405280519060200120905092915050565b600281565b60008061111c614e92565b50505060009182526001602081815260408085206001600160a01b039490941685526011909301815292829020825160608101845281548082529282015494810185905260029091015460ff16151592019190915291565b60009182526001602081815260408085206001600160a01b0394909416855260139093019052912080549101549091565b60009081526001602052604090205490565b60055481565b60096020908152600092835260408084209091529082529020805460019091015482565b600081815260026020908152604080832054858452918390528220600581015482111561121057806005015491505b6004810154611225908363ffffffff6135be16565b95945050505050565b600061123c84848433613608565b949350505050565b604080517f616464726573732047656e6573697350726f746f636f6c41646472657373000060208083019190915271189e5d195ccccc88141c9bdc1bdcd85b125960721b603e8301526b75696e7432353620566f746560a01b60508301527475696e7432353620416d6f756e74546f5374616b6560581b605c8301526c75696e74323536204e6f6e636560981b60718301528251605e818403018152607e909201909252805191012081565b600160208190526000918252604090912080549181015460028201546003830154600484015460058501546006860154600787015460088801546009890154600a8a0154600e909a01546001600160a01b03808b169b60ff600160a01b909c048c169b99909116989091168d565b60008461136a81613a0e565b61137357600080fd5b6000868152600160205260409020611389614eb5565b5060058082015460009081526020818152604080832081516101a0810183528154815260018201549381019390935260028101549183019190915260038101546060830152600481015460808301529283015460a0820152600683015460c0820152600783015460e082015260088301546101008201526009830154610120820152600a830154610140820152600b830154610160820152600c909201546001600160a01b0316610180830181905215611467578161018001516001600160a01b0316336001600160a01b03161461146057600080fd5b508461146a565b50335b60006114788a838b8b613a81565b90506114888460000154336140b8565b9998505050505050505050565b60009081526001602052604090206002015490565b60086020526000908152604090208054600182015460029092015490919083565b6000818152600160205260408120600a01546105dc9082906114f490839063ffffffff6141e216565b60008581526001602081815260408084209284526012909201905290205490915061123c90600a84029061152f90849063ffffffff6141f816565b9063ffffffff61425116565b600080846002141561165e5750604080517f616464726573732047656e6573697350726f746f636f6c41646472657373000060208083019190915271189e5d195ccccc88141c9bdc1bdcd85b125960721b603e8301526b75696e7432353620566f746560a01b60508301527475696e7432353620416d6f756e74546f5374616b6560581b605c8301526c75696e74323536204e6f6e636560981b60718301528251605e818403018152607e830184528051908201203060601b609e84015260b283018c905260d283018b905260f283018a90526101128084018a90528451808503909101815261013284018552805190830120610152840191909152610172808401919091528351808403909101815261019290920190925280519101206116af565b604080513060601b602080830191909152603482018c9052605482018b9052607482018a905260948083018a90528351808403909101815260b490920190925280519101206116ac90614293565b90505b60006116f985858080601f016020809104026020016040519081016040528093929190818152602001838380828437600092019190915250869392505063ffffffff6142e4169050565b90506001600160a01b038116611756576040805162461bcd60e51b815260206004820152601a60248201527f7374616b657220616464726573732063616e6e6f742062652030000000000000604482015290519081900360640190fd5b6001600160a01b038116600090815260076020526040902054871461177a57600080fd5b6001600160a01b0381166000908152600760205260409020546117a490600163ffffffff610f2916565b6001600160a01b0382166000908152600760205260409020556117c98a8a8a84613608565b9a9950505050505050505050565b600160029091565b60005b90565b60009081526001602081905260409091200154600160a01b900460ff1690565b6000828152600160205260408120819060026001820154600160a01b900460ff16600681111561183157fe5b1461183b57600080fd5b60028082015460009081526012830160209081526040808320546001600160a01b0389168452601386019092529091209182015490919015801590611884575060028301548154145b8015611894575060018360020154145b801561189f57508115155b156118bb57818360070154826002015402816118b757fe5b0493505b83158015906119505750600183015460065460408051636b8eb40360e01b81526001600160a01b039283166004820152602481018b9052905187939290921691636b8eb40391604480820192602092909190829003018186803b15801561192157600080fd5b505afa158015611935573d6000803e3d6000fd5b505050506040513d602081101561194b57600080fd5b505110155b15611a7657600060028201556006830154611971908563ffffffff6143d216565b60068085019190915560018401549054604080516317d4ebe560e31b81526001600160a01b039283166004820152898316602482015260448101889052606481018b90529051919092169163bea75f289160848083019260209291908290030181600087803b1580156119e357600080fd5b505af11580156119f7573d6000803e3d6000fd5b505050506040513d6020811015611a0d57600080fd5b5051611a1857600080fd5b8254600090815260036020908152604091829020548251878152925196975087966001600160a01b03808b16949216928b927fb4a37163ec93e05e09b62e52f7f2ea8cfde431802edede7dfebe53d2ad969dbb929081900390910190a45b5050509250929050565b60009182526001602090815260408084209284526012909201905290205490565b6006546001600160a01b031681565b604080516bffffffffffffffffffffffff19606097881b811660208084019190915260348301979097529490961b909316605486015260688501919091526088808501919091528151808503909101815260a89093019052815191012090565b6000908152600160208181526040808420838552601081018352818520546002808752838720549587526012909201909352818520549085529320549093919291565b6000611b5d614f26565b60008381526001602081815260409283902083516101c08101855281548152928101546001600160a01b038116928401929092529192830190600160a01b900460ff166006811115611bab57fe5b6006811115611bb657fe5b8152600282015460208201526003808301546001600160a01b0316604080840191909152600484015460608085019190915260058501546080850152600685015460a0850152600785015460c0850152600885015460e08501526009850154610100850152600a8501546101208501528151908101918290526101409093019291600b85019182845b815481526020019060010190808311611c3f575050509183525050600e919091015460ff16151560209091015260c08101518151919250611c7f916111e1565b611c8884614414565b119392505050565b6000838152602081905260408120600b01544211611ce6576040805162461bcd60e51b815260206004820152600e60248201526d1b9bdd081858dd1a5d99481e595d60921b604482015290519081900360640190fd5b60008481526020819052604090205460321115611d0257600080fd5b600554604080513060601b6020808301919091526034808301859052835180840390910181526054909201909252805191012090611d4790600163ffffffff610f2916565b600555611d52614f26565b33602082810182905260408051606093841b818401526bffffffffffffffffffffffff1988851b16603482015281516028818303018152604890910182528051908301208452600381850181905261018085015142905260008a815280845282812060029081015460a08801526001600160a01b038b811660808901529587015260c086018b905285518152925290205416611e45576001600160a01b038416611e1b578051600090815260036020526040902080546001600160a01b03191633179055611e45565b8051600090815260036020526040902080546001600160a01b0319166001600160a01b0386161790555b8051600090815260046020908152604080832054898452918390528220600a0154611e7c9160649161152f9163ffffffff6141f816565b600088815260208190526040902060090154909150611ea290829063ffffffff61445516565b60e0830152600083815260016020818152604092839020855181559085015191810180546001600160a01b0319166001600160a01b03909316929092178083559285015185939192909160ff60a01b1916600160a01b836006811115611f0457fe5b0217905550606082015160028201556080820151600380830180546001600160a01b0319166001600160a01b039093169290921790915560a0830151600483015560c0830151600583015560e08301516006830155610100830151600783015561012083015160088301556101408301516009830155610160830151600a830155610180830151611f9a91600b84019190614fa7565b506101a09190910151600e909101805460ff191691151591909117905560e08201516000848152600160209081526040808320600280855260129091018352818420949094558551835260038252918290205482519384526001600160a01b038a8116928501929092528383018b9052915191169185917f75b4ff136cc5de5957574c797de3334eb1c141271922b825eb071e0487ba2c5c916060908290030190a350909695505050505050565b6000606483351180159061205e57506032833510155b6120995760405162461bcd60e51b81526004018080602001828103825260298152602001806150ad6029913960400191505060405180910390fd5b613e806080840135118015906120b457506103e86080840135115b612105576040805162461bcd60e51b815260206004820152601e60248201527f31303030203c207468726573686f6c64436f6e7374203c3d2031363030300000604482015290519081900360640190fd5b606460e0840135111561215f576040805162461bcd60e51b815260206004820181905260248201527f766f7465727352657075746174696f6e4c6f7373526174696f203c3d20313030604482015290519081900360640190fd5b60a0830135604084013510156121a65760405162461bcd60e51b815260040180806020018281038252602b815260200180615082602b913960400191505060405180910390fd5b6101008301356121fd576040805162461bcd60e51b815260206004820152601e60248201527f6d696e696d756d44616f426f756e74792073686f756c64206265203e20300000604482015290519081900360640190fd5b610120830135612254576040805162461bcd60e51b815260206004820152601c60248201527f64616f426f756e7479436f6e73742073686f756c64206265203e203000000000604482015290519081900360640190fd5b600061228a84600b806020026040519081016040528092919082600b60200280828437600092019190915250869150610ffc9050565b905060ac60026107d05b613e808110156122dc576080870135811080156122b8575060028102608088013511155b156122ce578183816122c657fe5b0492506122dc565b600190910190600202612294565b50604080516101a0810182528735815260208089013590820152878201359181019190915260608088013590820152608080820190612329908901356001600160d81b03166103e8614465565b81526020810184905260a088810135604083015260c0808a0135606084015260e0808b013560808501526101008b0135928401929092526101208a0135908301520187600a6020908102919091013582526001600160a01b03978816918101919091526000858152808252604090819020835181559183015160018301558201516002820155606082015160038201556080820151600482015560a0820151600582015560c0820151600682015560e0820151600782015561010082015160088201556101208201516009820155610140820151600a820155610160820151600b82015561018090910151600c90910180546001600160a01b0319169190961617909455509392505050565b60006124448787338888611ab0565b905061249783838080601f01602080910402602001604051908101604052809392919081815260200183838082843760009201919091525061248b92508591506142939050565b9063ffffffff6142e416565b6001600160a01b0316336001600160a01b0316146124eb576040805162461bcd60e51b815260206004820152600c60248201526b3bb937b7339039b4b3b732b960a11b604482015290519081900360640190fd5b60008511612537576040805162461bcd60e51b815260206004820152601460248201527334b73b30b634b2103b37ba32a232b1b4b9b4b7b760611b604482015290519081900360640190fd5b7f46e3ceeda21faa4b362b93454c3125977acdd239013fd4f0ec651e88657e6cfb8787338888888860405180886001600160a01b03166001600160a01b03168152602001878152602001866001600160a01b03166001600160a01b03168152602001858152602001848152602001806020018281038252848482818152602001925080828437600083820152604051601f909101601f19169092018290039a509098505050505050505050a150505050505050565b806125f681613a0e565b6125ff57600080fd5b5050565b50600290565b60076020526000908152604090205481565b61262483613a0e565b61266c576040805162461bcd60e51b81526020600482015260146024820152731b9bdd081d9bdd18589b19481c1c9bdc1bdcd85b60621b604482015290519081900360640190fd5b600082116126b8576040805162461bcd60e51b815260206004820152601460248201527334b73b30b634b2103b37ba32a232b1b4b9b4b7b760611b604482015290519081900360640190fd5b600083815260096020908152604080832033845290915290205415612714576040805162461bcd60e51b815260206004820152600d60248201526c185b1c9958591e481d9bdd1959609a1b604482015290519081900360640190fd5b600083815260096020908152604080832033808552908352928190208581556001018490558051868152918201929092528082018490526060810183905290517f0aad680ea090e3d71ef3942023475bbf0e4092d03db1a09f00e9a8f2e046e2829181900360800190a1505050565b600181565b6000918252600160209081526040808420928452600f909201905290205490565b6003602052600090815260409020546001600160a01b031681565b60046020526000908152604090205481565b6127df84613a0e565b612827576040805162461bcd60e51b81526020600482015260146024820152731b9bdd081d9bdd18589b19481c1c9bdc1bdcd85b60621b604482015290519081900360640190fd5b60008211612871576040805162461bcd60e51b81526020600482015260126024820152713bb937b733903b37ba32a232b1b4b9b4b7b760711b604482015290519081900360640190fd5b60008481526009602090815260408083206001600160a01b03871684529091529020546128d9576040805162461bcd60e51b81526020600482015260116024820152701ddc9bdb99c81d9bdd19481cda185c9959607a1b604482015290519081900360640190fd5b6128e584848484613a81565b5060008481526009602090815260408083206001600160a01b03871684528252808320838155600190810184905587845290915290205461292690336140b8565b50505050565b600081815260016020526040812060056001820154600160a01b900460ff16600681111561295657fe5b148061297b575060066001820154600160a01b900460ff16600681111561297957fe5b145b6129b65760405162461bcd60e51b81526004018080602001828103825260338152602001806150f76033913960400191505060405180910390fd5b6129bf83614488565b612a10576040805162461bcd60e51b815260206004820152601760248201527f70726f706f73616c206e65656420746f20657870697265000000000000000000604482015290519081900360640190fd5b612a3c612a2f600b83016001015460048401549063ffffffff610f2916565b429063ffffffff6143d216565b600a820155612a4a836114cb565b6008820154909250612a62908363ffffffff6143d216565b60088201556006546040805163a9059cbb60e01b81523360048201526024810185905290516001600160a01b039092169163a9059cbb916044808201926020929091908290030181600087803b158015612abb57600080fd5b505af1158015612acf573d6000803e3d6000fd5b505050506040513d6020811015612ae557600080fd5b5051612b38576040805162461bcd60e51b815260206004820152601d60248201527f7472616e7366657220746f206d73672e73656e646572206661696c6564000000604482015290519081900360640190fd5b604080518381529051339185917f7468017f6ff596af88244327e88fe691ac48cc1db88b033d11c335f2c7ccdd039181900360200190a350919050565b6000610f8682613a0e565b3360009081526008602052604090206001810192909255600290910155565b612ba7614fe5565b60008281526001602052604090819020815160608101909252600b0160038282826020028201915b815481526020019060010190808311612bcf5750505050509050919050565b612bf6614fe5565b600083815260016020526040902060026001820154600160a01b900460ff166006811115612c2057fe5b1480612c445750600180820154600160a01b900460ff166006811115612c4257fe5b145b612c7f5760405162461bcd60e51b815260040180806020018281038252602d815260200180615055602d913960400191505060405180910390fd5b612c87614eb5565b5060058082015460009081526020818152604080832081516101a081018352815481526001820154818501526002808301548285015260038301546060830152600483015460808301529582015460a0820152600682015460c0820152600782015460e082015260088201546101008201526009820154610120820152600a820154610140820152600b820154610160820152600c909101546001600160a01b039081166101808301528816845260138601835281842094860154845260128601909252822054909291612d93612d5d896114cb565b600160009081526012880160205260408082205460028352912054612d879163ffffffff610f2916565b9063ffffffff6143d216565b600184015490915015612e5e57600180860154600160a01b900460ff166006811115612dbb57fe5b1415612dcd5760018301548652612e56565b600285015483541415612e5657825460011415612e34578085600701541015612e2f576000612e098660070154836143d290919063ffffffff16565b905082612e238286600101546141f890919063ffffffff16565b81612e2a57fe5b048752505b612e56565b60018301548290612e4b908363ffffffff6141f816565b81612e5257fe5b0486525b600060018401555b600e85015460ff16158015612e8e575084546000908152600360205260409020546001600160a01b038881169116145b8015612eb35750600180860154600160a01b900460ff166006811115612eb057fe5b14155b8015612ec3575060028560020154145b15612f14576007850154612f0290612d8784612ee5838663ffffffff6141f816565b81612eec57fe5b048960005b60200201519063ffffffff610f2916565b8652600e8501805460ff191660011790555b6001600160a01b03871660009081526011860160205260409020600181015415801590612f455750600281015460ff165b1561308457600180870154600160a01b900460ff166006811115612f6557fe5b1415612f9b576064612f8986610100015183600101546141f890919063ffffffff16565b81612f9057fe5b04602088015261307c565b80546002870154141561307c576000600187600201541415612fd0575060026000908152601087016020526040902054612fe5565b50600160009081526010870160205260409020545b6064612fff876101000151836141f890919063ffffffff16565b8161300657fe5b6002890154600090815260108a01602052604090205460018501549290910492506130759161303b908463ffffffff6141f816565b8161304257fe5b04606461306189610100015186600101546141f890919063ffffffff16565b8161306857fe5b049063ffffffff610f2916565b6020890152505b600060018201555b60038601546001600160a01b0389811691161480156130a7575060018660020154145b80156130bf575060038601546001600160a01b031615155b156130e15760e085015160408801526003860180546001600160a01b03191690555b86511561322e57865160088701546130f8916143d2565b600887015560065487516040805163a9059cbb60e01b81526001600160a01b038c8116600483015260248201939093529051919092169163a9059cbb9160448083019260209291908290030181600087803b15801561315657600080fd5b505af115801561316a573d6000803e3d6000fd5b505050506040513d602081101561318057600080fd5b50516131d3576040805162461bcd60e51b815260206004820152601e60248201527f7472616e7366657220746f2062656e6566696369617279206661696c65640000604482015290519081900360640190fd5b8554600090815260036020908152604091829020548951835190815292516001600160a01b038c8116949216928d927f6d26871c9f457d104b2122485f659f126f7a0cf6938cf20482c03f49794a2fbf929081900390910190a45b604087015161323f90886001612ef1565b156133535760018601546001600160a01b031663d29b5d2f61326a89600260200201518a6001612ef1565b8a8c6040518463ffffffff1660e01b815260040180848152602001836001600160a01b03166001600160a01b031681526020018281526020019350505050602060405180830381600087803b1580156132c257600080fd5b505af11580156132d6573d6000803e3d6000fd5b505050506040513d60208110156132ec57600080fd5b505085546000908152600360205260409020546001600160a01b03808a1691168a7f7419b736daacf66d5c1645948c956fca2b83be1e2e02d486d65713f289d683b86133418b600260200201518c6001612ef1565b60408051918252519081900360200190a45b50505050505092915050565b6000908152600160208181526040808420838552600f81018352818520546002808752838720548688526010840186528488205482895285892054978952601290940190955283872054908752929095205494959294909392565b6000610f8682614414565b6000816133d181613a0e565b6133da57600080fd5b6133e383614488565b9392505050565b60026020526000908152604090205481565b6001600160a01b038716301461344f576040805162461bcd60e51b815260206004820152601360248201527277726f6e6720766f74696e674d616368696e6560681b604482015290519081900360640190fd5b61345886613a0e565b6134a0576040805162461bcd60e51b81526020600482015260146024820152731b9bdd081d9bdd18589b19481c1c9bdc1bdcd85b60621b604482015290519081900360640190fd5b600084116134ea576040805162461bcd60e51b81526020600482015260126024820152713bb937b733903b37ba32a232b1b4b9b4b7b760711b604482015290519081900360640190fd5b61353b82828080601f01602080910402602001604051908101604052809392919081815260200183838082843760009201919091525061248b925061353691508b90508a8a8a8a611ab0565b614293565b6001600160a01b0316856001600160a01b03161461358f576040805162461bcd60e51b815260206004820152600c60248201526b3bb937b7339039b4b3b732b960a11b604482015290519081900360640190fd5b61359b86868686613a81565b506000868152600160205260409020546135b590336140b8565b50505050505050565b60008282650100000000005b81156112255781600116600114156135e9576135e68184614d17565b90505b60019190911c908115613603576136008384614d17565b92505b6135ca565b60006002841115801561361b5750600084115b61365f576040805162461bcd60e51b815260206004820152601060248201526f77726f6e6720766f74652076616c756560801b604482015290519081900360640190fd5b600083116136b4576040805162461bcd60e51b815260206004820152601b60248201527f7374616b696e6720616d6f756e742073686f756c64206265203e300000000000604482015290519081900360640190fd5b6136bd85614488565b156136ca5750600161123c565b600085815260016020526040902060046001820154600160a01b900460ff1660068111156136f457fe5b1415801561371c575060036001820154600160a01b900460ff16600681111561371957fe5b14155b1561372b57600091505061123c565b6001600160a01b03831660009081526013820160205260409020600181015415801590613759575080548614155b156137695760009250505061123c565b600654604080516323b872dd60e01b81526001600160a01b038781166004830152306024830152604482018990529151889392909216916323b872dd916064808201926020929091908290030181600087803b1580156137c857600080fd5b505af11580156137dc573d6000803e3d6000fd5b505050506040513d60208110156137f257600080fd5b5051613845576040805162461bcd60e51b815260206004820152601960248201527f6661696c207472616e736665722066726f6d207374616b657200000000000000604482015290519081900360640190fd5b600883015461385a908263ffffffff610f2916565b60088401556001820154613874908263ffffffff610f2916565b60018301819055600160801b10156138d3576040805162461bcd60e51b815260206004820152601a60248201527f7374616b696e6720616d6f756e7420697320746f6f2068696768000000000000604482015290519081900360640190fd5b60068301546138ed90600160801b9063ffffffff6143d216565b83600801541115613945576040805162461bcd60e51b815260206004820152601860248201527f746f74616c207374616b657320697320746f6f20686967680000000000000000604482015290519081900360640190fd5b6001871415613969576002820154613963908263ffffffff610f2916565b60028301555b868255600087815260128401602052604090205461398e90829063ffffffff610f2916565b60008881526012850160209081526040808320939093558554825260038152908290205482518a815291820189905282516001600160a01b03808a16949216928c927fd0239d7d4acf51def4507fa173be466927de5d75d8b10d840cd6994d6e10231092918290030190a4613a0288614488565b98975050505050505050565b600081815260016020819052604082200154600160a01b900460ff166004816006811115613a3857fe5b1480613a4f57506005816006811115613a4d57fe5b145b80613a6557506006816006811115613a6357fe5b145b806133e357506003816006811115613a7957fe5b149392505050565b600060028311158015613a945750600083115b613ad6576040805162461bcd60e51b815260206004820152600e60248201526d18101e102fbb37ba32901e1e901960911b604482015290519081900360640190fd5b613adf85614488565b15613aec5750600161123c565b613af4614eb5565b506000858152600160208181526040808420600580820154865285845282862083516101a0810185528154815281870154818701526002820154818601526003820154606082015260048083015460808301529282015460a0820152600682015460c0820152600782015460e082015260088201546101008201526009820154610120820152600a820154610140820152600b820154610160820152600c909101546001600160a01b039081166101808301528c8852868652958301548451634ac41bc760e11b81528c881693810193909352602483018d905293519096929592949390921692639588378e92604480840193829003018186803b158015613bfb57600080fd5b505afa158015613c0f573d6000803e3d6000fd5b505050506040513d6020811015613c2557600080fd5b5051905080613c7b576040805162461bcd60e51b815260206004820152601b60248201527f5f766f746572206d75737420686176652072657075746174696f6e0000000000604482015290519081900360640190fd5b84811015613cc5576040805162461bcd60e51b8152602060048201526012602482015271072657075746174696f6e203e3d205f7265760741b604482015290519081900360640190fd5b8480613cce5750805b6001600160a01b038816600090815260118401602052604090206001015415613cfe57600094505050505061123c565b6000878152600f84016020526040902054613d2090829063ffffffff610f2916565b6000888152600f8501602052604080822083905560028601548252812054908990521080613d7857506002808401546000908152600f8501602052604080822054928252902054148015613d78575060018360020154145b15613e875760056001840154600160a01b900460ff166006811115613d9957fe5b148015613db9575060c0840151604085015103600b840160010154420310155b80613ddd575060066001840154600160a01b900460ff166006811115613ddb57fe5b145b15613e7f5760066001840154600160a01b900460ff166006811115613dfe57fe5b14613e785760c0840151600484015560018301805460ff60a01b1916600360a11b17908190556040518a917f21aca7f0285ccddeca2935074d3e36b5ab8fea0327f84cbbf12cf1b6d1a749f991600160a01b90910460ff169080826006811115613e6457fe5b60ff16815260200191505060405180910390a25b42600c8401555b600283018790555b604080516060810182528881526020810183905290810160046001860154600160a01b900460ff166006811115613eba57fe5b1480613edf575060036001860154600160a01b900460ff166006811115613edd57fe5b145b151590526001600160a01b0389166000908152601185016020908152604091829020835181559083015160018201559101516002909101805460ff191691151591909117905560046001840154600160a01b900460ff166006811115613f4157fe5b1480613f66575060036001840154600160a01b900460ff166006811115613f6457fe5b145b15614053576000878152601084016020526040902054613f8d90829063ffffffff610f2916565b6000888152601085016020526040812091909155610100850151606490613fba908463ffffffff6141f816565b81613fc157fe5b600186015460408051637c0fc5fb60e11b815293909204600484018190526001600160a01b038d81166024860152604485018f9052925190945091169163f81f8bf69160648083019260209291908290030181600087803b15801561402557600080fd5b505af1158015614039573d6000803e3d6000fd5b505050506040513d602081101561404f57600080fd5b5050505b82546000908152600360209081526040918290205482518a815291820184905282516001600160a01b03808d16949216928d927f066c061a3792cb3eb64a441a928655fcbafb4a54b49725fe9cd2951df5e7189e92918290030190a461148889614488565b6000828152600360209081526040808320546001600160a01b0316808452600890925290912060010154156141dd576001600160a01b03811660009081526008602052604081206002015461414090614118903a9063ffffffff6141e216565b6001600160a01b0384166000908152600860205260409020600101549063ffffffff6141f816565b6001600160a01b0383166000908152600860205260409020549091508111612926576040516001600160a01b0384169082156108fc029083906000818181858888f19350505050158015614198573d6000803e3d6000fd5b506001600160a01b0382166000908152600860205260409020546141c2908263ffffffff6143d216565b6001600160a01b038316600090815260086020526040902055505b505050565b60008183106141f15781610f83565b5090919050565b60008261420757506000610f86565b8282028284828161421457fe5b0414610f835760405162461bcd60e51b81526004018080602001828103825260218152602001806150d66021913960400191505060405180910390fd5b6000610f8383836040518060400160405280601a81526020017f536166654d6174683a206469766973696f6e206279207a65726f000000000000815250614d7b565b604080517f19457468657265756d205369676e6564204d6573736167653a0a333200000000602080830191909152603c8083019490945282518083039094018452605c909101909152815191012090565b600081516041146142f757506000610f86565b60208201516040830151606084015160001a7f7fffffffffffffffffffffffffffffff5d576e7357a4501ddfe92f46681b20a082111561433d5760009350505050610f86565b8060ff16601b1415801561435557508060ff16601c14155b156143665760009350505050610f86565b6040805160008152602080820180845289905260ff8416828401526060820186905260808201859052915160019260a0808401939192601f1981019281900390910190855afa1580156143bd573d6000803e3d6000fd5b5050604051601f190151979650505050505050565b6000610f8383836040518060400160405280601e81526020017f536166654d6174683a207375627472616374696f6e206f766572666c6f770000815250614e1d565b600081815260016020818152604080842060028552601281019092528084205492845283205490916133e3916001600160d81b03169063ffffffff61446516565b6000818310156141f15781610f83565b6000610f836001600160d81b038085166501000000000090810291851602614e77565b60008161449481613a0e565b61449d57600080fd5b60008381526001602052604090206144b3614eb5565b506005808201546000908152602081815260409182902082516101a0810184528154815260018201549281019290925260028101549282019290925260038201546060820152600482015460808201529181015460a0830152600681015460c0830152600781015460e083015260088101546101008301526009810154610120830152600a810154610140830152600b810154610160830152600c01546001600160a01b0316610180820152614567614f26565b604080516101c0810182528454815260018501546001600160a01b03811660208301529091859190830190600160a01b900460ff1660068111156145a757fe5b60068111156145b257fe5b8152600282015460208201526003808301546001600160a01b0316604080840191909152600484015460608085019190915260058501546080850152600685015460a0850152600785015460c0850152600885015460e08501526009850154610100850152600a8501546101208501528151908101918290526101409093019291600b85019182845b81548152602001906001019080831161463b575050509183525050600e919091015460ff16151560209182015260018501546040805163b551c37360e01b8152600481018b905290519394506000936001600160a01b039092169263b551c37392602480840193829003018186803b1580156146b657600080fd5b505afa1580156146ca573d6000803e3d6000fd5b505050506040513d60208110156146e057600080fd5b5051835160028601546000908152600f8701602052604081205492935060648404909102918190819084101561478d5760036001890154600160a01b900460ff16600681111561472c57fe5b141561473b576001925061476b565b60046001890154600160a01b900460ff16600681111561475757fe5b1415614766576003925061476b565b600592505b6001880180546002919060ff60a01b1916600160a01b835b02179055506149d4565b60036001890154600160a01b900460ff1660068111156147a957fe5b141561482b576020870151600b8901544203106147e45760018801805460ff60a01b1916600160a01b1790556002808901819055925061482b565b6147f6886005015489600001546111e1565b9050806148028c614414565b111561482b5760018801805460ff60a01b1916600160a21b17905542600d890155600988018190555b60046001890154600160a01b900460ff16600681111561484757fe5b14156149d45761485f886005015489600001546111e1565b6060880151909150600b89016002015442031061494557806148808c614414565b1115614924578754600090815260026020526040902054611000111561491f576001888101805460ff60a01b1916600560a01b17905542600c8a01558854600090815260026020818152604080842080549095019094558b54835260048152838320548282528484205492845260128d019091529290912054919350908390038161490757fe5b89546000908152600460205260409020919005830190555b614940565b6001880180546003919060ff60a01b1916600160a01b83614783565b6149d4565b60006149508c614414565b60098a0154909150614968908363ffffffff6141e216565b81116149885760018901805460ff60a01b1916600360a01b1790556149d2565b80896009015411156149d257600989018290556040805183815290518d917fad767d61af51c7895fa3cc0497dde01afb610c74e55ee4d8a71fa5e3ee136d54919081900360200190a25b505b60056001890154600160a01b900460ff1660068111156149f057fe5b1480614a15575060066001890154600160a01b900460ff166006811115614a1357fe5b145b15614a45576004880154600c890154420310614a455760018801805460ff60a01b1916600160a11b179055600492505b6000836005811115614a5357fe5b14614c71576004836005811115614a6657fe5b1480614a7d57506005836005811115614a7b57fe5b145b15614b38578551600090815260026020526040902054614aa490600163ffffffff6143d216565b86516000908152600260205260408082209290925587518152205480614ada578854600090815260046020526040812055614b36565b88546000908152600460209081526040808320546002845260128d01909252909120549093508190614b1990612d87866001850163ffffffff6141f816565b81614b2057fe5b8a54600090815260046020526040902091900490555b505b87546000908152600360209081526040918290205460028b0154835190815291820188905282516001600160a01b03909116928e927f37471b9c9d295ffb1309ad070b8964700bfb7b555e8e8292d0b6cbc7dba35d10929081900390910190a38a7f46a713b994c752c68fbefa9048bec9a0010cc7d933ad95a3c3dbb25931a167e78460405180826005811115614bcb57fe5b60ff16815260200191505060405180910390a26001880154600289015460408051639d4c162d60e01b8152600481018f90526024810192909252516001600160a01b0390921691639d4c162d916044808201926020929091908290030181600087803b158015614c3a57600080fd5b505af1158015614c4e573d6000803e3d6000fd5b505050506040513d6020811015614c6457600080fd5b5050600688015460078901555b6001880154600160a01b900460ff166006811115614c8b57fe5b86604001516006811115614c9b57fe5b14614cf8578a7f21aca7f0285ccddeca2935074d3e36b5ab8fea0327f84cbbf12cf1b6d1a749f98960010160149054906101000a900460ff1660405180826006811115614ce457fe5b60ff16815260200191505060405180910390a25b6000836005811115614d0657fe5b14159b9a5050505050505050505050565b600082820282848281614d2657fe5b0414614d71576040805162461bcd60e51b81526020600482015260156024820152745265616c4d617468206d756c206f766572666c6f7760581b604482015290519081900360640190fd5b60281c9392505050565b60008183614e075760405162461bcd60e51b81526004018080602001828103825283818151815260200191508051906020019080838360005b83811015614dcc578181015183820152602001614db4565b50505050905090810190601f168015614df95780820380516001836020036101000a031916815260200191505b509250505060405180910390fd5b506000838581614e1357fe5b0495945050505050565b60008184841115614e6f5760405162461bcd60e51b8152602060048201818152835160248401528351909283926044909101919085019080838360008315614dcc578181015183820152602001614db4565b505050900390565b60008165010000000000840281614e8a57fe5b049392505050565b604051806060016040528060008152602001600081526020016000151581525090565b604051806101a0016040528060008152602001600081526020016000815260200160008152602001600081526020016000815260200160008152602001600081526020016000815260200160008152602001600081526020016000815260200160006001600160a01b031681525090565b604080516101c081018252600080825260208201819052909182019081526020016000815260200160006001600160a01b0316815260200160008152602001600080191681526020016000815260200160008152602001600081526020016000815260200160008152602001614f9a614fe5565b8152600060209091015290565b8260038101928215614fd5579160200282015b82811115614fd5578251825591602001919060010190614fba565b50614fe1929150615003565b5090565b60405180606001604052806003906020820280388339509192915050565b6117e291905b80821115614fe15760008155600101615009565b6000813f7fc5d2460186f7233c927e7db2dcc703c0e500b653ca82273b7bfad8045d85a470811580159061123c575014159291505056fe50726f706f73616c2073686f756c64206265204578656375746564206f722045787069726564496e5175657565626f6f73746564566f7465506572696f644c696d6974203e3d207175696574456e64696e67506572696f643530203c3d20717565756564566f7465526571756972656450657263656e74616765203c3d20313030536166654d6174683a206d756c7469706c69636174696f6e206f766572666c6f7770726f706f73616c20737461746520696e206e6f7420426f6f73746564206e6f72205175696574456e64696e67506572696f64a265627a7a72315820ed2c99011b084274009a56685ca50b37c4b5e3904e607ebc1427514dd1a5bd2764736f6c63430005110032",
  "source": "pragma solidity ^0.5.11;\n\nimport \"@daostack/infra/contracts/votingMachines/GenesisProtocol.sol\";\n\n/**\n * @title GenesisProtocol implementation designed for DXdao\n *\n * New Features:\n *  - Payable Votes: Any organization can send funds and configure the gas and maxGasPrice to be refunded per vote.\n *  - Signed Votes: Votes can be signed for this or any voting machine, they can shared on this voting machine and\n *    execute votes signed for this voting machine.\n *  - Signal Votes: Voters can signal their decisions with near 50k gas, the signaled votes can be executed on\n *    chain by anyone.\n */\ncontract DXDVotingMachine is GenesisProtocol {\n\n    struct OrganizationRefunds {\n      uint256 balance;\n      uint256 voteGas;\n      uint256 maxGasPrice;\n    }\n    \n    mapping(address => OrganizationRefunds) public organizationRefunds;\n    \n    // Event used to share vote signatures on chain\n    event VoteSigned(\n      address votingMachine,\n      bytes32 proposalId,\n      address voter,\n      uint256 voteDecision,\n      uint256 amount,\n      bytes signature\n    );\n    \n    struct VoteDecision {\n      uint256 voteDecision;\n      uint256 amount;\n    }\n    \n    mapping(bytes32 => mapping(address => VoteDecision)) public votesSignaled;\n    \n    // Event used to signal votes to be executed on chain\n    event VoteSignaled(\n      bytes32 proposalId,\n      address voter,\n      uint256 voteDecision,\n      uint256 amount\n    );\n        \n    /**\n     * @dev Constructor\n     */\n    constructor(IERC20 _stakingToken) public GenesisProtocol(_stakingToken) {\n      require(address(_stakingToken) != address(0), 'wrong _stakingToken');\n      stakingToken = _stakingToken;\n    }\n    \n    /**\n    * @dev Allows the voting machine to receive ether to be used to refund voting costs\n    */\n    function() external payable {\n      if (organizationRefunds[msg.sender].voteGas > 0)\n        organizationRefunds[msg.sender].balance = organizationRefunds[msg.sender].balance.add(msg.value);\n    }\n    \n    /**\n    * @dev Config the vote refund for each organization\n    * @param _voteGas the amoung of gas that will be used as vote cost\n    * @param _maxGasPrice the maximun amount of gas price to be paid, if the gas used is higehr than this value only a\n    * portion of the total gas would be refunded\n    */\n    function setOrganizationRefund(uint256 _voteGas, uint256 _maxGasPrice) public {\n      organizationRefunds[msg.sender].voteGas = _voteGas;\n      organizationRefunds[msg.sender].maxGasPrice = _maxGasPrice;\n    }\n    \n    /**\n     * @dev voting function from old voting machine changing only the logic to refund vote after vote done\n     *\n     * @param _proposalId id of the proposal\n     * @param _vote NO(2) or YES(1).\n     * @param _amount the reputation amount to vote with, 0 will use all available REP\n     * @param _voter voter address\n     * @return bool if the proposal has been executed or not\n     */\n    function vote(\n      bytes32 _proposalId, uint256 _vote, uint256 _amount, address _voter\n    ) external votable(_proposalId) returns(bool) {\n        Proposal storage proposal = proposals[_proposalId];\n        Parameters memory params = parameters[proposal.paramsHash];\n        address voter;\n        if (params.voteOnBehalf != address(0)) {\n            require(msg.sender == params.voteOnBehalf);\n            voter = _voter;\n        } else {\n            voter = msg.sender;\n        }\n        bool voteResult = internalVote(_proposalId, voter, _vote, _amount);\n        _refundVote(proposal.organizationId, msg.sender);\n        return voteResult;\n    }\n    \n    /**\n     * @dev Share the vote of a proposal for a voting machine on a event log\n     *\n     * @param votingMachine the voting machine address\n     * @param proposalId id of the proposal\n     * @param voteDecision the vote decision, NO(2) or YES(1).\n     * @param amount the reputation amount to vote with, 0 will use all available REP\n     * @param signature the encoded vote signature\n     */\n    function shareSignedVote(\n      address votingMachine,\n      bytes32 proposalId,\n      uint256 voteDecision,\n      uint256 amount,\n      bytes calldata signature\n    ) external {\n      bytes32 voteHashed = hashVote(votingMachine, proposalId, msg.sender, voteDecision, amount);\n      require(msg.sender == voteHashed.toEthSignedMessageHash().recover(signature), \"wrong signer\");\n      require(voteDecision > 0, \"invalid voteDecision\");\n      emit VoteSigned(votingMachine, proposalId, msg.sender, voteDecision, amount, signature);\n    }\n    \n    /**\n     * @dev Signal the vote of a proposal in this voting machine to be executed later\n     *\n     * @param proposalId id of the proposal to vote\n     * @param voteDecision the vote decisions, NO(2) or YES(1).\n     * @param amount the reputation amount to vote with, 0 will use all available REP\n     */\n    function signalVote(\n      bytes32 proposalId, uint256 voteDecision, uint256 amount\n    ) external {\n      require(_isVotable(proposalId), \"not votable proposal\");\n      require(voteDecision > 0, \"invalid voteDecision\");\n      require(votesSignaled[proposalId][msg.sender].voteDecision == 0, 'already voted');\n      votesSignaled[proposalId][msg.sender].voteDecision = voteDecision;\n      votesSignaled[proposalId][msg.sender].amount = amount;\n      emit VoteSignaled(proposalId, msg.sender, voteDecision, amount);\n    }\n\n    /**\n     * @dev Execute a signed vote\n     *\n     * @param votingMachine the voting machine address\n     * @param proposalId id of the proposal to execute the vote on\n     * @param voter the signer of the vote\n     * @param voteDecision the vote decision, NO(2) or YES(1).\n     * @param amount the reputation amount to vote with, 0 will use all available REP\n     * @param signature the signature of the hashed vote\n     */\n    function executeSignedVote(\n      address votingMachine,\n      bytes32 proposalId,\n      address voter,\n      uint256 voteDecision,\n      uint256 amount,\n      bytes calldata signature\n    ) external {\n      require(votingMachine == address(this), \"wrong votingMachine\");\n      require(_isVotable(proposalId), \"not votable proposal\");\n      require(voteDecision > 0, \"wrong voteDecision\");\n      require(\n        voter ==\n          hashVote(votingMachine, proposalId, voter, voteDecision, amount)\n            .toEthSignedMessageHash().recover(signature),\n        \"wrong signer\"\n      );\n      internalVote(proposalId, voter, voteDecision, amount);\n      _refundVote(proposals[proposalId].organizationId, msg.sender);\n    }\n    \n    /**\n     * @dev Execute a signed vote on a votable proposal\n     *\n     * @param proposalId id of the proposal to vote\n     * @param voter the signer of the vote\n     * @param voteDecision the vote decisions, NO(2) or YES(1).\n     * @param amount the reputation amount to vote with, 0 will use all available REP\n     */\n    function executeSignaledVote(\n      bytes32 proposalId,\n      address voter,\n      uint256 voteDecision,\n      uint256 amount\n    ) external {\n      require(_isVotable(proposalId), \"not votable proposal\");\n      require(voteDecision > 0, \"wrong voteDecision\");\n      require(votesSignaled[proposalId][voter].voteDecision > 0, \"wrong vote shared\");\n      internalVote(proposalId, voter, voteDecision, amount);\n      delete votesSignaled[proposalId][voter];\n      _refundVote(proposals[proposalId].organizationId, msg.sender);\n    }\n    \n    /**\n     * @dev Refund a vote gas cost to an address\n     *\n     * @param organizationId the id of the organization that should do the refund\n     * @param toAddress the address where the refund should be sent\n     */\n    function _refundVote(bytes32 organizationId, address payable toAddress) internal {\n      address orgAddress = organizations[organizationId];\n      if (organizationRefunds[orgAddress].voteGas > 0) {\n        uint256 gasRefund = organizationRefunds[orgAddress].voteGas\n          .mul(tx.gasprice.min(organizationRefunds[orgAddress].maxGasPrice));\n        if (organizationRefunds[orgAddress].balance >= gasRefund) {\n          toAddress.transfer(gasRefund);\n          organizationRefunds[orgAddress].balance = organizationRefunds[orgAddress].balance.sub(gasRefund);\n        }\n      }\n    }\n    \n    /**\n     * @dev Hash the vote data that is used for signatures\n     *\n     * @param votingMachine the voting machine address\n     * @param proposalId id of the proposal\n     * @param voter the signer of the vote\n     * @param voteDecision the vote decision, NO(2) or YES(1).\n     * @param amount the reputation amount to vote with, 0 will use all available REP\n     */\n    function hashVote(\n      address votingMachine,\n      bytes32 proposalId,\n      address voter,\n      uint256 voteDecision,\n      uint256 amount\n    ) public pure returns(bytes32) {\n      return keccak256(abi.encodePacked(votingMachine, proposalId, voter, voteDecision, amount));\n    }\n    \n    /**\n    * @dev proposalStatusWithVotes return the total votes, preBoostedVotes and stakes for a given proposal\n    * @param _proposalId the ID of the proposal\n    * @return uint256 votes YES\n    * @return uint256 votes NO\n    * @return uint256 preBoostedVotes YES\n    * @return uint256 preBoostedVotes NO\n    * @return uint256 total stakes YES\n    * @return uint256 total stakes NO\n    */\n    function proposalStatusWithVotes(bytes32 _proposalId) external view returns(\n      uint256, uint256, uint256, uint256, uint256, uint256\n    ) {\n      return (\n        proposals[_proposalId].votes[YES],\n        proposals[_proposalId].votes[NO],\n        proposals[_proposalId].preBoostedVotes[YES],\n        proposals[_proposalId].preBoostedVotes[NO],\n        proposals[_proposalId].stakes[YES],\n        proposals[_proposalId].stakes[NO]\n      );\n    }\n\n}\n",
  "sourcePath": "/home/blackjak/Projects/DXdao/dxvote/contracts/dxdao/DXDVotingMachine.sol",
  "compiler": {
    "name": "solc",
    "version": "0.5.17+commit.d19bba13.Emscripten.clang"
  },
  "schemaVersion": "3.2.5",
  "updatedAt": "2021-04-14T13:23:39.329Z",
  "devdoc": {
    "methods": {
      "calcExecuteCallBounty(bytes32)": {
        "details": "calcExecuteCallBounty calculate the execute boosted call bounty",
        "params": {
          "_proposalId": "the ID of the proposal"
        },
        "return": "uint256 executeCallBounty"
      },
      "cancelVote(bytes32)": {
        "details": "Cancel the vote of the msg.sender. cancel vote is not allow in genesisProtocol so this function doing nothing. This function is here in order to comply to the IntVoteInterface ."
      },
      "constructor": {
        "details": "Constructor"
      },
      "execute(bytes32)": {
        "details": "execute check if the proposal has been decided, and if so, execute the proposal",
        "params": {
          "_proposalId": "the id of the proposal"
        },
        "return": "bool true - the proposal has been executed             false - otherwise."
      },
      "executeBoosted(bytes32)": {
        "details": "executeBoosted try to execute a boosted or QuietEndingPeriod proposal if it is expired it rewards the msg.sender with P % of the proposal's upstakes upon a successful call to this function. P = t/150, where t is the number of seconds passed since the the proposal's timeout. P is capped by 10%.",
        "params": {
          "_proposalId": "the id of the proposal"
        },
        "return": "uint256 expirationCallBounty the bounty amount for the expiration call"
      },
      "executeSignaledVote(bytes32,address,uint256,uint256)": {
        "details": "Execute a signed vote on a votable proposal",
        "params": {
          "amount": "the reputation amount to vote with, 0 will use all available REP",
          "proposalId": "id of the proposal to vote",
          "voteDecision": "the vote decisions, NO(2) or YES(1).",
          "voter": "the signer of the vote"
        }
      },
      "executeSignedVote(address,bytes32,address,uint256,uint256,bytes)": {
        "details": "Execute a signed vote",
        "params": {
          "amount": "the reputation amount to vote with, 0 will use all available REP",
          "proposalId": "id of the proposal to execute the vote on",
          "signature": "the signature of the hashed vote",
          "voteDecision": "the vote decision, NO(2) or YES(1).",
          "voter": "the signer of the vote",
          "votingMachine": "the voting machine address"
        }
      },
      "getAllowedRangeOfChoices()": {
        "details": "getAllowedRangeOfChoices returns the allowed range of choices for a voting machine.",
        "return": "min - minimum number of choices max - maximum number of choices"
      },
      "getNumberOfChoices(bytes32)": {
        "details": "getNumberOfChoices returns the number of choices possible in this proposal",
        "return": "uint256 that contains number of choices"
      },
      "getParametersHash(uint256[11],address)": {
        "details": "hashParameters returns a hash of the given parameters"
      },
      "getProposalOrganization(bytes32)": {
        "details": "getProposalOrganization return the organizationId for a given proposal",
        "params": {
          "_proposalId": "the ID of the proposal"
        },
        "return": "bytes32 organization identifier"
      },
      "getProposalTimes(bytes32)": {
        "details": "getProposalTimes returns proposals times variables.",
        "params": {
          "_proposalId": "id of the proposal"
        },
        "return": "proposals times array"
      },
      "getStaker(bytes32,address)": {
        "details": "getStaker return the vote and stake amount for a given proposal and staker",
        "params": {
          "_proposalId": "the ID of the proposal",
          "_staker": "staker address"
        },
        "return": "uint256 voteuint256 amount"
      },
      "hashVote(address,bytes32,address,uint256,uint256)": {
        "details": "Hash the vote data that is used for signatures",
        "params": {
          "amount": "the reputation amount to vote with, 0 will use all available REP",
          "proposalId": "id of the proposal",
          "voteDecision": "the vote decision, NO(2) or YES(1).",
          "voter": "the signer of the vote",
          "votingMachine": "the voting machine address"
        }
      },
      "isAbstainAllow()": {
        "details": "isAbstainAllow returns if the voting machine allow abstain (0)",
        "return": "bool true or false"
      },
      "isVotable(bytes32)": {
        "details": "isVotable check if the proposal is votable",
        "params": {
          "_proposalId": "the ID of the proposal"
        },
        "return": "bool true or false"
      },
      "proposalStatus(bytes32)": {
        "details": "proposalStatus return the total votes and stakes for a given proposal",
        "params": {
          "_proposalId": "the ID of the proposal"
        },
        "return": "uint256 preBoostedVotes YESuint256 preBoostedVotes NOuint256 total stakes YESuint256 total stakes NO"
      },
      "proposalStatusWithVotes(bytes32)": {
        "details": "proposalStatusWithVotes return the total votes, preBoostedVotes and stakes for a given proposal",
        "params": {
          "_proposalId": "the ID of the proposal"
        },
        "return": "uint256 votes YESuint256 votes NOuint256 preBoostedVotes YESuint256 preBoostedVotes NOuint256 total stakes YESuint256 total stakes NO"
      },
      "propose(uint256,bytes32,address,address)": {
        "details": "register a new proposal with the given parameters. Every proposal has a unique ID which is being generated by calculating keccak256 of a incremented counter.",
        "params": {
          "_organization": "address",
          "_paramsHash": "parameters hash",
          "_proposer": "address"
        }
      },
      "redeem(bytes32,address)": {
        "details": "redeem a reward for a successful stake, vote or proposing. The function use a beneficiary address as a parameter (and not msg.sender) to enable users to redeem on behalf of someone else.",
        "params": {
          "_beneficiary": "- the beneficiary address",
          "_proposalId": "the ID of the proposal"
        },
        "return": "rewards -          [0] stakerTokenReward          [1] voterReputationReward          [2] proposerReputationReward"
      },
      "redeemDaoBounty(bytes32,address)": {
        "details": "redeemDaoBounty a reward for a successful stake. The function use a beneficiary address as a parameter (and not msg.sender) to enable users to redeem on behalf of someone else.",
        "params": {
          "_beneficiary": "- the beneficiary address",
          "_proposalId": "the ID of the proposal"
        },
        "return": "redeemedAmount - redeem token amountpotentialAmount - potential redeem token amount(if there is enough tokens bounty at the organization )"
      },
      "score(bytes32)": {
        "details": "score return the proposal score",
        "params": {
          "_proposalId": "the ID of the proposal"
        },
        "return": "uint256 proposal score."
      },
      "setOrganizationRefund(uint256,uint256)": {
        "details": "Config the vote refund for each organization",
        "params": {
          "_maxGasPrice": "the maximun amount of gas price to be paid, if the gas used is higehr than this value only a portion of the total gas would be refunded",
          "_voteGas": "the amoung of gas that will be used as vote cost"
        }
      },
      "setParameters(uint256[11],address)": {
        "details": "hash the parameters, save them if necessary, and return the hash value",
        "params": {
          "_params": "a parameters array   _params[0] - _queuedVoteRequiredPercentage,   _params[1] - _queuedVotePeriodLimit, //the time limit for a proposal to be in an absolute voting mode.   _params[2] - _boostedVotePeriodLimit, //the time limit for a proposal to be in an relative voting mode.   _params[3] - _preBoostedVotePeriodLimit, //the time limit for a proposal to be in an preparation                 state (stable) before boosted.   _params[4] -_thresholdConst   _params[5] -_quietEndingPeriod   _params[6] -_proposingRepReward   _params[7] -_votersReputationLossRatio   _params[8] -_minimumDaoBounty   _params[9] -_daoBountyConst   _params[10] -_activationTime",
          "_voteOnBehalf": "- authorized to vote on behalf of others."
        }
      },
      "shareSignedVote(address,bytes32,uint256,uint256,bytes)": {
        "details": "Share the vote of a proposal for a voting machine on a event log",
        "params": {
          "amount": "the reputation amount to vote with, 0 will use all available REP",
          "proposalId": "id of the proposal",
          "signature": "the encoded vote signature",
          "voteDecision": "the vote decision, NO(2) or YES(1).",
          "votingMachine": "the voting machine address"
        }
      },
      "shouldBoost(bytes32)": {
        "details": "shouldBoost check if a proposal should be shifted to boosted phase.",
        "params": {
          "_proposalId": "the ID of the proposal"
        },
        "return": "bool true or false."
      },
      "signalVote(bytes32,uint256,uint256)": {
        "details": "Signal the vote of a proposal in this voting machine to be executed later",
        "params": {
          "amount": "the reputation amount to vote with, 0 will use all available REP",
          "proposalId": "id of the proposal to vote",
          "voteDecision": "the vote decisions, NO(2) or YES(1)."
        }
      },
      "stake(bytes32,uint256,uint256)": {
        "details": "staking function",
        "params": {
          "_amount": "the betting amount",
          "_proposalId": "id of the proposal",
          "_vote": "NO(2) or YES(1)."
        },
        "return": "bool true - the proposal has been executed             false - otherwise."
      },
      "stakeWithSignature(bytes32,uint256,uint256,uint256,uint256,bytes)": {
        "details": "stakeWithSignature function",
        "params": {
          "_amount": "the betting amount",
          "_nonce": "nonce value ,it is part of the signature to ensure that a signature can be received only once.",
          "_proposalId": "id of the proposal",
          "_signature": "- signed data by the staker",
          "_signatureType": "signature type 1 - for web3.eth.sign 2 - for eth_signTypedData according to EIP #712.",
          "_vote": "NO(2) or YES(1)."
        },
        "return": "bool true - the proposal has been executed             false - otherwise."
      },
      "state(bytes32)": {
        "details": "voteStake return the state for a given proposal",
        "params": {
          "_proposalId": "the ID of the proposal"
        },
        "return": "ProposalState proposal state"
      },
      "threshold(bytes32,bytes32)": {
        "details": "threshold return the organization's score threshold which required by a proposal to shift to boosted state. This threshold is dynamically set and it depend on the number of boosted proposal.",
        "params": {
          "_organizationId": "the organization identifier",
          "_paramsHash": "the organization parameters hash"
        },
        "return": "uint256 organization's score threshold as real number."
      },
      "vote(bytes32,uint256,uint256,address)": {
        "details": "voting function from old voting machine changing only the logic to refund vote after vote done",
        "params": {
          "_amount": "the reputation amount to vote with, 0 will use all available REP",
          "_proposalId": "id of the proposal",
          "_vote": "NO(2) or YES(1).",
          "_voter": "voter address"
        },
        "return": "bool if the proposal has been executed or not"
      },
      "voteInfo(bytes32,address)": {
        "details": "voteInfo returns the vote and the amount of reputation of the user committed to this proposal",
        "params": {
          "_proposalId": "the ID of the proposal",
          "_voter": "the address of the voter"
        },
        "return": "uint256 vote - the voters vote       uint256 reputation - amount of reputation committed by _voter to _proposalId"
      },
      "voteStake(bytes32,uint256)": {
        "details": "voteStake return the amount stakes for a given proposal and vote",
        "params": {
          "_proposalId": "the ID of the proposal",
          "_vote": "vote number"
        },
        "return": "uint256 stake amount"
      },
      "voteStatus(bytes32,uint256)": {
        "details": "voteStatus returns the reputation voted for a proposal for a specific voting choice.",
        "params": {
          "_choice": "the index in the",
          "_proposalId": "the ID of the proposal"
        },
        "return": "voted reputation for the given choice"
      },
      "winningVote(bytes32)": {
        "details": "voteStake return the winningVote for a given proposal",
        "params": {
          "_proposalId": "the ID of the proposal"
        },
        "return": "uint256 winningVote"
      }
    },
    "title": "GenesisProtocol implementation designed for DXdao * New Features: - Payable Votes: Any organization can send funds and configure the gas and maxGasPrice to be refunded per vote. - Signed Votes: Votes can be signed for this or any voting machine, they can shared on this voting machine and   execute votes signed for this voting machine. - Signal Votes: Voters can signal their decisions with near 50k gas, the signaled votes can be executed on   chain by anyone."
  },
  "userdoc": {
    "methods": {}
  }
}