{
  "_format": "hh-sol-artifact-1",
  "contractName": "DXDVotingMachine",
  "sourceName": "dxdao-contracts/contracts/dxvote/DXDVotingMachine.sol",
  "abi": [
    {
      "inputs": [
        {
          "internalType": "contract IERC20",
          "name": "_stakingToken",
          "type": "address"
        }
      ],
      "payable": false,
      "stateMutability": "nonpayable",
      "type": "constructor"
    },
    {
      "anonymous": false,
      "inputs": [
        {
          "indexed": true,
          "internalType": "bytes32",
          "name": "_proposalId",
          "type": "bytes32"
        },
        {
          "indexed": true,
          "internalType": "address",
          "name": "_organization",
          "type": "address"
        }
      ],
      "name": "CancelProposal",
      "type": "event"
    },
    {
      "anonymous": false,
      "inputs": [
        {
          "indexed": true,
          "internalType": "bytes32",
          "name": "_proposalId",
          "type": "bytes32"
        },
        {
          "indexed": true,
          "internalType": "address",
          "name": "_organization",
          "type": "address"
        },
        {
          "indexed": true,
          "internalType": "address",
          "name": "_voter",
          "type": "address"
        }
      ],
      "name": "CancelVoting",
      "type": "event"
    },
    {
      "anonymous": false,
      "inputs": [
        {
          "indexed": true,
          "internalType": "bytes32",
          "name": "_proposalId",
          "type": "bytes32"
        },
        {
          "indexed": false,
          "internalType": "uint256",
          "name": "_confidenceThreshold",
          "type": "uint256"
        }
      ],
      "name": "ConfidenceLevelChange",
      "type": "event"
    },
    {
      "anonymous": false,
      "inputs": [
        {
          "indexed": true,
          "internalType": "bytes32",
          "name": "_proposalId",
          "type": "bytes32"
        },
        {
          "indexed": true,
          "internalType": "address",
          "name": "_organization",
          "type": "address"
        },
        {
          "indexed": false,
          "internalType": "uint256",
          "name": "_decision",
          "type": "uint256"
        },
        {
          "indexed": false,
          "internalType": "uint256",
          "name": "_totalReputation",
          "type": "uint256"
        }
      ],
      "name": "ExecuteProposal",
      "type": "event"
    },
    {
      "anonymous": false,
      "inputs": [
        {
          "indexed": true,
          "internalType": "bytes32",
          "name": "_proposalId",
          "type": "bytes32"
        },
        {
          "indexed": true,
          "internalType": "address",
          "name": "_beneficiary",
          "type": "address"
        },
        {
          "indexed": false,
          "internalType": "uint256",
          "name": "_amount",
          "type": "uint256"
        }
      ],
      "name": "ExpirationCallBounty",
      "type": "event"
    },
    {
      "anonymous": false,
      "inputs": [
        {
          "indexed": true,
          "internalType": "bytes32",
          "name": "_proposalId",
          "type": "bytes32"
        },
        {
          "indexed": false,
          "internalType": "enum GenesisProtocolLogic.ExecutionState",
          "name": "_executionState",
          "type": "uint8"
        }
      ],
      "name": "GPExecuteProposal",
      "type": "event"
    },
    {
      "anonymous": false,
      "inputs": [
        {
          "indexed": true,
          "internalType": "bytes32",
          "name": "_proposalId",
          "type": "bytes32"
        },
        {
          "indexed": true,
          "internalType": "address",
          "name": "_organization",
          "type": "address"
        },
        {
          "indexed": false,
          "internalType": "uint256",
          "name": "_numOfChoices",
          "type": "uint256"
        },
        {
          "indexed": false,
          "internalType": "address",
          "name": "_proposer",
          "type": "address"
        },
        {
          "indexed": false,
          "internalType": "bytes32",
          "name": "_paramsHash",
          "type": "bytes32"
        }
      ],
      "name": "NewProposal",
      "type": "event"
    },
    {
      "anonymous": false,
      "inputs": [
        {
          "indexed": true,
          "internalType": "bytes32",
          "name": "_proposalId",
          "type": "bytes32"
        },
        {
          "indexed": true,
          "internalType": "address",
          "name": "_organization",
          "type": "address"
        },
        {
          "indexed": true,
          "internalType": "address",
          "name": "_beneficiary",
          "type": "address"
        },
        {
          "indexed": false,
          "internalType": "uint256",
          "name": "_amount",
          "type": "uint256"
        }
      ],
      "name": "Redeem",
      "type": "event"
    },
    {
      "anonymous": false,
      "inputs": [
        {
          "indexed": true,
          "internalType": "bytes32",
          "name": "_proposalId",
          "type": "bytes32"
        },
        {
          "indexed": true,
          "internalType": "address",
          "name": "_organization",
          "type": "address"
        },
        {
          "indexed": true,
          "internalType": "address",
          "name": "_beneficiary",
          "type": "address"
        },
        {
          "indexed": false,
          "internalType": "uint256",
          "name": "_amount",
          "type": "uint256"
        }
      ],
      "name": "RedeemDaoBounty",
      "type": "event"
    },
    {
      "anonymous": false,
      "inputs": [
        {
          "indexed": true,
          "internalType": "bytes32",
          "name": "_proposalId",
          "type": "bytes32"
        },
        {
          "indexed": true,
          "internalType": "address",
          "name": "_organization",
          "type": "address"
        },
        {
          "indexed": true,
          "internalType": "address",
          "name": "_beneficiary",
          "type": "address"
        },
        {
          "indexed": false,
          "internalType": "uint256",
          "name": "_amount",
          "type": "uint256"
        }
      ],
      "name": "RedeemReputation",
      "type": "event"
    },
    {
      "anonymous": false,
      "inputs": [
        {
          "indexed": true,
          "internalType": "bytes32",
          "name": "_proposalId",
          "type": "bytes32"
        },
        {
          "indexed": true,
          "internalType": "address",
          "name": "_organization",
          "type": "address"
        },
        {
          "indexed": true,
          "internalType": "address",
          "name": "_staker",
          "type": "address"
        },
        {
          "indexed": false,
          "internalType": "uint256",
          "name": "_vote",
          "type": "uint256"
        },
        {
          "indexed": false,
          "internalType": "uint256",
          "name": "_amount",
          "type": "uint256"
        }
      ],
      "name": "Stake",
      "type": "event"
    },
    {
      "anonymous": false,
      "inputs": [
        {
          "indexed": true,
          "internalType": "bytes32",
          "name": "_proposalId",
          "type": "bytes32"
        },
        {
          "indexed": false,
          "internalType": "enum GenesisProtocolLogic.ProposalState",
          "name": "_proposalState",
          "type": "uint8"
        }
      ],
      "name": "StateChange",
      "type": "event"
    },
    {
      "anonymous": false,
      "inputs": [
        {
          "indexed": true,
          "internalType": "bytes32",
          "name": "_proposalId",
          "type": "bytes32"
        },
        {
          "indexed": true,
          "internalType": "address",
          "name": "_organization",
          "type": "address"
        },
        {
          "indexed": true,
          "internalType": "address",
          "name": "_voter",
          "type": "address"
        },
        {
          "indexed": false,
          "internalType": "uint256",
          "name": "_vote",
          "type": "uint256"
        },
        {
          "indexed": false,
          "internalType": "uint256",
          "name": "_reputation",
          "type": "uint256"
        }
      ],
      "name": "VoteProposal",
      "type": "event"
    },
    {
      "anonymous": false,
      "inputs": [
        {
          "indexed": false,
          "internalType": "bytes32",
          "name": "proposalId",
          "type": "bytes32"
        },
        {
          "indexed": false,
          "internalType": "address",
          "name": "voter",
          "type": "address"
        },
        {
          "indexed": false,
          "internalType": "uint256",
          "name": "voteDecision",
          "type": "uint256"
        },
        {
          "indexed": false,
          "internalType": "uint256",
          "name": "amount",
          "type": "uint256"
        }
      ],
      "name": "VoteSignaled",
      "type": "event"
    },
    {
      "anonymous": false,
      "inputs": [
        {
          "indexed": false,
          "internalType": "address",
          "name": "votingMachine",
          "type": "address"
        },
        {
          "indexed": false,
          "internalType": "bytes32",
          "name": "proposalId",
          "type": "bytes32"
        },
        {
          "indexed": false,
          "internalType": "address",
          "name": "voter",
          "type": "address"
        },
        {
          "indexed": false,
          "internalType": "uint256",
          "name": "voteDecision",
          "type": "uint256"
        },
        {
          "indexed": false,
          "internalType": "uint256",
          "name": "amount",
          "type": "uint256"
        },
        {
          "indexed": false,
          "internalType": "bytes",
          "name": "signature",
          "type": "bytes"
        }
      ],
      "name": "VoteSigned",
      "type": "event"
    },
    {
      "payable": true,
      "stateMutability": "payable",
      "type": "fallback"
    },
    {
      "constant": true,
      "inputs": [],
      "name": "DELEGATION_HASH_EIP712",
      "outputs": [
        {
          "internalType": "bytes32",
          "name": "",
          "type": "bytes32"
        }
      ],
      "payable": false,
      "stateMutability": "view",
      "type": "function"
    },
    {
      "constant": true,
      "inputs": [],
      "name": "NO",
      "outputs": [
        {
          "internalType": "uint256",
          "name": "",
          "type": "uint256"
        }
      ],
      "payable": false,
      "stateMutability": "view",
      "type": "function"
    },
    {
      "constant": true,
      "inputs": [],
      "name": "NUM_OF_CHOICES",
      "outputs": [
        {
          "internalType": "uint256",
          "name": "",
          "type": "uint256"
        }
      ],
      "payable": false,
      "stateMutability": "view",
      "type": "function"
    },
    {
      "constant": true,
      "inputs": [],
      "name": "YES",
      "outputs": [
        {
          "internalType": "uint256",
          "name": "",
          "type": "uint256"
        }
      ],
      "payable": false,
      "stateMutability": "view",
      "type": "function"
    },
    {
      "constant": true,
      "inputs": [
        {
          "internalType": "bytes32",
          "name": "",
          "type": "bytes32"
        }
      ],
      "name": "averagesDownstakesOfBoosted",
      "outputs": [
        {
          "internalType": "uint256",
          "name": "",
          "type": "uint256"
        }
      ],
      "payable": false,
      "stateMutability": "view",
      "type": "function"
    },
    {
      "constant": true,
      "inputs": [
        {
          "internalType": "bytes32",
          "name": "",
          "type": "bytes32"
        },
        {
          "internalType": "bytes32",
          "name": "",
          "type": "bytes32"
        }
      ],
      "name": "boostedVoteRequiredPercentage",
      "outputs": [
        {
          "internalType": "uint256",
          "name": "",
          "type": "uint256"
        }
      ],
      "payable": false,
      "stateMutability": "view",
      "type": "function"
    },
    {
      "constant": true,
      "inputs": [
        {
          "internalType": "bytes32",
          "name": "_proposalId",
          "type": "bytes32"
        }
      ],
      "name": "calcExecuteCallBounty",
      "outputs": [
        {
          "internalType": "uint256",
          "name": "",
          "type": "uint256"
        }
      ],
      "payable": false,
      "stateMutability": "view",
      "type": "function"
    },
    {
      "constant": false,
      "inputs": [
        {
          "internalType": "bytes32",
          "name": "_proposalId",
          "type": "bytes32"
        }
      ],
      "name": "cancelVote",
      "outputs": [],
      "payable": false,
      "stateMutability": "nonpayable",
      "type": "function"
    },
    {
      "constant": false,
      "inputs": [
        {
          "internalType": "bytes32",
          "name": "_proposalId",
          "type": "bytes32"
        }
      ],
      "name": "execute",
      "outputs": [
        {
          "internalType": "bool",
          "name": "",
          "type": "bool"
        }
      ],
      "payable": false,
      "stateMutability": "nonpayable",
      "type": "function"
    },
    {
      "constant": false,
      "inputs": [
        {
          "internalType": "bytes32",
          "name": "_proposalId",
          "type": "bytes32"
        }
      ],
      "name": "executeBoosted",
      "outputs": [
        {
          "internalType": "uint256",
          "name": "expirationCallBounty",
          "type": "uint256"
        }
      ],
      "payable": false,
      "stateMutability": "nonpayable",
      "type": "function"
    },
    {
      "constant": false,
      "inputs": [
        {
          "internalType": "bytes32",
          "name": "proposalId",
          "type": "bytes32"
        },
        {
          "internalType": "address",
          "name": "voter",
          "type": "address"
        },
        {
          "internalType": "uint256",
          "name": "voteDecision",
          "type": "uint256"
        },
        {
          "internalType": "uint256",
          "name": "amount",
          "type": "uint256"
        }
      ],
      "name": "executeSignaledVote",
      "outputs": [],
      "payable": false,
      "stateMutability": "nonpayable",
      "type": "function"
    },
    {
      "constant": false,
      "inputs": [
        {
          "internalType": "address",
          "name": "votingMachine",
          "type": "address"
        },
        {
          "internalType": "bytes32",
          "name": "proposalId",
          "type": "bytes32"
        },
        {
          "internalType": "address",
          "name": "voter",
          "type": "address"
        },
        {
          "internalType": "uint256",
          "name": "voteDecision",
          "type": "uint256"
        },
        {
          "internalType": "uint256",
          "name": "amount",
          "type": "uint256"
        },
        {
          "internalType": "bytes",
          "name": "signature",
          "type": "bytes"
        }
      ],
      "name": "executeSignedVote",
      "outputs": [],
      "payable": false,
      "stateMutability": "nonpayable",
      "type": "function"
    },
    {
      "constant": true,
      "inputs": [],
      "name": "getAllowedRangeOfChoices",
      "outputs": [
        {
          "internalType": "uint256",
          "name": "min",
          "type": "uint256"
        },
        {
          "internalType": "uint256",
          "name": "max",
          "type": "uint256"
        }
      ],
      "payable": false,
      "stateMutability": "pure",
      "type": "function"
    },
    {
      "constant": true,
      "inputs": [
        {
          "internalType": "address",
          "name": "avatar",
          "type": "address"
        },
        {
          "internalType": "address",
          "name": "scheme",
          "type": "address"
        },
        {
          "internalType": "bytes32",
          "name": "paramsHash",
          "type": "bytes32"
        }
      ],
      "name": "getBoostedVoteRequiredPercentage",
      "outputs": [
        {
          "internalType": "uint256",
          "name": "",
          "type": "uint256"
        }
      ],
      "payable": false,
      "stateMutability": "view",
      "type": "function"
    },
    {
      "constant": true,
      "inputs": [
        {
          "internalType": "bytes32",
          "name": "",
          "type": "bytes32"
        }
      ],
      "name": "getNumberOfChoices",
      "outputs": [
        {
          "internalType": "uint256",
          "name": "",
          "type": "uint256"
        }
      ],
      "payable": false,
      "stateMutability": "view",
      "type": "function"
    },
    {
      "constant": true,
      "inputs": [
        {
          "internalType": "uint256[11]",
          "name": "_params",
          "type": "uint256[11]"
        },
        {
          "internalType": "address",
          "name": "_voteOnBehalf",
          "type": "address"
        }
      ],
      "name": "getParametersHash",
      "outputs": [
        {
          "internalType": "bytes32",
          "name": "",
          "type": "bytes32"
        }
      ],
      "payable": false,
      "stateMutability": "pure",
      "type": "function"
    },
    {
      "constant": true,
      "inputs": [
        {
          "internalType": "bytes32",
          "name": "_proposalId",
          "type": "bytes32"
        }
      ],
      "name": "getProposalOrganization",
      "outputs": [
        {
          "internalType": "bytes32",
          "name": "",
          "type": "bytes32"
        }
      ],
      "payable": false,
      "stateMutability": "view",
      "type": "function"
    },
    {
      "constant": true,
      "inputs": [
        {
          "internalType": "bytes32",
          "name": "_proposalId",
          "type": "bytes32"
        }
      ],
      "name": "getProposalTimes",
      "outputs": [
        {
          "internalType": "uint256[3]",
          "name": "times",
          "type": "uint256[3]"
        }
      ],
      "payable": false,
      "stateMutability": "view",
      "type": "function"
    },
    {
      "constant": true,
      "inputs": [
        {
          "internalType": "bytes32",
          "name": "_proposalId",
          "type": "bytes32"
        },
        {
          "internalType": "address",
          "name": "_staker",
          "type": "address"
        }
      ],
      "name": "getStaker",
      "outputs": [
        {
          "internalType": "uint256",
          "name": "",
          "type": "uint256"
        },
        {
          "internalType": "uint256",
          "name": "",
          "type": "uint256"
        }
      ],
      "payable": false,
      "stateMutability": "view",
      "type": "function"
    },
    {
      "constant": true,
      "inputs": [
        {
          "internalType": "address",
          "name": "votingMachine",
          "type": "address"
        },
        {
          "internalType": "bytes32",
          "name": "proposalId",
          "type": "bytes32"
        },
        {
          "internalType": "address",
          "name": "voter",
          "type": "address"
        },
        {
          "internalType": "uint256",
          "name": "voteDecision",
          "type": "uint256"
        },
        {
          "internalType": "uint256",
          "name": "amount",
          "type": "uint256"
        }
      ],
      "name": "hashVote",
      "outputs": [
        {
          "internalType": "bytes32",
          "name": "",
          "type": "bytes32"
        }
      ],
      "payable": false,
      "stateMutability": "pure",
      "type": "function"
    },
    {
      "constant": true,
      "inputs": [],
      "name": "isAbstainAllow",
      "outputs": [
        {
          "internalType": "bool",
          "name": "",
          "type": "bool"
        }
      ],
      "payable": false,
      "stateMutability": "pure",
      "type": "function"
    },
    {
      "constant": true,
      "inputs": [
        {
          "internalType": "bytes32",
          "name": "_proposalId",
          "type": "bytes32"
        }
      ],
      "name": "isVotable",
      "outputs": [
        {
          "internalType": "bool",
          "name": "",
          "type": "bool"
        }
      ],
      "payable": false,
      "stateMutability": "view",
      "type": "function"
    },
    {
      "constant": true,
      "inputs": [
        {
          "internalType": "bytes32",
          "name": "",
          "type": "bytes32"
        }
      ],
      "name": "orgBoostedProposalsCnt",
      "outputs": [
        {
          "internalType": "uint256",
          "name": "",
          "type": "uint256"
        }
      ],
      "payable": false,
      "stateMutability": "view",
      "type": "function"
    },
    {
      "constant": true,
      "inputs": [
        {
          "internalType": "address",
          "name": "",
          "type": "address"
        }
      ],
      "name": "organizationRefunds",
      "outputs": [
        {
          "internalType": "uint256",
          "name": "balance",
          "type": "uint256"
        },
        {
          "internalType": "uint256",
          "name": "voteGas",
          "type": "uint256"
        },
        {
          "internalType": "uint256",
          "name": "maxGasPrice",
          "type": "uint256"
        }
      ],
      "payable": false,
      "stateMutability": "view",
      "type": "function"
    },
    {
      "constant": true,
      "inputs": [
        {
          "internalType": "bytes32",
          "name": "",
          "type": "bytes32"
        }
      ],
      "name": "organizations",
      "outputs": [
        {
          "internalType": "address",
          "name": "",
          "type": "address"
        }
      ],
      "payable": false,
      "stateMutability": "view",
      "type": "function"
    },
    {
      "constant": true,
      "inputs": [
        {
          "internalType": "bytes32",
          "name": "",
          "type": "bytes32"
        }
      ],
      "name": "parameters",
      "outputs": [
        {
          "internalType": "uint256",
          "name": "queuedVoteRequiredPercentage",
          "type": "uint256"
        },
        {
          "internalType": "uint256",
          "name": "queuedVotePeriodLimit",
          "type": "uint256"
        },
        {
          "internalType": "uint256",
          "name": "boostedVotePeriodLimit",
          "type": "uint256"
        },
        {
          "internalType": "uint256",
          "name": "preBoostedVotePeriodLimit",
          "type": "uint256"
        },
        {
          "internalType": "uint256",
          "name": "thresholdConst",
          "type": "uint256"
        },
        {
          "internalType": "uint256",
          "name": "limitExponentValue",
          "type": "uint256"
        },
        {
          "internalType": "uint256",
          "name": "quietEndingPeriod",
          "type": "uint256"
        },
        {
          "internalType": "uint256",
          "name": "proposingRepReward",
          "type": "uint256"
        },
        {
          "internalType": "uint256",
          "name": "votersReputationLossRatio",
          "type": "uint256"
        },
        {
          "internalType": "uint256",
          "name": "minimumDaoBounty",
          "type": "uint256"
        },
        {
          "internalType": "uint256",
          "name": "daoBountyConst",
          "type": "uint256"
        },
        {
          "internalType": "uint256",
          "name": "activationTime",
          "type": "uint256"
        },
        {
          "internalType": "address",
          "name": "voteOnBehalf",
          "type": "address"
        }
      ],
      "payable": false,
      "stateMutability": "view",
      "type": "function"
    },
    {
      "constant": true,
      "inputs": [
        {
          "internalType": "bytes32",
          "name": "_proposalId",
          "type": "bytes32"
        }
      ],
      "name": "proposalStatus",
      "outputs": [
        {
          "internalType": "uint256",
          "name": "",
          "type": "uint256"
        },
        {
          "internalType": "uint256",
          "name": "",
          "type": "uint256"
        },
        {
          "internalType": "uint256",
          "name": "",
          "type": "uint256"
        },
        {
          "internalType": "uint256",
          "name": "",
          "type": "uint256"
        }
      ],
      "payable": false,
      "stateMutability": "view",
      "type": "function"
    },
    {
      "constant": true,
      "inputs": [
        {
          "internalType": "bytes32",
          "name": "_proposalId",
          "type": "bytes32"
        }
      ],
      "name": "proposalStatusWithVotes",
      "outputs": [
        {
          "internalType": "uint256",
          "name": "",
          "type": "uint256"
        },
        {
          "internalType": "uint256",
          "name": "",
          "type": "uint256"
        },
        {
          "internalType": "uint256",
          "name": "",
          "type": "uint256"
        },
        {
          "internalType": "uint256",
          "name": "",
          "type": "uint256"
        },
        {
          "internalType": "uint256",
          "name": "",
          "type": "uint256"
        },
        {
          "internalType": "uint256",
          "name": "",
          "type": "uint256"
        }
      ],
      "payable": false,
      "stateMutability": "view",
      "type": "function"
    },
    {
      "constant": true,
      "inputs": [
        {
          "internalType": "bytes32",
          "name": "",
          "type": "bytes32"
        }
      ],
      "name": "proposals",
      "outputs": [
        {
          "internalType": "bytes32",
          "name": "organizationId",
          "type": "bytes32"
        },
        {
          "internalType": "address",
          "name": "callbacks",
          "type": "address"
        },
        {
          "internalType": "enum GenesisProtocolLogic.ProposalState",
          "name": "state",
          "type": "uint8"
        },
        {
          "internalType": "uint256",
          "name": "winningVote",
          "type": "uint256"
        },
        {
          "internalType": "address",
          "name": "proposer",
          "type": "address"
        },
        {
          "internalType": "uint256",
          "name": "currentBoostedVotePeriodLimit",
          "type": "uint256"
        },
        {
          "internalType": "bytes32",
          "name": "paramsHash",
          "type": "bytes32"
        },
        {
          "internalType": "uint256",
          "name": "daoBountyRemain",
          "type": "uint256"
        },
        {
          "internalType": "uint256",
          "name": "daoBounty",
          "type": "uint256"
        },
        {
          "internalType": "uint256",
          "name": "totalStakes",
          "type": "uint256"
        },
        {
          "internalType": "uint256",
          "name": "confidenceThreshold",
          "type": "uint256"
        },
        {
          "internalType": "uint256",
          "name": "secondsFromTimeOutTillExecuteBoosted",
          "type": "uint256"
        },
        {
          "internalType": "bool",
          "name": "daoRedeemItsWinnings",
          "type": "bool"
        }
      ],
      "payable": false,
      "stateMutability": "view",
      "type": "function"
    },
    {
      "constant": true,
      "inputs": [],
      "name": "proposalsCnt",
      "outputs": [
        {
          "internalType": "uint256",
          "name": "",
          "type": "uint256"
        }
      ],
      "payable": false,
      "stateMutability": "view",
      "type": "function"
    },
    {
      "constant": false,
      "inputs": [
        {
          "internalType": "uint256",
          "name": "",
          "type": "uint256"
        },
        {
          "internalType": "bytes32",
          "name": "_paramsHash",
          "type": "bytes32"
        },
        {
          "internalType": "address",
          "name": "_proposer",
          "type": "address"
        },
        {
          "internalType": "address",
          "name": "_organization",
          "type": "address"
        }
      ],
      "name": "propose",
      "outputs": [
        {
          "internalType": "bytes32",
          "name": "",
          "type": "bytes32"
        }
      ],
      "payable": false,
      "stateMutability": "nonpayable",
      "type": "function"
    },
    {
      "constant": false,
      "inputs": [
        {
          "internalType": "bytes32",
          "name": "_proposalId",
          "type": "bytes32"
        },
        {
          "internalType": "address",
          "name": "_beneficiary",
          "type": "address"
        }
      ],
      "name": "redeem",
      "outputs": [
        {
          "internalType": "uint256[3]",
          "name": "rewards",
          "type": "uint256[3]"
        }
      ],
      "payable": false,
      "stateMutability": "nonpayable",
      "type": "function"
    },
    {
      "constant": false,
      "inputs": [
        {
          "internalType": "bytes32",
          "name": "_proposalId",
          "type": "bytes32"
        },
        {
          "internalType": "address",
          "name": "_beneficiary",
          "type": "address"
        }
      ],
      "name": "redeemDaoBounty",
      "outputs": [
        {
          "internalType": "uint256",
          "name": "redeemedAmount",
          "type": "uint256"
        },
        {
          "internalType": "uint256",
          "name": "potentialAmount",
          "type": "uint256"
        }
      ],
      "payable": false,
      "stateMutability": "nonpayable",
      "type": "function"
    },
    {
      "constant": true,
      "inputs": [
        {
          "internalType": "bytes32",
          "name": "_proposalId",
          "type": "bytes32"
        }
      ],
      "name": "score",
      "outputs": [
        {
          "internalType": "uint256",
          "name": "",
          "type": "uint256"
        }
      ],
      "payable": false,
      "stateMutability": "view",
      "type": "function"
    },
    {
      "constant": false,
      "inputs": [
        {
          "internalType": "address",
          "name": "_scheme",
          "type": "address"
        },
        {
          "internalType": "bytes32",
          "name": "_paramsHash",
          "type": "bytes32"
        },
        {
          "internalType": "uint256",
          "name": "_boostedVotePeriodLimit",
          "type": "uint256"
        }
      ],
      "name": "setBoostedVoteRequiredPercentage",
      "outputs": [],
      "payable": false,
      "stateMutability": "nonpayable",
      "type": "function"
    },
    {
      "constant": false,
      "inputs": [
        {
          "internalType": "uint256",
          "name": "_voteGas",
          "type": "uint256"
        },
        {
          "internalType": "uint256",
          "name": "_maxGasPrice",
          "type": "uint256"
        }
      ],
      "name": "setOrganizationRefund",
      "outputs": [],
      "payable": false,
      "stateMutability": "nonpayable",
      "type": "function"
    },
    {
      "constant": false,
      "inputs": [
        {
          "internalType": "uint256[11]",
          "name": "_params",
          "type": "uint256[11]"
        },
        {
          "internalType": "address",
          "name": "_voteOnBehalf",
          "type": "address"
        }
      ],
      "name": "setParameters",
      "outputs": [
        {
          "internalType": "bytes32",
          "name": "",
          "type": "bytes32"
        }
      ],
      "payable": false,
      "stateMutability": "nonpayable",
      "type": "function"
    },
    {
      "constant": false,
      "inputs": [
        {
          "internalType": "address",
          "name": "votingMachine",
          "type": "address"
        },
        {
          "internalType": "bytes32",
          "name": "proposalId",
          "type": "bytes32"
        },
        {
          "internalType": "uint256",
          "name": "voteDecision",
          "type": "uint256"
        },
        {
          "internalType": "uint256",
          "name": "amount",
          "type": "uint256"
        },
        {
          "internalType": "bytes",
          "name": "signature",
          "type": "bytes"
        }
      ],
      "name": "shareSignedVote",
      "outputs": [],
      "payable": false,
      "stateMutability": "nonpayable",
      "type": "function"
    },
    {
      "constant": true,
      "inputs": [
        {
          "internalType": "bytes32",
          "name": "_proposalId",
          "type": "bytes32"
        }
      ],
      "name": "shouldBoost",
      "outputs": [
        {
          "internalType": "bool",
          "name": "",
          "type": "bool"
        }
      ],
      "payable": false,
      "stateMutability": "view",
      "type": "function"
    },
    {
      "constant": false,
      "inputs": [
        {
          "internalType": "bytes32",
          "name": "proposalId",
          "type": "bytes32"
        },
        {
          "internalType": "uint256",
          "name": "voteDecision",
          "type": "uint256"
        },
        {
          "internalType": "uint256",
          "name": "amount",
          "type": "uint256"
        }
      ],
      "name": "signalVote",
      "outputs": [],
      "payable": false,
      "stateMutability": "nonpayable",
      "type": "function"
    },
    {
      "constant": false,
      "inputs": [
        {
          "internalType": "bytes32",
          "name": "_proposalId",
          "type": "bytes32"
        },
        {
          "internalType": "uint256",
          "name": "_vote",
          "type": "uint256"
        },
        {
          "internalType": "uint256",
          "name": "_amount",
          "type": "uint256"
        }
      ],
      "name": "stake",
      "outputs": [
        {
          "internalType": "bool",
          "name": "",
          "type": "bool"
        }
      ],
      "payable": false,
      "stateMutability": "nonpayable",
      "type": "function"
    },
    {
      "constant": false,
      "inputs": [
        {
          "internalType": "bytes32",
          "name": "_proposalId",
          "type": "bytes32"
        },
        {
          "internalType": "uint256",
          "name": "_vote",
          "type": "uint256"
        },
        {
          "internalType": "uint256",
          "name": "_amount",
          "type": "uint256"
        },
        {
          "internalType": "uint256",
          "name": "_nonce",
          "type": "uint256"
        },
        {
          "internalType": "uint256",
          "name": "_signatureType",
          "type": "uint256"
        },
        {
          "internalType": "bytes",
          "name": "_signature",
          "type": "bytes"
        }
      ],
      "name": "stakeWithSignature",
      "outputs": [
        {
          "internalType": "bool",
          "name": "",
          "type": "bool"
        }
      ],
      "payable": false,
      "stateMutability": "nonpayable",
      "type": "function"
    },
    {
      "constant": true,
      "inputs": [
        {
          "internalType": "address",
          "name": "",
          "type": "address"
        }
      ],
      "name": "stakesNonce",
      "outputs": [
        {
          "internalType": "uint256",
          "name": "",
          "type": "uint256"
        }
      ],
      "payable": false,
      "stateMutability": "view",
      "type": "function"
    },
    {
      "constant": true,
      "inputs": [],
      "name": "stakingToken",
      "outputs": [
        {
          "internalType": "contract IERC20",
          "name": "",
          "type": "address"
        }
      ],
      "payable": false,
      "stateMutability": "view",
      "type": "function"
    },
    {
      "constant": true,
      "inputs": [
        {
          "internalType": "bytes32",
          "name": "_proposalId",
          "type": "bytes32"
        }
      ],
      "name": "state",
      "outputs": [
        {
          "internalType": "enum GenesisProtocolLogic.ProposalState",
          "name": "",
          "type": "uint8"
        }
      ],
      "payable": false,
      "stateMutability": "view",
      "type": "function"
    },
    {
      "constant": true,
      "inputs": [
        {
          "internalType": "bytes32",
          "name": "_paramsHash",
          "type": "bytes32"
        },
        {
          "internalType": "bytes32",
          "name": "_organizationId",
          "type": "bytes32"
        }
      ],
      "name": "threshold",
      "outputs": [
        {
          "internalType": "uint256",
          "name": "",
          "type": "uint256"
        }
      ],
      "payable": false,
      "stateMutability": "view",
      "type": "function"
    },
    {
      "constant": false,
      "inputs": [
        {
          "internalType": "bytes32",
          "name": "_proposalId",
          "type": "bytes32"
        },
        {
          "internalType": "uint256",
          "name": "_vote",
          "type": "uint256"
        },
        {
          "internalType": "uint256",
          "name": "_amount",
          "type": "uint256"
        },
        {
          "internalType": "address",
          "name": "_voter",
          "type": "address"
        }
      ],
      "name": "vote",
      "outputs": [
        {
          "internalType": "bool",
          "name": "",
          "type": "bool"
        }
      ],
      "payable": false,
      "stateMutability": "nonpayable",
      "type": "function"
    },
    {
      "constant": true,
      "inputs": [
        {
          "internalType": "bytes32",
          "name": "_proposalId",
          "type": "bytes32"
        },
        {
          "internalType": "address",
          "name": "_voter",
          "type": "address"
        }
      ],
      "name": "voteInfo",
      "outputs": [
        {
          "internalType": "uint256",
          "name": "",
          "type": "uint256"
        },
        {
          "internalType": "uint256",
          "name": "",
          "type": "uint256"
        }
      ],
      "payable": false,
      "stateMutability": "view",
      "type": "function"
    },
    {
      "constant": true,
      "inputs": [
        {
          "internalType": "bytes32",
          "name": "_proposalId",
          "type": "bytes32"
        },
        {
          "internalType": "uint256",
          "name": "_vote",
          "type": "uint256"
        }
      ],
      "name": "voteStake",
      "outputs": [
        {
          "internalType": "uint256",
          "name": "",
          "type": "uint256"
        }
      ],
      "payable": false,
      "stateMutability": "view",
      "type": "function"
    },
    {
      "constant": true,
      "inputs": [
        {
          "internalType": "bytes32",
          "name": "_proposalId",
          "type": "bytes32"
        },
        {
          "internalType": "uint256",
          "name": "_choice",
          "type": "uint256"
        }
      ],
      "name": "voteStatus",
      "outputs": [
        {
          "internalType": "uint256",
          "name": "",
          "type": "uint256"
        }
      ],
      "payable": false,
      "stateMutability": "view",
      "type": "function"
    },
    {
      "constant": true,
      "inputs": [
        {
          "internalType": "bytes32",
          "name": "",
          "type": "bytes32"
        },
        {
          "internalType": "address",
          "name": "",
          "type": "address"
        }
      ],
      "name": "votesSignaled",
      "outputs": [
        {
          "internalType": "uint256",
          "name": "voteDecision",
          "type": "uint256"
        },
        {
          "internalType": "uint256",
          "name": "amount",
          "type": "uint256"
        }
      ],
      "payable": false,
      "stateMutability": "view",
      "type": "function"
    },
    {
      "constant": true,
      "inputs": [
        {
          "internalType": "bytes32",
          "name": "_proposalId",
          "type": "bytes32"
        }
      ],
      "name": "winningVote",
      "outputs": [
        {
          "internalType": "uint256",
          "name": "",
          "type": "uint256"
        }
      ],
      "payable": false,
      "stateMutability": "view",
      "type": "function"
    }
  ],
  "bytecode": "0x60806040523480156200001157600080fd5b506040516200552a3803806200552a833981810160405260208110156200003757600080fd5b505180806200006673543ff227f64aa17ea132bf9886cab5db55dcaddf62000138602090811b6200526417901c565b156200009857600680546001600160a01b03191673543ff227f64aa17ea132bf9886cab5db55dcaddf179055620000b4565b600680546001600160a01b0319166001600160a01b0383161790555b50506001600160a01b03811662000112576040805162461bcd60e51b815260206004820152601360248201527f77726f6e67205f7374616b696e67546f6b656e00000000000000000000000000604482015290519081900360640190fd5b600680546001600160a01b0319166001600160a01b039290921691909117905562000175565b6000813f7fc5d2460186f7233c927e7db2dcc703c0e500b653ca82273b7bfad8045d85a47081158015906200016d5750808214155b949350505050565b6153a580620001856000396000f3fe6080604052600436106102ff5760003560e01c806380f5e0a111610190578063ba51b14e116100dc578063c8f526e811610095578063e5af18c51161006f578063e5af18c514610f06578063e751f27114610f30578063fb6c0cbb14610f5a578063fe0d261814610f84576102ff565b8063c8f526e814610e0e578063cc3bf9e914610e70578063e09a2c3014610ea9576102ff565b8063ba51b14e14610cf1578063bb5a05ed14610d1b578063bcb47fcf14610d45578063beda801514610d8a578063c083510614610db4578063c0ceec1e14610dde576102ff565b80639bc5689d11610149578063a30ccbe611610123578063a30ccbe614610c46578063ae9f5cea14610c7c578063b2449d6514610cac578063b451291314610cc1576102ff565b80639bc5689d1461045e578063a003651d14610be9578063a05ea6e414610c13576102ff565b806380f5e0a114610a3457806381bd671d14610a5e57806388737b5e14610aa15780638894c41b14610ae857806393b6257114610b215780639525c0cc14610bbf576102ff565b80633c1338181161024f57806361d585da1161020857806370743768116101e2578063707437681461093657806372f702f314610966578063772138441461099757806379a1c1f6146109e4576102ff565b806361d585da146108705780636359036b146108be5780636e5b43ec146108f7576102ff565b80633c133818146107055780633fead6501461072f5780634047487314610780578063488c65fc146107aa5780635142bc1e1461084657806351d997b21461085b576102ff565b806321b4b3dc116102bc5780632daedd52116102965780632daedd52146105a657806330ca0a53146105f057806332ed5b1214610605578063359afa49146106c0576102ff565b806321b4b3dc146105285780632514e2bf1461053d5780632d598e5814610576576102ff565b8063025068041461034a57806307b4e1e3146103e25780630d4834421461045e578063119ce91b1461047357806316db5172146104c55780631702ef0c146104fe575b33600090815260096020526040902060010154156103485733600090815260096020526040902054610337903463ffffffff61102c16565b336000908152600960205260409020555b005b34801561035657600080fd5b506103746004803603602081101561036d57600080fd5b503561108f565b604080519d8e5260208e019c909c528c8c019a909a5260608c019890985260808b019690965260a08a019490945260c089019290925260e08801526101008701526101208601526101408501526101608401526001600160a01b031661018083015251908190036101a00190f35b3480156103ee57600080fd5b5061044c600480360361018081101561040657600080fd5b81019080806101600190600b806020026040519081016040528092919082600b602002808284376000920191909152509194505050356001600160a01b031690506110ff565b60408051918252519081900360200190f35b34801561046a57600080fd5b5061044c61120f565b34801561047f57600080fd5b506104ac6004803603604081101561049657600080fd5b50803590602001356001600160a01b0316611214565b6040805192835260208301919091528051918290030190f35b3480156104d157600080fd5b506104ac600480360360408110156104e857600080fd5b50803590602001356001600160a01b0316611277565b34801561050a57600080fd5b5061044c6004803603602081101561052157600080fd5b50356112a8565b34801561053457600080fd5b5061044c6112ba565b34801561054957600080fd5b506104ac6004803603604081101561056057600080fd5b50803590602001356001600160a01b03166112c0565b34801561058257600080fd5b5061044c6004803603604081101561059957600080fd5b50803590602001356112e4565b3480156105b257600080fd5b506105dc600480360360608110156105c957600080fd5b5080359060208101359060400135611331565b604080519115158252519081900360200190f35b3480156105fc57600080fd5b5061044c611347565b34801561061157600080fd5b5061062f6004803603602081101561062857600080fd5b50356113f3565b604080518e81526001600160a01b038e1660208201529081018c600681111561065457fe5b60ff168152602081019b909b52506001600160a01b039098166040808b019190915260608a0197909752608089019590955260a088019390935260c087019190915260e08601526101008501526101208401529015156101408301525190819003610160019350915050f35b3480156106cc57600080fd5b506105dc600480360360808110156106e357600080fd5b50803590602081013590604081013590606001356001600160a01b0316611461565b34801561071157600080fd5b5061044c6004803603602081101561072857600080fd5b5035611598565b34801561073b57600080fd5b506107626004803603602081101561075257600080fd5b50356001600160a01b03166115ad565b60408051938452602084019290925282820152519081900360600190f35b34801561078c57600080fd5b5061044c600480360360208110156107a357600080fd5b50356115ce565b3480156107b657600080fd5b506105dc600480360360c08110156107cd57600080fd5b8135916020810135916040820135916060810135916080820135919081019060c0810160a082013564010000000081111561080757600080fd5b82018360208201111561081957600080fd5b8035906020019184600183028401116401000000008311171561083b57600080fd5b50909250905061163e565b34801561085257600080fd5b506104ac6118da565b34801561086757600080fd5b506105dc6118e2565b34801561087c57600080fd5b5061089a6004803603602081101561089357600080fd5b50356118e8565b604051808260068111156108aa57fe5b60ff16815260200191505060405180910390f35b3480156108ca57600080fd5b506104ac600480360360408110156108e157600080fd5b50803590602001356001600160a01b0316611908565b34801561090357600080fd5b506103486004803603606081101561091a57600080fd5b506001600160a01b038135169060208101359060400135611b83565b34801561094257600080fd5b5061044c6004803603604081101561095957600080fd5b5080359060200135611bd8565b34801561097257600080fd5b5061097b611bf9565b604080516001600160a01b039092168252519081900360200190f35b3480156109a357600080fd5b5061044c600480360360a08110156109ba57600080fd5b506001600160a01b0381358116916020810135916040820135169060608101359060800135611c08565b3480156109f057600080fd5b50610a0e60048036036020811015610a0757600080fd5b5035611c63565b604080519485526020850193909352838301919091526060830152519081900360800190f35b348015610a4057600080fd5b506105dc60048036036020811015610a5757600080fd5b5035611ca6565b348015610a6a57600080fd5b5061044c60048036036060811015610a8157600080fd5b506001600160a01b03813581169160208101359091169060400135611de3565b348015610aad57600080fd5b5061044c60048036036080811015610ac457600080fd5b508035906020810135906001600160a01b0360408201358116916060013516611e3d565b348015610af457600080fd5b5061044c6004803603610180811015610b0c57600080fd5b506001600160a01b03610160820135166121f0565b348015610b2d57600080fd5b50610348600480360360a0811015610b4457600080fd5b6001600160a01b038235169160208101359160408201359160608101359181019060a081016080820135640100000000811115610b8057600080fd5b820183602082011115610b9257600080fd5b80359060200191846001830284011164010000000083111715610bb457600080fd5b5090925090506125dd565b348015610bcb57600080fd5b5061034860048036036020811015610be257600080fd5b5035612794565b348015610bf557600080fd5b5061044c60048036036020811015610c0c57600080fd5b50356127ab565b348015610c1f57600080fd5b5061044c60048036036020811015610c3657600080fd5b50356001600160a01b03166127b1565b348015610c5257600080fd5b5061034860048036036060811015610c6957600080fd5b50803590602081013590604001356127c3565b348015610c8857600080fd5b5061044c60048036036040811015610c9f57600080fd5b508035906020013561292b565b348015610cb857600080fd5b5061044c612948565b348015610ccd57600080fd5b5061044c60048036036040811015610ce457600080fd5b508035906020013561294d565b348015610cfd57600080fd5b5061097b60048036036020811015610d1457600080fd5b503561296e565b348015610d2757600080fd5b5061044c60048036036020811015610d3e57600080fd5b5035612989565b348015610d5157600080fd5b5061034860048036036080811015610d6857600080fd5b508035906001600160a01b03602082013516906040810135906060013561299b565b348015610d9657600080fd5b5061044c60048036036020811015610dad57600080fd5b5035612af1565b348015610dc057600080fd5b506105dc60048036036020811015610dd757600080fd5b5035612d3a565b348015610dea57600080fd5b5061034860048036036040811015610e0157600080fd5b5080359060200135612d45565b348015610e1a57600080fd5b50610e3860048036036020811015610e3157600080fd5b5035612d64565b6040518082606080838360005b83811015610e5d578181015183820152602001610e45565b5050505090500191505060405180910390f35b348015610e7c57600080fd5b50610e3860048036036040811015610e9357600080fd5b50803590602001356001600160a01b0316612db3565b348015610eb557600080fd5b50610ed360048036036020811015610ecc57600080fd5b5035613524565b604080519687526020870195909552858501939093526060850191909152608084015260a0830152519081900360c00190f35b348015610f1257600080fd5b5061044c60048036036020811015610f2957600080fd5b503561357f565b348015610f3c57600080fd5b506105dc60048036036020811015610f5357600080fd5b503561358a565b348015610f6657600080fd5b5061044c60048036036020811015610f7d57600080fd5b50356135af565b348015610f9057600080fd5b50610348600480360360c0811015610fa757600080fd5b6001600160a01b03823581169260208101359260408201359092169160608201359160808101359181019060c0810160a0820135640100000000811115610fed57600080fd5b820183602082011115610fff57600080fd5b8035906020019184600183028401116401000000008311171561102157600080fd5b5090925090506135c1565b600082820183811015611086576040805162461bcd60e51b815260206004820152601b60248201527f536166654d6174683a206164646974696f6e206f766572666c6f770000000000604482015290519081900360640190fd5b90505b92915050565b600060208190529081526040902080546001820154600283015460038401546004850154600586015460068701546007880154600889015460098a0154600a8b0154600b8c0154600c909c01549a9b999a989997989697959694959394929391929091906001600160a01b03168d565b60008281602002015183600160200201518460026020020151856003602002015186600460200201518760056020020151886006602002015189600760200201518a600860200201518b600960200201518c600a6020020151604051602001808c81526020018b81526020018a81526020018981526020018881526020018781526020018681526020018581526020018481526020018381526020018281526020019b505050505050505050505050604051602081830303815290604052805190602001208260405160200180838152602001826001600160a01b03166001600160a01b031660601b81526014019250505060405160208183030381529060405280519060200120905092915050565b600281565b60008061121f6150d9565b50505060009182526001602081815260408085206001600160a01b039490941685526011909301815292829020825160608101845281548082529282015494810185905260029091015460ff16151592019190915291565b60009182526001602081815260408085206001600160a01b0394909416855260139093019052912080549101549091565b60009081526001602052604090205490565b60055481565b600a6020908152600092835260408084209091529082529020805460019091015482565b600081815260026020908152604080832054858452918390528220600581015482111561131357806005015491505b6004810154611328908363ffffffff61378316565b95945050505050565b600061133f848484336137cd565b949350505050565b604080517f616464726573732047656e6573697350726f746f636f6c41646472657373000060208083019190915271189e5d195ccccc88141c9bdc1bdcd85b125960721b603e8301526b75696e7432353620566f746560a01b60508301527475696e7432353620416d6f756e74546f5374616b6560581b605c8301526c75696e74323536204e6f6e636560981b60718301528251605e818403018152607e909201909252805191012081565b600160208190526000918252604090912080549181015460028201546003830154600484015460058501546006860154600787015460088801546009890154600a8a0154600e909a01546001600160a01b03808b169b60ff600160a01b909c048c169b99909116989091168d565b60008461146d81613bd3565b61147657600080fd5b600086815260016020526040902061148c6150fc565b5060058082015460009081526020818152604080832081516101a0810183528154815260018201549381019390935260028101549183019190915260038101546060830152600481015460808301529283015460a0820152600683015460c0820152600783015460e082015260088301546101008201526009830154610120820152600a830154610140820152600b830154610160820152600c909201546001600160a01b031661018083018190521561156a578161018001516001600160a01b0316336001600160a01b03161461156357600080fd5b508461156d565b50335b600061157b8a838b8b613c46565b905061158b84600001543361427d565b9998505050505050505050565b60009081526001602052604090206002015490565b60096020526000908152604090208054600182015460029092015490919083565b6000818152600160205260408120600a01546105dc9082906115f790839063ffffffff6143a716565b60008581526001602081815260408084209284526012909201905290205490915061133f90600a84029061163290849063ffffffff6143bd16565b9063ffffffff61441616565b60008084600214156117615750604080517f616464726573732047656e6573697350726f746f636f6c41646472657373000060208083019190915271189e5d195ccccc88141c9bdc1bdcd85b125960721b603e8301526b75696e7432353620566f746560a01b60508301527475696e7432353620416d6f756e74546f5374616b6560581b605c8301526c75696e74323536204e6f6e636560981b60718301528251605e818403018152607e830184528051908201203060601b609e84015260b283018c905260d283018b905260f283018a90526101128084018a90528451808503909101815261013284018552805190830120610152840191909152610172808401919091528351808403909101815261019290920190925280519101206117b2565b604080513060601b602080830191909152603482018c9052605482018b9052607482018a905260948083018a90528351808403909101815260b490920190925280519101206117af90614458565b90505b60006117fc85858080601f016020809104026020016040519081016040528093929190818152602001838380828437600092019190915250869392505063ffffffff6144a9169050565b90506001600160a01b038116611859576040805162461bcd60e51b815260206004820152601a60248201527f7374616b657220616464726573732063616e6e6f742062652030000000000000604482015290519081900360640190fd5b6001600160a01b038116600090815260076020526040902054871461187d57600080fd5b6001600160a01b0381166000908152600760205260409020546118a790600163ffffffff61102c16565b6001600160a01b0382166000908152600760205260409020556118cc8a8a8a846137cd565b9a9950505050505050505050565b600160029091565b60005b90565b60009081526001602081905260409091200154600160a01b900460ff1690565b6000828152600160205260408120819060026001820154600160a01b900460ff16600681111561193457fe5b1461193e57600080fd5b60028082015460009081526012830160209081526040808320546001600160a01b0389168452601386019092529091209182015490919015801590611987575060028301548154145b8015611997575060018360020154145b80156119a257508115155b156119be57818360070154826002015402816119ba57fe5b0493505b8315801590611a535750600183015460065460408051636b8eb40360e01b81526001600160a01b039283166004820152602481018b9052905187939290921691636b8eb40391604480820192602092909190829003018186803b158015611a2457600080fd5b505afa158015611a38573d6000803e3d6000fd5b505050506040513d6020811015611a4e57600080fd5b505110155b15611b7957600060028201556006830154611a74908563ffffffff61459716565b60068085019190915560018401549054604080516317d4ebe560e31b81526001600160a01b039283166004820152898316602482015260448101889052606481018b90529051919092169163bea75f289160848083019260209291908290030181600087803b158015611ae657600080fd5b505af1158015611afa573d6000803e3d6000fd5b505050506040513d6020811015611b1057600080fd5b5051611b1b57600080fd5b8254600090815260036020908152604091829020548251878152925196975087966001600160a01b03808b16949216928b927fb4a37163ec93e05e09b62e52f7f2ea8cfde431802edede7dfebe53d2ad969dbb929081900390910190a45b5050509250929050565b604080516001600160601b0319606095861b166020808301919091523390951b603482015281516028818303018152604890910182528051908501206000908152600885528181209381529290935291902055565b60009182526001602090815260408084209284526012909201905290205490565b6006546001600160a01b031681565b604080516001600160601b0319606097881b811660208084019190915260348301979097529490961b909316605486015260688501919091526088808501919091528151808503909101815260a89093019052815191012090565b6000908152600160208181526040808420838552601081018352818520546002808752838720549587526012909201909352818520549085529320549093919291565b6000611cb061516d565b60008381526001602081815260409283902083516101c08101855281548152928101546001600160a01b038116928401929092529192830190600160a01b900460ff166006811115611cfe57fe5b6006811115611d0957fe5b8152600282015460208201526003808301546001600160a01b0316604080840191909152600484015460608085019190915260058501546080850152600685015460a0850152600785015460c0850152600885015460e08501526009850154610100850152600a8501546101208501528151908101918290526101409093019291600b85019182845b815481526020019060010190808311611d92575050509183525050600e919091015460ff16151560209091015260c08101518151919250611dd2916112e4565b611ddb846145d9565b119392505050565b604080516001600160601b0319606094851b81166020808401919091529590941b90931660348401528051602881850301815260489093018152825192840192909220600090815260088452828120918152925290205490565b6000838152602081905260408120600b01544211611e93576040805162461bcd60e51b815260206004820152600e60248201526d1b9bdd081858dd1a5d99481e595d60921b604482015290519081900360640190fd5b60008481526020819052604090205460321115611eaf57600080fd5b600554604080513060601b6020808301919091526034808301859052835180840390910181526054909201909252805191012090611ef490600163ffffffff61102c16565b600555611eff61516d565b33602082810182905260408051606093841b818401526001600160601b031988851b16603482015281516028818303018152604890910182528051908301208452600381850181905261018085015142905260008a815280845282812060029081015460a08801526001600160a01b038b811660808901529587015260c086018b905285518152925290205416611fed576001600160a01b038416611fc3578051600090815260036020526040902080546001600160a01b03191633179055611fed565b8051600090815260036020526040902080546001600160a01b0319166001600160a01b0386161790555b8051600090815260046020908152604080832054898452918390528220600a0154612024916064916116329163ffffffff6143bd16565b60008881526020819052604090206009015490915061204a90829063ffffffff61461a16565b60e0830152600083815260016020818152604092839020855181559085015191810180546001600160a01b0319166001600160a01b03909316929092178083559285015185939192909160ff60a01b1916600160a01b8360068111156120ac57fe5b0217905550606082015160028201556080820151600380830180546001600160a01b0319166001600160a01b039093169290921790915560a0830151600483015560c0830151600583015560e08301516006830155610100830151600783015561012083015160088301556101408301516009830155610160830151600a83015561018083015161214291600b840191906151ee565b506101a09190910151600e909101805460ff191691151591909117905560e08201516000848152600160209081526040808320600280855260129091018352818420949094558551835260038252918290205482519384526001600160a01b038a8116928501929092528383018b9052915191169185917f75b4ff136cc5de5957574c797de3334eb1c141271922b825eb071e0487ba2c5c916060908290030190a350909695505050505050565b6000606483351180159061220657506032833510155b6122415760405162461bcd60e51b81526004018080602001828103825260298152602001806152f46029913960400191505060405180910390fd5b613e8060808401351180159061225c57506103e86080840135115b6122ad576040805162461bcd60e51b815260206004820152601e60248201527f31303030203c207468726573686f6c64436f6e7374203c3d2031363030300000604482015290519081900360640190fd5b606460e08401351115612307576040805162461bcd60e51b815260206004820181905260248201527f766f7465727352657075746174696f6e4c6f7373526174696f203c3d20313030604482015290519081900360640190fd5b60a08301356040840135101561234e5760405162461bcd60e51b815260040180806020018281038252602b8152602001806152c9602b913960400191505060405180910390fd5b6101008301356123a5576040805162461bcd60e51b815260206004820152601e60248201527f6d696e696d756d44616f426f756e74792073686f756c64206265203e20300000604482015290519081900360640190fd5b6101208301356123fc576040805162461bcd60e51b815260206004820152601c60248201527f64616f426f756e7479436f6e73742073686f756c64206265203e203000000000604482015290519081900360640190fd5b600061243284600b806020026040519081016040528092919082600b602002808284376000920191909152508691506110ff9050565b905060ac60026107d05b613e8081101561248457608087013581108015612460575060028102608088013511155b156124765781838161246e57fe5b049250612484565b60019091019060020261243c565b50604080516101a08101825287358152602080890135908201528782013591810191909152606080880135908201526080808201906124d1908901356001600160d81b03166103e861462a565b81526020810184905260a088810135604083015260c0808a0135606084015260e0808b013560808501526101008b0135928401929092526101208a0135908301520187600a6020908102919091013582526001600160a01b03978816918101919091526000858152808252604090819020835181559183015160018301558201516002820155606082015160038201556080820151600482015560a0820151600582015560c0820151600682015560e0820151600782015561010082015160088201556101208201516009820155610140820151600a820155610160820151600b82015561018090910151600c90910180546001600160a01b0319169190961617909455509392505050565b60006125ec8787338888611c08565b905061263f83838080601f01602080910402602001604051908101604052809392919081815260200183838082843760009201919091525061263392508591506144589050565b9063ffffffff6144a916565b6001600160a01b0316336001600160a01b031614612693576040805162461bcd60e51b815260206004820152600c60248201526b3bb937b7339039b4b3b732b960a11b604482015290519081900360640190fd5b600085116126df576040805162461bcd60e51b815260206004820152601460248201527334b73b30b634b2103b37ba32a232b1b4b9b4b7b760611b604482015290519081900360640190fd5b7f46e3ceeda21faa4b362b93454c3125977acdd239013fd4f0ec651e88657e6cfb8787338888888860405180886001600160a01b03166001600160a01b03168152602001878152602001866001600160a01b03166001600160a01b03168152602001858152602001848152602001806020018281038252848482818152602001925080828437600083820152604051601f909101601f19169092018290039a509098505050505050505050a150505050505050565b8061279e81613bd3565b6127a757600080fd5b5050565b50600290565b60076020526000908152604090205481565b6127cc83613bd3565b612814576040805162461bcd60e51b81526020600482015260146024820152731b9bdd081d9bdd18589b19481c1c9bdc1bdcd85b60621b604482015290519081900360640190fd5b60008211612860576040805162461bcd60e51b815260206004820152601460248201527334b73b30b634b2103b37ba32a232b1b4b9b4b7b760611b604482015290519081900360640190fd5b6000838152600a60209081526040808320338452909152902054156128bc576040805162461bcd60e51b815260206004820152600d60248201526c185b1c9958591e481d9bdd1959609a1b604482015290519081900360640190fd5b6000838152600a6020908152604080832033808552908352928190208581556001018490558051868152918201929092528082018490526060810183905290517f0aad680ea090e3d71ef3942023475bbf0e4092d03db1a09f00e9a8f2e046e2829181900360800190a1505050565b600860209081526000928352604080842090915290825290205481565b600181565b6000918252600160209081526040808420928452600f909201905290205490565b6003602052600090815260409020546001600160a01b031681565b60046020526000908152604090205481565b6129a484613bd3565b6129ec576040805162461bcd60e51b81526020600482015260146024820152731b9bdd081d9bdd18589b19481c1c9bdc1bdcd85b60621b604482015290519081900360640190fd5b60008211612a36576040805162461bcd60e51b81526020600482015260126024820152713bb937b733903b37ba32a232b1b4b9b4b7b760711b604482015290519081900360640190fd5b6000848152600a602090815260408083206001600160a01b0387168452909152902054612a9e576040805162461bcd60e51b81526020600482015260116024820152701ddc9bdb99c81d9bdd19481cda185c9959607a1b604482015290519081900360640190fd5b612aaa84848484613c46565b506000848152600a602090815260408083206001600160a01b038716845282528083208381556001908101849055878452909152902054612aeb903361427d565b50505050565b600081815260016020526040812060056001820154600160a01b900460ff166006811115612b1b57fe5b1480612b40575060066001820154600160a01b900460ff166006811115612b3e57fe5b145b612b7b5760405162461bcd60e51b815260040180806020018281038252603381526020018061533e6033913960400191505060405180910390fd5b612b848361464d565b612bd5576040805162461bcd60e51b815260206004820152601760248201527f70726f706f73616c206e65656420746f20657870697265000000000000000000604482015290519081900360640190fd5b612c01612bf4600b83016001015460048401549063ffffffff61102c16565b429063ffffffff61459716565b600a820155612c0f836115ce565b6008820154909250612c27908363ffffffff61459716565b60088201556006546040805163a9059cbb60e01b81523360048201526024810185905290516001600160a01b039092169163a9059cbb916044808201926020929091908290030181600087803b158015612c8057600080fd5b505af1158015612c94573d6000803e3d6000fd5b505050506040513d6020811015612caa57600080fd5b5051612cfd576040805162461bcd60e51b815260206004820152601d60248201527f7472616e7366657220746f206d73672e73656e646572206661696c6564000000604482015290519081900360640190fd5b604080518381529051339185917f7468017f6ff596af88244327e88fe691ac48cc1db88b033d11c335f2c7ccdd039181900360200190a350919050565b600061108982613bd3565b3360009081526009602052604090206001810192909255600290910155565b612d6c61522c565b60008281526001602052604090819020815160608101909252600b0160038282826020028201915b815481526020019060010190808311612d945750505050509050919050565b612dbb61522c565b600083815260016020526040902060026001820154600160a01b900460ff166006811115612de557fe5b1480612e095750600180820154600160a01b900460ff166006811115612e0757fe5b145b612e445760405162461bcd60e51b815260040180806020018281038252602d81526020018061529c602d913960400191505060405180910390fd5b612e4c6150fc565b5060058082015460009081526020818152604080832081516101a081018352815481526001820154818501526002808301548285015260038301546060830152600483015460808301529582015460a0820152600682015460c0820152600782015460e082015260088201546101008201526009820154610120820152600a820154610140820152600b820154610160820152600c909101546001600160a01b039081166101808301528816845260138601835281842094860154845260128601909252822054909291612f58612f22896115ce565b600160009081526012880160205260408082205460028352912054612f4c9163ffffffff61102c16565b9063ffffffff61459716565b60018401549091501561302357600180860154600160a01b900460ff166006811115612f8057fe5b1415612f92576001830154865261301b565b60028501548354141561301b57825460011415612ff9578085600701541015612ff4576000612fce86600701548361459790919063ffffffff16565b905082612fe88286600101546143bd90919063ffffffff16565b81612fef57fe5b048752505b61301b565b60018301548290613010908363ffffffff6143bd16565b8161301757fe5b0486525b600060018401555b600e85015460ff16158015613053575084546000908152600360205260409020546001600160a01b038881169116145b80156130785750600180860154600160a01b900460ff16600681111561307557fe5b14155b8015613088575060028560020154145b156130d95760078501546130c790612f4c846130aa838663ffffffff6143bd16565b816130b157fe5b048960005b60200201519063ffffffff61102c16565b8652600e8501805460ff191660011790555b6001600160a01b0387166000908152601186016020526040902060018101541580159061310a5750600281015460ff165b1561324957600180870154600160a01b900460ff16600681111561312a57fe5b141561316057606461314e86610100015183600101546143bd90919063ffffffff16565b8161315557fe5b046020880152613241565b8054600287015414156132415760006001876002015414156131955750600260009081526010870160205260409020546131aa565b50600160009081526010870160205260409020545b60646131c4876101000151836143bd90919063ffffffff16565b816131cb57fe5b6002890154600090815260108a016020526040902054600185015492909104925061323a91613200908463ffffffff6143bd16565b8161320757fe5b04606461322689610100015186600101546143bd90919063ffffffff16565b8161322d57fe5b049063ffffffff61102c16565b6020890152505b600060018201555b60038601546001600160a01b03898116911614801561326c575060018660020154145b8015613284575060038601546001600160a01b031615155b156132a65760e085015160408801526003860180546001600160a01b03191690555b8651156133f357865160088701546132bd91614597565b600887015560065487516040805163a9059cbb60e01b81526001600160a01b038c8116600483015260248201939093529051919092169163a9059cbb9160448083019260209291908290030181600087803b15801561331b57600080fd5b505af115801561332f573d6000803e3d6000fd5b505050506040513d602081101561334557600080fd5b5051613398576040805162461bcd60e51b815260206004820152601e60248201527f7472616e7366657220746f2062656e6566696369617279206661696c65640000604482015290519081900360640190fd5b8554600090815260036020908152604091829020548951835190815292516001600160a01b038c8116949216928d927f6d26871c9f457d104b2122485f659f126f7a0cf6938cf20482c03f49794a2fbf929081900390910190a45b6040870151613404908860016130b6565b156135185760018601546001600160a01b031663d29b5d2f61342f89600260200201518a60016130b6565b8a8c6040518463ffffffff1660e01b815260040180848152602001836001600160a01b03166001600160a01b031681526020018281526020019350505050602060405180830381600087803b15801561348757600080fd5b505af115801561349b573d6000803e3d6000fd5b505050506040513d60208110156134b157600080fd5b505085546000908152600360205260409020546001600160a01b03808a1691168a7f7419b736daacf66d5c1645948c956fca2b83be1e2e02d486d65713f289d683b86135068b600260200201518c60016130b6565b60408051918252519081900360200190a45b50505050505092915050565b6000908152600160208181526040808420838552600f81018352818520546002808752838720548688526010840186528488205482895285892054978952601290940190955283872054908752929095205494959294909392565b6000611089826145d9565b60008161359681613bd3565b61359f57600080fd5b6135a88361464d565b9392505050565b60026020526000908152604090205481565b6001600160a01b0387163014613614576040805162461bcd60e51b815260206004820152601360248201527277726f6e6720766f74696e674d616368696e6560681b604482015290519081900360640190fd5b61361d86613bd3565b613665576040805162461bcd60e51b81526020600482015260146024820152731b9bdd081d9bdd18589b19481c1c9bdc1bdcd85b60621b604482015290519081900360640190fd5b600084116136af576040805162461bcd60e51b81526020600482015260126024820152713bb937b733903b37ba32a232b1b4b9b4b7b760711b604482015290519081900360640190fd5b61370082828080601f01602080910402602001604051908101604052809392919081815260200183838082843760009201919091525061263392506136fb91508b90508a8a8a8a611c08565b614458565b6001600160a01b0316856001600160a01b031614613754576040805162461bcd60e51b815260206004820152600c60248201526b3bb937b7339039b4b3b732b960a11b604482015290519081900360640190fd5b61376086868686613c46565b5060008681526001602052604090205461377a903361427d565b50505050505050565b60008282650100000000005b81156113285781600116600114156137ae576137ab8184614f5e565b90505b60019190911c9081156137c8576137c58384614f5e565b92505b61378f565b6000600284111580156137e05750600084115b613824576040805162461bcd60e51b815260206004820152601060248201526f77726f6e6720766f74652076616c756560801b604482015290519081900360640190fd5b60008311613879576040805162461bcd60e51b815260206004820152601b60248201527f7374616b696e6720616d6f756e742073686f756c64206265203e300000000000604482015290519081900360640190fd5b6138828561464d565b1561388f5750600161133f565b600085815260016020526040902060046001820154600160a01b900460ff1660068111156138b957fe5b141580156138e1575060036001820154600160a01b900460ff1660068111156138de57fe5b14155b156138f057600091505061133f565b6001600160a01b0383166000908152601382016020526040902060018101541580159061391e575080548614155b1561392e5760009250505061133f565b600654604080516323b872dd60e01b81526001600160a01b038781166004830152306024830152604482018990529151889392909216916323b872dd916064808201926020929091908290030181600087803b15801561398d57600080fd5b505af11580156139a1573d6000803e3d6000fd5b505050506040513d60208110156139b757600080fd5b5051613a0a576040805162461bcd60e51b815260206004820152601960248201527f6661696c207472616e736665722066726f6d207374616b657200000000000000604482015290519081900360640190fd5b6008830154613a1f908263ffffffff61102c16565b60088401556001820154613a39908263ffffffff61102c16565b60018301819055600160801b1015613a98576040805162461bcd60e51b815260206004820152601a60248201527f7374616b696e6720616d6f756e7420697320746f6f2068696768000000000000604482015290519081900360640190fd5b6006830154613ab290600160801b9063ffffffff61459716565b83600801541115613b0a576040805162461bcd60e51b815260206004820152601860248201527f746f74616c207374616b657320697320746f6f20686967680000000000000000604482015290519081900360640190fd5b6001871415613b2e576002820154613b28908263ffffffff61102c16565b60028301555b8682556000878152601284016020526040902054613b5390829063ffffffff61102c16565b60008881526012850160209081526040808320939093558554825260038152908290205482518a815291820189905282516001600160a01b03808a16949216928c927fd0239d7d4acf51def4507fa173be466927de5d75d8b10d840cd6994d6e10231092918290030190a4613bc78861464d565b98975050505050505050565b600081815260016020819052604082200154600160a01b900460ff166004816006811115613bfd57fe5b1480613c1457506005816006811115613c1257fe5b145b80613c2a57506006816006811115613c2857fe5b145b806135a857506003816006811115613c3e57fe5b149392505050565b600060028311158015613c595750600083115b613c9b576040805162461bcd60e51b815260206004820152600e60248201526d18101e102fbb37ba32901e1e901960911b604482015290519081900360640190fd5b613ca48561464d565b15613cb15750600161133f565b613cb96150fc565b506000858152600160208181526040808420600580820154865285845282862083516101a0810185528154815281870154818701526002820154818601526003820154606082015260048083015460808301529282015460a0820152600682015460c0820152600782015460e082015260088201546101008201526009820154610120820152600a820154610140820152600b820154610160820152600c909101546001600160a01b039081166101808301528c8852868652958301548451634ac41bc760e11b81528c881693810193909352602483018d905293519096929592949390921692639588378e92604480840193829003018186803b158015613dc057600080fd5b505afa158015613dd4573d6000803e3d6000fd5b505050506040513d6020811015613dea57600080fd5b5051905080613e40576040805162461bcd60e51b815260206004820152601b60248201527f5f766f746572206d75737420686176652072657075746174696f6e0000000000604482015290519081900360640190fd5b84811015613e8a576040805162461bcd60e51b8152602060048201526012602482015271072657075746174696f6e203e3d205f7265760741b604482015290519081900360640190fd5b8480613e935750805b6001600160a01b038816600090815260118401602052604090206001015415613ec357600094505050505061133f565b6000878152600f84016020526040902054613ee590829063ffffffff61102c16565b6000888152600f8501602052604080822083905560028601548252812054908990521080613f3d57506002808401546000908152600f8501602052604080822054928252902054148015613f3d575060018360020154145b1561404c5760056001840154600160a01b900460ff166006811115613f5e57fe5b148015613f7e575060c0840151604085015103600b840160010154420310155b80613fa2575060066001840154600160a01b900460ff166006811115613fa057fe5b145b156140445760066001840154600160a01b900460ff166006811115613fc357fe5b1461403d5760c0840151600484015560018301805460ff60a01b1916600360a11b17908190556040518a917f21aca7f0285ccddeca2935074d3e36b5ab8fea0327f84cbbf12cf1b6d1a749f991600160a01b90910460ff16908082600681111561402957fe5b60ff16815260200191505060405180910390a25b42600c8401555b600283018790555b604080516060810182528881526020810183905290810160046001860154600160a01b900460ff16600681111561407f57fe5b14806140a4575060036001860154600160a01b900460ff1660068111156140a257fe5b145b151590526001600160a01b0389166000908152601185016020908152604091829020835181559083015160018201559101516002909101805460ff191691151591909117905560046001840154600160a01b900460ff16600681111561410657fe5b148061412b575060036001840154600160a01b900460ff16600681111561412957fe5b145b1561421857600087815260108401602052604090205461415290829063ffffffff61102c16565b600088815260108501602052604081209190915561010085015160649061417f908463ffffffff6143bd16565b8161418657fe5b600186015460408051637c0fc5fb60e11b815293909204600484018190526001600160a01b038d81166024860152604485018f9052925190945091169163f81f8bf69160648083019260209291908290030181600087803b1580156141ea57600080fd5b505af11580156141fe573d6000803e3d6000fd5b505050506040513d602081101561421457600080fd5b5050505b82546000908152600360209081526040918290205482518a815291820184905282516001600160a01b03808d16949216928d927f066c061a3792cb3eb64a441a928655fcbafb4a54b49725fe9cd2951df5e7189e92918290030190a461158b8961464d565b6000828152600360209081526040808320546001600160a01b0316808452600990925290912060010154156143a2576001600160a01b038116600090815260096020526040812060020154614305906142dd903a9063ffffffff6143a716565b6001600160a01b0384166000908152600960205260409020600101549063ffffffff6143bd16565b6001600160a01b0383166000908152600960205260409020549091508111612aeb576040516001600160a01b0384169082156108fc029083906000818181858888f1935050505015801561435d573d6000803e3d6000fd5b506001600160a01b038216600090815260096020526040902054614387908263ffffffff61459716565b6001600160a01b038316600090815260096020526040902055505b505050565b60008183106143b65781611086565b5090919050565b6000826143cc57506000611089565b828202828482816143d957fe5b04146110865760405162461bcd60e51b815260040180806020018281038252602181526020018061531d6021913960400191505060405180910390fd5b600061108683836040518060400160405280601a81526020017f536166654d6174683a206469766973696f6e206279207a65726f000000000000815250614fc2565b604080517f19457468657265756d205369676e6564204d6573736167653a0a333200000000602080830191909152603c8083019490945282518083039094018452605c909101909152815191012090565b600081516041146144bc57506000611089565b60208201516040830151606084015160001a7f7fffffffffffffffffffffffffffffff5d576e7357a4501ddfe92f46681b20a08211156145025760009350505050611089565b8060ff16601b1415801561451a57508060ff16601c14155b1561452b5760009350505050611089565b6040805160008152602080820180845289905260ff8416828401526060820186905260808201859052915160019260a0808401939192601f1981019281900390910190855afa158015614582573d6000803e3d6000fd5b5050604051601f190151979650505050505050565b600061108683836040518060400160405280601e81526020017f536166654d6174683a207375627472616374696f6e206f766572666c6f770000815250615064565b600081815260016020818152604080842060028552601281019092528084205492845283205490916135a8916001600160d81b03169063ffffffff61462a16565b6000818310156143b65781611086565b60006110866001600160d81b0380851665010000000000908102918516026150be565b60008161465981613bd3565b61466257600080fd5b60008381526001602052604090206146786150fc565b506005808201546000908152602081815260409182902082516101a0810184528154815260018201549281019290925260028101549282019290925260038201546060820152600482015460808201529181015460a0830152600681015460c0830152600781015460e083015260088101546101008301526009810154610120830152600a810154610140830152600b810154610160830152600c01546001600160a01b031661018082015261472c61516d565b604080516101c0810182528454815260018501546001600160a01b03811660208301529091859190830190600160a01b900460ff16600681111561476c57fe5b600681111561477757fe5b8152600282015460208201526003808301546001600160a01b0316604080840191909152600484015460608085019190915260058501546080850152600685015460a0850152600785015460c0850152600885015460e08501526009850154610100850152600a8501546101208501528151908101918290526101409093019291600b85019182845b815481526020019060010190808311614800575050509183525050600e919091015460ff16151560209182015260018501546040805163b551c37360e01b8152600481018b905290519394506000936001600160a01b039092169263b551c37392602480840193829003018186803b15801561487b57600080fd5b505afa15801561488f573d6000803e3d6000fd5b505050506040513d60208110156148a557600080fd5b505183518554600090815260086020908152604080832060058a0154845282528083205460028a01548452600f8a0190925282205493945060648504909202926127108504830291908190819086101561497657600360018b0154600160a01b900460ff16600681111561491557fe5b14156149245760019250614954565b600460018b0154600160a01b900460ff16600681111561494057fe5b141561494f5760039250614954565b600592505b60018a0180546002919060ff60a01b1916600160a01b835b0217905550614bc7565b600360018b0154600160a01b900460ff16600681111561499257fe5b1415614a14576020890151600b8b01544203106149cd5760018a01805460ff60a01b1916600160a01b1790556002808b018190559250614a14565b6149df8a600501548b600001546112e4565b9050806149eb8e6145d9565b1115614a145760018a01805460ff60a01b1916600160a21b17905542600d8b015560098a018190555b600460018b0154600160a01b900460ff166006811115614a3057fe5b1415614bc757614a488a600501548b600001546112e4565b60608a0151909150600b8b0160020154420310614b385780614a698e6145d9565b1115614b175789546000908152600260205260409020546110001115614b125760018a8101805460ff60a01b1916600560a01b17905560608a0151600d8c015401600c8c01558a54600090815260026020818152604080842080549095019094558d54835260048152838320548282528484205492845260128f0190915292909120549193509083900381614afa57fe5b8b546000908152600460205260409020919005830190555b614b33565b60018a0180546003919060ff60a01b1916600160a01b8361496c565b614bc7565b6000614b438e6145d9565b60098c0154909150614b5b908363ffffffff6143a716565b8111614b7b5760018b01805460ff60a01b1916600360a01b179055614bc5565b808b600901541115614bc55760098b018290556040805183815290518f917fad767d61af51c7895fa3cc0497dde01afb610c74e55ee4d8a71fa5e3ee136d54919081900360200190a25b505b600560018b0154600160a01b900460ff166006811115614be357fe5b1480614c085750600660018b0154600160a01b900460ff166006811115614c0657fe5b145b15614c785760048a0154600c8b0154420310614c785760028a01546000908152600f8b0160205260409020548411614c585760018a01805460ff60a01b1916600160a11b17905560059250614c78565b60018a01805460ff60a01b1916600160a01b1790556002808b0155600492505b6000836005811115614c8657fe5b14614eb6576005836005811115614c9957fe5b1415614d55578751600090815260026020526040902054614cc190600163ffffffff61459716565b88516000908152600260205260408082209290925589518152205480614cf7578a54600090815260046020526040812055614d53565b8a546000908152600460209081526040808320546002845260128f01909252909120549093508190614d3690612f4c866001850163ffffffff6143bd16565b81614d3d57fe5b8c54600090815260046020526040902091900490555b505b600360008b60000154815260200190815260200160002060009054906101000a90046001600160a01b03166001600160a01b03168d7f37471b9c9d295ffb1309ad070b8964700bfb7b555e8e8292d0b6cbc7dba35d108c600201548a604051808381526020018281526020019250505060405180910390a38c7f46a713b994c752c68fbefa9048bec9a0010cc7d933ad95a3c3dbb25931a167e78460405180826005811115614e0057fe5b60ff16815260200191505060405180910390a289600601548a600701819055508960010160009054906101000a90046001600160a01b03166001600160a01b0316639d4c162d8e8c600201546040518363ffffffff1660e01b81526004018083815260200182815260200192505050602060405180830381600087803b158015614e8957600080fd5b505af1158015614e9d573d6000803e3d6000fd5b505050506040513d6020811015614eb357600080fd5b50505b60018a0154600160a01b900460ff166006811115614ed057fe5b88604001516006811115614ee057fe5b14614f3d578c7f21aca7f0285ccddeca2935074d3e36b5ab8fea0327f84cbbf12cf1b6d1a749f98b60010160149054906101000a900460ff1660405180826006811115614f2957fe5b60ff16815260200191505060405180910390a25b6000836005811115614f4b57fe5b14159d9c50505050505050505050505050565b600082820282848281614f6d57fe5b0414614fb8576040805162461bcd60e51b81526020600482015260156024820152745265616c4d617468206d756c206f766572666c6f7760581b604482015290519081900360640190fd5b60281c9392505050565b6000818361504e5760405162461bcd60e51b81526004018080602001828103825283818151815260200191508051906020019080838360005b83811015615013578181015183820152602001614ffb565b50505050905090810190601f1680156150405780820380516001836020036101000a031916815260200191505b509250505060405180910390fd5b50600083858161505a57fe5b0495945050505050565b600081848411156150b65760405162461bcd60e51b8152602060048201818152835160248401528351909283926044909101919085019080838360008315615013578181015183820152602001614ffb565b505050900390565b600081650100000000008402816150d157fe5b049392505050565b604051806060016040528060008152602001600081526020016000151581525090565b604051806101a0016040528060008152602001600081526020016000815260200160008152602001600081526020016000815260200160008152602001600081526020016000815260200160008152602001600081526020016000815260200160006001600160a01b031681525090565b604080516101c081018252600080825260208201819052909182019081526020016000815260200160006001600160a01b03168152602001600081526020016000801916815260200160008152602001600081526020016000815260200160008152602001600081526020016151e161522c565b8152600060209091015290565b826003810192821561521c579160200282015b8281111561521c578251825591602001919060010190615201565b5061522892915061524a565b5090565b60405180606001604052806003906020820280388339509192915050565b6118e591905b808211156152285760008155600101615250565b6000813f7fc5d2460186f7233c927e7db2dcc703c0e500b653ca82273b7bfad8045d85a470811580159061133f575014159291505056fe50726f706f73616c2073686f756c64206265204578656375746564206f722045787069726564496e5175657565626f6f73746564566f7465506572696f644c696d6974203e3d207175696574456e64696e67506572696f643530203c3d20717565756564566f7465526571756972656450657263656e74616765203c3d20313030536166654d6174683a206d756c7469706c69636174696f6e206f766572666c6f7770726f706f73616c20737461746520696e206e6f7420426f6f73746564206e6f72205175696574456e64696e67506572696f64a265627a7a723158208a55d6e415e2305f34318b454bd2995aeb3f72002ef5ab9cba498d2c61b7a5a064736f6c63430005110032",
  "linkReferences": {},
  "deployedLinkReferences": {}
}