{
  "_format": "hh-sol-artifact-1",
  "contractName": "DxReputation",
  "sourceName": "dxdao-contracts/contracts/dxdao/DxReputation.sol",
  "abi": [
    {
      "inputs": [],
      "payable": false,
      "stateMutability": "nonpayable",
      "type": "constructor"
    },
    {
      "anonymous": false,
      "inputs": [
        {
          "indexed": true,
          "internalType": "address",
          "name": "_from",
          "type": "address"
        },
        {
          "indexed": false,
          "internalType": "uint256",
          "name": "_amount",
          "type": "uint256"
        }
      ],
      "name": "Burn",
      "type": "event"
    },
    {
      "anonymous": false,
      "inputs": [
        {
          "indexed": true,
          "internalType": "address",
          "name": "_to",
          "type": "address"
        },
        {
          "indexed": false,
          "internalType": "uint256",
          "name": "_amount",
          "type": "uint256"
        }
      ],
      "name": "Mint",
      "type": "event"
    },
    {
      "anonymous": false,
      "inputs": [
        {
          "indexed": true,
          "internalType": "address",
          "name": "previousOwner",
          "type": "address"
        },
        {
          "indexed": true,
          "internalType": "address",
          "name": "newOwner",
          "type": "address"
        }
      ],
      "name": "OwnershipTransferred",
      "type": "event"
    },
    {
      "constant": true,
      "inputs": [
        {
          "internalType": "address",
          "name": "_owner",
          "type": "address"
        }
      ],
      "name": "balanceOf",
      "outputs": [
        {
          "internalType": "uint256",
          "name": "balance",
          "type": "uint256"
        }
      ],
      "payable": false,
      "stateMutability": "view",
      "type": "function"
    },
    {
      "constant": true,
      "inputs": [
        {
          "internalType": "address",
          "name": "_owner",
          "type": "address"
        },
        {
          "internalType": "uint256",
          "name": "_blockNumber",
          "type": "uint256"
        }
      ],
      "name": "balanceOfAt",
      "outputs": [
        {
          "internalType": "uint256",
          "name": "",
          "type": "uint256"
        }
      ],
      "payable": false,
      "stateMutability": "view",
      "type": "function"
    },
    {
      "constant": false,
      "inputs": [
        {
          "internalType": "address",
          "name": "_user",
          "type": "address"
        },
        {
          "internalType": "uint256",
          "name": "_amount",
          "type": "uint256"
        }
      ],
      "name": "burn",
      "outputs": [
        {
          "internalType": "bool",
          "name": "",
          "type": "bool"
        }
      ],
      "payable": false,
      "stateMutability": "nonpayable",
      "type": "function"
    },
    {
      "constant": true,
      "inputs": [],
      "name": "decimals",
      "outputs": [
        {
          "internalType": "uint8",
          "name": "",
          "type": "uint8"
        }
      ],
      "payable": false,
      "stateMutability": "view",
      "type": "function"
    },
    {
      "constant": true,
      "inputs": [],
      "name": "isOwner",
      "outputs": [
        {
          "internalType": "bool",
          "name": "",
          "type": "bool"
        }
      ],
      "payable": false,
      "stateMutability": "view",
      "type": "function"
    },
    {
      "constant": false,
      "inputs": [
        {
          "internalType": "address",
          "name": "_user",
          "type": "address"
        },
        {
          "internalType": "uint256",
          "name": "_amount",
          "type": "uint256"
        }
      ],
      "name": "mint",
      "outputs": [
        {
          "internalType": "bool",
          "name": "",
          "type": "bool"
        }
      ],
      "payable": false,
      "stateMutability": "nonpayable",
      "type": "function"
    },
    {
      "constant": false,
      "inputs": [
        {
          "internalType": "address[]",
          "name": "_user",
          "type": "address[]"
        },
        {
          "internalType": "uint256[]",
          "name": "_amount",
          "type": "uint256[]"
        }
      ],
      "name": "mintMultiple",
      "outputs": [
        {
          "internalType": "bool",
          "name": "",
          "type": "bool"
        }
      ],
      "payable": false,
      "stateMutability": "nonpayable",
      "type": "function"
    },
    {
      "constant": true,
      "inputs": [],
      "name": "owner",
      "outputs": [
        {
          "internalType": "address",
          "name": "",
          "type": "address"
        }
      ],
      "payable": false,
      "stateMutability": "view",
      "type": "function"
    },
    {
      "constant": false,
      "inputs": [],
      "name": "renounceOwnership",
      "outputs": [],
      "payable": false,
      "stateMutability": "nonpayable",
      "type": "function"
    },
    {
      "constant": true,
      "inputs": [],
      "name": "totalSupply",
      "outputs": [
        {
          "internalType": "uint256",
          "name": "",
          "type": "uint256"
        }
      ],
      "payable": false,
      "stateMutability": "view",
      "type": "function"
    },
    {
      "constant": true,
      "inputs": [
        {
          "internalType": "uint256",
          "name": "_blockNumber",
          "type": "uint256"
        }
      ],
      "name": "totalSupplyAt",
      "outputs": [
        {
          "internalType": "uint256",
          "name": "",
          "type": "uint256"
        }
      ],
      "payable": false,
      "stateMutability": "view",
      "type": "function"
    },
    {
      "constant": false,
      "inputs": [
        {
          "internalType": "address",
          "name": "newOwner",
          "type": "address"
        }
      ],
      "name": "transferOwnership",
      "outputs": [],
      "payable": false,
      "stateMutability": "nonpayable",
      "type": "function"
    }
  ],
  "bytecode": "0x60806040526000805460ff60a01b1916600960a11b17905534801561002357600080fd5b506100356001600160e01b0361008216565b600080546001600160a01b0319166001600160a01b03928316178082556040519216917f8be0079c531659141344cd1fd0a4f28419497f9722a3daafe3b4186f6b6457e0908290a3610086565b3390565b610de5806100956000396000f3fe608060405234801561001057600080fd5b50600436106100b45760003560e01c8063715018a611610071578063715018a6146102aa5780638da5cb5b146102b45780638f32d59b146102d8578063981b24d0146102e05780639dc29fac146102fd578063f2fde38b14610329576100b4565b806307ea5477146100b957806318160ddd146101f4578063313ce5671461020e57806340c10f191461022c5780634ee2cd7e1461025857806370a0823114610284575b600080fd5b6101e0600480360360408110156100cf57600080fd5b8101906020810181356401000000008111156100ea57600080fd5b8201836020820111156100fc57600080fd5b8035906020019184602083028401116401000000008311171561011e57600080fd5b919080806020026020016040519081016040528093929190818152602001838360200280828437600092019190915250929594936020810193503591505064010000000081111561016e57600080fd5b82018360208201111561018057600080fd5b803590602001918460208302840111640100000000831117156101a257600080fd5b91908080602002602001604051908101604052809392919081815260200183836020028082843760009201919091525092955061034f945050505050565b604080519115158252519081900360200190f35b6101fc6104f7565b60408051918252519081900360200190f35b610216610508565b6040805160ff9092168252519081900360200190f35b6101e06004803603604081101561024257600080fd5b506001600160a01b038135169060200135610518565b6101fc6004803603604081101561026e57600080fd5b506001600160a01b0381351690602001356105f9565b6101fc6004803603602081101561029a57600080fd5b50356001600160a01b0316610689565b6102b261069d565b005b6102bc61072e565b604080516001600160a01b039092168252519081900360200190f35b6101e061073d565b6101fc600480360360208110156102f657600080fd5b5035610761565b6101e06004803603604081101561031357600080fd5b506001600160a01b0381351690602001356107b3565b6102b26004803603602081101561033f57600080fd5b50356001600160a01b0316610884565b600061035961073d565b610398576040805162461bcd60e51b81526020600482018190526024820152600080516020610d91833981519152604482015290519081900360640190fd5b60006103a26104f7565b90506000805b85518110156104cf5760006103cf8783815181106103c257fe5b6020026020010151610689565b9050828683815181106103de57fe5b6020026020010151840110156103f357600080fd5b8582815181106103ff57fe5b6020026020010151830192508086838151811061041857fe5b60200260200101518201101561042d57600080fd5b61045f87838151811061043c57fe5b602002602001015187848151811061045057fe5b602002602001015183016108d7565b86828151811061046b57fe5b60200260200101516001600160a01b03167f0f6798a560793a54c3bcfe86a93cde1e73087d944c0ea20544137d41213968858784815181106104a957fe5b60200260200101516040518082815260200191505060405180910390a2506001016103a8565b508182820110156104df57600080fd5b6104ea828201610a68565b6001925050505b92915050565b600061050243610761565b90505b90565b600054600160a01b900460ff1681565b600061052261073d565b610561576040805162461bcd60e51b81526020600482018190526024820152600080516020610d91833981519152604482015290519081900360640190fd5b600061056b6104f7565b905080838201101561057c57600080fd5b600061058785610689565b905080848201101561059857600080fd5b6105a3848301610a68565b6105af858583016108d7565b6040805185815290516001600160a01b038716917f0f6798a560793a54c3bcfe86a93cde1e73087d944c0ea20544137d4121396885919081900360200190a2506001949350505050565b6001600160a01b038216600090815260016020526040812054158061065357506001600160a01b0383166000908152600160205260408120805484929061063c57fe5b6000918252602090912001546001600160801b0316115b15610660575060006104f1565b6001600160a01b03831660009081526001602052604090206106829083610b4f565b90506104f1565b600061069582436105f9565b90505b919050565b6106a561073d565b6106e4576040805162461bcd60e51b81526020600482018190526024820152600080516020610d91833981519152604482015290519081900360640190fd5b600080546040516001600160a01b03909116907f8be0079c531659141344cd1fd0a4f28419497f9722a3daafe3b4186f6b6457e0908390a3600080546001600160a01b0319169055565b6000546001600160a01b031690565b600080546001600160a01b0316610752610c7f565b6001600160a01b031614905090565b6002546000901580610794575081600260008154811061077d57fe5b6000918252602090912001546001600160801b0316115b156107a157506000610698565b6107ac600283610b4f565b9050610698565b60006107bd61073d565b6107fc576040805162461bcd60e51b81526020600482018190526024820152600080516020610d91833981519152604482015290519081900360640190fd5b60006108066104f7565b905082600061081486610689565b905081811015610822578091505b61082d828403610a68565b610839868383036108d7565b6040805183815290516001600160a01b038816917fcc16f5dbb4873280815c1ee09dbd06736cffcc184412cf7a71a0fdb75d397ca5919081900360200190a250600195945050505050565b61088c61073d565b6108cb576040805162461bcd60e51b81526020600482018190526024820152600080516020610d91833981519152604482015290519081900360640190fd5b6108d481610c83565b50565b80816001600160801b0316146108ec57600080fd5b6001600160a01b038216600090815260016020526040902054158061094e57506001600160a01b03821660009081526001602052604090208054439190600019810190811061093757fe5b6000918252602090912001546001600160801b0316105b15610a12576001600160a01b03821660009081526001602081905260409091208054439261097f9083908301610d23565b8154811061098957fe5b600091825260208083209190910180546001600160801b0319166001600160801b0394909416939093179092556001600160a01b038416815260019182905260409020805483926109dd9083908301610d23565b815481106109e757fe5b600091825260209091200180546001600160801b03928316600160801b029216919091179055610a64565b6001600160a01b038216600090815260016020526040902080548291906000198101908110610a3d57fe5b600091825260209091200180546001600160801b03928316600160801b0292169190911790555b5050565b80816001600160801b031614610a7d57600080fd5b6002541580610ab35750600280544391906000198101908110610a9c57fe5b6000918252602090912001546001600160801b0316105b15610b12576002805460009190610acd8260018301610d23565b81548110610ad757fe5b600091825260209091200180546001600160801b03848116600160801b024382166001600160801b03199093169290921716179055506108d4565b60028054600091906000198101908110610b2857fe5b600091825260209091200180546001600160801b03808516600160801b0291161790555050565b8154600090610b60575060006104f1565b825483906000198101908110610b7257fe5b6000918252602090912001546001600160801b03168210610bc257825483906000198101908110610b9f57fe5b600091825260209091200154600160801b90046001600160801b031690506104f1565b82600081548110610bcf57fe5b6000918252602090912001546001600160801b0316821015610bf3575060006104f1565b8254600090600019015b81811115610c4e576000600260018385010104905084868281548110610c1f57fe5b6000918252602090912001546001600160801b031611610c4157809250610c48565b6001810391505b50610bfd565b848281548110610c5a57fe5b600091825260209091200154600160801b90046001600160801b031695945050505050565b3390565b6001600160a01b038116610cc85760405162461bcd60e51b8152600401808060200182810382526026815260200180610d6b6026913960400191505060405180910390fd5b600080546040516001600160a01b03808516939216917f8be0079c531659141344cd1fd0a4f28419497f9722a3daafe3b4186f6b6457e091a3600080546001600160a01b0319166001600160a01b0392909216919091179055565b815481835581811115610d4757600083815260209020610d47918101908301610d4c565b505050565b61050591905b80821115610d665760008155600101610d52565b509056fe4f776e61626c653a206e6577206f776e657220697320746865207a65726f20616464726573734f776e61626c653a2063616c6c6572206973206e6f7420746865206f776e6572a265627a7a7231582010b79fa7c720247275a956758d424275626411ad6b9a804ade0264ee4f3b98c464736f6c63430005110032",
  "linkReferences": {},
  "deployedLinkReferences": {}
}