{
  "contractName": "DxReputation",
  "abi": [
    {
      "inputs": [],
      "payable": false,
      "stateMutability": "nonpayable",
      "type": "constructor"
    },
    {
      "anonymous": false,
      "inputs": [
        {
          "indexed": true,
          "internalType": "address",
          "name": "_from",
          "type": "address"
        },
        {
          "indexed": false,
          "internalType": "uint256",
          "name": "_amount",
          "type": "uint256"
        }
      ],
      "name": "Burn",
      "type": "event"
    },
    {
      "anonymous": false,
      "inputs": [
        {
          "indexed": true,
          "internalType": "address",
          "name": "_to",
          "type": "address"
        },
        {
          "indexed": false,
          "internalType": "uint256",
          "name": "_amount",
          "type": "uint256"
        }
      ],
      "name": "Mint",
      "type": "event"
    },
    {
      "anonymous": false,
      "inputs": [
        {
          "indexed": true,
          "internalType": "address",
          "name": "previousOwner",
          "type": "address"
        },
        {
          "indexed": true,
          "internalType": "address",
          "name": "newOwner",
          "type": "address"
        }
      ],
      "name": "OwnershipTransferred",
      "type": "event"
    },
    {
      "constant": true,
      "inputs": [
        {
          "internalType": "address",
          "name": "_owner",
          "type": "address"
        }
      ],
      "name": "balanceOf",
      "outputs": [
        {
          "internalType": "uint256",
          "name": "balance",
          "type": "uint256"
        }
      ],
      "payable": false,
      "stateMutability": "view",
      "type": "function"
    },
    {
      "constant": true,
      "inputs": [
        {
          "internalType": "address",
          "name": "_owner",
          "type": "address"
        },
        {
          "internalType": "uint256",
          "name": "_blockNumber",
          "type": "uint256"
        }
      ],
      "name": "balanceOfAt",
      "outputs": [
        {
          "internalType": "uint256",
          "name": "",
          "type": "uint256"
        }
      ],
      "payable": false,
      "stateMutability": "view",
      "type": "function"
    },
    {
      "constant": false,
      "inputs": [
        {
          "internalType": "address",
          "name": "_user",
          "type": "address"
        },
        {
          "internalType": "uint256",
          "name": "_amount",
          "type": "uint256"
        }
      ],
      "name": "burn",
      "outputs": [
        {
          "internalType": "bool",
          "name": "",
          "type": "bool"
        }
      ],
      "payable": false,
      "stateMutability": "nonpayable",
      "type": "function"
    },
    {
      "constant": true,
      "inputs": [],
      "name": "decimals",
      "outputs": [
        {
          "internalType": "uint8",
          "name": "",
          "type": "uint8"
        }
      ],
      "payable": false,
      "stateMutability": "view",
      "type": "function"
    },
    {
      "constant": true,
      "inputs": [],
      "name": "isOwner",
      "outputs": [
        {
          "internalType": "bool",
          "name": "",
          "type": "bool"
        }
      ],
      "payable": false,
      "stateMutability": "view",
      "type": "function"
    },
    {
      "constant": false,
      "inputs": [
        {
          "internalType": "address",
          "name": "_user",
          "type": "address"
        },
        {
          "internalType": "uint256",
          "name": "_amount",
          "type": "uint256"
        }
      ],
      "name": "mint",
      "outputs": [
        {
          "internalType": "bool",
          "name": "",
          "type": "bool"
        }
      ],
      "payable": false,
      "stateMutability": "nonpayable",
      "type": "function"
    },
    {
      "constant": false,
      "inputs": [
        {
          "internalType": "address[]",
          "name": "_user",
          "type": "address[]"
        },
        {
          "internalType": "uint256[]",
          "name": "_amount",
          "type": "uint256[]"
        }
      ],
      "name": "mintMultiple",
      "outputs": [
        {
          "internalType": "bool",
          "name": "",
          "type": "bool"
        }
      ],
      "payable": false,
      "stateMutability": "nonpayable",
      "type": "function"
    },
    {
      "constant": true,
      "inputs": [],
      "name": "owner",
      "outputs": [
        {
          "internalType": "address",
          "name": "",
          "type": "address"
        }
      ],
      "payable": false,
      "stateMutability": "view",
      "type": "function"
    },
    {
      "constant": false,
      "inputs": [],
      "name": "renounceOwnership",
      "outputs": [],
      "payable": false,
      "stateMutability": "nonpayable",
      "type": "function"
    },
    {
      "constant": true,
      "inputs": [],
      "name": "totalSupply",
      "outputs": [
        {
          "internalType": "uint256",
          "name": "",
          "type": "uint256"
        }
      ],
      "payable": false,
      "stateMutability": "view",
      "type": "function"
    },
    {
      "constant": true,
      "inputs": [
        {
          "internalType": "uint256",
          "name": "_blockNumber",
          "type": "uint256"
        }
      ],
      "name": "totalSupplyAt",
      "outputs": [
        {
          "internalType": "uint256",
          "name": "",
          "type": "uint256"
        }
      ],
      "payable": false,
      "stateMutability": "view",
      "type": "function"
    },
    {
      "constant": false,
      "inputs": [
        {
          "internalType": "address",
          "name": "newOwner",
          "type": "address"
        }
      ],
      "name": "transferOwnership",
      "outputs": [],
      "payable": false,
      "stateMutability": "nonpayable",
      "type": "function"
    }
  ],
  "bytecode": "0x60806040526000805460ff60a01b1916600960a11b17905534801561002357600080fd5b50600080546001600160a01b03191633178082556040516001600160a01b039190911691907f8be0079c531659141344cd1fd0a4f28419497f9722a3daafe3b4186f6b6457e0908290a3610b028061007c6000396000f3fe608060405234801561001057600080fd5b50600436106100b45760003560e01c8063715018a611610071578063715018a6146102aa5780638da5cb5b146102b45780638f32d59b146102d8578063981b24d0146102e05780639dc29fac146102fd578063f2fde38b14610329576100b4565b806307ea5477146100b957806318160ddd146101f4578063313ce5671461020e57806340c10f191461022c5780634ee2cd7e1461025857806370a0823114610284575b600080fd5b6101e0600480360360408110156100cf57600080fd5b8101906020810181356401000000008111156100ea57600080fd5b8201836020820111156100fc57600080fd5b8035906020019184602083028401116401000000008311171561011e57600080fd5b919080806020026020016040519081016040528093929190818152602001838360200280828437600092019190915250929594936020810193503591505064010000000081111561016e57600080fd5b82018360208201111561018057600080fd5b803590602001918460208302840111640100000000831117156101a257600080fd5b91908080602002602001604051908101604052809392919081815260200183836020028082843760009201919091525092955061034f945050505050565b604080519115158252519081900360200190f35b6101fc6104d1565b60408051918252519081900360200190f35b6102166104e2565b6040805160ff9092168252519081900360200190f35b6101e06004803603604081101561024257600080fd5b506001600160a01b0381351690602001356104f2565b6101fc6004803603604081101561026e57600080fd5b506001600160a01b0381351690602001356105b7565b6101fc6004803603602081101561029a57600080fd5b50356001600160a01b0316610647565b6102b261065b565b005b6102bc6106b6565b604080516001600160a01b039092168252519081900360200190f35b6101e06106c5565b6101fc600480360360208110156102f657600080fd5b50356106d6565b6101e06004803603604081101561031357600080fd5b506001600160a01b038135169060200135610728565b6102b26004803603602081101561033f57600080fd5b50356001600160a01b03166107dd565b60006103596106c5565b61036257600080fd5b60005b83518110156104c55760006103786104d1565b90508084838151811061038757fe5b60200260200101518201101561039c57600080fd5b60006103ba8684815181106103ad57fe5b6020026020010151610647565b9050808584815181106103c957fe5b6020026020010151820110156103de57600080fd5b6103fe60028685815181106103ef57fe5b602002602001015184016107fa565b6104546001600088868151811061041157fe5b60200260200101516001600160a01b03166001600160a01b0316815260200190815260200160002086858151811061044557fe5b602002602001015183016107fa565b85838151811061046057fe5b60200260200101516001600160a01b03167f0f6798a560793a54c3bcfe86a93cde1e73087d944c0ea20544137d412139688586858151811061049e57fe5b60200260200101516040518082815260200191505060405180910390a25050600101610365565b50600190505b92915050565b60006104dc436106d6565b90505b90565b600054600160a01b900460ff1681565b60006104fc6106c5565b61050557600080fd5b600061050f6104d1565b905080838201101561052057600080fd5b600061052b85610647565b905080848201101561053c57600080fd5b61054960028584016107fa565b6001600160a01b038516600090815260016020526040902061056d908286016107fa565b6040805185815290516001600160a01b038716917f0f6798a560793a54c3bcfe86a93cde1e73087d944c0ea20544137d4121396885919081900360200190a2506001949350505050565b6001600160a01b038216600090815260016020526040812054158061061157506001600160a01b038316600090815260016020526040812080548492906105fa57fe5b6000918252602090912001546001600160801b0316115b1561061e575060006104cb565b6001600160a01b038316600090815260016020526040902061064090836108e8565b90506104cb565b600061065382436105b7565b90505b919050565b6106636106c5565b61066c57600080fd5b600080546040516001600160a01b03909116907f8be0079c531659141344cd1fd0a4f28419497f9722a3daafe3b4186f6b6457e0908390a3600080546001600160a01b0319169055565b6000546001600160a01b031690565b6000546001600160a01b0316331490565b600254600090158061070957508160026000815481106106f257fe5b6000918252602090912001546001600160801b0316115b1561071657506000610656565b6107216002836108e8565b9050610656565b60006107326106c5565b61073b57600080fd5b60006107456104d1565b905082600061075386610647565b905081811015610761578091505b61076e60028385036107fa565b6001600160a01b0386166000908152600160205260409020610792908383036107fa565b6040805183815290516001600160a01b038816917fcc16f5dbb4873280815c1ee09dbd06736cffcc184412cf7a71a0fdb75d397ca5919081900360200190a250600195945050505050565b6107e56106c5565b6107ee57600080fd5b6107f781610a18565b50565b80816001600160801b03161461080f57600080fd5b815415806108435750815443908390600019810190811061082c57fe5b6000918252602090912001546001600160801b0316105b156108aa578154600090839061085c8260018301610a86565b8154811061086657fe5b600091825260209091200180546001600160801b03848116600160801b024382166fffffffffffffffffffffffffffffffff199093169290921716179055506108e4565b8154600090839060001981019081106108bf57fe5b600091825260209091200180546001600160801b03808516600160801b029116179055505b5050565b81546000906108f9575060006104cb565b82548390600019810190811061090b57fe5b6000918252602090912001546001600160801b0316821061095b5782548390600019810190811061093857fe5b600091825260209091200154600160801b90046001600160801b031690506104cb565b8260008154811061096857fe5b6000918252602090912001546001600160801b031682101561098c575060006104cb565b8254600090600019015b818111156109e75760006002600183850101049050848682815481106109b857fe5b6000918252602090912001546001600160801b0316116109da578092506109e1565b6001810391505b50610996565b8482815481106109f357fe5b600091825260209091200154600160801b90046001600160801b031695945050505050565b6001600160a01b038116610a2b57600080fd5b600080546040516001600160a01b03808516939216917f8be0079c531659141344cd1fd0a4f28419497f9722a3daafe3b4186f6b6457e091a3600080546001600160a01b0319166001600160a01b0392909216919091179055565b815481835581811115610aaa57600083815260209020610aaa918101908301610aaf565b505050565b6104df91905b80821115610ac95760008155600101610ab5565b509056fea265627a7a723158206b159fa105e736567ca0aed3956f804378a9eaecd2509e17e3d5222cd19d110964736f6c63430005110032",
  "source": "/**\n *Submitted for verification at Etherscan.io on 2019-04-01\n */\n\n// File: openzeppelin-solidity/contracts/ownership/Ownable.sol\n\npragma solidity ^0.5.0;\n\n/**\n * @title Ownable\n * @dev The Ownable contract has an owner address, and provides basic authorization control\n * functions, this simplifies the implementation of \"user permissions\".\n */\ncontract Ownable {\n    address private _owner;\n\n    event OwnershipTransferred(address indexed previousOwner, address indexed newOwner);\n\n    /**\n     * @dev The Ownable constructor sets the original `owner` of the contract to the sender\n     * account.\n     */\n    constructor() internal {\n        _owner = msg.sender;\n        emit OwnershipTransferred(address(0), _owner);\n    }\n\n    /**\n     * @return the address of the owner.\n     */\n    function owner() public view returns (address) {\n        return _owner;\n    }\n\n    /**\n     * @dev Throws if called by any account other than the owner.\n     */\n    modifier onlyOwner() {\n        require(isOwner());\n        _;\n    }\n\n    /**\n     * @return true if `msg.sender` is the owner of the contract.\n     */\n    function isOwner() public view returns (bool) {\n        return msg.sender == _owner;\n    }\n\n    /**\n     * @dev Allows the current owner to relinquish control of the contract.\n     * @notice Renouncing to ownership will leave the contract without an owner.\n     * It will not be possible to call the functions with the `onlyOwner`\n     * modifier anymore.\n     */\n    function renounceOwnership() public onlyOwner {\n        emit OwnershipTransferred(_owner, address(0));\n        _owner = address(0);\n    }\n\n    /**\n     * @dev Allows the current owner to transfer control of the contract to a newOwner.\n     * @param newOwner The address to transfer ownership to.\n     */\n    function transferOwnership(address newOwner) public onlyOwner {\n        _transferOwnership(newOwner);\n    }\n\n    /**\n     * @dev Transfers control of the contract to a newOwner.\n     * @param newOwner The address to transfer ownership to.\n     */\n    function _transferOwnership(address newOwner) internal {\n        require(newOwner != address(0));\n        emit OwnershipTransferred(_owner, newOwner);\n        _owner = newOwner;\n    }\n}\n\n// File: @daostack/infra/contracts/Reputation.sol\n\npragma solidity ^0.5.4;\n\n/**\n * @title Reputation system\n * @dev A DAO has Reputation System which allows peers to rate other peers in order to build trust .\n * A reputation is use to assign influence measure to a DAO'S peers.\n * Reputation is similar to regular tokens but with one crucial difference: It is non-transferable.\n * The Reputation contract maintain a map of address to reputation value.\n * It provides an onlyOwner functions to mint and burn reputation _to (or _from) a specific address.\n */\n\ncontract Reputation is Ownable {\n    uint8 public decimals = 18; //Number of decimals of the smallest unit\n    // Event indicating minting of reputation to an address.\n    event Mint(address indexed _to, uint256 _amount);\n    // Event indicating burning of reputation for an address.\n    event Burn(address indexed _from, uint256 _amount);\n\n    /// @dev `Checkpoint` is the structure that attaches a block number to a\n    ///  given value, the block number attached is the one that last changed the\n    ///  value\n    struct Checkpoint {\n        // `fromBlock` is the block number that the value was generated from\n        uint128 fromBlock;\n        // `value` is the amount of reputation at a specific block number\n        uint128 value;\n    }\n\n    // `balances` is the map that tracks the balance of each address, in this\n    //  contract when the balance changes the block number that the change\n    //  occurred is also included in the map\n    mapping(address => Checkpoint[]) balances;\n\n    // Tracks the history of the `totalSupply` of the reputation\n    Checkpoint[] totalSupplyHistory;\n\n    /// @notice Constructor to create a Reputation\n    constructor() public {}\n\n    /// @dev This function makes it easy to get the total number of reputation\n    /// @return The total number of reputation\n    function totalSupply() public view returns (uint256) {\n        return totalSupplyAt(block.number);\n    }\n\n    ////////////////\n    // Query balance and totalSupply in History\n    ////////////////\n    /**\n     * @dev return the reputation amount of a given owner\n     * @param _owner an address of the owner which we want to get his reputation\n     */\n    function balanceOf(address _owner) public view returns (uint256 balance) {\n        return balanceOfAt(_owner, block.number);\n    }\n\n    /// @dev Queries the balance of `_owner` at a specific `_blockNumber`\n    /// @param _owner The address from which the balance will be retrieved\n    /// @param _blockNumber The block number when the balance is queried\n    /// @return The balance at `_blockNumber`\n    function balanceOfAt(address _owner, uint256 _blockNumber) public view returns (uint256) {\n        if ((balances[_owner].length == 0) || (balances[_owner][0].fromBlock > _blockNumber)) {\n            return 0;\n            // This will return the expected balance during normal situations\n        } else {\n            return getValueAt(balances[_owner], _blockNumber);\n        }\n    }\n\n    /// @notice Total amount of reputation at a specific `_blockNumber`.\n    /// @param _blockNumber The block number when the totalSupply is queried\n    /// @return The total amount of reputation at `_blockNumber`\n    function totalSupplyAt(uint256 _blockNumber) public view returns (uint256) {\n        if ((totalSupplyHistory.length == 0) || (totalSupplyHistory[0].fromBlock > _blockNumber)) {\n            return 0;\n            // This will return the expected totalSupply during normal situations\n        } else {\n            return getValueAt(totalSupplyHistory, _blockNumber);\n        }\n    }\n\n    /// @notice Generates `_amount` reputation that are assigned to `_owner`\n    /// @param _user The address that will be assigned the new reputation\n    /// @param _amount The quantity of reputation generated\n    /// @return True if the reputation are generated correctly\n    function mint(address _user, uint256 _amount) public onlyOwner returns (bool) {\n        uint256 curTotalSupply = totalSupply();\n        require(curTotalSupply + _amount >= curTotalSupply); // Check for overflow\n        uint256 previousBalanceTo = balanceOf(_user);\n        require(previousBalanceTo + _amount >= previousBalanceTo); // Check for overflow\n        updateValueAtNow(totalSupplyHistory, curTotalSupply + _amount);\n        updateValueAtNow(balances[_user], previousBalanceTo + _amount);\n        emit Mint(_user, _amount);\n        return true;\n    }\n    \n    /// @notice Generates `_amount` reputation that are assigned to `_owner`\n    /// @param _user The address that will be assigned the new reputation\n    /// @param _amount The quantity of reputation generated\n    /// @return True if the reputation are generated correctly\n  function mintMultiple(address[] memory _user, uint256[] memory _amount) public onlyOwner returns (bool) {\n      for (uint256 i = 0;i < _user.length; i ++){\n        uint256 curTotalSupply = totalSupply();\n        require(curTotalSupply + _amount[i] >= curTotalSupply); // Check for overflow\n        uint256 previousBalanceTo = balanceOf(_user[i]);\n        require(previousBalanceTo + _amount[i] >= previousBalanceTo); // Check for overflow\n        updateValueAtNow(totalSupplyHistory, curTotalSupply + _amount[i]);\n        updateValueAtNow(balances[_user[i]], previousBalanceTo + _amount[i]);\n        emit Mint(_user[i], _amount[i]);\n      }\n      return true;\n  }\n\n    /// @notice Burns `_amount` reputation from `_owner`\n    /// @param _user The address that will lose the reputation\n    /// @param _amount The quantity of reputation to burn\n    /// @return True if the reputation are burned correctly\n    function burn(address _user, uint256 _amount) public onlyOwner returns (bool) {\n        uint256 curTotalSupply = totalSupply();\n        uint256 amountBurned = _amount;\n        uint256 previousBalanceFrom = balanceOf(_user);\n        if (previousBalanceFrom < amountBurned) {\n            amountBurned = previousBalanceFrom;\n        }\n        updateValueAtNow(totalSupplyHistory, curTotalSupply - amountBurned);\n        updateValueAtNow(balances[_user], previousBalanceFrom - amountBurned);\n        emit Burn(_user, amountBurned);\n        return true;\n    }\n\n    ////////////////\n    // Internal helper functions to query and set a value in a snapshot array\n    ////////////////\n\n    /// @dev `getValueAt` retrieves the number of reputation at a given block number\n    /// @param checkpoints The history of values being queried\n    /// @param _block The block number to retrieve the value at\n    /// @return The number of reputation being queried\n    function getValueAt(Checkpoint[] storage checkpoints, uint256 _block) internal view returns (uint256) {\n        if (checkpoints.length == 0) {\n            return 0;\n        }\n\n        // Shortcut for the actual value\n        if (_block >= checkpoints[checkpoints.length - 1].fromBlock) {\n            return checkpoints[checkpoints.length - 1].value;\n        }\n        if (_block < checkpoints[0].fromBlock) {\n            return 0;\n        }\n\n        // Binary search of the value in the array\n        uint256 min = 0;\n        uint256 max = checkpoints.length - 1;\n        while (max > min) {\n            uint256 mid = (max + min + 1) / 2;\n            if (checkpoints[mid].fromBlock <= _block) {\n                min = mid;\n            } else {\n                max = mid - 1;\n            }\n        }\n        return checkpoints[min].value;\n    }\n\n    /// @dev `updateValueAtNow` used to update the `balances` map and the\n    ///  `totalSupplyHistory`\n    /// @param checkpoints The history of data being updated\n    /// @param _value The new number of reputation\n    function updateValueAtNow(Checkpoint[] storage checkpoints, uint256 _value) internal {\n        require(uint128(_value) == _value); //check value is in the 128 bits bounderies\n        if ((checkpoints.length == 0) || (checkpoints[checkpoints.length - 1].fromBlock < block.number)) {\n            Checkpoint storage newCheckPoint = checkpoints[checkpoints.length++];\n            newCheckPoint.fromBlock = uint128(block.number);\n            newCheckPoint.value = uint128(_value);\n        } else {\n            Checkpoint storage oldCheckPoint = checkpoints[checkpoints.length - 1];\n            oldCheckPoint.value = uint128(_value);\n        }\n    }\n}\n\n// File: contracts/DxReputation.sol\n\npragma solidity ^0.5.4;\n\n// is Reputation\ncontract DxReputation is Reputation {\n    constructor() public {}\n}\n",
  "sourcePath": "/home/blackjak/Projects/DXdao/dxvote/contracts/dxdao/DxReputation.sol",
  "compiler": {
    "name": "solc",
    "version": "0.5.17+commit.d19bba13.Emscripten.clang"
  },
  "schemaVersion": "3.2.5",
  "updatedAt": "2020-12-01T01:31:15.951Z",
  "devdoc": {
    "methods": {
      "balanceOf(address)": {
        "details": "return the reputation amount of a given owner",
        "params": {
          "_owner": "an address of the owner which we want to get his reputation"
        }
      },
      "balanceOfAt(address,uint256)": {
        "details": "Queries the balance of `_owner` at a specific `_blockNumber`",
        "params": {
          "_blockNumber": "The block number when the balance is queried",
          "_owner": "The address from which the balance will be retrieved"
        },
        "return": "The balance at `_blockNumber`"
      },
      "burn(address,uint256)": {
        "params": {
          "_amount": "The quantity of reputation to burn",
          "_user": "The address that will lose the reputation"
        },
        "return": "True if the reputation are burned correctly"
      },
      "isOwner()": {
        "return": "true if `msg.sender` is the owner of the contract."
      },
      "mint(address,uint256)": {
        "params": {
          "_amount": "The quantity of reputation generated",
          "_user": "The address that will be assigned the new reputation"
        },
        "return": "True if the reputation are generated correctly"
      },
      "mintMultiple(address[],uint256[])": {
        "params": {
          "_amount": "The quantity of reputation generated",
          "_user": "The address that will be assigned the new reputation"
        },
        "return": "True if the reputation are generated correctly"
      },
      "owner()": {
        "return": "the address of the owner."
      },
      "renounceOwnership()": {
        "details": "Allows the current owner to relinquish control of the contract."
      },
      "totalSupply()": {
        "details": "This function makes it easy to get the total number of reputation",
        "return": "The total number of reputation"
      },
      "totalSupplyAt(uint256)": {
        "params": {
          "_blockNumber": "The block number when the totalSupply is queried"
        },
        "return": "The total amount of reputation at `_blockNumber`"
      },
      "transferOwnership(address)": {
        "details": "Allows the current owner to transfer control of the contract to a newOwner.",
        "params": {
          "newOwner": "The address to transfer ownership to."
        }
      }
    }
  },
  "userdoc": {
    "methods": {
      "burn(address,uint256)": {
        "notice": "Burns `_amount` reputation from `_owner`"
      },
      "mint(address,uint256)": {
        "notice": "Generates `_amount` reputation that are assigned to `_owner`"
      },
      "mintMultiple(address[],uint256[])": {
        "notice": "Generates `_amount` reputation that are assigned to `_owner`"
      },
      "renounceOwnership()": {
        "notice": "Renouncing to ownership will leave the contract without an owner. It will not be possible to call the functions with the `onlyOwner` modifier anymore."
      },
      "totalSupplyAt(uint256)": {
        "notice": "Total amount of reputation at a specific `_blockNumber`."
      }
    }
  }
}