{
  "_format": "hh-sol-artifact-1",
  "contractName": "PermissionRegistry",
  "sourceName": "dxdao-contracts/contracts/schemes/PermissionRegistry.sol",
  "abi": [
    {
      "inputs": [
        {
          "internalType": "address",
          "name": "_owner",
          "type": "address"
        },
        {
          "internalType": "uint256",
          "name": "_timeDelay",
          "type": "uint256"
        }
      ],
      "payable": false,
      "stateMutability": "nonpayable",
      "type": "constructor"
    },
    {
      "anonymous": false,
      "inputs": [
        {
          "indexed": false,
          "internalType": "address",
          "name": "asset",
          "type": "address"
        },
        {
          "indexed": false,
          "internalType": "address",
          "name": "from",
          "type": "address"
        },
        {
          "indexed": false,
          "internalType": "address",
          "name": "to",
          "type": "address"
        },
        {
          "indexed": false,
          "internalType": "bytes4",
          "name": "functionSignature",
          "type": "bytes4"
        },
        {
          "indexed": false,
          "internalType": "uint256",
          "name": "fromTime",
          "type": "uint256"
        },
        {
          "indexed": false,
          "internalType": "uint256",
          "name": "value",
          "type": "uint256"
        }
      ],
      "name": "PermissionSet",
      "type": "event"
    },
    {
      "constant": true,
      "inputs": [],
      "name": "ANY_ADDRESS",
      "outputs": [
        {
          "internalType": "address",
          "name": "",
          "type": "address"
        }
      ],
      "payable": false,
      "stateMutability": "view",
      "type": "function"
    },
    {
      "constant": true,
      "inputs": [],
      "name": "ANY_SIGNATURE",
      "outputs": [
        {
          "internalType": "bytes4",
          "name": "",
          "type": "bytes4"
        }
      ],
      "payable": false,
      "stateMutability": "view",
      "type": "function"
    },
    {
      "constant": true,
      "inputs": [
        {
          "internalType": "address",
          "name": "asset",
          "type": "address"
        },
        {
          "internalType": "address",
          "name": "from",
          "type": "address"
        },
        {
          "internalType": "address",
          "name": "to",
          "type": "address"
        },
        {
          "internalType": "bytes4",
          "name": "functionSignature",
          "type": "bytes4"
        }
      ],
      "name": "getPermission",
      "outputs": [
        {
          "internalType": "uint256",
          "name": "valueAllowed",
          "type": "uint256"
        },
        {
          "internalType": "uint256",
          "name": "fromTime",
          "type": "uint256"
        }
      ],
      "payable": false,
      "stateMutability": "view",
      "type": "function"
    },
    {
      "constant": true,
      "inputs": [],
      "name": "owner",
      "outputs": [
        {
          "internalType": "address",
          "name": "",
          "type": "address"
        }
      ],
      "payable": false,
      "stateMutability": "view",
      "type": "function"
    },
    {
      "constant": true,
      "inputs": [
        {
          "internalType": "address",
          "name": "",
          "type": "address"
        },
        {
          "internalType": "address",
          "name": "",
          "type": "address"
        },
        {
          "internalType": "address",
          "name": "",
          "type": "address"
        },
        {
          "internalType": "bytes4",
          "name": "",
          "type": "bytes4"
        }
      ],
      "name": "permissions",
      "outputs": [
        {
          "internalType": "uint256",
          "name": "valueAllowed",
          "type": "uint256"
        },
        {
          "internalType": "uint256",
          "name": "fromTime",
          "type": "uint256"
        }
      ],
      "payable": false,
      "stateMutability": "view",
      "type": "function"
    },
    {
      "constant": false,
      "inputs": [
        {
          "internalType": "address",
          "name": "asset",
          "type": "address"
        },
        {
          "internalType": "address",
          "name": "from",
          "type": "address"
        },
        {
          "internalType": "address",
          "name": "to",
          "type": "address"
        },
        {
          "internalType": "bytes4",
          "name": "functionSignature",
          "type": "bytes4"
        },
        {
          "internalType": "uint256",
          "name": "valueAllowed",
          "type": "uint256"
        },
        {
          "internalType": "bool",
          "name": "allowed",
          "type": "bool"
        }
      ],
      "name": "setAdminPermission",
      "outputs": [],
      "payable": false,
      "stateMutability": "nonpayable",
      "type": "function"
    },
    {
      "constant": false,
      "inputs": [
        {
          "internalType": "address",
          "name": "asset",
          "type": "address"
        },
        {
          "internalType": "address",
          "name": "to",
          "type": "address"
        },
        {
          "internalType": "bytes4",
          "name": "functionSignature",
          "type": "bytes4"
        },
        {
          "internalType": "uint256",
          "name": "valueAllowed",
          "type": "uint256"
        },
        {
          "internalType": "bool",
          "name": "allowed",
          "type": "bool"
        }
      ],
      "name": "setPermission",
      "outputs": [],
      "payable": false,
      "stateMutability": "nonpayable",
      "type": "function"
    },
    {
      "constant": false,
      "inputs": [
        {
          "internalType": "uint256",
          "name": "newTimeDelay",
          "type": "uint256"
        }
      ],
      "name": "setTimeDelay",
      "outputs": [],
      "payable": false,
      "stateMutability": "nonpayable",
      "type": "function"
    },
    {
      "constant": true,
      "inputs": [],
      "name": "timeDelay",
      "outputs": [
        {
          "internalType": "uint256",
          "name": "",
          "type": "uint256"
        }
      ],
      "payable": false,
      "stateMutability": "view",
      "type": "function"
    },
    {
      "constant": false,
      "inputs": [
        {
          "internalType": "address",
          "name": "newOwner",
          "type": "address"
        }
      ],
      "name": "transferOwnership",
      "outputs": [],
      "payable": false,
      "stateMutability": "nonpayable",
      "type": "function"
    }
  ],
  "bytecode": "0x608060405234801561001057600080fd5b50604051610f2d380380610f2d8339818101604052604081101561003357600080fd5b5080516020909101516001600160a01b0382166100815760405162461bcd60e51b8152600401808060200182810382526029815260200180610ede6029913960400191505060405180910390fd5b600081116100c05760405162461bcd60e51b8152600401808060200182810382526026815260200180610f076026913960400191505060405180910390fd5b600180546001600160a01b039093166001600160a01b03199093168317815560009182559181527fac33ff75c19e70fe83507db0d683fd3465c996598dc972688b7ace676c89077b602090815260408083203084528252808320635555555560e11b8452909152902042910155610da28061013c6000396000f3fe608060405234801561001057600080fd5b506004361061009e5760003560e01c8063969e6fbd11610066578063969e6fbd146101735780639a17eeae146101c75780639b2dccdd1461020e578063c9dec3611461025c578063f2fde38b146102765761009e565b8063069dfc5b146100a357806339af6ba9146100c85780633f81a192146100e75780636597c2e51461010b5780638da5cb5b1461016b575b600080fd5b6100ab61029c565b604080516001600160e01b03199092168252519081900360200190f35b6100e5600480360360208110156100de57600080fd5b50356102a7565b005b6100ef6102f5565b604080516001600160a01b039092168252519081900360200190f35b6101526004803603608081101561012157600080fd5b5080356001600160a01b0390811691602081013582169160408201351690606001356001600160e01b03191661030d565b6040805192835260208301919091528051918290030190f35b6100ef61080b565b6100e5600480360360c081101561018957600080fd5b506001600160a01b0381358116916020810135821691604082013516906001600160e01b03196060820135169060808101359060a00135151561081a565b610152600480360360808110156101dd57600080fd5b5080356001600160a01b0390811691602081013582169160408201351690606001356001600160e01b0319166109c9565b6100e5600480360360a081101561022457600080fd5b506001600160a01b0381358116916020810135909116906001600160e01b0319604082013516906060810135906080013515156109fc565b610264610ba3565b60408051918252519081900360200190f35b6100e56004803603602081101561028c57600080fd5b50356001600160a01b0316610ba9565b635555555560e11b81565b6001546001600160a01b031633146102f05760405162461bcd60e51b815260040180806020018281038252602a815260200180610d03602a913960400191505060405180910390fd5b600055565b73aaaaaaaaaaaaaaaaaaaaaaaaaaaaaaaaaaaaaaaa81565b60008060006060856001600160a01b03166152086040518080635c60da1b60e01b81525060040190506000604051808303818686fa925050503d8060008114610372576040519150601f19603f3d011682016040523d82523d6000602084013e610377565b606091505b5091509150811561039c5780806020019051602081101561039757600080fd5b505195505b6103a4610ce8565b6001600160a01b0389161561051c576001600160a01b03808a1660009081526002602090815260408083208c851684528252808320938b168352928152828220635555555560e11b8352905220600101541561045557506001600160a01b0380891660009081526002602090815260408083208b851684528252808320938a168352928152828220635555555560e11b83528152908290208251808401909352805483526001015490820152610517565b6001600160a01b03808a166000908152600260209081526040808320938c16835292815282822073aaaaaaaaaaaaaaaaaaaaaaaaaaaaaaaaaaaaaaaa83528152828220635555555560e11b8352905220600101541561051757506001600160a01b038089166000908152600260209081526040808320938b16835292815282822073aaaaaaaaaaaaaaaaaaaaaaaaaaaaaaaaaaaaaaaa83528152828220635555555560e11b835281529082902082518084019093528054835260010154908201525b6107f4565b6001600160a01b03808a1660009081526002602090815260408083208c851684528252808320938b1683529281528282206001600160e01b03198a16835290522060010154156105c457506001600160a01b0380891660009081526002602090815260408083208b851684528252808320938a1683529281528282206001600160e01b03198916835281529082902082518084019093528054835260010154908201526107f4565b6001600160a01b03808a1660009081526002602090815260408083208c851684528252808320938b168352928152828220635555555560e11b8352905220600101541561066657506001600160a01b0380891660009081526002602090815260408083208b851684528252808320938a168352928152828220635555555560e11b835281529082902082518084019093528054835260010154908201526107f4565b6001600160a01b03808a166000908152600260209081526040808320938c16835292815282822073aaaaaaaaaaaaaaaaaaaaaaaaaaaaaaaaaaaaaaaa835281528282206001600160e01b03198a168352905220600101541561073257506001600160a01b038089166000908152600260209081526040808320938b16835292815282822073aaaaaaaaaaaaaaaaaaaaaaaaaaaaaaaaaaaaaaaa835281528282206001600160e01b03198916835281529082902082518084019093528054835260010154908201526107f4565b6001600160a01b03808a166000908152600260209081526040808320938c16835292815282822073aaaaaaaaaaaaaaaaaaaaaaaaaaaaaaaaaaaaaaaa83528152828220635555555560e11b835290522060010154156107f457506001600160a01b038089166000908152600260209081526040808320938b16835292815282822073aaaaaaaaaaaaaaaaaaaaaaaaaaaaaaaaaaaaaaaa83528152828220635555555560e11b835281529082902082518084019093528054835260010154908201525b805160209091015190999098509650505050505050565b6001546001600160a01b031681565b6001546001600160a01b031633146108635760405162461bcd60e51b815260040180806020018281038252602a815260200180610d03602a913960400191505060405180910390fd5b80156108ce5760005461087d90429063ffffffff610c8716565b6001600160a01b0387811660009081526002602090815260408083208a85168452825280832093891683529281528282206001600160e01b031988168352905220600181019190915582905561091a565b6001600160a01b0386811660009081526002602090815260408083208985168452825280832093881683529281528282206001600160e01b031987168352905290812060018101829055555b6001600160a01b0386811660008181526002602090815260408083208a8616808552908352818420958a168085529583528184206001600160e01b03198a168086529084529382902060018101549054835196875293860191909152848201959095526060840192909252608083019390935260a082019290925290517fc54d8ac1076cca8a03cd701b457e2c16e3d22861d111ddfa42d818219e5e1a639181900360c00190a1505050505050565b60026020908152600094855260408086208252938552838520815291845282842090915282529020805460019091015482565b6001600160a01b038416301415610a445760405162461bcd60e51b8152600401808060200182810382526041815260200180610d2d6041913960600191505060405180910390fd5b8015610aad57600054610a5e90429063ffffffff610c8716565b6001600160a01b038681166000908152600260209081526040808320338452825280832093891683529281528282206001600160e01b0319881683529052206001810191909155829055610af7565b6001600160a01b038581166000908152600260209081526040808320338452825280832093881683529281528282206001600160e01b031987168352905290812060018101829055555b6001600160a01b03858116600081815260026020908152604080832033808552908352818420958a168085529583528184206001600160e01b03198a168086529084529382902060018101549054835196875293860191909152848201959095526060840192909252608083019390935260a082019290925290517fc54d8ac1076cca8a03cd701b457e2c16e3d22861d111ddfa42d818219e5e1a639181900360c00190a15050505050565b60005481565b6001546001600160a01b03163314610bf25760405162461bcd60e51b815260040180806020018281038252602a815260200180610d03602a913960400191505060405180910390fd5b600180546001600160a01b0390811660009081527fac33ff75c19e70fe83507db0d683fd3465c996598dc972688b7ace676c89077b6020818152604080842030808652908352818520635555555560e11b8087529084528286208801869055979095168085529282528084209484529381528383209583529490945220429082015580546001600160a01b0319169091179055565b600082820183811015610ce1576040805162461bcd60e51b815260206004820152601b60248201527f536166654d6174683a206164646974696f6e206f766572666c6f770000000000604482015290519081900360640190fd5b9392505050565b60405180604001604052806000815260200160008152509056fe5065726d697373696f6e52656769737472793a204f6e6c792063616c6c61626c65206279206f776e65725065726d697373696f6e52656769737472793a2043616e74206368616e6765207065726d697373696f6e7320746f205065726d697373696f6e5265676973747279a265627a7a72315820fde940bf76c5a779915ef3a656ba0307c30dc840e8a4c167fcf8d505c9ac645f64736f6c634300051100325065726d697373696f6e52656769737472793a20496e76616c6964206f776e657220616464726573735065726d697373696f6e52656769737472793a20496e76616c69642074696d652064656c6179",
  "linkReferences": {},
  "deployedLinkReferences": {}
}