{
  "_format": "hh-sol-artifact-1",
  "contractName": "PermissionRegistry",
  "sourceName": "dxdao-contracts/contracts/dxvote/PermissionRegistry.sol",
  "abi": [
    {
      "inputs": [
        {
          "internalType": "address",
          "name": "_owner",
          "type": "address"
        },
        {
          "internalType": "uint256",
          "name": "_timeDelay",
          "type": "uint256"
        }
      ],
      "payable": false,
      "stateMutability": "nonpayable",
      "type": "constructor"
    },
    {
      "anonymous": false,
      "inputs": [
        {
          "indexed": false,
          "internalType": "address",
          "name": "asset",
          "type": "address"
        },
        {
          "indexed": false,
          "internalType": "address",
          "name": "from",
          "type": "address"
        },
        {
          "indexed": false,
          "internalType": "address",
          "name": "to",
          "type": "address"
        },
        {
          "indexed": false,
          "internalType": "bytes4",
          "name": "functionSignature",
          "type": "bytes4"
        },
        {
          "indexed": false,
          "internalType": "uint256",
          "name": "fromTime",
          "type": "uint256"
        },
        {
          "indexed": false,
          "internalType": "uint256",
          "name": "value",
          "type": "uint256"
        }
      ],
      "name": "PermissionSet",
      "type": "event"
    },
    {
      "constant": true,
      "inputs": [],
      "name": "ANY_ADDRESS",
      "outputs": [
        {
          "internalType": "address",
          "name": "",
          "type": "address"
        }
      ],
      "payable": false,
      "stateMutability": "view",
      "type": "function"
    },
    {
      "constant": true,
      "inputs": [],
      "name": "ANY_SIGNATURE",
      "outputs": [
        {
          "internalType": "bytes4",
          "name": "",
          "type": "bytes4"
        }
      ],
      "payable": false,
      "stateMutability": "view",
      "type": "function"
    },
    {
      "constant": true,
      "inputs": [
        {
          "internalType": "address",
          "name": "asset",
          "type": "address"
        },
        {
          "internalType": "address",
          "name": "from",
          "type": "address"
        },
        {
          "internalType": "address",
          "name": "to",
          "type": "address"
        },
        {
          "internalType": "bytes4",
          "name": "functionSignature",
          "type": "bytes4"
        }
      ],
      "name": "getPermission",
      "outputs": [
        {
          "internalType": "uint256",
          "name": "valueAllowed",
          "type": "uint256"
        },
        {
          "internalType": "uint256",
          "name": "fromTime",
          "type": "uint256"
        }
      ],
      "payable": false,
      "stateMutability": "view",
      "type": "function"
    },
    {
      "constant": true,
      "inputs": [],
      "name": "owner",
      "outputs": [
        {
          "internalType": "address",
          "name": "",
          "type": "address"
        }
      ],
      "payable": false,
      "stateMutability": "view",
      "type": "function"
    },
    {
      "constant": true,
      "inputs": [
        {
          "internalType": "address",
          "name": "",
          "type": "address"
        },
        {
          "internalType": "address",
          "name": "",
          "type": "address"
        },
        {
          "internalType": "address",
          "name": "",
          "type": "address"
        },
        {
          "internalType": "bytes4",
          "name": "",
          "type": "bytes4"
        }
      ],
      "name": "permissions",
      "outputs": [
        {
          "internalType": "uint256",
          "name": "valueAllowed",
          "type": "uint256"
        },
        {
          "internalType": "uint256",
          "name": "fromTime",
          "type": "uint256"
        },
        {
          "internalType": "bool",
          "name": "isSet",
          "type": "bool"
        }
      ],
      "payable": false,
      "stateMutability": "view",
      "type": "function"
    },
    {
      "constant": false,
      "inputs": [
        {
          "internalType": "address",
          "name": "asset",
          "type": "address"
        },
        {
          "internalType": "address",
          "name": "from",
          "type": "address"
        },
        {
          "internalType": "address",
          "name": "to",
          "type": "address"
        },
        {
          "internalType": "bytes4",
          "name": "functionSignature",
          "type": "bytes4"
        },
        {
          "internalType": "uint256",
          "name": "valueAllowed",
          "type": "uint256"
        },
        {
          "internalType": "bool",
          "name": "allowed",
          "type": "bool"
        }
      ],
      "name": "setAdminPermission",
      "outputs": [],
      "payable": false,
      "stateMutability": "nonpayable",
      "type": "function"
    },
    {
      "constant": false,
      "inputs": [
        {
          "internalType": "address",
          "name": "asset",
          "type": "address"
        },
        {
          "internalType": "address",
          "name": "to",
          "type": "address"
        },
        {
          "internalType": "bytes4",
          "name": "functionSignature",
          "type": "bytes4"
        },
        {
          "internalType": "uint256",
          "name": "valueAllowed",
          "type": "uint256"
        },
        {
          "internalType": "bool",
          "name": "allowed",
          "type": "bool"
        }
      ],
      "name": "setPermission",
      "outputs": [],
      "payable": false,
      "stateMutability": "nonpayable",
      "type": "function"
    },
    {
      "constant": false,
      "inputs": [
        {
          "internalType": "uint256",
          "name": "newTimeDelay",
          "type": "uint256"
        }
      ],
      "name": "setTimeDelay",
      "outputs": [],
      "payable": false,
      "stateMutability": "nonpayable",
      "type": "function"
    },
    {
      "constant": true,
      "inputs": [],
      "name": "timeDelay",
      "outputs": [
        {
          "internalType": "uint256",
          "name": "",
          "type": "uint256"
        }
      ],
      "payable": false,
      "stateMutability": "view",
      "type": "function"
    },
    {
      "constant": false,
      "inputs": [
        {
          "internalType": "address",
          "name": "newOwner",
          "type": "address"
        }
      ],
      "name": "transferOwnership",
      "outputs": [],
      "payable": false,
      "stateMutability": "nonpayable",
      "type": "function"
    }
  ],
  "bytecode": "0x608060405234801561001057600080fd5b506040516110d63803806110d68339818101604052604081101561003357600080fd5b5080516020909101516001600160a01b0382166100815760405162461bcd60e51b81526004018080602001828103825260298152602001806110876029913960400191505060405180910390fd5b600081116100c05760405162461bcd60e51b81526004018080602001828103825260268152602001806110b06026913960400191505060405180910390fd5b600180546001600160a01b0319166001600160a01b0393909316928317815560009182559181527fac33ff75c19e70fe83507db0d683fd3465c996598dc972688b7ace676c89077b602090815260408083203084528252808320635555555560e11b845290915281204281840155600201805460ff1916909217909155610f3a90819061014d90396000f3fe608060405234801561001057600080fd5b506004361061009e5760003560e01c8063969e6fbd11610066578063969e6fbd146101735780639a17eeae146101c75780639b2dccdd1461022e578063c9dec3611461027c578063f2fde38b146102965761009e565b8063069dfc5b146100a357806339af6ba9146100c85780633f81a192146100e75780636597c2e51461010b5780638da5cb5b1461016b575b600080fd5b6100ab6102bc565b604080516001600160e01b03199092168252519081900360200190f35b6100e5600480360360208110156100de57600080fd5b50356102c7565b005b6100ef610315565b604080516001600160a01b039092168252519081900360200190f35b6101526004803603608081101561012157600080fd5b5080356001600160a01b0390811691602081013582169160408201351690606001356001600160e01b03191661032d565b6040805192835260208301919091528051918290030190f35b6100ef61081b565b6100e5600480360360c081101561018957600080fd5b506001600160a01b0381358116916020810135821691604082013516906001600160e01b03196060820135169060808101359060a00135151561082a565b61020e600480360360808110156101dd57600080fd5b5080356001600160a01b0390811691602081013582169160408201351690606001356001600160e01b031916610a85565b604080519384526020840192909252151582820152519081900360600190f35b6100e5600480360360a081101561024457600080fd5b506001600160a01b0381358116916020810135909116906001600160e01b031960408201351690606081013590608001351515610abf565b610284610ccb565b60408051918252519081900360200190f35b6100e5600480360360208110156102ac57600080fd5b50356001600160a01b0316610cd1565b635555555560e11b81565b6001546001600160a01b031633146103105760405162461bcd60e51b815260040180806020018281038252602a815260200180610e7f602a913960400191505060405180910390fd5b600055565b73aaaaaaaaaaaaaaaaaaaaaaaaaaaaaaaaaaaaaaaa81565b600080610338610e1d565b6001600160a01b038716156104da576001600160a01b0380881660009081526002602081815260408084208b861685528252808420948a168452938152838320635555555560e11b84529052919020015460ff16156103fe57506001600160a01b0380871660009081526002602081815260408084208a8616855282528084209489168452938152838320635555555560e11b8452815291839020835160608101855281548152600182015493810193909352015460ff161515918101919091526104d5565b6001600160a01b038088166000908152600260208181526040808420948b16845293815283832073aaaaaaaaaaaaaaaaaaaaaaaaaaaaaaaaaaaaaaaa84528152838320635555555560e11b84529052919020015460ff16156104d557506001600160a01b038087166000908152600260208181526040808420948a16845293815283832073aaaaaaaaaaaaaaaaaaaaaaaaaaaaaaaaaaaaaaaa84528152838320635555555560e11b8452815291839020835160608101855281548152600182015493810193909352015460ff161515918101919091525b610806565b6001600160a01b0380881660009081526002602081815260408084208b861685528252808420948a1684529381528383206001600160e01b0319891684529052919020015460ff161561059757506001600160a01b0380871660009081526002602081815260408084208a86168552825280842094891684529381528383206001600160e01b031988168452815291839020835160608101855281548152600182015493810193909352015460ff16151591810191909152610806565b6001600160a01b0380881660009081526002602081815260408084208b861685528252808420948a168452938152838320635555555560e11b84529052919020015460ff161561064e57506001600160a01b0380871660009081526002602081815260408084208a8616855282528084209489168452938152838320635555555560e11b8452815291839020835160608101855281548152600182015493810193909352015460ff16151591810191909152610806565b6001600160a01b038088166000908152600260208181526040808420948b16845293815283832073aaaaaaaaaaaaaaaaaaaaaaaaaaaaaaaaaaaaaaaa845281528383206001600160e01b0319891684529052919020015460ff161561072f57506001600160a01b038087166000908152600260208181526040808420948a16845293815283832073aaaaaaaaaaaaaaaaaaaaaaaaaaaaaaaaaaaaaaaa845281528383206001600160e01b031988168452815291839020835160608101855281548152600182015493810193909352015460ff16151591810191909152610806565b6001600160a01b038088166000908152600260208181526040808420948b16845293815283832073aaaaaaaaaaaaaaaaaaaaaaaaaaaaaaaaaaaaaaaa84528152838320635555555560e11b84529052919020015460ff161561080657506001600160a01b038087166000908152600260208181526040808420948a16845293815283832073aaaaaaaaaaaaaaaaaaaaaaaaaaaaaaaaaaaaaaaa84528152838320635555555560e11b8452815291839020835160608101855281548152600182015493810193909352015460ff161515918101919091525b80516020909101519097909650945050505050565b6001546001600160a01b031681565b6001546001600160a01b031633146108735760405162461bcd60e51b815260040180806020018281038252602a815260200180610e7f602a913960400191505060405180910390fd5b6001600160a01b0385166108b85760405162461bcd60e51b815260040180806020018281038252602f815260200180610ea9602f913960400191505060405180910390fd5b6001546001600160a01b0386811691161415806108de57506001600160a01b0384163014155b6109195760405162461bcd60e51b815260040180806020018281038252602e815260200180610ed8602e913960400191505060405180910390fd5b80156109845760005461093390429063ffffffff610dbc16565b6001600160a01b0387811660009081526002602090815260408083208a85168452825280832093891683529281528282206001600160e01b03198816835290522060018101919091558290556109d0565b6001600160a01b0386811660009081526002602090815260408083208985168452825280832093881683529281528282206001600160e01b031987168352905290812060018101829055555b6001600160a01b0386811660008181526002602081815260408084208b8716808652908352818520968b168086529683528185206001600160e01b03198b1680875290845294829020938401805460ff191660019081179091558401549354825196875292860152848101959095526060840192909252608083015260a082015290517fc54d8ac1076cca8a03cd701b457e2c16e3d22861d111ddfa42d818219e5e1a639181900360c00190a1505050505050565b6002602081815260009586526040808720825294865284862081529285528385209092528352912080546001820154919092015460ff1683565b6001600160a01b038416301415610b075760405162461bcd60e51b815260040180806020018281038252603e815260200180610e41603e913960400191505060405180910390fd5b6001546001600160a01b03163314801590610b2b57506001600160a01b0384163014155b610b665760405162461bcd60e51b815260040180806020018281038252602e815260200180610ed8602e913960400191505060405180910390fd5b8015610bcf57600054610b8090429063ffffffff610dbc16565b6001600160a01b038681166000908152600260209081526040808320338452825280832093891683529281528282206001600160e01b0319881683529052206001810191909155829055610c19565b6001600160a01b038581166000908152600260209081526040808320338452825280832093881683529281528282206001600160e01b031987168352905290812060018101829055555b6001600160a01b03858116600081815260026020818152604080842033808652908352818520968b168086529683528185206001600160e01b03198b1680875290845294829020938401805460ff191660019081179091558401549354825196875292860152848101959095526060840192909252608083015260a082015290517fc54d8ac1076cca8a03cd701b457e2c16e3d22861d111ddfa42d818219e5e1a639181900360c00190a15050505050565b60005481565b6001546001600160a01b03163314610d1a5760405162461bcd60e51b815260040180806020018281038252602a815260200180610e7f602a913960400191505060405180910390fd5b600180546001600160a01b0390811660009081527fac33ff75c19e70fe83507db0d683fd3465c996598dc972688b7ace676c89077b6020818152604080842030808652908352818520635555555560e11b80875290845282862088018690559790951680855292825280842094845293815283832095835294909452204281830155600201805460ff19168217905580546001600160a01b0319169091179055565b600082820183811015610e16576040805162461bcd60e51b815260206004820152601b60248201527f536166654d6174683a206164646974696f6e206f766572666c6f770000000000604482015290519081900360640190fd5b9392505050565b60405180606001604052806000815260200160008152602001600015158152509056fe5065726d697373696f6e52656769737472793a2043616e7420736574207065726d697373696f6e7320746f205065726d697373696f6e52656769737472795065726d697373696f6e52656769737472793a204f6e6c792063616c6c61626c65206279206f776e65725065726d697373696f6e52656769737472793a2043616e742075736520616464726573732830292061732066726f6d5065726d697373696f6e52656769737472793a2043616e7420736574206f776e6572207065726d697373696f6e73a265627a7a7231582097e1a4c51e308535b8e26609fb65bbed5f49f495c644d54960801516ce9290c064736f6c634300051100325065726d697373696f6e52656769737472793a20496e76616c6964206f776e657220616464726573735065726d697373696f6e52656769737472793a20496e76616c69642074696d652064656c6179",
  "linkReferences": {},
  "deployedLinkReferences": {}
}