{
  "_format": "hh-sol-artifact-1",
  "contractName": "Redeemer",
  "sourceName": "dxdao-contracts/contracts/daostack/utils/Redeemer.sol",
  "abi": [
    {
      "constant": false,
      "inputs": [
        {
          "internalType": "contract ContributionReward",
          "name": "_contributionReward",
          "type": "address"
        },
        {
          "internalType": "contract GenesisProtocol",
          "name": "_genesisProtocol",
          "type": "address"
        },
        {
          "internalType": "bytes32",
          "name": "_proposalId",
          "type": "bytes32"
        },
        {
          "internalType": "contract Avatar",
          "name": "_avatar",
          "type": "address"
        },
        {
          "internalType": "address",
          "name": "_beneficiary",
          "type": "address"
        }
      ],
      "name": "redeem",
      "outputs": [
        {
          "internalType": "uint256[3]",
          "name": "gpRewards",
          "type": "uint256[3]"
        },
        {
          "internalType": "uint256[2]",
          "name": "gpDaoBountyReward",
          "type": "uint256[2]"
        },
        {
          "internalType": "bool",
          "name": "executed",
          "type": "bool"
        },
        {
          "internalType": "uint256",
          "name": "winningVote",
          "type": "uint256"
        },
        {
          "internalType": "int256",
          "name": "crReputationReward",
          "type": "int256"
        },
        {
          "internalType": "uint256",
          "name": "crNativeTokenReward",
          "type": "uint256"
        },
        {
          "internalType": "uint256",
          "name": "crEthReward",
          "type": "uint256"
        },
        {
          "internalType": "uint256",
          "name": "crExternalTokenReward",
          "type": "uint256"
        }
      ],
      "payable": false,
      "stateMutability": "nonpayable",
      "type": "function"
    }
  ],
  "bytecode": "0x608060405234801561001057600080fd5b50610b30806100206000396000f3fe608060405234801561001057600080fd5b506004361061002b5760003560e01c806354ca023f14610030575b600080fd5b610076600480360360a081101561004657600080fd5b506001600160a01b0381358116916020810135821691604082013591606081013582169160809091013516610108565b6040518089606080838360005b8381101561009b578181015183820152602001610083565b5050505090500188600260200280838360005b838110156100c65781810151838201526020016100ae565b50505050905001871515151581526020018681526020018581526020018481526020018381526020018281526020019850505050505050505060405180910390f35b610110610a80565b610118610a9e565b600080600080600080600061012e8d8d8c6101f9565b939c50919a5098509650905080156101e85760008e6001600160a01b0316633a256daa8e8e6040518363ffffffff1660e01b815260040180838152602001826001600160a01b03166001600160a01b031681526020019250505060206040518083038186803b1580156101a057600080fd5b505afa1580156101b4573d6000803e3d6000fd5b505050506040513d60208110156101ca57600080fd5b505111156101e8576101dd8e8d8d6105a6565b929750909550935091505b50959b50959b939950955095509550565b610201610a80565b610209610a9e565b600080600080886001600160a01b03166361d585da896040518263ffffffff1660e01b81526004018082815260200191505060206040518083038186803b15801561025357600080fd5b505afa158015610267573d6000803e3d6000fd5b505050506040513d602081101561027d57600080fd5b50519050600381600681111561028f57fe5b14806102a6575060048160068111156102a457fe5b145b806102bc575060058160068111156102ba57fe5b145b806102d2575060068160068111156102d057fe5b145b1561034c57886001600160a01b031663e751f271896040518263ffffffff1660e01b815260040180828152602001915050602060405180830381600087803b15801561031d57600080fd5b505af1158015610331573d6000803e3d6000fd5b505050506040513d602081101561034757600080fd5b505193505b886001600160a01b03166361d585da896040518263ffffffff1660e01b81526004018082815260200191505060206040518083038186803b15801561039057600080fd5b505afa1580156103a4573d6000803e3d6000fd5b505050506040513d60208110156103ba57600080fd5b5051905060028160068111156103cc57fe5b14806103e3575060018160068111156103e157fe5b145b1561059a57886001600160a01b031663cc3bf9e989896040518363ffffffff1660e01b815260040180838152602001826001600160a01b03166001600160a01b0316815260200192505050606060405180830381600087803b15801561044857600080fd5b505af115801561045c573d6000803e3d6000fd5b505050506040513d601f19601f82011682018060405250606081101561048157600080fd5b509550600281600681111561049257fe5b14156105235760408051636359036b60e01b8152600481018a90526001600160a01b0389811660248301528251908c1692636359036b92604480820193918290030181600087803b1580156104e657600080fd5b505af11580156104fa573d6000803e3d6000fd5b505050506040513d604081101561051057600080fd5b5080516020918201519187019190915285525b886001600160a01b0316633c133818896040518263ffffffff1660e01b81526004018082815260200191505060206040518083038186803b15801561056757600080fd5b505afa15801561057b573d6000803e3d6000fd5b505050506040513d602081101561059157600080fd5b50519250600191505b50939792965093509350565b6000806000806105b4610abc565b60018082526020808301919091526040805163e074ee5560e01b8152600481018a90526001600160a01b038981166024830152600260448301529151600093928c169263e074ee559260648082019391829003018186803b15801561061857600080fd5b505afa15801561062c573d6000803e3d6000fd5b505050506040513d602081101561064257600080fd5b505160408051636046f71d60e01b8152600481018b90526001600160a01b038a811660248301529151929350600092918c1691636046f71d91604480820192602092909190829003018186803b15801561069b57600080fd5b505afa1580156106af573d6000803e3d6000fd5b505050506040513d60208110156106c557600080fd5b505160408051631c3a571360e01b8152600481018c90526001600160a01b038b811660248301529151929350600092918d1691631c3a571391604480820192602092909190829003018186803b15801561071e57600080fd5b505afa158015610732573d6000803e3d6000fd5b505050506040513d602081101561074857600080fd5b505160408051637b85ddcd60e11b8152600481018d90526001600160a01b038c811660248301529151929350600092918e169163f70bbb9a91604480820192602092909190829003018186803b1580156107a157600080fd5b505afa1580156107b5573d6000803e3d6000fd5b505050506040513d60208110156107cb57600080fd5b505190506107df848463ffffffff610a1e16565b92508215806107f75750828a6001600160a01b031631105b156108085760006040860152610810565b600160408601525b6040805163e074ee5560e01b8152600481018d90526001600160a01b038c81166024830152600360448301529151918e169163e074ee5591606480820192602092909190829003018186803b15801561086857600080fd5b505afa15801561087c573d6000803e3d6000fd5b505050506040513d602081101561089257600080fd5b505193506108a6848363ffffffff610a1e16565b9150811580610935575081816001600160a01b03166370a082318c6040518263ffffffff1660e01b815260040180826001600160a01b03166001600160a01b0316815260200191505060206040518083038186803b15801561090757600080fd5b505afa15801561091b573d6000803e3d6000fd5b505050506040513d602081101561093157600080fd5b5051105b15610946576000606086015261094e565b600160608601525b604051636ac5f84d60e11b8152600481018c81526001600160a01b038c811660248401528e169163d58bf09a918e918e918a9160440182608080838360005b838110156109a557818101518382015260200161098d565b505050509050019350505050608060405180830381600087803b1580156109cb57600080fd5b505af11580156109df573d6000803e3d6000fd5b505050506040513d60808110156109f557600080fd5b50805160208201516040830151606090930151919f909e50919c509a5098505050505050505050565b600082610a2d57506000610a7a565b82820282848281610a3a57fe5b0414610a775760405162461bcd60e51b8152600401808060200182810382526021815260200180610adb6021913960400191505060405180910390fd5b90505b92915050565b60405180606001604052806003906020820280388339509192915050565b60405180604001604052806002906020820280388339509192915050565b6040518060800160405280600490602082028038833950919291505056fe536166654d6174683a206d756c7469706c69636174696f6e206f766572666c6f77a265627a7a7231582047aea5a69038bd94172927f37bd0f5b4b6ae8117fc8bf30d048a3c9ce33ba32864736f6c63430005110032",
  "linkReferences": {},
  "deployedLinkReferences": {}
}