{
  "_format": "hh-sol-artifact-1",
  "contractName": "WalletScheme",
  "sourceName": "contracts/schemes/WalletScheme.sol",
  "abi": [
    {
      "anonymous": false,
      "inputs": [
        {
          "indexed": true,
          "internalType": "bytes32",
          "name": "_proposalId",
          "type": "bytes32"
        }
      ],
      "name": "NewCallProposal",
      "type": "event"
    },
    {
      "anonymous": false,
      "inputs": [
        {
          "indexed": true,
          "internalType": "bytes32",
          "name": "_proposalId",
          "type": "bytes32"
        },
        {
          "indexed": false,
          "internalType": "bool[]",
          "name": "_callsSucessResult",
          "type": "bool[]"
        },
        {
          "indexed": false,
          "internalType": "bytes[]",
          "name": "_callsDataResult",
          "type": "bytes[]"
        }
      ],
      "name": "ProposalExecuted",
      "type": "event"
    },
    {
      "anonymous": false,
      "inputs": [
        {
          "indexed": true,
          "internalType": "bytes32",
          "name": "_proposalId",
          "type": "bytes32"
        },
        {
          "indexed": false,
          "internalType": "int256",
          "name": "_param",
          "type": "int256"
        }
      ],
      "name": "ProposalExecutedByVotingMachine",
      "type": "event"
    },
    {
      "anonymous": false,
      "inputs": [
        {
          "indexed": true,
          "internalType": "bytes32",
          "name": "_proposalId",
          "type": "bytes32"
        }
      ],
      "name": "ProposalRejected",
      "type": "event"
    },
    {
      "payable": true,
      "stateMutability": "payable",
      "type": "fallback"
    },
    {
      "constant": true,
      "inputs": [],
      "name": "ERC20_TRANSFER_SIGNATURE",
      "outputs": [
        {
          "internalType": "bytes4",
          "name": "",
          "type": "bytes4"
        }
      ],
      "payable": false,
      "stateMutability": "view",
      "type": "function"
    },
    {
      "constant": true,
      "inputs": [],
      "name": "avatar",
      "outputs": [
        {
          "internalType": "contract Avatar",
          "name": "",
          "type": "address"
        }
      ],
      "payable": false,
      "stateMutability": "view",
      "type": "function"
    },
    {
      "constant": true,
      "inputs": [
        {
          "internalType": "contract IERC20",
          "name": "_stakingToken",
          "type": "address"
        },
        {
          "internalType": "bytes32",
          "name": "_proposalId",
          "type": "bytes32"
        }
      ],
      "name": "balanceOfStakingToken",
      "outputs": [
        {
          "internalType": "uint256",
          "name": "",
          "type": "uint256"
        }
      ],
      "payable": false,
      "stateMutability": "view",
      "type": "function"
    },
    {
      "constant": false,
      "inputs": [
        {
          "internalType": "uint256",
          "name": "_amount",
          "type": "uint256"
        },
        {
          "internalType": "address",
          "name": "_beneficiary",
          "type": "address"
        },
        {
          "internalType": "bytes32",
          "name": "_proposalId",
          "type": "bytes32"
        }
      ],
      "name": "burnReputation",
      "outputs": [
        {
          "internalType": "bool",
          "name": "",
          "type": "bool"
        }
      ],
      "payable": false,
      "stateMutability": "nonpayable",
      "type": "function"
    },
    {
      "constant": true,
      "inputs": [],
      "name": "controllerAddress",
      "outputs": [
        {
          "internalType": "address",
          "name": "",
          "type": "address"
        }
      ],
      "payable": false,
      "stateMutability": "view",
      "type": "function"
    },
    {
      "constant": true,
      "inputs": [
        {
          "internalType": "bytes",
          "name": "_data",
          "type": "bytes"
        }
      ],
      "name": "erc20TransferDecode",
      "outputs": [
        {
          "internalType": "address",
          "name": "to",
          "type": "address"
        },
        {
          "internalType": "uint256",
          "name": "value",
          "type": "uint256"
        }
      ],
      "payable": false,
      "stateMutability": "pure",
      "type": "function"
    },
    {
      "constant": false,
      "inputs": [
        {
          "internalType": "bytes32",
          "name": "_proposalId",
          "type": "bytes32"
        },
        {
          "internalType": "int256",
          "name": "_decision",
          "type": "int256"
        }
      ],
      "name": "executeProposal",
      "outputs": [
        {
          "internalType": "bool",
          "name": "",
          "type": "bool"
        }
      ],
      "payable": false,
      "stateMutability": "nonpayable",
      "type": "function"
    },
    {
      "constant": true,
      "inputs": [
        {
          "internalType": "bytes",
          "name": "data",
          "type": "bytes"
        }
      ],
      "name": "getFuncSignature",
      "outputs": [
        {
          "internalType": "bytes4",
          "name": "",
          "type": "bytes4"
        }
      ],
      "payable": false,
      "stateMutability": "view",
      "type": "function"
    },
    {
      "constant": true,
      "inputs": [
        {
          "internalType": "bytes32",
          "name": "proposalId",
          "type": "bytes32"
        }
      ],
      "name": "getOrganizationProposal",
      "outputs": [
        {
          "internalType": "address[]",
          "name": "to",
          "type": "address[]"
        },
        {
          "internalType": "bytes[]",
          "name": "callData",
          "type": "bytes[]"
        },
        {
          "internalType": "uint256[]",
          "name": "value",
          "type": "uint256[]"
        },
        {
          "internalType": "enum WalletScheme.ProposalState",
          "name": "state",
          "type": "uint8"
        },
        {
          "internalType": "string",
          "name": "title",
          "type": "string"
        },
        {
          "internalType": "string",
          "name": "descriptionHash",
          "type": "string"
        }
      ],
      "payable": false,
      "stateMutability": "view",
      "type": "function"
    },
    {
      "constant": true,
      "inputs": [
        {
          "internalType": "uint256",
          "name": "proposalIndex",
          "type": "uint256"
        }
      ],
      "name": "getOrganizationProposalByIndex",
      "outputs": [
        {
          "internalType": "address[]",
          "name": "to",
          "type": "address[]"
        },
        {
          "internalType": "bytes[]",
          "name": "callData",
          "type": "bytes[]"
        },
        {
          "internalType": "uint256[]",
          "name": "value",
          "type": "uint256[]"
        },
        {
          "internalType": "enum WalletScheme.ProposalState",
          "name": "state",
          "type": "uint8"
        },
        {
          "internalType": "string",
          "name": "title",
          "type": "string"
        },
        {
          "internalType": "string",
          "name": "descriptionHash",
          "type": "string"
        }
      ],
      "payable": false,
      "stateMutability": "view",
      "type": "function"
    },
    {
      "constant": true,
      "inputs": [],
      "name": "getOrganizationProposals",
      "outputs": [
        {
          "internalType": "bytes32[]",
          "name": "",
          "type": "bytes32[]"
        }
      ],
      "payable": false,
      "stateMutability": "view",
      "type": "function"
    },
    {
      "constant": true,
      "inputs": [],
      "name": "getOrganizationProposalsLength",
      "outputs": [
        {
          "internalType": "uint256",
          "name": "",
          "type": "uint256"
        }
      ],
      "payable": false,
      "stateMutability": "view",
      "type": "function"
    },
    {
      "constant": true,
      "inputs": [
        {
          "internalType": "bytes32",
          "name": "_proposalId",
          "type": "bytes32"
        }
      ],
      "name": "getTotalReputationSupply",
      "outputs": [
        {
          "internalType": "uint256",
          "name": "",
          "type": "uint256"
        }
      ],
      "payable": false,
      "stateMutability": "view",
      "type": "function"
    },
    {
      "constant": false,
      "inputs": [
        {
          "internalType": "contract Avatar",
          "name": "_avatar",
          "type": "address"
        },
        {
          "internalType": "contract IntVoteInterface",
          "name": "_votingMachine",
          "type": "address"
        },
        {
          "internalType": "bytes32",
          "name": "_voteParams",
          "type": "bytes32"
        },
        {
          "internalType": "address",
          "name": "_controllerAddress",
          "type": "address"
        },
        {
          "internalType": "address",
          "name": "_permissionRegistry",
          "type": "address"
        }
      ],
      "name": "initialize",
      "outputs": [],
      "payable": false,
      "stateMutability": "nonpayable",
      "type": "function"
    },
    {
      "constant": false,
      "inputs": [
        {
          "internalType": "address",
          "name": "to",
          "type": "address"
        },
        {
          "internalType": "bytes",
          "name": "data",
          "type": "bytes"
        },
        {
          "internalType": "uint256",
          "name": "value",
          "type": "uint256"
        }
      ],
      "name": "isCallAllowed",
      "outputs": [
        {
          "internalType": "bool",
          "name": "",
          "type": "bool"
        }
      ],
      "payable": false,
      "stateMutability": "nonpayable",
      "type": "function"
    },
    {
      "constant": false,
      "inputs": [
        {
          "internalType": "uint256",
          "name": "_amount",
          "type": "uint256"
        },
        {
          "internalType": "address",
          "name": "_beneficiary",
          "type": "address"
        },
        {
          "internalType": "bytes32",
          "name": "_proposalId",
          "type": "bytes32"
        }
      ],
      "name": "mintReputation",
      "outputs": [
        {
          "internalType": "bool",
          "name": "",
          "type": "bool"
        }
      ],
      "payable": false,
      "stateMutability": "nonpayable",
      "type": "function"
    },
    {
      "constant": true,
      "inputs": [],
      "name": "permissionRegistry",
      "outputs": [
        {
          "internalType": "contract PermissionRegistry",
          "name": "",
          "type": "address"
        }
      ],
      "payable": false,
      "stateMutability": "view",
      "type": "function"
    },
    {
      "constant": true,
      "inputs": [
        {
          "internalType": "bytes32",
          "name": "",
          "type": "bytes32"
        }
      ],
      "name": "proposals",
      "outputs": [
        {
          "internalType": "enum WalletScheme.ProposalState",
          "name": "state",
          "type": "uint8"
        },
        {
          "internalType": "string",
          "name": "title",
          "type": "string"
        },
        {
          "internalType": "string",
          "name": "descriptionHash",
          "type": "string"
        }
      ],
      "payable": false,
      "stateMutability": "view",
      "type": "function"
    },
    {
      "constant": true,
      "inputs": [
        {
          "internalType": "address",
          "name": "",
          "type": "address"
        },
        {
          "internalType": "bytes32",
          "name": "",
          "type": "bytes32"
        }
      ],
      "name": "proposalsInfo",
      "outputs": [
        {
          "internalType": "uint256",
          "name": "blockNumber",
          "type": "uint256"
        },
        {
          "internalType": "contract Avatar",
          "name": "avatar",
          "type": "address"
        }
      ],
      "payable": false,
      "stateMutability": "view",
      "type": "function"
    },
    {
      "constant": true,
      "inputs": [
        {
          "internalType": "uint256",
          "name": "",
          "type": "uint256"
        }
      ],
      "name": "proposalsList",
      "outputs": [
        {
          "internalType": "bytes32",
          "name": "",
          "type": "bytes32"
        }
      ],
      "payable": false,
      "stateMutability": "view",
      "type": "function"
    },
    {
      "constant": false,
      "inputs": [
        {
          "internalType": "address[]",
          "name": "_to",
          "type": "address[]"
        },
        {
          "internalType": "bytes[]",
          "name": "_callData",
          "type": "bytes[]"
        },
        {
          "internalType": "uint256[]",
          "name": "_value",
          "type": "uint256[]"
        },
        {
          "internalType": "string",
          "name": "_title",
          "type": "string"
        },
        {
          "internalType": "string",
          "name": "_descriptionHash",
          "type": "string"
        }
      ],
      "name": "proposeCalls",
      "outputs": [
        {
          "internalType": "bytes32",
          "name": "",
          "type": "bytes32"
        }
      ],
      "payable": false,
      "stateMutability": "nonpayable",
      "type": "function"
    },
    {
      "constant": true,
      "inputs": [
        {
          "internalType": "address",
          "name": "_owner",
          "type": "address"
        },
        {
          "internalType": "bytes32",
          "name": "_proposalId",
          "type": "bytes32"
        }
      ],
      "name": "reputationOf",
      "outputs": [
        {
          "internalType": "uint256",
          "name": "",
          "type": "uint256"
        }
      ],
      "payable": false,
      "stateMutability": "view",
      "type": "function"
    },
    {
      "constant": false,
      "inputs": [
        {
          "internalType": "contract IERC20",
          "name": "_stakingToken",
          "type": "address"
        },
        {
          "internalType": "address",
          "name": "_beneficiary",
          "type": "address"
        },
        {
          "internalType": "uint256",
          "name": "_amount",
          "type": "uint256"
        },
        {
          "internalType": "bytes32",
          "name": "_proposalId",
          "type": "bytes32"
        }
      ],
      "name": "stakingTokenTransfer",
      "outputs": [
        {
          "internalType": "bool",
          "name": "",
          "type": "bool"
        }
      ],
      "payable": false,
      "stateMutability": "nonpayable",
      "type": "function"
    },
    {
      "constant": true,
      "inputs": [],
      "name": "voteParams",
      "outputs": [
        {
          "internalType": "bytes32",
          "name": "",
          "type": "bytes32"
        }
      ],
      "payable": false,
      "stateMutability": "view",
      "type": "function"
    },
    {
      "constant": true,
      "inputs": [],
      "name": "votingMachine",
      "outputs": [
        {
          "internalType": "contract IntVoteInterface",
          "name": "",
          "type": "address"
        }
      ],
      "payable": false,
      "stateMutability": "view",
      "type": "function"
    }
  ],
  "bytecode": "0x608060405234801561001057600080fd5b50612fcd806100206000396000f3fe6080604052600436106101665760003560e01c80639d4c162d116100d1578063bea75f281161008a578063d8708a7611610064578063d8708a7614610481578063e5957023146104a1578063e5e21164146104c1578063f81f8bf6146104d657610166565b8063bea75f281461041f578063d29b5d2f1461043f578063d3d1e7ba1461045f57610166565b80639d4c162d14610368578063b185d41d14610395578063b551c373146103b5578063b55a5c1c146103d5578063b632a912146103ea578063b9f67ac3146103ff57610166565b806359618a261161012357806359618a26146102865780635aef7de6146102b857806360bdbb3f146102cd5780636b8eb403146102fb57806372c41046146103285780639588378e1461034857610166565b806304a657991461019a578063088af182146101d157806332ed5b12146101fe5780633b72b3c71461022d5780633edf7ca1146102425780634b24ea4714610264575b6006546001600160a01b0316156101985760405162461bcd60e51b815260040161018f90612d9a565b60405180910390fd5b005b3480156101a657600080fd5b506101ba6101b53660046123c0565b6104f6565b6040516101c8929190612bbd565b60405180910390f35b3480156101dd57600080fd5b506101f16101ec3660046123c0565b610505565b6040516101c89190612ca0565b34801561020a57600080fd5b5061021e610219366004612365565b610510565b6040516101c893929190612cf1565b34801561023957600080fd5b506101f1610651565b34801561024e57600080fd5b50610257610668565b6040516101c89190612cae565b34801561027057600080fd5b50610279610677565b6040516101c89190612b30565b34801561029257600080fd5b506102a66102a1366004612365565b610686565b6040516101c896959493929190612bd8565b3480156102c457600080fd5b5061025761096d565b3480156102d957600080fd5b506102ed6102e8366004612174565b61097c565b6040516101c8929190612e02565b34801561030757600080fd5b5061031b6103163660046124be565b6109a6565b6040516101c89190612c92565b34801561033457600080fd5b5061031b610343366004612213565b610a60565b34801561035457600080fd5b5061031b610363366004612174565b610d47565b34801561037457600080fd5b506103886103833660046123a1565b610e3e565b6040516101c89190612c84565b3480156103a157600080fd5b506101986103b03660046123f5565b611467565b3480156103c157600080fd5b5061031b6103d0366004612365565b61150b565b3480156103e157600080fd5b50610257611656565b3480156103f657600080fd5b5061031b611665565b34801561040b57600080fd5b5061038861041a3660046121ae565b61166c565b34801561042b57600080fd5b5061038861043a36600461245d565b611839565b34801561044b57600080fd5b5061038861045a3660046124fb565b6119b1565b34801561046b57600080fd5b50610474611b26565b6040516101c89190612c73565b34801561048d57600080fd5b506102a661049c366004612365565b611b7e565b3480156104ad57600080fd5b5061031b6104bc366004612365565b611bbc565b3480156104cd57600080fd5b5061031b611bda565b3480156104e257600080fd5b506103886104f13660046124fb565b611be0565b60248101516044909101519091565b60208101515b919050565b60016020818152600092835260409283902060038101546004820180548651600261010097831615979097026000190190911695909504601f810185900485028601850190965285855260ff909116949193929091908301828280156105b75780601f1061058c576101008083540402835291602001916105b7565b820191906000526020600020905b81548152906001019060200180831161059a57829003601f168201915b5050505060058301805460408051602060026001851615610100026000190190941693909304601f81018490048402820184019092528181529495949350908301828280156106475780601f1061061c57610100808354040283529160200191610647565b820191906000526020600020905b81548152906001019060200180831161062a57829003601f168201915b5050505050905083565b60405161065d90612b25565b604051809103902081565b6003546001600160a01b031681565b6006546001600160a01b031681565b60008181526001602081815260408084206003810154815483518186028101860190945280845260609687968796919587958695909492850193600286019360ff909216926004870192600588019288919083018282801561071157602002820191906000526020600020905b81546001600160a01b031681526001909101906020018083116106f3575b5050505050955084805480602002602001604051908101604052809291908181526020016000905b828210156107e45760008481526020908190208301805460408051601f60026000196101006001871615020190941693909304928301859004850281018501909152818152928301828280156107d05780601f106107a5576101008083540402835291602001916107d0565b820191906000526020600020905b8154815290600101906020018083116107b357829003601f168201915b505050505081526020019060010190610739565b5050505094508380548060200260200160405190810160405280929190818152602001828054801561083557602002820191906000526020600020905b815481526020019060010190808311610821575b5050855460408051602060026001851615610100026000190190941693909304601f8101849004840282018401909252818152959950879450925084019050828280156108c35780601f10610898576101008083540402835291602001916108c3565b820191906000526020600020905b8154815290600101906020018083116108a657829003601f168201915b5050845460408051602060026001851615610100026000190190941693909304601f8101849004840282018401909252818152959750869450925084019050828280156109515780601f1061092657610100808354040283529160200191610951565b820191906000526020600020905b81548152906001019060200180831161093457829003601f168201915b5050505050905095509550955095509550955091939550919395565b6005546001600160a01b031681565b6000602081815292815260408082209093529081522080546001909101546001600160a01b031682565b336000908152602081815260408083208484529091528120600101546001600160a01b0316806109da576000915050610a5a565b6040516370a0823160e01b81526001600160a01b038516906370a0823190610a06908490600401612b3e565b60206040518083038186803b158015610a1e57600080fd5b505afa158015610a32573d6000803e3d6000fd5b505050506040513d601f19601f82011682018060405250610a569190810190612383565b9150505b92915050565b6000805b8651811015610aba57306001600160a01b0316878281518110610a8357fe5b60200260200101516001600160a01b03161415610ab25760405162461bcd60e51b815260040161018f90612dca565b600101610a64565b508451865114610adc5760405162461bcd60e51b815260040161018f90612daa565b8351865114610afd5760405162461bcd60e51b815260040161018f90612d8a565b60035460048054600554604051634439bdaf60e11b81526000946001600160a01b03908116946388737b5e94610b3d946002949193339391169101612d25565b602060405180830381600087803b158015610b5757600080fd5b505af1158015610b6b573d6000803e3d6000fd5b505050506040513d601f19601f82011682018060405250610b8f9190810190612383565b90506040518060c0016040528088815260200187815260200186815260200160006003811115610bbb57fe5b81526020808201879052604091820186905260008481526001825291909120825180519192610bef92849290910190611cf7565b506020828101518051610c089260018501920190611d5c565b5060408201518051610c24916002840191602090910190611db5565b5060608201518160030160006101000a81548160ff02191690836003811115610c4957fe5b021790555060808201518051610c69916004840191602090910190611dfc565b5060a08201518051610c85916005840191602090910190611dfc565b50506002805460018082019092557f405787fa12a823e0f2b7631cc41b3ba8828b3321ca811111fa75cd3aa3bb5ace018390556040805180820182524381526005546001600160a01b039081166020808401918252600354831660009081528082528581208982529091528481209351845590519290940180546001600160a01b03191692909116919091179055518392507f24dbef3a91439361d3a67e298cca809aa4d5f61b9c43e97c5d99e8468e5471d79190a290505b95945050505050565b6000610d51611e69565b5033600090815260208181526040808320858452825291829020825180840190935280548352600101546001600160a01b0316908201819052610d98576000915050610a5a565b80602001516001600160a01b03166389ae1c906040518163ffffffff1660e01b815260040160206040518083038186803b158015610dd557600080fd5b505afa158015610de9573d6000803e3d6000fd5b505050506040513d601f19601f82011682018060405250610e0d91908101906124dd565b815160405163277166bf60e11b81526001600160a01b039290921691634ee2cd7e91610a0691889190600401612bbd565b3360009081526020818152604080832085845290915281206001015483906001600160a01b0316610e815760405162461bcd60e51b815260040161018f90612dba565b60008481526001602052604081209060038083015460ff1690811115610ea357fe5b14610ec05760405162461bcd60e51b815260040161018f90612d5a565b83600114156113e95760038101805460ff1916600217905580546040805182815260208084028201019091526060918015610f0f57816020015b6060815260200190600190039081610efa5790505b508254604080518281526020808402820101909152919250606091908015610f41578160200160208202803883390190505b50905060005b83548110156113a75761103c846000018281548110610f6257fe5b6000918252602090912001546001860180546001600160a01b039092169184908110610f8a57fe5b600091825260209182902001805460408051601f60026000196101006001871615020190941693909304928301859004850281018501909152818152928301828280156110185780601f10610fed57610100808354040283529160200191611018565b820191906000526020600020905b815481529060010190602001808311610ffb57829003601f168201915b505050505086600201848154811061102c57fe5b906000526020600020015461166c565b15611314576006546001600160a01b03161580159061108b575060065484546001600160a01b039091169085908390811061107357fe5b6000918252602090912001546001600160a01b031614155b1561122e5760608460000182815481106110a157fe5b6000918252602090912001546001860180546001600160a01b0390921691849081106110c957fe5b90600052602060002001600560009054906101000a90046001600160a01b03168760020185815481106110f857fe5b90600052602060002001546040516024016111169493929190612b81565b60408051601f198184030181529181526020820180516001600160e01b03166368db844d60e11b17905260065490519192506001600160a01b031690600090611160908490612b0d565b60006040518083038185875af1925050503d806000811461119d576040519150601f19603f3d011682016040523d82523d6000602084013e6111a2565b606091505b5084518590859081106111b157fe5b602002602001018685815181106111c457fe5b6020026020010182905282151515158152505050600060608584815181106111e857fe5b6020026020010151806020019051611203919081019061231d565b915091508185858151811061121457fe5b60200260200101901515908115158152505050505061130f565b83600001818154811061123d57fe5b6000918252602090912001546002850180546001600160a01b03909216918390811061126557fe5b906000526020600020015485600101838154811061127f57fe5b906000526020600020016040516112969190612b19565b60006040518083038185875af1925050503d80600081146112d3576040519150601f19603f3d011682016040523d82523d6000602084013e6112d8565b606091505b5083518490849081106112e757fe5b602002602001018584815181106112fa57fe5b60200260200101829052821515151581525050505b611364565b604051806040016040528060018152602001600360fc1b81525083828151811061133a57fe5b6020026020010181905250600082828151811061135357fe5b911515602092830291909101909101525b81818151811061137057fe5b602002602001015161139f5760008881526001602052604090206003908101805460ff191690911790556113a7565b600101610f47565b50867fe134987599ae266ec90edeff1b26125b287dbb57b10822649432d1bb26537fba82846040516113da929190612c46565b60405180910390a25050611424565b60038101805460ff1916600117905560405185907f55295d4ce992922fa2e5ffbf3a3dcdb367de0a15e125ace083456017fd22060f90600090a25b847fe03a9047d2647ba513689fe86f20dfb187d4a3710aacc44cda022d7900a7f967856040516114549190612c92565b60405180910390a2506001949350505050565b6005546001600160a01b0316156114905760405162461bcd60e51b815260040161018f90612d7a565b6001600160a01b0385166114b65760405162461bcd60e51b815260040161018f90612d6a565b600580546001600160a01b039687166001600160a01b03199182161790915560038054958716958216959095179094556004929092556006805491851691841691909117905560078054919093169116179055565b6000611515611e69565b5033600090815260208181526040808320858452825291829020825180840190935280548352600101546001600160a01b031690820181905261155c57600091505061050b565b80602001516001600160a01b03166389ae1c906040518163ffffffff1660e01b815260040160206040518083038186803b15801561159957600080fd5b505afa1580156115ad573d6000803e3d6000fd5b505050506040513d601f19601f820116820180604052506115d191908101906124dd565b8151604051630981b24d60e41b81526001600160a01b03929092169163981b24d0916115ff91600401612c92565b60206040518083038186803b15801561161757600080fd5b505afa15801561162b573d6000803e3d6000fd5b505050506040513d601f19601f8201168201806040525061164f9190810190612383565b9392505050565b6007546001600160a01b031681565b6002545b90565b600080600080600061167d87610505565b9050806001600160e01b03191660405161169690612b25565b60405180910390206001600160e01b031916141561176b578791506116ba876104f6565b600754600654929a509097506001600160a01b0390811691636597c2e5918591166116e557306116f2565b6005546001600160a01b03165b8b856040518563ffffffff1660e01b81526004016117139493929190612b4c565b604080518083038186803b15801561172a57600080fd5b505afa15801561173e573d6000803e3d6000fd5b505050506040513d601f19601f82011682018060405250611762919081019061252d565b94509250611812565b6007546006546001600160a01b0391821691636597c2e591859116611790573061179d565b6005546001600160a01b03165b8b856040518563ffffffff1660e01b81526004016117be9493929190612b4c565b604080518083038186803b1580156117d557600080fd5b505afa1580156117e9573d6000803e3d6000fd5b505050506040513d601f19601f8201168201806040525061180d919081019061252d565b945092505b60008411801561182157508342115b801561182d5750858310155b98975050505050505050565b3360009081526020818152604080832084845290915281206001015482906001600160a01b031661187c5760405162461bcd60e51b815260040161018f90612dba565b336000908152602081815260408083208684529091529020600101546001600160a01b0316806118b05760009250506119a8565b806001600160a01b0316638da5cb5b6040518163ffffffff1660e01b815260040160206040518083038186803b1580156118e957600080fd5b505afa1580156118fd573d6000803e3d6000fd5b505050506040513d601f19601f820116820180604052506119219190810190612156565b6001600160a01b031663b9a04cdd888888856040518563ffffffff1660e01b81526004016119529493929190612cbc565b602060405180830381600087803b15801561196c57600080fd5b505af1158015611980573d6000803e3d6000fd5b505050506040513d601f19601f820116820180604052506119a491908101906122ff565b9250505b50949350505050565b3360009081526020818152604080832084845290915281206001015482906001600160a01b03166119f45760405162461bcd60e51b815260040161018f90612dba565b336000908152602081815260408083208684529091529020600101546001600160a01b031680611a28576000925050611b1e565b806001600160a01b0316638da5cb5b6040518163ffffffff1660e01b815260040160206040518083038186803b158015611a6157600080fd5b505afa158015611a75573d6000803e3d6000fd5b505050506040513d601f19601f82011682018060405250611a999190810190612156565b6001600160a01b031663eaf994b28787846040518463ffffffff1660e01b8152600401611ac893929190612dda565b602060405180830381600087803b158015611ae257600080fd5b505af1158015611af6573d6000803e3d6000fd5b505050506040513d601f19601f82011682018060405250611b1a91908101906122ff565b9250505b509392505050565b60606002805480602002602001604051908101604052809291908181526020018280548015611b7457602002820191906000526020600020905b815481526020019060010190808311611b60575b5050505050905090565b60608060606000606080611ba860028881548110611b9857fe5b9060005260206000200154610686565b949c939b5091995097509550909350915050565b60028181548110611bc957fe5b600091825260209091200154905081565b60045481565b3360009081526020818152604080832084845290915281206001015482906001600160a01b0316611c235760405162461bcd60e51b815260040161018f90612dba565b336000908152602081815260408083208684529091529020600101546001600160a01b031680611c57576000925050611b1e565b806001600160a01b0316638da5cb5b6040518163ffffffff1660e01b815260040160206040518083038186803b158015611c9057600080fd5b505afa158015611ca4573d6000803e3d6000fd5b505050506040513d601f19601f82011682018060405250611cc89190810190612156565b6001600160a01b0316636e94d2788787846040518463ffffffff1660e01b8152600401611ac893929190612dda565b828054828255906000526020600020908101928215611d4c579160200282015b82811115611d4c57825182546001600160a01b0319166001600160a01b03909116178255602090920191600190910190611d17565b50611d58929150611e80565b5090565b828054828255906000526020600020908101928215611da9579160200282015b82811115611da95782518051611d99918491602090910190611dfc565b5091602001919060010190611d7c565b50611d58929150611ea4565b828054828255906000526020600020908101928215611df0579160200282015b82811115611df0578251825591602001919060010190611dd5565b50611d58929150611ec7565b828054600181600116156101000203166002900490600052602060002090601f016020900481019282601f10611e3d57805160ff1916838001178555611df0565b82800160010185558215611df05791820182811115611df0578251825591602001919060010190611dd5565b604080518082019091526000808252602082015290565b61166991905b80821115611d585780546001600160a01b0319168155600101611e86565b61166991905b80821115611d58576000611ebe8282611ee1565b50600101611eaa565b61166991905b80821115611d585760008155600101611ecd565b50805460018160011615610100020316600290046000825580601f10611f075750611f25565b601f016020900490600052602060002090810190611f259190611ec7565b50565b8035610a5a81612f5b565b8051610a5a81612f5b565b600082601f830112611f4f57600080fd5b8135611f62611f5d82612e44565b612e1d565b91508181835260208401935060208101905083856020840282011115611f8757600080fd5b60005b83811015611fb35781611f9d8882611f28565b8452506020928301929190910190600101611f8a565b5050505092915050565b600082601f830112611fce57600080fd5b8135611fdc611f5d82612e44565b81815260209384019390925082018360005b83811015611fb3578135860161200488826120ab565b8452506020928301929190910190600101611fee565b600082601f83011261202b57600080fd5b8135612039611f5d82612e44565b9150818183526020840193506020810190508385602084028201111561205e57600080fd5b60005b83811015611fb357816120748882612095565b8452506020928301929190910190600101612061565b8051610a5a81612f6f565b8035610a5a81612f78565b8051610a5a81612f78565b600082601f8301126120bc57600080fd5b81356120ca611f5d82612e65565b915080825260208301602083018583830111156120e657600080fd5b6120f1838284612f0b565b50505092915050565b600082601f83011261210b57600080fd5b8151612119611f5d82612e65565b9150808252602083016020830185838301111561213557600080fd5b6120f1838284612f17565b8035610a5a81612f81565b8051610a5a81612f81565b60006020828403121561216857600080fd5b6000610a568484611f33565b6000806040838503121561218757600080fd5b60006121938585611f28565b92505060206121a485828601612095565b9150509250929050565b6000806000606084860312156121c357600080fd5b60006121cf8686611f28565b935050602084013567ffffffffffffffff8111156121ec57600080fd5b6121f8868287016120ab565b925050604061220986828701612095565b9150509250925092565b600080600080600060a0868803121561222b57600080fd5b853567ffffffffffffffff81111561224257600080fd5b61224e88828901611f3e565b955050602086013567ffffffffffffffff81111561226b57600080fd5b61227788828901611fbd565b945050604086013567ffffffffffffffff81111561229457600080fd5b6122a08882890161201a565b935050606086013567ffffffffffffffff8111156122bd57600080fd5b6122c9888289016120ab565b925050608086013567ffffffffffffffff8111156122e657600080fd5b6122f2888289016120ab565b9150509295509295909350565b60006020828403121561231157600080fd5b6000610a56848461208a565b6000806040838503121561233057600080fd5b600061233c858561208a565b925050602083015167ffffffffffffffff81111561235957600080fd5b6121a4858286016120fa565b60006020828403121561237757600080fd5b6000610a568484612095565b60006020828403121561239557600080fd5b6000610a5684846120a0565b600080604083850312156123b457600080fd5b60006121938585612095565b6000602082840312156123d257600080fd5b813567ffffffffffffffff8111156123e957600080fd5b610a56848285016120ab565b600080600080600060a0868803121561240d57600080fd5b60006124198888612140565b955050602061242a88828901612140565b945050604061243b88828901612095565b935050606061244c88828901611f28565b92505060806122f288828901611f28565b6000806000806080858703121561247357600080fd5b600061247f8787612140565b945050602061249087828801611f28565b93505060406124a187828801612095565b92505060606124b287828801612095565b91505092959194509250565b600080604083850312156124d157600080fd5b60006121938585612140565b6000602082840312156124ef57600080fd5b6000610a56848461214b565b60008060006060848603121561251057600080fd5b600061251c8686612095565b93505060206121f886828701611f28565b6000806040838503121561254057600080fd5b600061254c85856120a0565b92505060206121a4858286016120a0565b600061256983836125a4565b505060200190565b6000612569838361275e565b60006125698383612767565b600061164f83836127a8565b61259e81612eea565b82525050565b61259e81612eac565b60006125b882612e9f565b6125c28185612ea3565b93506125cd83612e8d565b8060005b838110156125fb5781516125e5888261255d565b97506125f083612e8d565b9250506001016125d1565b509495945050505050565b600061261182612e9f565b61261b8185612ea3565b935061262683612e8d565b8060005b838110156125fb57815161263e8882612571565b975061264983612e8d565b92505060010161262a565b600061265f82612e9f565b6126698185612ea3565b935061267483612e8d565b8060005b838110156125fb57815161268c888261257d565b975061269783612e8d565b925050600101612678565b60006126ad82612e9f565b6126b78185612ea3565b9350836020820285016126c985612e8d565b8060005b8581101561270357848403895281516126e68582612589565b94506126f183612e8d565b60209a909a01999250506001016126cd565b5091979650505050505050565b600061271b82612e9f565b6127258185612ea3565b935061273083612e8d565b8060005b838110156125fb578151612748888261257d565b975061275383612e8d565b925050600101612734565b61259e81612eb7565b61259e81611669565b61259e81612ebc565b600061278482612e9f565b61278e818561050b565b935061279e818560208601612f17565b9290920192915050565b60006127b382612e9f565b6127bd8185612ea3565b93506127cd818560208601612f17565b6127d681612f47565b9093019392505050565b6000815460018116600081146127fd576001811461282357612862565b607f600283041661280e8187612ea3565b60ff1984168152955050602085019250612862565b600282046128318187612ea3565b955061283c85612e93565b60005b8281101561285b5781548882015260019091019060200161283f565b8701945050505b505092915050565b60008154600181166000811461288757600181146128aa57612862565b607f6002830416612898818761050b565b60ff1984168152955085019250612862565b600282046128b8818761050b565b95506128c385612e93565b60005b828110156128e2578154888201526001909101906020016128c6565b5050909401949350505050565b61259e81612ec9565b61259e81612ef5565b61259e81612f00565b6000612917601c83612ea3565b7f6d7573742062652061207375626d69747465642070726f706f73616c00000000815260200192915050565b6000612950601583612ea3565b746176617461722063616e6e6f74206265207a65726f60581b815260200192915050565b6000612981601b83612ea3565b7f63616e2062652063616c6c6564206f6e6c79206f6e652074696d650000000000815260200192915050565b60006129ba601583612ea3565b740d2dcecc2d8d2c840beecc2d8eaca40d8cadccee8d605b1b815260200192915050565b60006129eb603483612ea3565b7f43616e7420726563656976652069662069742077696c6c206d616b652067656e81527332b934b19031b0b63639903a379030bb30ba30b960611b602082015260400192915050565b6000612a4160198361050b565b7f7472616e7366657228616464726573732c75696e743235362900000000000000815260190192915050565b6000612a7a601783612ea3565b7f696e76616c69642063616c6c44617461206c656e677468000000000000000000815260200192915050565b6000612ab3601283612ea3565b716f6e6c7920566f74696e674d616368696e6560701b815260200192915050565b6000612ae1601783612ea3565b7f696e76616c69642070726f706f73616c2063616c6c6572000000000000000000815260200192915050565b600061164f8284612779565b600061164f828461286a565b6000610a5a82612a34565b60208101610a5a82846125a4565b60208101610a5a8284612595565b60808101612b5a82876125a4565b612b676020830186612595565b612b7460408301856125a4565b610d3e6060830184612770565b60808101612b8f82876125a4565b8181036020830152612ba181866127e0565b9050612bb060408301856128ef565b610d3e6060830184612767565b60408101612bcb82856125a4565b61164f6020830184612767565b60c08082528101612be981896125ad565b90508181036020830152612bfd81886126a2565b90508181036040830152612c118187612710565b9050612c2060608301866128f8565b8181036080830152612c3281856127a8565b905081810360a083015261182d81846127a8565b60408082528101612c578185612606565b90508181036020830152612c6b81846126a2565b949350505050565b6020808252810161164f8184612654565b60208101610a5a828461275e565b60208101610a5a8284612767565b60208101610a5a8284612770565b60208101610a5a82846128ef565b60808101612cca82876128ef565b612cd760208301866125a4565b612ce46040830185612767565b610d3e60608301846128ef565b60608101612cff82866128f8565b8181036020830152612d1181856127a8565b90508181036040830152610d3e81846127a8565b60808101612d338287612901565b612d406020830186612767565b612d4d6040830185612595565b610d3e6060830184612595565b60208082528101610a5a8161290a565b60208082528101610a5a81612943565b60208082528101610a5a81612974565b60208082528101610a5a816129ad565b60208082528101610a5a816129de565b60208082528101610a5a81612a6d565b60208082528101610a5a81612aa6565b60208082528101610a5a81612ad4565b60608101612de88286612767565b612df560208301856125a4565b612c6b6040830184612595565b60408101612e108285612767565b61164f60208301846128ef565b60405181810167ffffffffffffffff81118282101715612e3c57600080fd5b604052919050565b600067ffffffffffffffff821115612e5b57600080fd5b5060209081020190565b600067ffffffffffffffff821115612e7c57600080fd5b506020601f91909101601f19160190565b60200190565b60009081526020902090565b5190565b90815260200190565b6000610a5a82612ede565b151590565b6001600160e01b03191690565b6000610a5a82612eac565b8061050b81612f51565b6001600160a01b031690565b6000610a5a82612ec9565b6000610a5a82612ed4565b6000610a5a82611669565b82818337506000910152565b60005b83811015612f32578181015183820152602001612f1a565b83811115612f41576000848401525b50505050565b601f01601f191690565b60048110611f2557fe5b612f6481612eac565b8114611f2557600080fd5b612f6481612eb7565b612f6481611669565b612f6481612ec956fea365627a7a72315820d3e95382e5f2967e0c19b3452ba5bf6dc6b34602ba254871ea5a8d9692c04ca06c6578706572696d656e74616cf564736f6c63430005110040",
  "linkReferences": {},
  "deployedLinkReferences": {}
}