{
  "_format": "hh-sol-artifact-1",
  "contractName": "WalletScheme",
  "sourceName": "dxdao-contracts/contracts/schemes/WalletScheme.sol",
  "abi": [
    {
      "anonymous": false,
      "inputs": [
        {
          "indexed": true,
          "internalType": "bytes32",
          "name": "_proposalId",
          "type": "bytes32"
        }
      ],
      "name": "NewCallProposal",
      "type": "event"
    },
    {
      "anonymous": false,
      "inputs": [
        {
          "indexed": true,
          "internalType": "bytes32",
          "name": "_proposalId",
          "type": "bytes32"
        },
        {
          "indexed": false,
          "internalType": "bool[]",
          "name": "_callsSucessResult",
          "type": "bool[]"
        },
        {
          "indexed": false,
          "internalType": "bytes[]",
          "name": "_callsDataResult",
          "type": "bytes[]"
        }
      ],
      "name": "ProposalExecuted",
      "type": "event"
    },
    {
      "anonymous": false,
      "inputs": [
        {
          "indexed": true,
          "internalType": "bytes32",
          "name": "_proposalId",
          "type": "bytes32"
        },
        {
          "indexed": false,
          "internalType": "int256",
          "name": "_param",
          "type": "int256"
        }
      ],
      "name": "ProposalExecutedByVotingMachine",
      "type": "event"
    },
    {
      "anonymous": false,
      "inputs": [
        {
          "indexed": true,
          "internalType": "bytes32",
          "name": "_proposalId",
          "type": "bytes32"
        }
      ],
      "name": "ProposalExecutionTimeout",
      "type": "event"
    },
    {
      "anonymous": false,
      "inputs": [
        {
          "indexed": true,
          "internalType": "bytes32",
          "name": "_proposalId",
          "type": "bytes32"
        }
      ],
      "name": "ProposalRejected",
      "type": "event"
    },
    {
      "payable": true,
      "stateMutability": "payable",
      "type": "fallback"
    },
    {
      "constant": true,
      "inputs": [],
      "name": "ANY_ADDRESS",
      "outputs": [
        {
          "internalType": "address",
          "name": "",
          "type": "address"
        }
      ],
      "payable": false,
      "stateMutability": "view",
      "type": "function"
    },
    {
      "constant": true,
      "inputs": [],
      "name": "ANY_SIGNATURE",
      "outputs": [
        {
          "internalType": "bytes4",
          "name": "",
          "type": "bytes4"
        }
      ],
      "payable": false,
      "stateMutability": "view",
      "type": "function"
    },
    {
      "constant": true,
      "inputs": [],
      "name": "ERC20_TRANSFER_SIGNATURE",
      "outputs": [
        {
          "internalType": "bytes4",
          "name": "",
          "type": "bytes4"
        }
      ],
      "payable": false,
      "stateMutability": "view",
      "type": "function"
    },
    {
      "constant": true,
      "inputs": [],
      "name": "SET_MAX_SECONDS_FOR_EXECUTION_SIGNATURE",
      "outputs": [
        {
          "internalType": "bytes4",
          "name": "",
          "type": "bytes4"
        }
      ],
      "payable": false,
      "stateMutability": "view",
      "type": "function"
    },
    {
      "constant": true,
      "inputs": [],
      "name": "avatar",
      "outputs": [
        {
          "internalType": "contract Avatar",
          "name": "",
          "type": "address"
        }
      ],
      "payable": false,
      "stateMutability": "view",
      "type": "function"
    },
    {
      "constant": true,
      "inputs": [
        {
          "internalType": "contract IERC20",
          "name": "_stakingToken",
          "type": "address"
        },
        {
          "internalType": "bytes32",
          "name": "_proposalId",
          "type": "bytes32"
        }
      ],
      "name": "balanceOfStakingToken",
      "outputs": [
        {
          "internalType": "uint256",
          "name": "",
          "type": "uint256"
        }
      ],
      "payable": false,
      "stateMutability": "view",
      "type": "function"
    },
    {
      "constant": false,
      "inputs": [
        {
          "internalType": "uint256",
          "name": "_amount",
          "type": "uint256"
        },
        {
          "internalType": "address",
          "name": "_beneficiary",
          "type": "address"
        },
        {
          "internalType": "bytes32",
          "name": "_proposalId",
          "type": "bytes32"
        }
      ],
      "name": "burnReputation",
      "outputs": [
        {
          "internalType": "bool",
          "name": "",
          "type": "bool"
        }
      ],
      "payable": false,
      "stateMutability": "nonpayable",
      "type": "function"
    },
    {
      "constant": true,
      "inputs": [],
      "name": "controllerAddress",
      "outputs": [
        {
          "internalType": "address",
          "name": "",
          "type": "address"
        }
      ],
      "payable": false,
      "stateMutability": "view",
      "type": "function"
    },
    {
      "constant": true,
      "inputs": [
        {
          "internalType": "bytes",
          "name": "_data",
          "type": "bytes"
        }
      ],
      "name": "erc20TransferDecode",
      "outputs": [
        {
          "internalType": "address",
          "name": "to",
          "type": "address"
        },
        {
          "internalType": "uint256",
          "name": "value",
          "type": "uint256"
        }
      ],
      "payable": false,
      "stateMutability": "pure",
      "type": "function"
    },
    {
      "constant": false,
      "inputs": [
        {
          "internalType": "bytes32",
          "name": "_proposalId",
          "type": "bytes32"
        },
        {
          "internalType": "int256",
          "name": "_decision",
          "type": "int256"
        }
      ],
      "name": "executeProposal",
      "outputs": [
        {
          "internalType": "bool",
          "name": "",
          "type": "bool"
        }
      ],
      "payable": false,
      "stateMutability": "nonpayable",
      "type": "function"
    },
    {
      "constant": true,
      "inputs": [
        {
          "internalType": "bytes",
          "name": "data",
          "type": "bytes"
        }
      ],
      "name": "getFuncSignature",
      "outputs": [
        {
          "internalType": "bytes4",
          "name": "",
          "type": "bytes4"
        }
      ],
      "payable": false,
      "stateMutability": "pure",
      "type": "function"
    },
    {
      "constant": true,
      "inputs": [
        {
          "internalType": "bytes32",
          "name": "proposalId",
          "type": "bytes32"
        }
      ],
      "name": "getOrganizationProposal",
      "outputs": [
        {
          "internalType": "address[]",
          "name": "to",
          "type": "address[]"
        },
        {
          "internalType": "bytes[]",
          "name": "callData",
          "type": "bytes[]"
        },
        {
          "internalType": "uint256[]",
          "name": "value",
          "type": "uint256[]"
        },
        {
          "internalType": "enum WalletScheme.ProposalState",
          "name": "state",
          "type": "uint8"
        },
        {
          "internalType": "string",
          "name": "title",
          "type": "string"
        },
        {
          "internalType": "string",
          "name": "descriptionHash",
          "type": "string"
        },
        {
          "internalType": "uint256",
          "name": "submittedTime",
          "type": "uint256"
        }
      ],
      "payable": false,
      "stateMutability": "view",
      "type": "function"
    },
    {
      "constant": true,
      "inputs": [
        {
          "internalType": "uint256",
          "name": "proposalIndex",
          "type": "uint256"
        }
      ],
      "name": "getOrganizationProposalByIndex",
      "outputs": [
        {
          "internalType": "address[]",
          "name": "to",
          "type": "address[]"
        },
        {
          "internalType": "bytes[]",
          "name": "callData",
          "type": "bytes[]"
        },
        {
          "internalType": "uint256[]",
          "name": "value",
          "type": "uint256[]"
        },
        {
          "internalType": "enum WalletScheme.ProposalState",
          "name": "state",
          "type": "uint8"
        },
        {
          "internalType": "string",
          "name": "title",
          "type": "string"
        },
        {
          "internalType": "string",
          "name": "descriptionHash",
          "type": "string"
        },
        {
          "internalType": "uint256",
          "name": "submittedTime",
          "type": "uint256"
        }
      ],
      "payable": false,
      "stateMutability": "view",
      "type": "function"
    },
    {
      "constant": true,
      "inputs": [],
      "name": "getOrganizationProposals",
      "outputs": [
        {
          "internalType": "bytes32[]",
          "name": "",
          "type": "bytes32[]"
        }
      ],
      "payable": false,
      "stateMutability": "view",
      "type": "function"
    },
    {
      "constant": true,
      "inputs": [],
      "name": "getOrganizationProposalsLength",
      "outputs": [
        {
          "internalType": "uint256",
          "name": "",
          "type": "uint256"
        }
      ],
      "payable": false,
      "stateMutability": "view",
      "type": "function"
    },
    {
      "constant": true,
      "inputs": [
        {
          "internalType": "bytes32",
          "name": "_proposalId",
          "type": "bytes32"
        }
      ],
      "name": "getTotalReputationSupply",
      "outputs": [
        {
          "internalType": "uint256",
          "name": "",
          "type": "uint256"
        }
      ],
      "payable": false,
      "stateMutability": "view",
      "type": "function"
    },
    {
      "constant": false,
      "inputs": [
        {
          "internalType": "contract Avatar",
          "name": "_avatar",
          "type": "address"
        },
        {
          "internalType": "contract IntVoteInterface",
          "name": "_votingMachine",
          "type": "address"
        },
        {
          "internalType": "bytes32",
          "name": "_voteParams",
          "type": "bytes32"
        },
        {
          "internalType": "address",
          "name": "_controllerAddress",
          "type": "address"
        },
        {
          "internalType": "address",
          "name": "_permissionRegistry",
          "type": "address"
        },
        {
          "internalType": "string",
          "name": "_schemeName",
          "type": "string"
        },
        {
          "internalType": "uint256",
          "name": "_maxSecondsForExecution",
          "type": "uint256"
        }
      ],
      "name": "initialize",
      "outputs": [],
      "payable": false,
      "stateMutability": "nonpayable",
      "type": "function"
    },
    {
      "constant": true,
      "inputs": [],
      "name": "maxSecondsForExecution",
      "outputs": [
        {
          "internalType": "uint256",
          "name": "",
          "type": "uint256"
        }
      ],
      "payable": false,
      "stateMutability": "view",
      "type": "function"
    },
    {
      "constant": false,
      "inputs": [
        {
          "internalType": "uint256",
          "name": "_amount",
          "type": "uint256"
        },
        {
          "internalType": "address",
          "name": "_beneficiary",
          "type": "address"
        },
        {
          "internalType": "bytes32",
          "name": "_proposalId",
          "type": "bytes32"
        }
      ],
      "name": "mintReputation",
      "outputs": [
        {
          "internalType": "bool",
          "name": "",
          "type": "bool"
        }
      ],
      "payable": false,
      "stateMutability": "nonpayable",
      "type": "function"
    },
    {
      "constant": true,
      "inputs": [],
      "name": "permissionRegistry",
      "outputs": [
        {
          "internalType": "contract PermissionRegistry",
          "name": "",
          "type": "address"
        }
      ],
      "payable": false,
      "stateMutability": "view",
      "type": "function"
    },
    {
      "constant": true,
      "inputs": [
        {
          "internalType": "bytes32",
          "name": "",
          "type": "bytes32"
        }
      ],
      "name": "proposals",
      "outputs": [
        {
          "internalType": "enum WalletScheme.ProposalState",
          "name": "state",
          "type": "uint8"
        },
        {
          "internalType": "string",
          "name": "title",
          "type": "string"
        },
        {
          "internalType": "string",
          "name": "descriptionHash",
          "type": "string"
        },
        {
          "internalType": "uint256",
          "name": "submittedTime",
          "type": "uint256"
        }
      ],
      "payable": false,
      "stateMutability": "view",
      "type": "function"
    },
    {
      "constant": true,
      "inputs": [
        {
          "internalType": "address",
          "name": "",
          "type": "address"
        },
        {
          "internalType": "bytes32",
          "name": "",
          "type": "bytes32"
        }
      ],
      "name": "proposalsInfo",
      "outputs": [
        {
          "internalType": "uint256",
          "name": "blockNumber",
          "type": "uint256"
        },
        {
          "internalType": "contract Avatar",
          "name": "avatar",
          "type": "address"
        }
      ],
      "payable": false,
      "stateMutability": "view",
      "type": "function"
    },
    {
      "constant": true,
      "inputs": [
        {
          "internalType": "uint256",
          "name": "",
          "type": "uint256"
        }
      ],
      "name": "proposalsList",
      "outputs": [
        {
          "internalType": "bytes32",
          "name": "",
          "type": "bytes32"
        }
      ],
      "payable": false,
      "stateMutability": "view",
      "type": "function"
    },
    {
      "constant": false,
      "inputs": [
        {
          "internalType": "address[]",
          "name": "_to",
          "type": "address[]"
        },
        {
          "internalType": "bytes[]",
          "name": "_callData",
          "type": "bytes[]"
        },
        {
          "internalType": "uint256[]",
          "name": "_value",
          "type": "uint256[]"
        },
        {
          "internalType": "string",
          "name": "_title",
          "type": "string"
        },
        {
          "internalType": "string",
          "name": "_descriptionHash",
          "type": "string"
        }
      ],
      "name": "proposeCalls",
      "outputs": [
        {
          "internalType": "bytes32",
          "name": "",
          "type": "bytes32"
        }
      ],
      "payable": false,
      "stateMutability": "nonpayable",
      "type": "function"
    },
    {
      "constant": true,
      "inputs": [
        {
          "internalType": "address",
          "name": "_owner",
          "type": "address"
        },
        {
          "internalType": "bytes32",
          "name": "_proposalId",
          "type": "bytes32"
        }
      ],
      "name": "reputationOf",
      "outputs": [
        {
          "internalType": "uint256",
          "name": "",
          "type": "uint256"
        }
      ],
      "payable": false,
      "stateMutability": "view",
      "type": "function"
    },
    {
      "constant": true,
      "inputs": [],
      "name": "schemeName",
      "outputs": [
        {
          "internalType": "string",
          "name": "",
          "type": "string"
        }
      ],
      "payable": false,
      "stateMutability": "view",
      "type": "function"
    },
    {
      "constant": false,
      "inputs": [
        {
          "internalType": "uint256",
          "name": "_maxSecondsForExecution",
          "type": "uint256"
        }
      ],
      "name": "setMaxSecondsForExecution",
      "outputs": [],
      "payable": false,
      "stateMutability": "nonpayable",
      "type": "function"
    },
    {
      "constant": false,
      "inputs": [
        {
          "internalType": "contract IERC20",
          "name": "_stakingToken",
          "type": "address"
        },
        {
          "internalType": "address",
          "name": "_beneficiary",
          "type": "address"
        },
        {
          "internalType": "uint256",
          "name": "_amount",
          "type": "uint256"
        },
        {
          "internalType": "bytes32",
          "name": "_proposalId",
          "type": "bytes32"
        }
      ],
      "name": "stakingTokenTransfer",
      "outputs": [
        {
          "internalType": "bool",
          "name": "",
          "type": "bool"
        }
      ],
      "payable": false,
      "stateMutability": "nonpayable",
      "type": "function"
    },
    {
      "constant": true,
      "inputs": [],
      "name": "voteParams",
      "outputs": [
        {
          "internalType": "bytes32",
          "name": "",
          "type": "bytes32"
        }
      ],
      "payable": false,
      "stateMutability": "view",
      "type": "function"
    },
    {
      "constant": true,
      "inputs": [],
      "name": "votingMachine",
      "outputs": [
        {
          "internalType": "contract IntVoteInterface",
          "name": "",
          "type": "address"
        }
      ],
      "payable": false,
      "stateMutability": "view",
      "type": "function"
    }
  ],
  "bytecode": "0x608060405234801561001057600080fd5b50613c6d806100206000396000f3fe6080604052600436106101cd5760003560e01c806372c41046116100f7578063c45ff28111610095578063db169ae011610064578063db169ae014610560578063e595702314610580578063e5e21164146105a0578063f81f8bf6146105b5576101cd565b8063c45ff281146104dc578063d29b5d2f146104fe578063d3d1e7ba1461051e578063d8708a7614610540576101cd565b8063b551c373116100d1578063b551c37314610472578063b55a5c1c14610492578063b632a912146104a7578063bea75f28146104bc576101cd565b806372c41046146104055780639588378e146104255780639d4c162d14610445576101cd565b80633f81a1921161016f5780635aef7de61161013e5780635aef7de61461038257806360bdbb3f14610397578063622c7c8d146103c55780636b8eb403146103e5576101cd565b80633f81a192146102f65780634b24ea47146103185780634f9ce2211461032d57806359618a261461034f576101cd565b80632f4ab7be116101ab5780632f4ab7be1461027a57806332ed5b121461028f5780633b72b3c7146102bf5780633edf7ca1146102d4576101cd565b806304a6579914610201578063069dfc5b14610238578063088af1821461025a575b6006546001600160a01b0316156101ff5760405162461bcd60e51b81526004016101f6906139e3565b60405180910390fd5b005b34801561020d57600080fd5b5061022161021c366004612bb5565b6105d5565b60405161022f92919061376b565b60405180910390f35b34801561024457600080fd5b5061024d6105e4565b60405161022f9190613869565b34801561026657600080fd5b5061024d610275366004612bb5565b6105ef565b34801561028657600080fd5b5061024d6105fa565b34801561029b57600080fd5b506102af6102aa366004612b5a565b610611565b60405161022f94939291906138ba565b3480156102cb57600080fd5b5061024d610758565b3480156102e057600080fd5b506102e9610764565b60405161022f9190613877565b34801561030257600080fd5b5061030b610773565b60405161022f91906136d0565b34801561032457600080fd5b5061030b61078b565b34801561033957600080fd5b5061034261079a565b60405161022f919061385b565b34801561035b57600080fd5b5061036f61036a366004612b5a565b6107a0565b60405161022f9796959493929190613786565b34801561038e57600080fd5b506102e9610a94565b3480156103a357600080fd5b506103b76103b23660046129ce565b610aa3565b60405161022f929190613a8b565b3480156103d157600080fd5b506101ff6103e0366004612b5a565b610acd565b3480156103f157600080fd5b50610342610400366004612d03565b610b1f565b34801561041157600080fd5b50610342610420366004612a08565b610bd9565b34801561043157600080fd5b506103426104403660046129ce565b611039565b34801561045157600080fd5b50610465610460366004612b96565b611130565b60405161022f919061384d565b34801561047e57600080fd5b5061034261048d366004612b5a565b611ce9565b34801561049e57600080fd5b506102e9611e34565b3480156104b357600080fd5b50610342611e43565b3480156104c857600080fd5b506104656104d7366004612ca2565b611e4a565b3480156104e857600080fd5b506104f1611fc2565b60405161022f9190613932565b34801561050a57600080fd5b50610465610519366004612d40565b612050565b34801561052a57600080fd5b506105336121c5565b60405161022f919061383c565b34801561054c57600080fd5b5061036f61055b366004612b5a565b61221d565b34801561056c57600080fd5b506101ff61057b366004612bea565b612260565b34801561058c57600080fd5b5061034261059b366004612b5a565b61233a565b3480156105ac57600080fd5b50610342612358565b3480156105c157600080fd5b506104656105d0366004612d40565b61235e565b60248101516044909101519091565b635555555560e11b81565b60208101515b919050565b604051610606906136ba565b604051809103902081565b60016020818152600092835260409283902060038101546004820180548651600261010097831615979097026000190190911695909504601f810185900485028601850190965285855260ff909116949193929091908301828280156106b85780601f1061068d576101008083540402835291602001916106b8565b820191906000526020600020905b81548152906001019060200180831161069b57829003601f168201915b5050505060058301805460408051602060026001851615610100026000190190941693909304601f81018490048402820184019092528181529495949350908301828280156107485780601f1061071d57610100808354040283529160200191610748565b820191906000526020600020905b81548152906001019060200180831161072b57829003601f168201915b5050505050908060060154905084565b604051610606906136c5565b6003546001600160a01b031681565b73aaaaaaaaaaaaaaaaaaaaaaaaaaaaaaaaaaaaaaaa81565b6006546001600160a01b031681565b60095481565b6000818152600160208181526040808420600381015460068201548254845181870281018701909552808552606097889788979196889687968996919593860194600287019460ff9092169360048801936005890193909289919083018282801561083457602002820191906000526020600020905b81546001600160a01b03168152600190910190602001808311610816575b5050505050965085805480602002602001604051908101604052809291908181526020016000905b828210156109075760008481526020908190208301805460408051601f60026000196101006001871615020190941693909304928301859004850281018501909152818152928301828280156108f35780601f106108c8576101008083540402835291602001916108f3565b820191906000526020600020905b8154815290600101906020018083116108d657829003601f168201915b50505050508152602001906001019061085c565b5050505095508480548060200260200160405190810160405280929190818152602001828054801561095857602002820191906000526020600020905b815481526020019060010190808311610944575b5050865460408051602060026001851615610100026000190190941693909304601f8101849004840282018401909252818152959a50889450925084019050828280156109e65780601f106109bb576101008083540402835291602001916109e6565b820191906000526020600020905b8154815290600101906020018083116109c957829003601f168201915b5050855460408051602060026001851615610100026000190190941693909304601f810184900484028201840190925281815295985087945092508401905082828015610a745780601f10610a4957610100808354040283529160200191610a74565b820191906000526020600020905b815481529060010190602001808311610a5757829003601f168201915b505050505091509650965096509650965096509650919395979092949650565b6005546001600160a01b031681565b6000602081815292815260408082209093529081522080546001909101546001600160a01b031682565b6005546001600160a01b03163314610af75760405162461bcd60e51b81526004016101f690613a43565b62015180811015610b1a5760405162461bcd60e51b81526004016101f6906139f3565b600955565b336000908152602081815260408083208484529091528120600101546001600160a01b031680610b53576000915050610bd3565b6040516370a0823160e01b81526001600160a01b038516906370a0823190610b7f9084906004016136de565b60206040518083038186803b158015610b9757600080fd5b505afa158015610bab573d6000803e3d6000fd5b505050506040513d601f19601f82011682018060405250610bcf9190810190612b78565b9150505b92915050565b6000805b8651811015610d92576000610c04878381518110610bf757fe5b60200260200101516105ef565b905073aaaaaaaaaaaaaaaaaaaaaaaaaaaaaaaaaaaaaaaa6001600160a01b0316888381518110610c3057fe5b60200260200101516001600160a01b03161415610c5f5760405162461bcd60e51b81526004016101f6906139b3565b6001600160e01b03198116635555555560e11b1415610c905760405162461bcd60e51b81526004016101f690613a13565b306001600160a01b0316888381518110610ca657fe5b60200260200101516001600160a01b0316141580610d085750604051610ccb906136ba565b60405180910390206001600160e01b031916816001600160e01b031916148015610d085750858281518110610cfc57fe5b60200260200101516000145b610d245760405162461bcd60e51b81526004016101f690613a33565b604051610d30906136c5565b60405180910390206001600160e01b031916816001600160e01b031916141580610d6d5750858281518110610d6157fe5b60200260200101516000145b610d895760405162461bcd60e51b81526004016101f690613a53565b50600101610bdd565b508451865114610db45760405162461bcd60e51b81526004016101f690613963565b8351865114610dd55760405162461bcd60e51b81526004016101f6906139d3565b60035460048054600554604051634439bdaf60e11b81526000946001600160a01b03908116946388737b5e94610e159460029491933393911691016138fd565b602060405180830381600087803b158015610e2f57600080fd5b505af1158015610e43573d6000803e3d6000fd5b505050506040513d601f19601f82011682018060405250610e679190810190612b78565b90506040518060e0016040528088815260200187815260200186815260200160006003811115610e9357fe5b815260200185815260200184815260200142815250600160008381526020019081526020016000206000820151816000019080519060200190610ed792919061249a565b506020828101518051610ef092600185019201906124ff565b5060408201518051610f0c916002840191602090910190612558565b5060608201518160030160006101000a81548160ff02191690836003811115610f3157fe5b021790555060808201518051610f5191600484019160209091019061259f565b5060a08201518051610f6d91600584019160209091019061259f565b5060c091909101516006909101556002805460018082019092557f405787fa12a823e0f2b7631cc41b3ba8828b3321ca811111fa75cd3aa3bb5ace018290556040805180820182524381526005546001600160a01b039081166020808401918252600354831660009081528082528581208882529091528481209351845590519290940180546001600160a01b031916929091169190911790555182917f24dbef3a91439361d3a67e298cca809aa4d5f61b9c43e97c5d99e8468e5471d791a290505b95945050505050565b600061104361260c565b5033600090815260208181526040808320858452825291829020825180840190935280548352600101546001600160a01b031690820181905261108a576000915050610bd3565b80602001516001600160a01b03166389ae1c906040518163ffffffff1660e01b815260040160206040518083038186803b1580156110c757600080fd5b505afa1580156110db573d6000803e3d6000fd5b505050506040513d601f19601f820116820180604052506110ff9190810190612d22565b815160405163277166bf60e11b81526001600160a01b039290921691634ee2cd7e91610b7f9188919060040161376b565b3360009081526020818152604080832085845290915281206001015483906001600160a01b03166111735760405162461bcd60e51b81526004016101f690613a23565b60008481526001602052604081209060038083015460ff169081111561119557fe5b146111b25760405162461bcd60e51b81526004016101f690613953565b426111cc600954836006015461247590919063ffffffff16565b1015611212576003818101805460ff1916909117905560405185907fedb2aa1661d4a779fd540e368a734217f10965fa04ef1dd94cb90ed75b96e52c90600090a2611ca6565b8360011415611c6b57805460408051828152602080840282010190915260009160609190801561124c578160200160208202803883390190505b50905060005b83548110156115245761130584600101828154811061126d57fe5b600091825260209182902001805460408051601f60026000196101006001871615020190941693909304928301859004850281018501909152818152928301828280156112fb5780601f106112d0576101008083540402835291602001916112fb565b820191906000526020600020905b8154815290600101906020018083116112de57829003601f168201915b50505050506105ef565b6001600160e01b03191660405161131b906136c5565b60405180910390206001600160e01b031916141561146a576000806113e086600101848154811061134857fe5b600091825260209182902001805460408051601f60026000196101006001871615020190941693909304928301859004850281018501909152818152928301828280156113d65780601f106113ab576101008083540402835291602001916113d6565b820191906000526020600020905b8154815290600101906020018083116113b957829003601f168201915b50505050506105d5565b915091508560000183815481106113f357fe5b6000918252602091829020015460405161141b926001600160a01b039092169185910161367c565b60408051601f1981840301815291815281516020928301206000818152600a909352912054909550611453908263ffffffff61247516565b6000868152600a6020526040902055506115049050565b600084600001828154811061147b57fe5b600091825260209182902001546040516114a293926001600160a01b03909216910161367c565b6040516020818303038152906040528051906020012092506114f48460020182815481106114cc57fe5b6000918252602080832090910154868352600a9091526040909120549063ffffffff61247516565b6000848152600a60205260409020555b8282828151811061151157fe5b6020908102919091010152600101611252565b5060038301805460ff191660021790558254604080518281526020808402820101909152606091801561156b57816020015b60608152602001906001900390816115565790505b50845460408051828152602080840282010190915291925060609190801561159d578160200160208202803883390190505b50905060005b8554811015611be35760008060006115c389600101858154811061126d57fe5b9050806001600160e01b0319166040516115dc906136c5565b60405180910390206001600160e01b0319161415611761576000806116098b600101878154811061134857fe5b6007548d549294509092506001600160a01b031690636597c2e5908d908990811061163057fe5b6000918252602090912001546006546001600160a01b0391821691166116565730611663565b6005546001600160a01b03165b85876040518563ffffffff1660e01b81526004016116849493929190613721565b604080518083038186803b15801561169b57600080fd5b505afa1580156116af573d6000803e3d6000fd5b505050506040513d601f19601f820116820180604052506116d39190810190612d8d565b8096508195505050600a60008c60000188815481106116ee57fe5b60009182526020918290200154604051611716926001600160a01b039092169187910161367c565b6040516020818303038152906040528051906020012081526020019081526020016000205484101561175a5760405162461bcd60e51b81526004016101f690613a03565b50506118b3565b6007546006546001600160a01b0391821691636597c2e591600091166117875730611794565b6005546001600160a01b03165b8c60000188815481106117a357fe5b6000918252602090912001546040516001600160e01b031960e086901b1681526117dd9392916001600160a01b03169087906004016136ec565b604080518083038186803b1580156117f457600080fd5b505afa158015611808573d6000803e3d6000fd5b505050506040513d601f19601f8201168201806040525061182c9190810190612d8d565b8094508193505050600a6000808b600001878154811061184857fe5b6000918252602091829020015460405161186f93926001600160a01b03909216910161367c565b604051602081830303815290604052805190602001208152602001908152602001600020548210156118b35760405162461bcd60e51b81526004016101f690613943565b6000831180156118c257508242115b6118de5760405162461bcd60e51b81526004016101f690613983565b6006546001600160a01b031615801590611928575060065489546001600160a01b03909116908a908690811061191057fe5b6000918252602090912001546001600160a01b031614155b15611ac757606089600001858154811061193e57fe5b60009182526020909120015460018b0180546001600160a01b03909216918790811061196657fe5b90600052602060002001600560009054906101000a90046001600160a01b03168c600201888154811061199557fe5b90600052602060002001546040516024016119b3949392919061372f565b60408051601f198184030181529181526020820180516001600160e01b03166368db844d60e11b17905260065490519192506001600160a01b0316906000906119fd9084906136a2565b60006040518083038185875af1925050503d8060008114611a3a576040519150601f19603f3d011682016040523d82523d6000602084013e611a3f565b606091505b508751889088908110611a4e57fe5b60200260200101898881518110611a6157fe5b60200260200101829052821515151581525050506000878681518110611a8357fe5b6020026020010151806020019051611a9e9190810190612b12565b50905080878781518110611aae57fe5b6020026020010190151590811515815250505050611ba8565b886000018481548110611ad657fe5b60009182526020909120015460028a0180546001600160a01b039092169186908110611afe57fe5b90600052602060002001548a6001018681548110611b1857fe5b90600052602060002001604051611b2f91906136ae565b60006040518083038185875af1925050503d8060008114611b6c576040519150601f19603f3d011682016040523d82523d6000602084013e611b71565b606091505b508651879087908110611b8057fe5b60200260200101888781518110611b9357fe5b60200260200101829052821515151581525050505b848481518110611bb457fe5b6020026020010151611bd85760405162461bcd60e51b81526004016101f6906139c3565b5050506001016115a3565b5060005b8351811015611c2757600a6000858381518110611c0057fe5b60200260200101518152602001908152602001600020600090558080600101915050611be7565b50887fe134987599ae266ec90edeff1b26125b287dbb57b10822649432d1bb26537fba8284604051611c5a92919061380f565b60405180910390a250505050611ca6565b60038101805460ff1916600117905560405185907f55295d4ce992922fa2e5ffbf3a3dcdb367de0a15e125ace083456017fd22060f90600090a25b847fe03a9047d2647ba513689fe86f20dfb187d4a3710aacc44cda022d7900a7f96785604051611cd6919061385b565b60405180910390a2506001949350505050565b6000611cf361260c565b5033600090815260208181526040808320858452825291829020825180840190935280548352600101546001600160a01b0316908201819052611d3a5760009150506105f5565b80602001516001600160a01b03166389ae1c906040518163ffffffff1660e01b815260040160206040518083038186803b158015611d7757600080fd5b505afa158015611d8b573d6000803e3d6000fd5b505050506040513d601f19601f82011682018060405250611daf9190810190612d22565b8151604051630981b24d60e41b81526001600160a01b03929092169163981b24d091611ddd9160040161385b565b60206040518083038186803b158015611df557600080fd5b505afa158015611e09573d6000803e3d6000fd5b505050506040513d601f19601f82011682018060405250611e2d9190810190612b78565b9392505050565b6007546001600160a01b031681565b6002545b90565b3360009081526020818152604080832084845290915281206001015482906001600160a01b0316611e8d5760405162461bcd60e51b81526004016101f690613a23565b336000908152602081815260408083208684529091529020600101546001600160a01b031680611ec1576000925050611fb9565b806001600160a01b0316638da5cb5b6040518163ffffffff1660e01b815260040160206040518083038186803b158015611efa57600080fd5b505afa158015611f0e573d6000803e3d6000fd5b505050506040513d601f19601f82011682018060405250611f3291908101906129b0565b6001600160a01b031663b9a04cdd888888856040518563ffffffff1660e01b8152600401611f639493929190613885565b602060405180830381600087803b158015611f7d57600080fd5b505af1158015611f91573d6000803e3d6000fd5b505050506040513d601f19601f82011682018060405250611fb59190810190612af4565b9250505b50949350505050565b6008805460408051602060026001851615610100026000190190941693909304601f810184900484028201840190925281815292918301828280156120485780601f1061201d57610100808354040283529160200191612048565b820191906000526020600020905b81548152906001019060200180831161202b57829003601f168201915b505050505081565b3360009081526020818152604080832084845290915281206001015482906001600160a01b03166120935760405162461bcd60e51b81526004016101f690613a23565b336000908152602081815260408083208684529091529020600101546001600160a01b0316806120c75760009250506121bd565b806001600160a01b0316638da5cb5b6040518163ffffffff1660e01b815260040160206040518083038186803b15801561210057600080fd5b505afa158015612114573d6000803e3d6000fd5b505050506040513d601f19601f8201168201806040525061213891908101906129b0565b6001600160a01b031663eaf994b28787846040518463ffffffff1660e01b815260040161216793929190613a63565b602060405180830381600087803b15801561218157600080fd5b505af1158015612195573d6000803e3d6000fd5b505050506040513d601f19601f820116820180604052506121b99190810190612af4565b9250505b509392505050565b6060600280548060200260200160405190810160405280929190818152602001828054801561221357602002820191906000526020600020905b8154815260200190600101908083116121ff575b5050505050905090565b6060806060600060608060006122496002898154811061223957fe5b90600052602060002001546107a0565b959e949d50929b5090995097509550909350915050565b6005546001600160a01b0316156122895760405162461bcd60e51b81526004016101f690613973565b6001600160a01b0388166122af5760405162461bcd60e51b81526004016101f6906139a3565b620151808110156122d25760405162461bcd60e51b81526004016101f6906139f3565b600580546001600160a01b03808b166001600160a01b031992831617909255600380548a8416908316179055600488905560068054888416908316179055600780549287169290911691909117905561232d60088484612623565b5060095550505050505050565b6002818154811061234757fe5b600091825260209091200154905081565b60045481565b3360009081526020818152604080832084845290915281206001015482906001600160a01b03166123a15760405162461bcd60e51b81526004016101f690613a23565b336000908152602081815260408083208684529091529020600101546001600160a01b0316806123d55760009250506121bd565b806001600160a01b0316638da5cb5b6040518163ffffffff1660e01b815260040160206040518083038186803b15801561240e57600080fd5b505afa158015612422573d6000803e3d6000fd5b505050506040513d601f19601f8201168201806040525061244691908101906129b0565b6001600160a01b0316636e94d2788787846040518463ffffffff1660e01b815260040161216793929190613a63565b600082820183811015611e2d5760405162461bcd60e51b81526004016101f690613993565b8280548282559060005260206000209081019282156124ef579160200282015b828111156124ef57825182546001600160a01b0319166001600160a01b039091161782556020909201916001909101906124ba565b506124fb929150612691565b5090565b82805482825590600052602060002090810192821561254c579160200282015b8281111561254c578251805161253c91849160209091019061259f565b509160200191906001019061251f565b506124fb9291506126b5565b828054828255906000526020600020908101928215612593579160200282015b82811115612593578251825591602001919060010190612578565b506124fb9291506126d8565b828054600181600116156101000203166002900490600052602060002090601f016020900481019282601f106125e057805160ff1916838001178555612593565b828001600101855582156125935791820182811115612593578251825591602001919060010190612578565b604080518082019091526000808252602082015290565b828054600181600116156101000203166002900490600052602060002090601f016020900481019282601f106126645782800160ff19823516178555612593565b82800160010185558215612593579182015b82811115612593578235825591602001919060010190612676565b611e4791905b808211156124fb5780546001600160a01b0319168155600101612697565b611e4791905b808211156124fb5760006126cf82826126f2565b506001016126bb565b611e4791905b808211156124fb57600081556001016126de565b50805460018160011615610100020316600290046000825580601f106127185750612736565b601f01602090049060005260206000209081019061273691906126d8565b50565b8035610bd381613bfb565b8051610bd381613bfb565b600082601f83011261276057600080fd5b813561277361276e82613acd565b613aa6565b9150818183526020840193506020810190508385602084028201111561279857600080fd5b60005b838110156127c457816127ae8882612739565b845250602092830192919091019060010161279b565b5050505092915050565b600082601f8301126127df57600080fd5b81356127ed61276e82613acd565b81815260209384019390925082018360005b838110156127c4578135860161281588826128bc565b84525060209283019291909101906001016127ff565b600082601f83011261283c57600080fd5b813561284a61276e82613acd565b9150818183526020840193506020810190508385602084028201111561286f57600080fd5b60005b838110156127c4578161288588826128a6565b8452506020928301929190910190600101612872565b8051610bd381613c0f565b8035610bd381613c18565b8051610bd381613c18565b600082601f8301126128cd57600080fd5b81356128db61276e82613aee565b915080825260208301602083018583830111156128f757600080fd5b612902838284613b94565b50505092915050565b600082601f83011261291c57600080fd5b815161292a61276e82613aee565b9150808252602083016020830185838301111561294657600080fd5b612902838284613ba0565b8035610bd381613c21565b8051610bd381613c21565b60008083601f84011261297957600080fd5b50813567ffffffffffffffff81111561299157600080fd5b6020830191508360018202830111156129a957600080fd5b9250929050565b6000602082840312156129c257600080fd5b6000610bcf8484612744565b600080604083850312156129e157600080fd5b60006129ed8585612739565b92505060206129fe858286016128a6565b9150509250929050565b600080600080600060a08688031215612a2057600080fd5b853567ffffffffffffffff811115612a3757600080fd5b612a438882890161274f565b955050602086013567ffffffffffffffff811115612a6057600080fd5b612a6c888289016127ce565b945050604086013567ffffffffffffffff811115612a8957600080fd5b612a958882890161282b565b935050606086013567ffffffffffffffff811115612ab257600080fd5b612abe888289016128bc565b925050608086013567ffffffffffffffff811115612adb57600080fd5b612ae7888289016128bc565b9150509295509295909350565b600060208284031215612b0657600080fd5b6000610bcf848461289b565b60008060408385031215612b2557600080fd5b6000612b31858561289b565b925050602083015167ffffffffffffffff811115612b4e57600080fd5b6129fe8582860161290b565b600060208284031215612b6c57600080fd5b6000610bcf84846128a6565b600060208284031215612b8a57600080fd5b6000610bcf84846128b1565b60008060408385031215612ba957600080fd5b60006129ed85856128a6565b600060208284031215612bc757600080fd5b813567ffffffffffffffff811115612bde57600080fd5b610bcf848285016128bc565b60008060008060008060008060e0898b031215612c0657600080fd5b6000612c128b8b612951565b9850506020612c238b828c01612951565b9750506040612c348b828c016128a6565b9650506060612c458b828c01612739565b9550506080612c568b828c01612739565b94505060a089013567ffffffffffffffff811115612c7357600080fd5b612c7f8b828c01612967565b935093505060c0612c928b828c016128a6565b9150509295985092959890939650565b60008060008060808587031215612cb857600080fd5b6000612cc48787612951565b9450506020612cd587828801612739565b9350506040612ce6878288016128a6565b9250506060612cf7878288016128a6565b91505092959194509250565b60008060408385031215612d1657600080fd5b60006129ed8585612951565b600060208284031215612d3457600080fd5b6000610bcf848461295c565b600080600060608486031215612d5557600080fd5b6000612d6186866128a6565b9350506020612d7286828701612739565b9250506040612d83868287016128a6565b9150509250925092565b60008060408385031215612da057600080fd5b6000612dac85856128b1565b92505060206129fe858286016128b1565b6000612dc98383612e15565b505060200190565b6000612dc98383612fcf565b6000612dc98383612fd8565b6000611e2d8383613019565b612dfe81613b73565b82525050565b612dfe612e1082613b35565b613bd0565b612dfe81613b35565b6000612e2982613b28565b612e338185613b2c565b9350612e3e83613b16565b8060005b83811015612e6c578151612e568882612dbd565b9750612e6183613b16565b925050600101612e42565b509495945050505050565b6000612e8282613b28565b612e8c8185613b2c565b9350612e9783613b16565b8060005b83811015612e6c578151612eaf8882612dd1565b9750612eba83613b16565b925050600101612e9b565b6000612ed082613b28565b612eda8185613b2c565b9350612ee583613b16565b8060005b83811015612e6c578151612efd8882612ddd565b9750612f0883613b16565b925050600101612ee9565b6000612f1e82613b28565b612f288185613b2c565b935083602082028501612f3a85613b16565b8060005b85811015612f745784840389528151612f578582612de9565b9450612f6283613b16565b60209a909a0199925050600101612f3e565b5091979650505050505050565b6000612f8c82613b28565b612f968185613b2c565b9350612fa183613b16565b8060005b83811015612e6c578151612fb98882612ddd565b9750612fc483613b16565b925050600101612fa5565b612dfe81613b40565b612dfe81611e47565b612dfe81613b45565b6000612ff582613b28565b612fff81856105f5565b935061300f818560208601613ba0565b9290920192915050565b600061302482613b28565b61302e8185613b2c565b935061303e818560208601613ba0565b61304781613be1565b9093019392505050565b60008154600181166000811461306e5760018114613094576130d3565b607f600283041661307f8187613b2c565b60ff19841681529550506020850192506130d3565b600282046130a28187613b2c565b95506130ad85613b1c565b60005b828110156130cc578154888201526001909101906020016130b0565b8701945050505b505092915050565b6000815460018116600081146130f8576001811461311b576130d3565b607f600283041661310981876105f5565b60ff19841681529550850192506130d3565b6002820461312981876105f5565b955061313485613b1c565b60005b8281101561315357815488820152600190910190602001613137565b5050909401949350505050565b612dfe81613b52565b612dfe81613b7e565b612dfe81613b89565b6000613188601683613b2c565b751d985b1d594818d85b1b081b9bdd08185b1b1bddd95960521b815260200192915050565b60006131ba601c83613b2c565b7f6d7573742062652061207375626d69747465642070726f706f73616c00000000815260200192915050565b60006131f3601883613b2c565b7f696e76616c6964205f63616c6c44617461206c656e6774680000000000000000815260200192915050565b600061322c601183613b2c565b7063616e6e6f7420696e697420747769636560781b815260200192915050565b6000613259601083613b2c565b6f18d85b1b081b9bdd08185b1b1bddd95960821b815260200192915050565b6000613285601b83613b2c565b7f536166654d6174683a206164646974696f6e206f766572666c6f770000000000815260200192915050565b60006132be601583613b2c565b746176617461722063616e6e6f74206265207a65726f60581b815260200192915050565b60006132ef604883613b2c565b7f63616e742070726f706f73652063616c6c7320746f203078614161416141616181527f4161416141616141614141414141414141616161416141614161614161614161602082015267206164647265737360c01b604082015260600192915050565b600061335f601583613b2c565b7418d85b1b08195e1958dd5d1a5bdb8819985a5b1959605a1b815260200192915050565b60006133906022836105f5565b7f7365744d61785365636f6e6473466f72457865637574696f6e2875696e743235815261362960f01b602082015260220192915050565b60006133d4601583613b2c565b740d2dcecc2d8d2c840beecc2d8eaca40d8cadccee8d605b1b815260200192915050565b6000613405603483613b2c565b7f43616e7420726563656976652069662069742077696c6c206d616b652067656e81527332b934b19031b0b63639903a379030bb30ba30b960611b602082015260400192915050565b600061345b603783613b2c565b7f5f6d61785365636f6e6473466f72457865637574696f6e2063616e742062652081527f6c657373207468616e203836343030207365636f6e6473000000000000000000602082015260400192915050565b60006134ba601c83613b2c565b7f65726332302076616c75652063616c6c206e6f7420616c6c6f77656400000000815260200192915050565b60006134f36019836105f5565b7f7472616e7366657228616464726573732c75696e743235362900000000000000815260190192915050565b600061352c602c83613b2c565b7f63616e742070726f706f73652063616c6c73207769746820307861616161616181526b6161207369676e617475726560a01b602082015260400192915050565b600061357a601283613b2c565b716f6e6c7920566f74696e674d616368696e6560701b815260200192915050565b60006135a8601783613b2c565b7f696e76616c69642070726f706f73616c2063616c6c6572000000000000000000815260200192915050565b60006135e1603a83613b2c565b7f7365744d61785365636f6e6473466f72457865637574696f6e2069732063616c81527f6c61626c65206f6e6c7920666f726d2074686520617661746172000000000000602082015260400192915050565b6000613640602783613b2c565b7f63616e742070726f706f7365204552433230207472616e736665727320776974815266682076616c756560c81b602082015260400192915050565b60006136888285612e04565b6014820191506136988284612e04565b5060140192915050565b6000611e2d8284612fea565b6000611e2d82846130db565b6000610bd382613383565b6000610bd3826134e6565b60208101610bd38284612e15565b60208101610bd38284612df5565b608081016136fa8287612df5565b6137076020830186612df5565b6137146040830185612e15565b6110306060830184612fe1565b608081016136fa8287612e15565b6080810161373d8287612e15565b818103602083015261374f8186613051565b905061375e6040830185613160565b6110306060830184612fd8565b604081016137798285612e15565b611e2d6020830184612fd8565b60e08082528101613797818a612e1e565b905081810360208301526137ab8189612f13565b905081810360408301526137bf8188612f81565b90506137ce6060830187613169565b81810360808301526137e08186613019565b905081810360a08301526137f48185613019565b905061380360c0830184612fd8565b98975050505050505050565b604080825281016138208185612e77565b905081810360208301526138348184612f13565b949350505050565b60208082528101611e2d8184612ec5565b60208101610bd38284612fcf565b60208101610bd38284612fd8565b60208101610bd38284612fe1565b60208101610bd38284613160565b608081016138938287613160565b6138a06020830186612e15565b6138ad6040830185612fd8565b6110306060830184613160565b608081016138c88287613169565b81810360208301526138da8186613019565b905081810360408301526138ee8185613019565b90506110306060830184612fd8565b6080810161390b8287613172565b6139186020830186612fd8565b6139256040830185612df5565b6110306060830184612df5565b60208082528101611e2d8184613019565b60208082528101610bd38161317b565b60208082528101610bd3816131ad565b60208082528101610bd3816131e6565b60208082528101610bd38161321f565b60208082528101610bd38161324c565b60208082528101610bd381613278565b60208082528101610bd3816132b1565b60208082528101610bd3816132e2565b60208082528101610bd381613352565b60208082528101610bd3816133c7565b60208082528101610bd3816133f8565b60208082528101610bd38161344e565b60208082528101610bd3816134ad565b60208082528101610bd38161351f565b60208082528101610bd38161356d565b60208082528101610bd38161359b565b60208082528101610bd3816135d4565b60208082528101610bd381613633565b60608101613a718286612fd8565b613a7e6020830185612e15565b6138346040830184612df5565b60408101613a998285612fd8565b611e2d6020830184613160565b60405181810167ffffffffffffffff81118282101715613ac557600080fd5b604052919050565b600067ffffffffffffffff821115613ae457600080fd5b5060209081020190565b600067ffffffffffffffff821115613b0557600080fd5b506020601f91909101601f19160190565b60200190565b60009081526020902090565b5190565b90815260200190565b6000610bd382613b67565b151590565b6001600160e01b03191690565b6000610bd382613b35565b806105f581613bf1565b6001600160a01b031690565b6000610bd382613b52565b6000610bd382613b5d565b6000610bd382611e47565b82818337506000910152565b60005b83811015613bbb578181015183820152602001613ba3565b83811115613bca576000848401525b50505050565b6000610bd3826000610bd382613beb565b601f01601f191690565b60601b90565b6004811061273657fe5b613c0481613b35565b811461273657600080fd5b613c0481613b40565b613c0481611e47565b613c0481613b5256fea365627a7a723158201e9a0067d85b91ecaaeac2bb76f6806b4ff482f456cadc010cf7c7d40bd4a78e6c6578706572696d656e74616cf564736f6c63430005110040",
  "linkReferences": {},
  "deployedLinkReferences": {}
}