{
  "_format": "hh-sol-artifact-1",
  "contractName": "WalletScheme",
  "sourceName": "dxdao-contracts/contracts/dxvote/WalletScheme.sol",
  "abi": [
    {
      "anonymous": false,
      "inputs": [
        {
          "indexed": true,
          "internalType": "bytes32",
          "name": "_proposalId",
          "type": "bytes32"
        },
        {
          "indexed": false,
          "internalType": "bool[]",
          "name": "_callsSucessResult",
          "type": "bool[]"
        },
        {
          "indexed": false,
          "internalType": "bytes[]",
          "name": "_callsDataResult",
          "type": "bytes[]"
        }
      ],
      "name": "ExecutionResults",
      "type": "event"
    },
    {
      "anonymous": false,
      "inputs": [
        {
          "indexed": true,
          "internalType": "bytes32",
          "name": "_proposalId",
          "type": "bytes32"
        },
        {
          "indexed": true,
          "internalType": "uint256",
          "name": "_state",
          "type": "uint256"
        }
      ],
      "name": "ProposalStateChange",
      "type": "event"
    },
    {
      "payable": true,
      "stateMutability": "payable",
      "type": "fallback"
    },
    {
      "constant": true,
      "inputs": [],
      "name": "ANY_ADDRESS",
      "outputs": [
        {
          "internalType": "address",
          "name": "",
          "type": "address"
        }
      ],
      "payable": false,
      "stateMutability": "view",
      "type": "function"
    },
    {
      "constant": true,
      "inputs": [],
      "name": "ANY_SIGNATURE",
      "outputs": [
        {
          "internalType": "bytes4",
          "name": "",
          "type": "bytes4"
        }
      ],
      "payable": false,
      "stateMutability": "view",
      "type": "function"
    },
    {
      "constant": true,
      "inputs": [],
      "name": "ERC20_APPROVE_SIGNATURE",
      "outputs": [
        {
          "internalType": "bytes4",
          "name": "",
          "type": "bytes4"
        }
      ],
      "payable": false,
      "stateMutability": "view",
      "type": "function"
    },
    {
      "constant": true,
      "inputs": [],
      "name": "ERC20_TRANSFER_SIGNATURE",
      "outputs": [
        {
          "internalType": "bytes4",
          "name": "",
          "type": "bytes4"
        }
      ],
      "payable": false,
      "stateMutability": "view",
      "type": "function"
    },
    {
      "constant": true,
      "inputs": [],
      "name": "SCHEME_TYPE",
      "outputs": [
        {
          "internalType": "string",
          "name": "",
          "type": "string"
        }
      ],
      "payable": false,
      "stateMutability": "view",
      "type": "function"
    },
    {
      "constant": true,
      "inputs": [],
      "name": "SET_MAX_SECONDS_FOR_EXECUTION_SIGNATURE",
      "outputs": [
        {
          "internalType": "bytes4",
          "name": "",
          "type": "bytes4"
        }
      ],
      "payable": false,
      "stateMutability": "view",
      "type": "function"
    },
    {
      "constant": true,
      "inputs": [],
      "name": "avatar",
      "outputs": [
        {
          "internalType": "contract Avatar",
          "name": "",
          "type": "address"
        }
      ],
      "payable": false,
      "stateMutability": "view",
      "type": "function"
    },
    {
      "constant": true,
      "inputs": [
        {
          "internalType": "contract IERC20",
          "name": "_stakingToken",
          "type": "address"
        },
        {
          "internalType": "bytes32",
          "name": "_proposalId",
          "type": "bytes32"
        }
      ],
      "name": "balanceOfStakingToken",
      "outputs": [
        {
          "internalType": "uint256",
          "name": "",
          "type": "uint256"
        }
      ],
      "payable": false,
      "stateMutability": "view",
      "type": "function"
    },
    {
      "constant": false,
      "inputs": [
        {
          "internalType": "uint256",
          "name": "_amount",
          "type": "uint256"
        },
        {
          "internalType": "address",
          "name": "_beneficiary",
          "type": "address"
        },
        {
          "internalType": "bytes32",
          "name": "_proposalId",
          "type": "bytes32"
        }
      ],
      "name": "burnReputation",
      "outputs": [
        {
          "internalType": "bool",
          "name": "",
          "type": "bool"
        }
      ],
      "payable": false,
      "stateMutability": "nonpayable",
      "type": "function"
    },
    {
      "constant": true,
      "inputs": [],
      "name": "controllerAddress",
      "outputs": [
        {
          "internalType": "address",
          "name": "",
          "type": "address"
        }
      ],
      "payable": false,
      "stateMutability": "view",
      "type": "function"
    },
    {
      "constant": true,
      "inputs": [
        {
          "internalType": "bytes",
          "name": "_data",
          "type": "bytes"
        }
      ],
      "name": "erc20TransferOrApproveDecode",
      "outputs": [
        {
          "internalType": "address",
          "name": "to",
          "type": "address"
        },
        {
          "internalType": "uint256",
          "name": "value",
          "type": "uint256"
        }
      ],
      "payable": false,
      "stateMutability": "pure",
      "type": "function"
    },
    {
      "constant": false,
      "inputs": [
        {
          "internalType": "bytes32",
          "name": "_proposalId",
          "type": "bytes32"
        },
        {
          "internalType": "int256",
          "name": "_decision",
          "type": "int256"
        }
      ],
      "name": "executeProposal",
      "outputs": [
        {
          "internalType": "bool",
          "name": "",
          "type": "bool"
        }
      ],
      "payable": false,
      "stateMutability": "nonpayable",
      "type": "function"
    },
    {
      "constant": true,
      "inputs": [
        {
          "internalType": "bytes",
          "name": "data",
          "type": "bytes"
        }
      ],
      "name": "getFuncSignature",
      "outputs": [
        {
          "internalType": "bytes4",
          "name": "",
          "type": "bytes4"
        }
      ],
      "payable": false,
      "stateMutability": "pure",
      "type": "function"
    },
    {
      "constant": true,
      "inputs": [
        {
          "internalType": "bytes32",
          "name": "proposalId",
          "type": "bytes32"
        }
      ],
      "name": "getOrganizationProposal",
      "outputs": [
        {
          "internalType": "address[]",
          "name": "to",
          "type": "address[]"
        },
        {
          "internalType": "bytes[]",
          "name": "callData",
          "type": "bytes[]"
        },
        {
          "internalType": "uint256[]",
          "name": "value",
          "type": "uint256[]"
        },
        {
          "internalType": "enum WalletScheme.ProposalState",
          "name": "state",
          "type": "uint8"
        },
        {
          "internalType": "string",
          "name": "title",
          "type": "string"
        },
        {
          "internalType": "string",
          "name": "descriptionHash",
          "type": "string"
        },
        {
          "internalType": "uint256",
          "name": "submittedTime",
          "type": "uint256"
        }
      ],
      "payable": false,
      "stateMutability": "view",
      "type": "function"
    },
    {
      "constant": true,
      "inputs": [
        {
          "internalType": "uint256",
          "name": "proposalIndex",
          "type": "uint256"
        }
      ],
      "name": "getOrganizationProposalByIndex",
      "outputs": [
        {
          "internalType": "address[]",
          "name": "to",
          "type": "address[]"
        },
        {
          "internalType": "bytes[]",
          "name": "callData",
          "type": "bytes[]"
        },
        {
          "internalType": "uint256[]",
          "name": "value",
          "type": "uint256[]"
        },
        {
          "internalType": "enum WalletScheme.ProposalState",
          "name": "state",
          "type": "uint8"
        },
        {
          "internalType": "string",
          "name": "title",
          "type": "string"
        },
        {
          "internalType": "string",
          "name": "descriptionHash",
          "type": "string"
        },
        {
          "internalType": "uint256",
          "name": "submittedTime",
          "type": "uint256"
        }
      ],
      "payable": false,
      "stateMutability": "view",
      "type": "function"
    },
    {
      "constant": true,
      "inputs": [],
      "name": "getOrganizationProposals",
      "outputs": [
        {
          "internalType": "bytes32[]",
          "name": "",
          "type": "bytes32[]"
        }
      ],
      "payable": false,
      "stateMutability": "view",
      "type": "function"
    },
    {
      "constant": true,
      "inputs": [],
      "name": "getOrganizationProposalsLength",
      "outputs": [
        {
          "internalType": "uint256",
          "name": "",
          "type": "uint256"
        }
      ],
      "payable": false,
      "stateMutability": "view",
      "type": "function"
    },
    {
      "constant": true,
      "inputs": [
        {
          "internalType": "bytes32",
          "name": "_proposalId",
          "type": "bytes32"
        }
      ],
      "name": "getTotalReputationSupply",
      "outputs": [
        {
          "internalType": "uint256",
          "name": "",
          "type": "uint256"
        }
      ],
      "payable": false,
      "stateMutability": "view",
      "type": "function"
    },
    {
      "constant": false,
      "inputs": [
        {
          "internalType": "contract Avatar",
          "name": "_avatar",
          "type": "address"
        },
        {
          "internalType": "contract IntVoteInterface",
          "name": "_votingMachine",
          "type": "address"
        },
        {
          "internalType": "bytes32",
          "name": "_voteParams",
          "type": "bytes32"
        },
        {
          "internalType": "address",
          "name": "_controllerAddress",
          "type": "address"
        },
        {
          "internalType": "address",
          "name": "_permissionRegistry",
          "type": "address"
        },
        {
          "internalType": "string",
          "name": "_schemeName",
          "type": "string"
        },
        {
          "internalType": "uint256",
          "name": "_maxSecondsForExecution",
          "type": "uint256"
        },
        {
          "internalType": "uint256",
          "name": "_maxRepPercentageChange",
          "type": "uint256"
        }
      ],
      "name": "initialize",
      "outputs": [],
      "payable": false,
      "stateMutability": "nonpayable",
      "type": "function"
    },
    {
      "constant": true,
      "inputs": [],
      "name": "maxRepPercentageChange",
      "outputs": [
        {
          "internalType": "uint256",
          "name": "",
          "type": "uint256"
        }
      ],
      "payable": false,
      "stateMutability": "view",
      "type": "function"
    },
    {
      "constant": true,
      "inputs": [],
      "name": "maxSecondsForExecution",
      "outputs": [
        {
          "internalType": "uint256",
          "name": "",
          "type": "uint256"
        }
      ],
      "payable": false,
      "stateMutability": "view",
      "type": "function"
    },
    {
      "constant": false,
      "inputs": [
        {
          "internalType": "uint256",
          "name": "_amount",
          "type": "uint256"
        },
        {
          "internalType": "address",
          "name": "_beneficiary",
          "type": "address"
        },
        {
          "internalType": "bytes32",
          "name": "_proposalId",
          "type": "bytes32"
        }
      ],
      "name": "mintReputation",
      "outputs": [
        {
          "internalType": "bool",
          "name": "",
          "type": "bool"
        }
      ],
      "payable": false,
      "stateMutability": "nonpayable",
      "type": "function"
    },
    {
      "constant": true,
      "inputs": [],
      "name": "permissionRegistry",
      "outputs": [
        {
          "internalType": "contract PermissionRegistry",
          "name": "",
          "type": "address"
        }
      ],
      "payable": false,
      "stateMutability": "view",
      "type": "function"
    },
    {
      "constant": true,
      "inputs": [
        {
          "internalType": "bytes32",
          "name": "",
          "type": "bytes32"
        }
      ],
      "name": "proposals",
      "outputs": [
        {
          "internalType": "enum WalletScheme.ProposalState",
          "name": "state",
          "type": "uint8"
        },
        {
          "internalType": "string",
          "name": "title",
          "type": "string"
        },
        {
          "internalType": "string",
          "name": "descriptionHash",
          "type": "string"
        },
        {
          "internalType": "uint256",
          "name": "submittedTime",
          "type": "uint256"
        }
      ],
      "payable": false,
      "stateMutability": "view",
      "type": "function"
    },
    {
      "constant": true,
      "inputs": [
        {
          "internalType": "address",
          "name": "",
          "type": "address"
        },
        {
          "internalType": "bytes32",
          "name": "",
          "type": "bytes32"
        }
      ],
      "name": "proposalsInfo",
      "outputs": [
        {
          "internalType": "uint256",
          "name": "blockNumber",
          "type": "uint256"
        },
        {
          "internalType": "contract Avatar",
          "name": "avatar",
          "type": "address"
        }
      ],
      "payable": false,
      "stateMutability": "view",
      "type": "function"
    },
    {
      "constant": true,
      "inputs": [
        {
          "internalType": "uint256",
          "name": "",
          "type": "uint256"
        }
      ],
      "name": "proposalsList",
      "outputs": [
        {
          "internalType": "bytes32",
          "name": "",
          "type": "bytes32"
        }
      ],
      "payable": false,
      "stateMutability": "view",
      "type": "function"
    },
    {
      "constant": false,
      "inputs": [
        {
          "internalType": "address[]",
          "name": "_to",
          "type": "address[]"
        },
        {
          "internalType": "bytes[]",
          "name": "_callData",
          "type": "bytes[]"
        },
        {
          "internalType": "uint256[]",
          "name": "_value",
          "type": "uint256[]"
        },
        {
          "internalType": "string",
          "name": "_title",
          "type": "string"
        },
        {
          "internalType": "string",
          "name": "_descriptionHash",
          "type": "string"
        }
      ],
      "name": "proposeCalls",
      "outputs": [
        {
          "internalType": "bytes32",
          "name": "",
          "type": "bytes32"
        }
      ],
      "payable": false,
      "stateMutability": "nonpayable",
      "type": "function"
    },
    {
      "constant": true,
      "inputs": [
        {
          "internalType": "address",
          "name": "_owner",
          "type": "address"
        },
        {
          "internalType": "bytes32",
          "name": "_proposalId",
          "type": "bytes32"
        }
      ],
      "name": "reputationOf",
      "outputs": [
        {
          "internalType": "uint256",
          "name": "",
          "type": "uint256"
        }
      ],
      "payable": false,
      "stateMutability": "view",
      "type": "function"
    },
    {
      "constant": true,
      "inputs": [],
      "name": "schemeName",
      "outputs": [
        {
          "internalType": "string",
          "name": "",
          "type": "string"
        }
      ],
      "payable": false,
      "stateMutability": "view",
      "type": "function"
    },
    {
      "constant": false,
      "inputs": [
        {
          "internalType": "uint256",
          "name": "_maxSecondsForExecution",
          "type": "uint256"
        }
      ],
      "name": "setMaxSecondsForExecution",
      "outputs": [],
      "payable": false,
      "stateMutability": "nonpayable",
      "type": "function"
    },
    {
      "constant": false,
      "inputs": [
        {
          "internalType": "contract IERC20",
          "name": "_stakingToken",
          "type": "address"
        },
        {
          "internalType": "address",
          "name": "_beneficiary",
          "type": "address"
        },
        {
          "internalType": "uint256",
          "name": "_amount",
          "type": "uint256"
        },
        {
          "internalType": "bytes32",
          "name": "_proposalId",
          "type": "bytes32"
        }
      ],
      "name": "stakingTokenTransfer",
      "outputs": [
        {
          "internalType": "bool",
          "name": "",
          "type": "bool"
        }
      ],
      "payable": false,
      "stateMutability": "nonpayable",
      "type": "function"
    },
    {
      "constant": true,
      "inputs": [],
      "name": "voteParams",
      "outputs": [
        {
          "internalType": "bytes32",
          "name": "",
          "type": "bytes32"
        }
      ],
      "payable": false,
      "stateMutability": "view",
      "type": "function"
    },
    {
      "constant": true,
      "inputs": [],
      "name": "votingMachine",
      "outputs": [
        {
          "internalType": "contract IntVoteInterface",
          "name": "",
          "type": "address"
        }
      ],
      "payable": false,
      "stateMutability": "view",
      "type": "function"
    }
  ],
  "bytecode": "0x60c0604052601060808190526f57616c6c657420536368656d6520763160801b60a090815262000033916001919062000048565b503480156200004157600080fd5b50620000ed565b828054600181600116156101000203166002900490600052602060002090601f016020900481019282601f106200008b57805160ff1916838001178555620000bb565b82800160010185558215620000bb579182015b82811115620000bb5782518255916020019190600101906200009e565b50620000c9929150620000cd565b5090565b620000ea91905b80821115620000c95760008155600101620000d4565b90565b61496180620000fd6000396000f3fe6080604052600436106101ee5760003560e01c80639588378e1161010d578063cac7d205116100a0578063db2131cd1161006f578063db2131cd1461059d578063e5957023146105b2578063e5e21164146105d2578063f5447c0a146105e7578063f81f8bf614610615576101ee565b8063cac7d20514610526578063d29b5d2f1461053b578063d3d1e7ba1461055b578063d8708a761461057d576101ee565b8063b632a912116100dc578063b632a912146104bc578063b9772a37146104d1578063bea75f28146104f1578063c45ff28114610511576101ee565b80639588378e1461043a5780639d4c162d1461045a578063b551c37314610487578063b55a5c1c146104a7576101ee565b80634b24ea471161018557806360bdbb3f1161015457806360bdbb3f146103ac578063622c7c8d146103da5780636b8eb403146103fa57806372c410461461041a576101ee565b80634b24ea471461032d5780634f9ce2211461034257806359618a26146103645780635aef7de614610397576101ee565b80633b72b3c7116101c15780633b72b3c7146102b25780633c4c17da146102c75780633edf7ca1146102e95780633f81a1921461030b576101ee565b8063069dfc5b14610222578063088af1821461024d5780632f4ab7be1461026d57806332ed5b1214610282575b6007546001600160a01b0316156102205760405162461bcd60e51b815260040161021790614717565b60405180910390fd5b005b34801561022e57600080fd5b50610237610635565b60405161024491906144fd565b60405180910390f35b34801561025957600080fd5b5061023761026836600461356e565b610640565b34801561027957600080fd5b5061023761064b565b34801561028e57600080fd5b506102a261029d366004613513565b610662565b604051610244949392919061454e565b3480156102be57600080fd5b506102376107a5565b3480156102d357600080fd5b506102dc6107b1565b60405161024491906145c6565b3480156102f557600080fd5b506102fe61083e565b604051610244919061450b565b34801561031757600080fd5b5061032061084d565b604051610244919061433c565b34801561033957600080fd5b50610320610865565b34801561034e57600080fd5b50610357610874565b60405161024491906144ef565b34801561037057600080fd5b5061038461037f366004613513565b61087a565b604051610244979695949392919061441a565b3480156103a357600080fd5b506102fe610b6d565b3480156103b857600080fd5b506103cc6103c7366004613387565b610b7c565b60405161024492919061475f565b3480156103e657600080fd5b506102206103f5366004613513565b610ba6565b34801561040657600080fd5b506103576104153660046136d0565b610bf8565b34801561042657600080fd5b506103576104353660046133c1565b610cb2565b34801561044657600080fd5b50610357610455366004613387565b611132565b34801561046657600080fd5b5061047a61047536600461354f565b611229565b60405161024491906144e1565b34801561049357600080fd5b506103576104a2366004613513565b61258d565b3480156104b357600080fd5b506102fe6126d8565b3480156104c857600080fd5b506103576126e7565b3480156104dd57600080fd5b506102206104ec3660046135a3565b6126ee565b3480156104fd57600080fd5b5061047a61050c36600461366f565b6127ce565b34801561051d57600080fd5b506102dc612946565b34801561053257600080fd5b506102376129a1565b34801561054757600080fd5b5061047a61055636600461370d565b6129ad565b34801561056757600080fd5b50610570612b22565b60405161024491906144d0565b34801561058957600080fd5b50610384610598366004613513565b612b7a565b3480156105a957600080fd5b50610357612bbd565b3480156105be57600080fd5b506103576105cd366004613513565b612bc3565b3480156105de57600080fd5b50610357612be1565b3480156105f357600080fd5b5061060761060236600461356e565b612be7565b6040516102449291906143ff565b34801561062157600080fd5b5061047a61063036600461370d565b612bf6565b635555555560e11b81565b60208101515b919050565b60405161065790614326565b604051809103902081565b600260208181526000928352604092839020600381015460048201805486516101006001831615026000190190911695909504601f810185900485028601850190965285855260ff909116949193929091908301828280156107055780601f106106da57610100808354040283529160200191610705565b820191906000526020600020905b8154815290600101906020018083116106e857829003601f168201915b5050505060058301805460408051602060026001851615610100026000190190941693909304601f81018490048402820184019092528181529495949350908301828280156107955780601f1061076a57610100808354040283529160200191610795565b820191906000526020600020905b81548152906001019060200180831161077857829003601f168201915b5050505050908060060154905084565b60405161065790614331565b60018054604080516020600284861615610100026000190190941693909304601f810184900484028201840190925281815292918301828280156108365780601f1061080b57610100808354040283529160200191610836565b820191906000526020600020905b81548152906001019060200180831161081957829003601f168201915b505050505081565b6004546001600160a01b031681565b73aaaaaaaaaaaaaaaaaaaaaaaaaaaaaaaaaaaaaaaa81565b6007546001600160a01b031681565b600a5481565b6000818152600260208181526040808420600381015460068201548254845181870281018701909552808552606097889788979196889687968996919560018701959487019460ff90921693600488019360058901939092899183018282801561090d57602002820191906000526020600020905b81546001600160a01b031681526001909101906020018083116108ef575b5050505050965085805480602002602001604051908101604052809291908181526020016000905b828210156109e05760008481526020908190208301805460408051601f60026000196101006001871615020190941693909304928301859004850281018501909152818152928301828280156109cc5780601f106109a1576101008083540402835291602001916109cc565b820191906000526020600020905b8154815290600101906020018083116109af57829003601f168201915b505050505081526020019060010190610935565b50505050955084805480602002602001604051908101604052809291908181526020018280548015610a3157602002820191906000526020600020905b815481526020019060010190808311610a1d575b5050865460408051602060026001851615610100026000190190941693909304601f8101849004840282018401909252818152959a5088945092508401905082828015610abf5780601f10610a9457610100808354040283529160200191610abf565b820191906000526020600020905b815481529060010190602001808311610aa257829003601f168201915b5050855460408051602060026001851615610100026000190190941693909304601f810184900484028201840190925281815295985087945092508401905082828015610b4d5780601f10610b2257610100808354040283529160200191610b4d565b820191906000526020600020905b815481529060010190602001808311610b3057829003601f168201915b505050505091509650965096509650965096509650919395979092949650565b6006546001600160a01b031681565b6000602081815292815260408082209093529081522080546001909101546001600160a01b031682565b6006546001600160a01b03163314610bd05760405162461bcd60e51b815260040161021790614657565b62015180811015610bf35760405162461bcd60e51b815260040161021790614617565b600a55565b336000908152602081815260408083208484529091528120600101546001600160a01b031680610c2c576000915050610cac565b6040516370a0823160e01b81526001600160a01b038516906370a0823190610c5890849060040161434a565b60206040518083038186803b158015610c7057600080fd5b505afa158015610c84573d6000803e3d6000fd5b505050506040513d601f19601f82011682018060405250610ca89190810190613531565b9150505b92915050565b6000805b8651811015610e9e576000610cdd878381518110610cd057fe5b6020026020010151610640565b905073aaaaaaaaaaaaaaaaaaaaaaaaaaaaaaaaaaaaaaaa6001600160a01b0316888381518110610d0957fe5b60200260200101516001600160a01b03161415610d385760405162461bcd60e51b8152600401610217906146a7565b6001600160e01b03198116635555555560e11b1415610d695760405162461bcd60e51b815260040161021790614727565b306001600160a01b0316888381518110610d7f57fe5b60200260200101516001600160a01b0316141580610de15750604051610da490614326565b60405180910390206001600160e01b031916816001600160e01b031916148015610de15750858281518110610dd557fe5b60200260200101516000145b610dfd5760405162461bcd60e51b8152600401610217906146e7565b604051610e0990614331565b60405180910390206001600160e01b031916816001600160e01b03191614158015610e5b5750604051610e3b9061431b565b60405180910390206001600160e01b031916816001600160e01b03191614155b80610e795750858281518110610e6d57fe5b60200260200101516000145b610e955760405162461bcd60e51b8152600401610217906145f7565b50600101610cb6565b508451865114610ec05760405162461bcd60e51b8152600401610217906146f7565b8351865114610ee15760405162461bcd60e51b8152600401610217906146c7565b60048054600554600654604051634439bdaf60e11b81526000946001600160a01b03948516946388737b5e94610f2294600294919333939091169101614591565b602060405180830381600087803b158015610f3c57600080fd5b505af1158015610f50573d6000803e3d6000fd5b505050506040513d601f19601f82011682018060405250610f749190810190613531565b90506040518060e0016040528088815260200187815260200186815260200160016004811115610fa057fe5b815260200185815260200184815260200142815250600260008381526020019081526020016000206000820151816000019080519060200190610fe4929190612e53565b506020828101518051610ffd9260018501920190612eb8565b5060408201518051611019916002840191602090910190612f11565b50606082015160038201805460ff1916600183600481111561103757fe5b021790555060808201518051611057916004840191602090910190612f58565b5060a08201518051611073916005840191602090910190612f58565b5060c091909101516006918201556003805460018082019092557fc2575a0e9e593c00f959f8c92f12db2869c3395a3b0502d05e2516446f71f85b0183905560408051808201825243815292546001600160a01b039081166020808601918252600454831660009081528082528481208882529091529290922093518455905192820180546001600160a01b031916939091169290921790915560405182906000805160206148ff83398151915290600090a390505b95945050505050565b600061113c612fc5565b5033600090815260208181526040808320858452825291829020825180840190935280548352600101546001600160a01b0316908201819052611183576000915050610cac565b80602001516001600160a01b03166389ae1c906040518163ffffffff1660e01b815260040160206040518083038186803b1580156111c057600080fd5b505afa1580156111d4573d6000803e3d6000fd5b505050506040513d601f19601f820116820180604052506111f891908101906136ef565b815160405163277166bf60e11b81526001600160a01b039290921691634ee2cd7e91610c58918891906004016143ff565b3360009081526020818152604080832085845290915281206001015483906001600160a01b031661126c5760405162461bcd60e51b8152600401610217906146b7565b600e5460ff161561128f5760405162461bcd60e51b815260040161021790614677565b600e805460ff19166001908117909155600085815260026020526040902090600382015460ff1660048111156112c157fe5b146112de5760405162461bcd60e51b815260040161021790614637565b426112f8600a548360060154612d0d90919063ffffffff16565b101561132e5760038101805460ff1916600490811790915560405186906000805160206148ff83398151915290600090a3612578565b836001141561254c576006546040805163089ae1c960e41b815290516000926001600160a01b0316916389ae1c90916004808301926020929190829003018186803b15801561137c57600080fd5b505afa158015611390573d6000803e3d6000fd5b505050506040513d601f19601f820116820180604052506113b491908101906136ef565b6001600160a01b03166318160ddd6040518163ffffffff1660e01b815260040160206040518083038186803b1580156113ec57600080fd5b505afa158015611400573d6000803e3d6000fd5b505050506040513d601f19601f820116820180604052506114249190810190613531565b90506000806060846000018054905060405190808252806020026020018201604052801561145c578160200160208202803883390190505b50855460408051828152602080840282010190915291925060609190801561148e578160200160208202803883390190505b50905060005b86548110156119cb576115478760010182815481106114af57fe5b600091825260209182902001805460408051601f600260001961010060018716150201909416939093049283018590048502810185019091528181529283018282801561153d5780601f106115125761010080835404028352916020019161153d565b820191906000526020600020905b81548152906001019060200180831161152057829003601f168201915b5050505050610640565b9450846001600160e01b03191660405161156090614331565b60405180910390206001600160e01b03191614806115a45750846001600160e01b0319166040516115909061431b565b60405180910390206001600160e01b031916145b15611824576000806116568960010184815481106115be57fe5b600091825260209182902001805460408051601f600260001961010060018716150201909416939093049283018590048502810185019091528181529283018282801561164c5780601f106116215761010080835404028352916020019161164c565b820191906000526020600020905b81548152906001019060200180831161162f57829003601f168201915b5050505050612be7565b9150915088600001838154811061166957fe5b60009182526020918290200154604051611691926001600160a01b03909216918591016142dd565b604051602081830303815290604052805190602001209550600d60008a60000185815481106116bc57fe5b60009182526020808320909101546001600160a01b0316835282019290925260400190205461173f578860000183815481106116f457fe5b9060005260206000200160009054906101000a90046001600160a01b031684848151811061171e57fe5b60200260200101906001600160a01b031690816001600160a01b0316815250505b61178781600d60008c600001878154811061175657fe5b60009182526020808320909101546001600160a01b031683528201929092526040019020549063ffffffff612d0d16565b600d60008b600001868154811061179a57fe5b60009182526020808320909101546001600160a01b03168352828101939093526040918201812093909355888352600c9091529020546117ee57858584815181106117e157fe5b6020026020010181815250505b6000868152600c602052604090205461180d908263ffffffff612d0d16565b6000878152600c6020526040902055506119c39050565b600087600001828154811061183557fe5b6000918252602091829020015460405161185c93926001600160a01b0390921691016142dd565b60408051601f19818403018152919052805160209182012060008052600d9091527f81955a0a11e65eac625c29e8882660bae4e165a75d72780094acae8ece9a29ee549094506118d55760008282815181106118b457fe5b60200260200101906001600160a01b031690816001600160a01b0316815250505b61192a8760020182815481106118e757fe5b6000918252602080832090910154918052600d90527f81955a0a11e65eac625c29e8882660bae4e165a75d72780094acae8ece9a29ee549063ffffffff612d0d16565b7f81955a0a11e65eac625c29e8882660bae4e165a75d72780094acae8ece9a29ee556000848152600c6020526040902054611979578383828151811061196c57fe5b6020026020010181815250505b6119b387600201828154811061198b57fe5b6000918252602080832090910154878352600c9091526040909120549063ffffffff612d0d16565b6000858152600c60205260409020555b600101611494565b5085546040805182815260208084028201019091526060918015611a0357816020015b60608152602001906001900390816119ee5790505b508754604080518281526020808402820101909152919250606091908015611a35578160200160208202803883390190505b509050600080805b8551811015611bc15760085486516001600160a01b0390911690636597c2e590889084908110611a6957fe5b60209081029190910101516007546001600160a01b0316611a8a5730611a97565b6006546001600160a01b03165b6040516001600160e01b031960e085901b168152611ac49291903090635555555560e11b9060040161438d565b604080518083038186803b158015611adb57600080fd5b505afa158015611aef573d6000803e3d6000fd5b505050506040513d601f19601f82011682018060405250611b13919081019061375a565b93509150821580611b675750600083118015611b675750600d6000878381518110611b3a57fe5b60200260200101516001600160a01b03166001600160a01b03168152602001908152602001600020548210155b611b835760405162461bcd60e51b815260040161021790614697565b600d6000878381518110611b9357fe5b6020908102919091018101516001600160a01b03168252810191909152604001600090812055600101611a3d565b5060005b8a5481101561222e57611be08b60010182815481106114af57fe5b9850886001600160e01b031916604051611bf990614331565b60405180910390206001600160e01b0319161480611c3d5750886001600160e01b031916604051611c299061431b565b60405180910390206001600160e01b031916145b15611daf57600080611c578d60010184815481106115be57fe5b6008548f549294509092506001600160a01b031690636597c2e5908f9086908110611c7e57fe5b6000918252602090912001546007546001600160a01b039182169116611ca45730611cb1565b6006546001600160a01b03165b858f6040518563ffffffff1660e01b8152600401611cd294939291906143b5565b604080518083038186803b158015611ce957600080fd5b505afa158015611cfd573d6000803e3d6000fd5b505050506040513d601f19601f82011682018060405250611d21919081019061375a565b8096508195505050600c60008e6000018581548110611d3c57fe5b60009182526020918290200154604051611d64926001600160a01b03909216918791016142dd565b60405160208183030381529060405280519060200120815260200190815260200160002054841015611da85760405162461bcd60e51b815260040161021790614707565b5050611f01565b6008546007546001600160a01b0391821691636597c2e59160009116611dd55730611de2565b6006546001600160a01b03165b8e6000018581548110611df157fe5b6000918252602090912001546040516001600160e01b031960e086901b168152611e2b9392916001600160a01b0316908f90600401614358565b604080518083038186803b158015611e4257600080fd5b505afa158015611e56573d6000803e3d6000fd5b505050506040513d601f19601f82011682018060405250611e7a919081019061375a565b8094508193505050600c6000808d6000018481548110611e9657fe5b60009182526020918290200154604051611ebd93926001600160a01b0390921691016142dd565b60405160208183030381529060405280519060200120815260200190815260200160002054821015611f015760405162461bcd60e51b815260040161021790614607565b600083118015611f1057508242115b611f2c5760405162461bcd60e51b8152600401610217906145d7565b6007546001600160a01b031615801590611f7657506007548b546001600160a01b03909116908c9083908110611f5e57fe5b6000918252602090912001546001600160a01b031614155b156121155760608b6000018281548110611f8c57fe5b60009182526020909120015460018d0180546001600160a01b039092169184908110611fb457fe5b90600052602060002001600660009054906101000a90046001600160a01b03168e6002018581548110611fe357fe5b906000526020600020015460405160240161200194939291906143c3565b60408051601f198184030181529181526020820180516001600160e01b03166368db844d60e11b17905260075490519192506001600160a01b03169060009061204b908490614303565b60006040518083038185875af1925050503d8060008114612088576040519150601f19603f3d011682016040523d82523d6000602084013e61208d565b606091505b50865187908590811061209c57fe5b602002602001018885815181106120af57fe5b602002602001018290528215151515815250505060008683815181106120d157fe5b60200260200101518060200190516120ec91908101906134cb565b509050808684815181106120fc57fe5b60200260200101901515908115158152505050506121f6565b8a600001818154811061212457fe5b60009182526020909120015460028c0180546001600160a01b03909216918390811061214c57fe5b90600052602060002001548c600101838154811061216657fe5b9060005260206000200160405161217d919061430f565b60006040518083038185875af1925050503d80600081146121ba576040519150601f19603f3d011682016040523d82523d6000602084013e6121bf565b606091505b5085518690849081106121ce57fe5b602002602001018784815181106121e157fe5b60200260200101829052821515151581525050505b83818151811061220257fe5b60200260200101516122265760405162461bcd60e51b815260040161021790614667565b600101611bc5565b50600660009054906101000a90046001600160a01b03166001600160a01b03166389ae1c906040518163ffffffff1660e01b815260040160206040518083038186803b15801561227d57600080fd5b505afa158015612291573d6000803e3d6000fd5b505050506040513d601f19601f820116820180604052506122b591908101906136ef565b6001600160a01b03166318160ddd6040518163ffffffff1660e01b815260040160206040518083038186803b1580156122ed57600080fd5b505afa158015612301573d6000803e3d6000fd5b505050506040513d601f19601f820116820180604052506123259190810190613531565b61235c6064612350612343600b546064612d0d90919063ffffffff16565b8d9063ffffffff612d3216565b9063ffffffff612d6c16565b1015801561247c5750600660009054906101000a90046001600160a01b03166001600160a01b03166389ae1c906040518163ffffffff1660e01b815260040160206040518083038186803b1580156123b357600080fd5b505afa1580156123c7573d6000803e3d6000fd5b505050506040513d601f19601f820116820180604052506123eb91908101906136ef565b6001600160a01b03166318160ddd6040518163ffffffff1660e01b815260040160206040518083038186803b15801561242357600080fd5b505afa158015612437573d6000803e3d6000fd5b505050506040513d601f19601f8201168201806040525061245b9190810190613531565b6124796064612350612343600b546064612dae90919063ffffffff16565b11155b6124985760405162461bcd60e51b815260040161021790614627565b60005b86518110156124db57600c60008883815181106124b457fe5b6020026020010151815260200190815260200160002060009055808060010191505061249b565b5060038a8101805460ff1916821790556040518f906000805160206148ff83398151915290600090a38d7f994d6e6491320bb0d97b7f84aca77e9e13ff409f1911682ddd406b5323191dcd84866040516125369291906144a3565b60405180910390a2505050505050505050612578565b60038101805460ff1916600290811790915560405186906000805160206148ff83398151915290600090a35b5050600e805460ff1916905550600192915050565b6000612597612fc5565b5033600090815260208181526040808320858452825291829020825180840190935280548352600101546001600160a01b03169082018190526125de576000915050610646565b80602001516001600160a01b03166389ae1c906040518163ffffffff1660e01b815260040160206040518083038186803b15801561261b57600080fd5b505afa15801561262f573d6000803e3d6000fd5b505050506040513d601f19601f8201168201806040525061265391908101906136ef565b8151604051630981b24d60e41b81526001600160a01b03929092169163981b24d091612681916004016144ef565b60206040518083038186803b15801561269957600080fd5b505afa1580156126ad573d6000803e3d6000fd5b505050506040513d601f19601f820116820180604052506126d19190810190613531565b9392505050565b6008546001600160a01b031681565b6003545b90565b6006546001600160a01b0316156127175760405162461bcd60e51b815260040161021790614647565b6001600160a01b03891661273d5760405162461bcd60e51b8152600401610217906146d7565b620151808210156127605760405162461bcd60e51b815260040161021790614617565b600680546001600160a01b03808c166001600160a01b031992831617909255600480548b841690831617905560058990556007805489841690831617905560088054928816929091169190911790556127bb60098585612fdc565b50600a91909155600b5550505050505050565b3360009081526020818152604080832084845290915281206001015482906001600160a01b03166128115760405162461bcd60e51b8152600401610217906146b7565b336000908152602081815260408083208684529091529020600101546001600160a01b03168061284557600092505061293d565b806001600160a01b0316638da5cb5b6040518163ffffffff1660e01b815260040160206040518083038186803b15801561287e57600080fd5b505afa158015612892573d6000803e3d6000fd5b505050506040513d601f19601f820116820180604052506128b69190810190613369565b6001600160a01b031663b9a04cdd888888856040518563ffffffff1660e01b81526004016128e79493929190614519565b602060405180830381600087803b15801561290157600080fd5b505af1158015612915573d6000803e3d6000fd5b505050506040513d601f19601f8201168201806040525061293991908101906134ad565b9250505b50949350505050565b6009805460408051602060026001851615610100026000190190941693909304601f810184900484028201840190925281815292918301828280156108365780601f1061080b57610100808354040283529160200191610836565b6040516106579061431b565b3360009081526020818152604080832084845290915281206001015482906001600160a01b03166129f05760405162461bcd60e51b8152600401610217906146b7565b336000908152602081815260408083208684529091529020600101546001600160a01b031680612a24576000925050612b1a565b806001600160a01b0316638da5cb5b6040518163ffffffff1660e01b815260040160206040518083038186803b158015612a5d57600080fd5b505afa158015612a71573d6000803e3d6000fd5b505050506040513d601f19601f82011682018060405250612a959190810190613369565b6001600160a01b031663eaf994b28787846040518463ffffffff1660e01b8152600401612ac493929190614737565b602060405180830381600087803b158015612ade57600080fd5b505af1158015612af2573d6000803e3d6000fd5b505050506040513d601f19601f82011682018060405250612b1691908101906134ad565b9250505b509392505050565b60606003805480602002602001604051908101604052809291908181526020018280548015612b7057602002820191906000526020600020905b815481526020019060010190808311612b5c575b5050505050905090565b606080606060006060806000612ba660038981548110612b9657fe5b906000526020600020015461087a565b959e949d50929b5090995097509550909350915050565b600b5481565b60038181548110612bd057fe5b600091825260209091200154905081565b60055481565b60248101516044909101519091565b3360009081526020818152604080832084845290915281206001015482906001600160a01b0316612c395760405162461bcd60e51b8152600401610217906146b7565b336000908152602081815260408083208684529091529020600101546001600160a01b031680612c6d576000925050612b1a565b806001600160a01b0316638da5cb5b6040518163ffffffff1660e01b815260040160206040518083038186803b158015612ca657600080fd5b505afa158015612cba573d6000803e3d6000fd5b505050506040513d601f19601f82011682018060405250612cde9190810190613369565b6001600160a01b0316636e94d2788787846040518463ffffffff1660e01b8152600401612ac493929190614737565b6000828201838110156126d15760405162461bcd60e51b8152600401610217906145e7565b600082612d4157506000610cac565b82820282848281612d4e57fe5b04146126d15760405162461bcd60e51b815260040161021790614687565b60006126d183836040518060400160405280601a81526020017f536166654d6174683a206469766973696f6e206279207a65726f000000000000815250612df0565b60006126d183836040518060400160405280601e81526020017f536166654d6174683a207375627472616374696f6e206f766572666c6f770000815250612e27565b60008183612e115760405162461bcd60e51b815260040161021791906145c6565b506000838581612e1d57fe5b0495945050505050565b60008184841115612e4b5760405162461bcd60e51b815260040161021791906145c6565b505050900390565b828054828255906000526020600020908101928215612ea8579160200282015b82811115612ea857825182546001600160a01b0319166001600160a01b03909116178255602090920191600190910190612e73565b50612eb492915061304a565b5090565b828054828255906000526020600020908101928215612f05579160200282015b82811115612f055782518051612ef5918491602090910190612f58565b5091602001919060010190612ed8565b50612eb492915061306e565b828054828255906000526020600020908101928215612f4c579160200282015b82811115612f4c578251825591602001919060010190612f31565b50612eb4929150613091565b828054600181600116156101000203166002900490600052602060002090601f016020900481019282601f10612f9957805160ff1916838001178555612f4c565b82800160010185558215612f4c5791820182811115612f4c578251825591602001919060010190612f31565b604080518082019091526000808252602082015290565b828054600181600116156101000203166002900490600052602060002090601f016020900481019282601f1061301d5782800160ff19823516178555612f4c565b82800160010185558215612f4c579182015b82811115612f4c57823582559160200191906001019061302f565b6126eb91905b80821115612eb45780546001600160a01b0319168155600101613050565b6126eb91905b80821115612eb457600061308882826130ab565b50600101613074565b6126eb91905b80821115612eb45760008155600101613097565b50805460018160011615610100020316600290046000825580601f106130d157506130ef565b601f0160209004906000526020600020908101906130ef9190613091565b50565b8035610cac816148cf565b8051610cac816148cf565b600082601f83011261311957600080fd5b813561312c613127826147a1565b61477a565b9150818183526020840193506020810190508385602084028201111561315157600080fd5b60005b8381101561317d578161316788826130f2565b8452506020928301929190910190600101613154565b5050505092915050565b600082601f83011261319857600080fd5b81356131a6613127826147a1565b81815260209384019390925082018360005b8381101561317d57813586016131ce8882613275565b84525060209283019291909101906001016131b8565b600082601f8301126131f557600080fd5b8135613203613127826147a1565b9150818183526020840193506020810190508385602084028201111561322857600080fd5b60005b8381101561317d578161323e888261325f565b845250602092830192919091019060010161322b565b8051610cac816148e3565b8035610cac816148ec565b8051610cac816148ec565b600082601f83011261328657600080fd5b8135613294613127826147c2565b915080825260208301602083018583830111156132b057600080fd5b6132bb838284614868565b50505092915050565b600082601f8301126132d557600080fd5b81516132e3613127826147c2565b915080825260208301602083018583830111156132ff57600080fd5b6132bb838284614874565b8035610cac816148f5565b8051610cac816148f5565b60008083601f84011261333257600080fd5b50813567ffffffffffffffff81111561334a57600080fd5b60208301915083600182028301111561336257600080fd5b9250929050565b60006020828403121561337b57600080fd5b6000610ca884846130fd565b6000806040838503121561339a57600080fd5b60006133a685856130f2565b92505060206133b78582860161325f565b9150509250929050565b600080600080600060a086880312156133d957600080fd5b853567ffffffffffffffff8111156133f057600080fd5b6133fc88828901613108565b955050602086013567ffffffffffffffff81111561341957600080fd5b61342588828901613187565b945050604086013567ffffffffffffffff81111561344257600080fd5b61344e888289016131e4565b935050606086013567ffffffffffffffff81111561346b57600080fd5b61347788828901613275565b925050608086013567ffffffffffffffff81111561349457600080fd5b6134a088828901613275565b9150509295509295909350565b6000602082840312156134bf57600080fd5b6000610ca88484613254565b600080604083850312156134de57600080fd5b60006134ea8585613254565b925050602083015167ffffffffffffffff81111561350757600080fd5b6133b7858286016132c4565b60006020828403121561352557600080fd5b6000610ca8848461325f565b60006020828403121561354357600080fd5b6000610ca8848461326a565b6000806040838503121561356257600080fd5b60006133a6858561325f565b60006020828403121561358057600080fd5b813567ffffffffffffffff81111561359757600080fd5b610ca884828501613275565b60008060008060008060008060006101008a8c0312156135c257600080fd5b60006135ce8c8c61330a565b99505060206135df8c828d0161330a565b98505060406135f08c828d0161325f565b97505060606136018c828d016130f2565b96505060806136128c828d016130f2565b95505060a08a013567ffffffffffffffff81111561362f57600080fd5b61363b8c828d01613320565b945094505060c061364e8c828d0161325f565b92505060e061365f8c828d0161325f565b9150509295985092959850929598565b6000806000806080858703121561368557600080fd5b6000613691878761330a565b94505060206136a2878288016130f2565b93505060406136b38782880161325f565b92505060606136c48782880161325f565b91505092959194509250565b600080604083850312156136e357600080fd5b60006133a6858561330a565b60006020828403121561370157600080fd5b6000610ca88484613315565b60008060006060848603121561372257600080fd5b600061372e868661325f565b935050602061373f868287016130f2565b92505060406137508682870161325f565b9150509250925092565b6000806040838503121561376d57600080fd5b6000613779858561326a565b92505060206133b78582860161326a565b600061379683836137e2565b505060200190565b6000613796838361399c565b600061379683836139a5565b60006126d183836139e6565b6137cb81614847565b82525050565b6137cb6137dd82614809565b6148a4565b6137cb81614809565b60006137f6826147fc565b6138008185614800565b935061380b836147ea565b8060005b83811015613839578151613823888261378a565b975061382e836147ea565b92505060010161380f565b509495945050505050565b600061384f826147fc565b6138598185614800565b9350613864836147ea565b8060005b8381101561383957815161387c888261379e565b9750613887836147ea565b925050600101613868565b600061389d826147fc565b6138a78185614800565b93506138b2836147ea565b8060005b838110156138395781516138ca88826137aa565b97506138d5836147ea565b9250506001016138b6565b60006138eb826147fc565b6138f58185614800565b935083602082028501613907856147ea565b8060005b85811015613941578484038952815161392485826137b6565b945061392f836147ea565b60209a909a019992505060010161390b565b5091979650505050505050565b6000613959826147fc565b6139638185614800565b935061396e836147ea565b8060005b8381101561383957815161398688826137aa565b9750613991836147ea565b925050600101613972565b6137cb81614814565b6137cb816126eb565b6137cb81614819565b60006139c2826147fc565b6139cc8185610646565b93506139dc818560208601614874565b9290920192915050565b60006139f1826147fc565b6139fb8185614800565b9350613a0b818560208601614874565b613a14816148b5565b9093019392505050565b600081546001811660008114613a3b5760018114613a6157613aa0565b607f6002830416613a4c8187614800565b60ff1984168152955050602085019250613aa0565b60028204613a6f8187614800565b9550613a7a856147f0565b60005b82811015613a9957815488820152600190910190602001613a7d565b8701945050505b505092915050565b600081546001811660008114613ac55760018114613ae857613aa0565b607f6002830416613ad68187610646565b60ff1984168152955085019250613aa0565b60028204613af68187610646565b9550613b01856147f0565b60005b82811015613b2057815488820152600190910190602001613b04565b5050909401949350505050565b6137cb81614826565b6137cb81614852565b6137cb8161485d565b6000613b55601883610646565b7f617070726f766528616464726573732c75696e74323536290000000000000000815260180192915050565b6000613b8e601e83614800565b7f57616c6c6574536368656d653a2063616c6c206e6f7420616c6c6f7765640000815260200192915050565b6000613bc7601b83614800565b7f536166654d6174683a206164646974696f6e206f766572666c6f770000000000815260200192915050565b6000613c00603583614800565b7f57616c6c6574536368656d653a2063616e742070726f706f7365204552433230815274207472616e736665727320776974682076616c756560581b602082015260400192915050565b6000613c57602483614800565b7f57616c6c6574536368656d653a2076616c75652063616c6c206e6f7420616c6c8152631bddd95960e21b602082015260400192915050565b6000613c9d604583614800565b7f57616c6c6574536368656d653a205f6d61785365636f6e6473466f724578656381527f7574696f6e2063616e74206265206c657373207468616e203836343030207365602082015264636f6e647360d81b604082015260600192915050565b6000613d0a602283610646565b7f7365744d61785365636f6e6473466f72457865637574696f6e2875696e743235815261362960f01b602082015260220192915050565b6000613d4e602b83614800565b7f57616c6c6574536368656d653a206d617852657050657263656e74616765436881526a185b99d9481c185cdcd95960aa1b602082015260400192915050565b6000613d9b602a83614800565b7f57616c6c6574536368656d653a206d7573742062652061207375626d6974746581526919081c1c9bdc1bdcd85b60b21b602082015260400192915050565b6000613de7601f83614800565b7f57616c6c6574536368656d653a2063616e6e6f7420696e697420747769636500815260200192915050565b6000613e20604883614800565b7f57616c6c6574536368656d653a207365744d61785365636f6e6473466f72457881527f65637574696f6e2069732063616c6c61626c65206f6e6c7920666f726d207468602082015267329030bb30ba30b960c11b604082015260600192915050565b6000613e90602383614800565b7f57616c6c6574536368656d653a2063616c6c20657865637574696f6e206661698152621b195960ea1b602082015260400192915050565b6000613ed5603083614800565b7f57616c6c6574536368656d653a2070726f706f73616c20657865637574696f6e81526f20616c72656164792072756e6e696e6760801b602082015260400192915050565b6000613f27602183614800565b7f536166654d6174683a206d756c7469706c69636174696f6e206f766572666c6f8152607760f81b602082015260400192915050565b6000613f6a601983610646565b7f7472616e7366657228616464726573732c75696e743235362900000000000000815260190192915050565b6000613fa3604583614800565b7f57616c6c6574536368656d653a20746f74616c2076616c7565207472616e736681527f65726564206f6620617373657420696e2070726f706f73616c206e6f7420616c6020820152641b1bddd95960da1b604082015260600192915050565b6000614010605683614800565b7f57616c6c6574536368656d653a2063616e742070726f706f73652063616c6c7381527f20746f20307861416141614161614161416141616141614141414141414141616020820152756161416141614161614161614161206164647265737360501b604082015260600192915050565b600061408e601283614800565b716f6e6c7920566f74696e674d616368696e6560701b815260200192915050565b60006140bc602383614800565b7f57616c6c6574536368656d653a20696e76616c6964205f76616c7565206c656e8152620cee8d60eb1b602082015260400192915050565b6000614101602383614800565b7f57616c6c6574536368656d653a206176617461722063616e6e6f74206265207a81526265726f60e81b602082015260400192915050565b6000614146602583614800565b7f57616c6c6574536368656d653a20696e76616c69642070726f706f73616c206381526430b63632b960d91b602082015260400192915050565b600061418d602683614800565b7f57616c6c6574536368656d653a20696e76616c6964205f63616c6c44617461208152650d8cadccee8d60d31b602082015260400192915050565b60006141d5602a83614800565b7f57616c6c6574536368656d653a2065726332302076616c75652063616c6c206e8152691bdd08185b1b1bddd95960b21b602082015260400192915050565b6000614221604283614800565b7f57616c6c6574536368656d653a2043616e74207265636569766520696620697481527f2077696c6c206d616b652067656e657269632063616c6c7320746f206176617460208201526130b960f11b604082015260600192915050565b600061428b603a83614800565b7f57616c6c6574536368656d653a2063616e742070726f706f73652063616c6c7381527f20776974682030786161616161616161207369676e6174757265000000000000602082015260400192915050565b60006142e982856137d1565b6014820191506142f982846137d1565b5060140192915050565b60006126d182846139b7565b60006126d18284613aa8565b6000610cac82613b48565b6000610cac82613cfd565b6000610cac82613f5d565b60208101610cac82846137e2565b60208101610cac82846137c2565b6080810161436682876137c2565b61437360208301866137c2565b61438060408301856137e2565b61112960608301846139ae565b6080810161439b82876137e2565b6143a860208301866137c2565b61438060408301856137c2565b6080810161436682876137e2565b608081016143d182876137e2565b81810360208301526143e38186613a1e565b90506143f26040830185613b2d565b61112960608301846139a5565b6040810161440d82856137e2565b6126d160208301846139a5565b60e0808252810161442b818a6137eb565b9050818103602083015261443f81896138e0565b90508181036040830152614453818861394e565b90506144626060830187613b36565b818103608083015261447481866139e6565b905081810360a083015261448881856139e6565b905061449760c08301846139a5565b98975050505050505050565b604080825281016144b48185613844565b905081810360208301526144c881846138e0565b949350505050565b602080825281016126d18184613892565b60208101610cac828461399c565b60208101610cac82846139a5565b60208101610cac82846139ae565b60208101610cac8284613b2d565b608081016145278287613b2d565b61453460208301866137e2565b61454160408301856139a5565b6111296060830184613b2d565b6080810161455c8287613b36565b818103602083015261456e81866139e6565b9050818103604083015261458281856139e6565b905061112960608301846139a5565b6080810161459f8287613b3f565b6145ac60208301866139a5565b6145b960408301856137c2565b61112960608301846137c2565b602080825281016126d181846139e6565b60208082528101610cac81613b81565b60208082528101610cac81613bba565b60208082528101610cac81613bf3565b60208082528101610cac81613c4a565b60208082528101610cac81613c90565b60208082528101610cac81613d41565b60208082528101610cac81613d8e565b60208082528101610cac81613dda565b60208082528101610cac81613e13565b60208082528101610cac81613e83565b60208082528101610cac81613ec8565b60208082528101610cac81613f1a565b60208082528101610cac81613f96565b60208082528101610cac81614003565b60208082528101610cac81614081565b60208082528101610cac816140af565b60208082528101610cac816140f4565b60208082528101610cac81614139565b60208082528101610cac81614180565b60208082528101610cac816141c8565b60208082528101610cac81614214565b60208082528101610cac8161427e565b6060810161474582866139a5565b61475260208301856137e2565b6144c860408301846137c2565b6040810161476d82856139a5565b6126d16020830184613b2d565b60405181810167ffffffffffffffff8111828210171561479957600080fd5b604052919050565b600067ffffffffffffffff8211156147b857600080fd5b5060209081020190565b600067ffffffffffffffff8211156147d957600080fd5b506020601f91909101601f19160190565b60200190565b60009081526020902090565b5190565b90815260200190565b6000610cac8261483b565b151590565b6001600160e01b03191690565b6000610cac82614809565b80610646816148c5565b6001600160a01b031690565b6000610cac82614826565b6000610cac82614831565b6000610cac826126eb565b82818337506000910152565b60005b8381101561488f578181015183820152602001614877565b8381111561489e576000848401525b50505050565b6000610cac826000610cac826148bf565b601f01601f191690565b60601b90565b600581106130ef57fe5b6148d881614809565b81146130ef57600080fd5b6148d881614814565b6148d8816126eb565b6148d88161482656feaa798b5c17de8359ce5a2d3b6a5da0de89d0b116dcf830f1809599da1d986dbba365627a7a72315820b435b0d707d5369231944246a1c658cda5122da62d2f21a8ba84132a391587dd6c6578706572696d656e74616cf564736f6c63430005110040",
  "linkReferences": {},
  "deployedLinkReferences": {}
}