{
  "_format": "hh-sol-artifact-1",
  "contractName": "WalletScheme",
  "sourceName": "dxdao-contracts/contracts/schemes/WalletScheme.sol",
  "abi": [
    {
      "anonymous": false,
      "inputs": [
        {
          "indexed": true,
          "internalType": "bytes32",
          "name": "_proposalId",
          "type": "bytes32"
        }
      ],
      "name": "NewCallProposal",
      "type": "event"
    },
    {
      "anonymous": false,
      "inputs": [
        {
          "indexed": true,
          "internalType": "bytes32",
          "name": "_proposalId",
          "type": "bytes32"
        },
        {
          "indexed": false,
          "internalType": "bool[]",
          "name": "_callsSucessResult",
          "type": "bool[]"
        },
        {
          "indexed": false,
          "internalType": "bytes[]",
          "name": "_callsDataResult",
          "type": "bytes[]"
        }
      ],
      "name": "ProposalExecuted",
      "type": "event"
    },
    {
      "anonymous": false,
      "inputs": [
        {
          "indexed": true,
          "internalType": "bytes32",
          "name": "_proposalId",
          "type": "bytes32"
        },
        {
          "indexed": false,
          "internalType": "int256",
          "name": "_param",
          "type": "int256"
        }
      ],
      "name": "ProposalExecutedByVotingMachine",
      "type": "event"
    },
    {
      "anonymous": false,
      "inputs": [
        {
          "indexed": true,
          "internalType": "bytes32",
          "name": "_proposalId",
          "type": "bytes32"
        }
      ],
      "name": "ProposalRejected",
      "type": "event"
    },
    {
      "payable": true,
      "stateMutability": "payable",
      "type": "fallback"
    },
    {
      "constant": true,
      "inputs": [],
      "name": "ERC20_TRANSFER_SIGNATURE",
      "outputs": [
        {
          "internalType": "bytes4",
          "name": "",
          "type": "bytes4"
        }
      ],
      "payable": false,
      "stateMutability": "view",
      "type": "function"
    },
    {
      "constant": true,
      "inputs": [],
      "name": "avatar",
      "outputs": [
        {
          "internalType": "contract Avatar",
          "name": "",
          "type": "address"
        }
      ],
      "payable": false,
      "stateMutability": "view",
      "type": "function"
    },
    {
      "constant": true,
      "inputs": [
        {
          "internalType": "contract IERC20",
          "name": "_stakingToken",
          "type": "address"
        },
        {
          "internalType": "bytes32",
          "name": "_proposalId",
          "type": "bytes32"
        }
      ],
      "name": "balanceOfStakingToken",
      "outputs": [
        {
          "internalType": "uint256",
          "name": "",
          "type": "uint256"
        }
      ],
      "payable": false,
      "stateMutability": "view",
      "type": "function"
    },
    {
      "constant": false,
      "inputs": [
        {
          "internalType": "uint256",
          "name": "_amount",
          "type": "uint256"
        },
        {
          "internalType": "address",
          "name": "_beneficiary",
          "type": "address"
        },
        {
          "internalType": "bytes32",
          "name": "_proposalId",
          "type": "bytes32"
        }
      ],
      "name": "burnReputation",
      "outputs": [
        {
          "internalType": "bool",
          "name": "",
          "type": "bool"
        }
      ],
      "payable": false,
      "stateMutability": "nonpayable",
      "type": "function"
    },
    {
      "constant": true,
      "inputs": [],
      "name": "controllerAddress",
      "outputs": [
        {
          "internalType": "address",
          "name": "",
          "type": "address"
        }
      ],
      "payable": false,
      "stateMutability": "view",
      "type": "function"
    },
    {
      "constant": true,
      "inputs": [
        {
          "internalType": "bytes",
          "name": "_data",
          "type": "bytes"
        }
      ],
      "name": "erc20TransferDecode",
      "outputs": [
        {
          "internalType": "address",
          "name": "to",
          "type": "address"
        },
        {
          "internalType": "uint256",
          "name": "value",
          "type": "uint256"
        }
      ],
      "payable": false,
      "stateMutability": "pure",
      "type": "function"
    },
    {
      "constant": false,
      "inputs": [
        {
          "internalType": "bytes32",
          "name": "_proposalId",
          "type": "bytes32"
        },
        {
          "internalType": "int256",
          "name": "_decision",
          "type": "int256"
        }
      ],
      "name": "executeProposal",
      "outputs": [
        {
          "internalType": "bool",
          "name": "",
          "type": "bool"
        }
      ],
      "payable": false,
      "stateMutability": "nonpayable",
      "type": "function"
    },
    {
      "constant": true,
      "inputs": [
        {
          "internalType": "bytes",
          "name": "data",
          "type": "bytes"
        }
      ],
      "name": "getFuncSignature",
      "outputs": [
        {
          "internalType": "bytes4",
          "name": "",
          "type": "bytes4"
        }
      ],
      "payable": false,
      "stateMutability": "view",
      "type": "function"
    },
    {
      "constant": true,
      "inputs": [
        {
          "internalType": "bytes32",
          "name": "proposalId",
          "type": "bytes32"
        }
      ],
      "name": "getOrganizationProposal",
      "outputs": [
        {
          "internalType": "address[]",
          "name": "to",
          "type": "address[]"
        },
        {
          "internalType": "bytes[]",
          "name": "callData",
          "type": "bytes[]"
        },
        {
          "internalType": "uint256[]",
          "name": "value",
          "type": "uint256[]"
        },
        {
          "internalType": "enum WalletScheme.ProposalState",
          "name": "state",
          "type": "uint8"
        },
        {
          "internalType": "string",
          "name": "title",
          "type": "string"
        },
        {
          "internalType": "string",
          "name": "descriptionHash",
          "type": "string"
        }
      ],
      "payable": false,
      "stateMutability": "view",
      "type": "function"
    },
    {
      "constant": true,
      "inputs": [
        {
          "internalType": "uint256",
          "name": "proposalIndex",
          "type": "uint256"
        }
      ],
      "name": "getOrganizationProposalByIndex",
      "outputs": [
        {
          "internalType": "address[]",
          "name": "to",
          "type": "address[]"
        },
        {
          "internalType": "bytes[]",
          "name": "callData",
          "type": "bytes[]"
        },
        {
          "internalType": "uint256[]",
          "name": "value",
          "type": "uint256[]"
        },
        {
          "internalType": "enum WalletScheme.ProposalState",
          "name": "state",
          "type": "uint8"
        },
        {
          "internalType": "string",
          "name": "title",
          "type": "string"
        },
        {
          "internalType": "string",
          "name": "descriptionHash",
          "type": "string"
        }
      ],
      "payable": false,
      "stateMutability": "view",
      "type": "function"
    },
    {
      "constant": true,
      "inputs": [],
      "name": "getOrganizationProposals",
      "outputs": [
        {
          "internalType": "bytes32[]",
          "name": "",
          "type": "bytes32[]"
        }
      ],
      "payable": false,
      "stateMutability": "view",
      "type": "function"
    },
    {
      "constant": true,
      "inputs": [],
      "name": "getOrganizationProposalsLength",
      "outputs": [
        {
          "internalType": "uint256",
          "name": "",
          "type": "uint256"
        }
      ],
      "payable": false,
      "stateMutability": "view",
      "type": "function"
    },
    {
      "constant": true,
      "inputs": [
        {
          "internalType": "bytes32",
          "name": "_proposalId",
          "type": "bytes32"
        }
      ],
      "name": "getTotalReputationSupply",
      "outputs": [
        {
          "internalType": "uint256",
          "name": "",
          "type": "uint256"
        }
      ],
      "payable": false,
      "stateMutability": "view",
      "type": "function"
    },
    {
      "constant": false,
      "inputs": [
        {
          "internalType": "contract Avatar",
          "name": "_avatar",
          "type": "address"
        },
        {
          "internalType": "contract IntVoteInterface",
          "name": "_votingMachine",
          "type": "address"
        },
        {
          "internalType": "bytes32",
          "name": "_voteParams",
          "type": "bytes32"
        },
        {
          "internalType": "address",
          "name": "_controllerAddress",
          "type": "address"
        },
        {
          "internalType": "address",
          "name": "_permissionRegistry",
          "type": "address"
        },
        {
          "internalType": "string",
          "name": "_schemeName",
          "type": "string"
        }
      ],
      "name": "initialize",
      "outputs": [],
      "payable": false,
      "stateMutability": "nonpayable",
      "type": "function"
    },
    {
      "constant": false,
      "inputs": [
        {
          "internalType": "address",
          "name": "to",
          "type": "address"
        },
        {
          "internalType": "bytes",
          "name": "data",
          "type": "bytes"
        },
        {
          "internalType": "uint256",
          "name": "value",
          "type": "uint256"
        }
      ],
      "name": "isCallAllowed",
      "outputs": [
        {
          "internalType": "bool",
          "name": "",
          "type": "bool"
        }
      ],
      "payable": false,
      "stateMutability": "nonpayable",
      "type": "function"
    },
    {
      "constant": false,
      "inputs": [
        {
          "internalType": "uint256",
          "name": "_amount",
          "type": "uint256"
        },
        {
          "internalType": "address",
          "name": "_beneficiary",
          "type": "address"
        },
        {
          "internalType": "bytes32",
          "name": "_proposalId",
          "type": "bytes32"
        }
      ],
      "name": "mintReputation",
      "outputs": [
        {
          "internalType": "bool",
          "name": "",
          "type": "bool"
        }
      ],
      "payable": false,
      "stateMutability": "nonpayable",
      "type": "function"
    },
    {
      "constant": true,
      "inputs": [],
      "name": "permissionRegistry",
      "outputs": [
        {
          "internalType": "contract PermissionRegistry",
          "name": "",
          "type": "address"
        }
      ],
      "payable": false,
      "stateMutability": "view",
      "type": "function"
    },
    {
      "constant": true,
      "inputs": [
        {
          "internalType": "bytes32",
          "name": "",
          "type": "bytes32"
        }
      ],
      "name": "proposals",
      "outputs": [
        {
          "internalType": "enum WalletScheme.ProposalState",
          "name": "state",
          "type": "uint8"
        },
        {
          "internalType": "string",
          "name": "title",
          "type": "string"
        },
        {
          "internalType": "string",
          "name": "descriptionHash",
          "type": "string"
        }
      ],
      "payable": false,
      "stateMutability": "view",
      "type": "function"
    },
    {
      "constant": true,
      "inputs": [
        {
          "internalType": "address",
          "name": "",
          "type": "address"
        },
        {
          "internalType": "bytes32",
          "name": "",
          "type": "bytes32"
        }
      ],
      "name": "proposalsInfo",
      "outputs": [
        {
          "internalType": "uint256",
          "name": "blockNumber",
          "type": "uint256"
        },
        {
          "internalType": "contract Avatar",
          "name": "avatar",
          "type": "address"
        }
      ],
      "payable": false,
      "stateMutability": "view",
      "type": "function"
    },
    {
      "constant": true,
      "inputs": [
        {
          "internalType": "uint256",
          "name": "",
          "type": "uint256"
        }
      ],
      "name": "proposalsList",
      "outputs": [
        {
          "internalType": "bytes32",
          "name": "",
          "type": "bytes32"
        }
      ],
      "payable": false,
      "stateMutability": "view",
      "type": "function"
    },
    {
      "constant": false,
      "inputs": [
        {
          "internalType": "address[]",
          "name": "_to",
          "type": "address[]"
        },
        {
          "internalType": "bytes[]",
          "name": "_callData",
          "type": "bytes[]"
        },
        {
          "internalType": "uint256[]",
          "name": "_value",
          "type": "uint256[]"
        },
        {
          "internalType": "string",
          "name": "_title",
          "type": "string"
        },
        {
          "internalType": "string",
          "name": "_descriptionHash",
          "type": "string"
        }
      ],
      "name": "proposeCalls",
      "outputs": [
        {
          "internalType": "bytes32",
          "name": "",
          "type": "bytes32"
        }
      ],
      "payable": false,
      "stateMutability": "nonpayable",
      "type": "function"
    },
    {
      "constant": true,
      "inputs": [
        {
          "internalType": "address",
          "name": "_owner",
          "type": "address"
        },
        {
          "internalType": "bytes32",
          "name": "_proposalId",
          "type": "bytes32"
        }
      ],
      "name": "reputationOf",
      "outputs": [
        {
          "internalType": "uint256",
          "name": "",
          "type": "uint256"
        }
      ],
      "payable": false,
      "stateMutability": "view",
      "type": "function"
    },
    {
      "constant": true,
      "inputs": [],
      "name": "schemeName",
      "outputs": [
        {
          "internalType": "string",
          "name": "",
          "type": "string"
        }
      ],
      "payable": false,
      "stateMutability": "view",
      "type": "function"
    },
    {
      "constant": false,
      "inputs": [
        {
          "internalType": "contract IERC20",
          "name": "_stakingToken",
          "type": "address"
        },
        {
          "internalType": "address",
          "name": "_beneficiary",
          "type": "address"
        },
        {
          "internalType": "uint256",
          "name": "_amount",
          "type": "uint256"
        },
        {
          "internalType": "bytes32",
          "name": "_proposalId",
          "type": "bytes32"
        }
      ],
      "name": "stakingTokenTransfer",
      "outputs": [
        {
          "internalType": "bool",
          "name": "",
          "type": "bool"
        }
      ],
      "payable": false,
      "stateMutability": "nonpayable",
      "type": "function"
    },
    {
      "constant": true,
      "inputs": [],
      "name": "voteParams",
      "outputs": [
        {
          "internalType": "bytes32",
          "name": "",
          "type": "bytes32"
        }
      ],
      "payable": false,
      "stateMutability": "view",
      "type": "function"
    },
    {
      "constant": true,
      "inputs": [],
      "name": "votingMachine",
      "outputs": [
        {
          "internalType": "contract IntVoteInterface",
          "name": "",
          "type": "address"
        }
      ],
      "payable": false,
      "stateMutability": "view",
      "type": "function"
    }
  ],
  "bytecode": "0x608060405234801561001057600080fd5b506131a0806100206000396000f3fe6080604052600436106101815760003560e01c8063b551c373116100d1578063d29b5d2f1161008a578063e0b2c08c11610064578063e0b2c08c146104be578063e5957023146104de578063e5e21164146104fe578063f81f8bf61461051357610181565b8063d29b5d2f1461045c578063d3d1e7ba1461047c578063d8708a761461049e57610181565b8063b551c373146103b0578063b55a5c1c146103d0578063b632a912146103e5578063b9f67ac3146103fa578063bea75f281461041a578063c45ff2811461043a57610181565b806359618a261161013e5780636b8eb403116101185780636b8eb4031461031657806372c41046146103435780639588378e146103635780639d4c162d1461038357610181565b806359618a26146102a15780635aef7de6146102d357806360bdbb3f146102e857610181565b806304a65799146101b5578063088af182146101ec57806332ed5b12146102195780633b72b3c7146102485780633edf7ca11461025d5780634b24ea471461027f575b6006546001600160a01b0316156101b35760405162461bcd60e51b81526004016101aa90612f70565b60405180910390fd5b005b3480156101c157600080fd5b506101d56101d036600461254a565b610533565b6040516101e3929190612d82565b60405180910390f35b3480156101f857600080fd5b5061020c61020736600461254a565b610542565b6040516101e39190612e65565b34801561022557600080fd5b506102396102343660046124ef565b61054d565b6040516101e393929190612eb6565b34801561025457600080fd5b5061020c61068e565b34801561026957600080fd5b506102726106a5565b6040516101e39190612e73565b34801561028b57600080fd5b506102946106b4565b6040516101e39190612cf5565b3480156102ad57600080fd5b506102c16102bc3660046124ef565b6106c3565b6040516101e396959493929190612d9d565b3480156102df57600080fd5b506102726109aa565b3480156102f457600080fd5b50610308610303366004612305565b6109b9565b6040516101e3929190612fd8565b34801561032257600080fd5b50610336610331366004612683565b6109e3565b6040516101e39190612e57565b34801561034f57600080fd5b5061033661035e3660046123a3565b610a9d565b34801561036f57600080fd5b5061033661037e366004612305565b610d84565b34801561038f57600080fd5b506103a361039e36600461252b565b610e7b565b6040516101e39190612e49565b3480156103bc57600080fd5b506103366103cb3660046124ef565b6114a4565b3480156103dc57600080fd5b506102726115ef565b3480156103f157600080fd5b506103366115fe565b34801561040657600080fd5b506103a361041536600461233f565b611605565b34801561042657600080fd5b506103a3610435366004612622565b6117d2565b34801561044657600080fd5b5061044f61194a565b6040516101e39190612f1f565b34801561046857600080fd5b506103a36104773660046126c0565b6119d8565b34801561048857600080fd5b50610491611b4d565b6040516101e39190612e38565b3480156104aa57600080fd5b506102c16104b93660046124ef565b611ba5565b3480156104ca57600080fd5b506101b36104d936600461257e565b611be3565b3480156104ea57600080fd5b506103366104f93660046124ef565b611c97565b34801561050a57600080fd5b50610336611cb5565b34801561051f57600080fd5b506103a361052e3660046126c0565b611cbb565b60248101516044909101519091565b60208101515b919050565b60016020818152600092835260409283902060038101546004820180548651600261010097831615979097026000190190911695909504601f810185900485028601850190965285855260ff909116949193929091908301828280156105f45780601f106105c9576101008083540402835291602001916105f4565b820191906000526020600020905b8154815290600101906020018083116105d757829003601f168201915b5050505060058301805460408051602060026001851615610100026000190190941693909304601f81018490048402820184019092528181529495949350908301828280156106845780601f1061065957610100808354040283529160200191610684565b820191906000526020600020905b81548152906001019060200180831161066757829003601f168201915b5050505050905083565b60405161069a90612cea565b604051809103902081565b6003546001600160a01b031681565b6006546001600160a01b031681565b60008181526001602081815260408084206003810154815483518186028101860190945280845260609687968796919587958695909492850193600286019360ff909216926004870192600588019288919083018282801561074e57602002820191906000526020600020905b81546001600160a01b03168152600190910190602001808311610730575b5050505050955084805480602002602001604051908101604052809291908181526020016000905b828210156108215760008481526020908190208301805460408051601f600260001961010060018716150201909416939093049283018590048502810185019091528181529283018282801561080d5780601f106107e25761010080835404028352916020019161080d565b820191906000526020600020905b8154815290600101906020018083116107f057829003601f168201915b505050505081526020019060010190610776565b5050505094508380548060200260200160405190810160405280929190818152602001828054801561087257602002820191906000526020600020905b81548152602001906001019080831161085e575b5050855460408051602060026001851615610100026000190190941693909304601f8101849004840282018401909252818152959950879450925084019050828280156109005780601f106108d557610100808354040283529160200191610900565b820191906000526020600020905b8154815290600101906020018083116108e357829003601f168201915b5050845460408051602060026001851615610100026000190190941693909304601f81018490048402820184019092528181529597508694509250840190508282801561098e5780601f106109635761010080835404028352916020019161098e565b820191906000526020600020905b81548152906001019060200180831161097157829003601f168201915b5050505050905095509550955095509550955091939550919395565b6005546001600160a01b031681565b6000602081815292815260408082209093529081522080546001909101546001600160a01b031682565b336000908152602081815260408083208484529091528120600101546001600160a01b031680610a17576000915050610a97565b6040516370a0823160e01b81526001600160a01b038516906370a0823190610a43908490600401612d03565b60206040518083038186803b158015610a5b57600080fd5b505afa158015610a6f573d6000803e3d6000fd5b505050506040513d601f19601f82011682018060405250610a93919081019061250d565b9150505b92915050565b6000805b8651811015610af757306001600160a01b0316878281518110610ac057fe5b60200260200101516001600160a01b03161415610aef5760405162461bcd60e51b81526004016101aa90612fa0565b600101610aa1565b508451865114610b195760405162461bcd60e51b81526004016101aa90612f80565b8351865114610b3a5760405162461bcd60e51b81526004016101aa90612f60565b60035460048054600554604051634439bdaf60e11b81526000946001600160a01b03908116946388737b5e94610b7a946002949193339391169101612eea565b602060405180830381600087803b158015610b9457600080fd5b505af1158015610ba8573d6000803e3d6000fd5b505050506040513d601f19601f82011682018060405250610bcc919081019061250d565b90506040518060c0016040528088815260200187815260200186815260200160006003811115610bf857fe5b81526020808201879052604091820186905260008481526001825291909120825180519192610c2c92849290910190611dd2565b506020828101518051610c459260018501920190611e37565b5060408201518051610c61916002840191602090910190611e90565b5060608201518160030160006101000a81548160ff02191690836003811115610c8657fe5b021790555060808201518051610ca6916004840191602090910190611ed7565b5060a08201518051610cc2916005840191602090910190611ed7565b50506002805460018082019092557f405787fa12a823e0f2b7631cc41b3ba8828b3321ca811111fa75cd3aa3bb5ace018390556040805180820182524381526005546001600160a01b039081166020808401918252600354831660009081528082528581208982529091528481209351845590519290940180546001600160a01b03191692909116919091179055518392507f24dbef3a91439361d3a67e298cca809aa4d5f61b9c43e97c5d99e8468e5471d79190a290505b95945050505050565b6000610d8e611f44565b5033600090815260208181526040808320858452825291829020825180840190935280548352600101546001600160a01b0316908201819052610dd5576000915050610a97565b80602001516001600160a01b03166389ae1c906040518163ffffffff1660e01b815260040160206040518083038186803b158015610e1257600080fd5b505afa158015610e26573d6000803e3d6000fd5b505050506040513d601f19601f82011682018060405250610e4a91908101906126a2565b815160405163277166bf60e11b81526001600160a01b039290921691634ee2cd7e91610a4391889190600401612d82565b3360009081526020818152604080832085845290915281206001015483906001600160a01b0316610ebe5760405162461bcd60e51b81526004016101aa90612f90565b60008481526001602052604081209060038083015460ff1690811115610ee057fe5b14610efd5760405162461bcd60e51b81526004016101aa90612f30565b83600114156114265760038101805460ff1916600217905580546040805182815260208084028201019091526060918015610f4c57816020015b6060815260200190600190039081610f375790505b508254604080518281526020808402820101909152919250606091908015610f7e578160200160208202803883390190505b50905060005b83548110156113e457611079846000018281548110610f9f57fe5b6000918252602090912001546001860180546001600160a01b039092169184908110610fc757fe5b600091825260209182902001805460408051601f60026000196101006001871615020190941693909304928301859004850281018501909152818152928301828280156110555780601f1061102a57610100808354040283529160200191611055565b820191906000526020600020905b81548152906001019060200180831161103857829003601f168201915b505050505086600201848154811061106957fe5b9060005260206000200154611605565b15611351576006546001600160a01b0316158015906110c8575060065484546001600160a01b03909116908590839081106110b057fe5b6000918252602090912001546001600160a01b031614155b1561126b5760608460000182815481106110de57fe5b6000918252602090912001546001860180546001600160a01b03909216918490811061110657fe5b90600052602060002001600560009054906101000a90046001600160a01b031687600201858154811061113557fe5b90600052602060002001546040516024016111539493929190612d46565b60408051601f198184030181529181526020820180516001600160e01b03166368db844d60e11b17905260065490519192506001600160a01b03169060009061119d908490612cd2565b60006040518083038185875af1925050503d80600081146111da576040519150601f19603f3d011682016040523d82523d6000602084013e6111df565b606091505b5084518590859081106111ee57fe5b6020026020010186858151811061120157fe5b60200260200101829052821515151581525050506000606085848151811061122557fe5b602002602001015180602001905161124091908101906124a8565b915091508185858151811061125157fe5b60200260200101901515908115158152505050505061134c565b83600001818154811061127a57fe5b6000918252602090912001546002850180546001600160a01b0390921691839081106112a257fe5b90600052602060002001548560010183815481106112bc57fe5b906000526020600020016040516112d39190612cde565b60006040518083038185875af1925050503d8060008114611310576040519150601f19603f3d011682016040523d82523d6000602084013e611315565b606091505b50835184908490811061132457fe5b6020026020010185848151811061133757fe5b60200260200101829052821515151581525050505b6113a1565b604051806040016040528060018152602001600360fc1b81525083828151811061137757fe5b6020026020010181905250600082828151811061139057fe5b911515602092830291909101909101525b8181815181106113ad57fe5b60200260200101516113dc5760008881526001602052604090206003908101805460ff191690911790556113e4565b600101610f84565b50867fe134987599ae266ec90edeff1b26125b287dbb57b10822649432d1bb26537fba8284604051611417929190612e0b565b60405180910390a25050611461565b60038101805460ff1916600117905560405185907f55295d4ce992922fa2e5ffbf3a3dcdb367de0a15e125ace083456017fd22060f90600090a25b847fe03a9047d2647ba513689fe86f20dfb187d4a3710aacc44cda022d7900a7f967856040516114919190612e57565b60405180910390a2506001949350505050565b60006114ae611f44565b5033600090815260208181526040808320858452825291829020825180840190935280548352600101546001600160a01b03169082018190526114f5576000915050610548565b80602001516001600160a01b03166389ae1c906040518163ffffffff1660e01b815260040160206040518083038186803b15801561153257600080fd5b505afa158015611546573d6000803e3d6000fd5b505050506040513d601f19601f8201168201806040525061156a91908101906126a2565b8151604051630981b24d60e41b81526001600160a01b03929092169163981b24d09161159891600401612e57565b60206040518083038186803b1580156115b057600080fd5b505afa1580156115c4573d6000803e3d6000fd5b505050506040513d601f19601f820116820180604052506115e8919081019061250d565b9392505050565b6007546001600160a01b031681565b6002545b90565b600080600080600061161687610542565b9050806001600160e01b03191660405161162f90612cea565b60405180910390206001600160e01b03191614156117045787915061165387610533565b600754600654929a509097506001600160a01b0390811691636597c2e59185911661167e573061168b565b6005546001600160a01b03165b8b856040518563ffffffff1660e01b81526004016116ac9493929190612d11565b604080518083038186803b1580156116c357600080fd5b505afa1580156116d7573d6000803e3d6000fd5b505050506040513d601f19601f820116820180604052506116fb91908101906126f2565b945092506117ab565b6007546006546001600160a01b0391821691636597c2e5918591166117295730611736565b6005546001600160a01b03165b8b856040518563ffffffff1660e01b81526004016117579493929190612d11565b604080518083038186803b15801561176e57600080fd5b505afa158015611782573d6000803e3d6000fd5b505050506040513d601f19601f820116820180604052506117a691908101906126f2565b945092505b6000841180156117ba57508342115b80156117c65750858310155b98975050505050505050565b3360009081526020818152604080832084845290915281206001015482906001600160a01b03166118155760405162461bcd60e51b81526004016101aa90612f90565b336000908152602081815260408083208684529091529020600101546001600160a01b031680611849576000925050611941565b806001600160a01b0316638da5cb5b6040518163ffffffff1660e01b815260040160206040518083038186803b15801561188257600080fd5b505afa158015611896573d6000803e3d6000fd5b505050506040513d601f19601f820116820180604052506118ba91908101906122e7565b6001600160a01b031663b9a04cdd888888856040518563ffffffff1660e01b81526004016118eb9493929190612e81565b602060405180830381600087803b15801561190557600080fd5b505af1158015611919573d6000803e3d6000fd5b505050506040513d601f19601f8201168201806040525061193d919081019061248a565b9250505b50949350505050565b6008805460408051602060026001851615610100026000190190941693909304601f810184900484028201840190925281815292918301828280156119d05780601f106119a5576101008083540402835291602001916119d0565b820191906000526020600020905b8154815290600101906020018083116119b357829003601f168201915b505050505081565b3360009081526020818152604080832084845290915281206001015482906001600160a01b0316611a1b5760405162461bcd60e51b81526004016101aa90612f90565b336000908152602081815260408083208684529091529020600101546001600160a01b031680611a4f576000925050611b45565b806001600160a01b0316638da5cb5b6040518163ffffffff1660e01b815260040160206040518083038186803b158015611a8857600080fd5b505afa158015611a9c573d6000803e3d6000fd5b505050506040513d601f19601f82011682018060405250611ac091908101906122e7565b6001600160a01b031663eaf994b28787846040518463ffffffff1660e01b8152600401611aef93929190612fb0565b602060405180830381600087803b158015611b0957600080fd5b505af1158015611b1d573d6000803e3d6000fd5b505050506040513d601f19601f82011682018060405250611b41919081019061248a565b9250505b509392505050565b60606002805480602002602001604051908101604052809291908181526020018280548015611b9b57602002820191906000526020600020905b815481526020019060010190808311611b87575b5050505050905090565b60608060606000606080611bcf60028881548110611bbf57fe5b90600052602060002001546106c3565b949c939b5091995097509550909350915050565b6005546001600160a01b031615611c0c5760405162461bcd60e51b81526004016101aa90612f50565b6001600160a01b038716611c325760405162461bcd60e51b81526004016101aa90612f40565b600580546001600160a01b03808a166001600160a01b031992831617909255600380548984169083161790556004879055600680548784169083161790556007805492861692909116919091179055611c8d60088383611f5b565b5050505050505050565b60028181548110611ca457fe5b600091825260209091200154905081565b60045481565b3360009081526020818152604080832084845290915281206001015482906001600160a01b0316611cfe5760405162461bcd60e51b81526004016101aa90612f90565b336000908152602081815260408083208684529091529020600101546001600160a01b031680611d32576000925050611b45565b806001600160a01b0316638da5cb5b6040518163ffffffff1660e01b815260040160206040518083038186803b158015611d6b57600080fd5b505afa158015611d7f573d6000803e3d6000fd5b505050506040513d601f19601f82011682018060405250611da391908101906122e7565b6001600160a01b0316636e94d2788787846040518463ffffffff1660e01b8152600401611aef93929190612fb0565b828054828255906000526020600020908101928215611e27579160200282015b82811115611e2757825182546001600160a01b0319166001600160a01b03909116178255602090920191600190910190611df2565b50611e33929150611fc9565b5090565b828054828255906000526020600020908101928215611e84579160200282015b82811115611e845782518051611e74918491602090910190611ed7565b5091602001919060010190611e57565b50611e33929150611fed565b828054828255906000526020600020908101928215611ecb579160200282015b82811115611ecb578251825591602001919060010190611eb0565b50611e33929150612010565b828054600181600116156101000203166002900490600052602060002090601f016020900481019282601f10611f1857805160ff1916838001178555611ecb565b82800160010185558215611ecb5791820182811115611ecb578251825591602001919060010190611eb0565b604080518082019091526000808252602082015290565b828054600181600116156101000203166002900490600052602060002090601f016020900481019282601f10611f9c5782800160ff19823516178555611ecb565b82800160010185558215611ecb579182015b82811115611ecb578235825591602001919060010190611fae565b61160291905b80821115611e335780546001600160a01b0319168155600101611fcf565b61160291905b80821115611e33576000612007828261202a565b50600101611ff3565b61160291905b80821115611e335760008155600101612016565b50805460018160011615610100020316600290046000825580601f10612050575061206e565b601f01602090049060005260206000209081019061206e9190612010565b50565b8035610a978161312e565b8051610a978161312e565b600082601f83011261209857600080fd5b81356120ab6120a682613019565b612ff3565b915081818352602084019350602081019050838560208402820111156120d057600080fd5b60005b838110156120fc57816120e68882612071565b84525060209283019291909101906001016120d3565b5050505092915050565b600082601f83011261211757600080fd5b81356121256120a682613019565b81815260209384019390925082018360005b838110156120fc578135860161214d88826121f4565b8452506020928301929190910190600101612137565b600082601f83011261217457600080fd5b81356121826120a682613019565b915081818352602084019350602081019050838560208402820111156121a757600080fd5b60005b838110156120fc57816121bd88826121de565b84525060209283019291909101906001016121aa565b8051610a9781613142565b8035610a978161314b565b8051610a978161314b565b600082601f83011261220557600080fd5b81356122136120a682613039565b9150808252602083016020830185838301111561222f57600080fd5b61223a8382846130de565b50505092915050565b600082601f83011261225457600080fd5b81516122626120a682613039565b9150808252602083016020830185838301111561227e57600080fd5b61223a8382846130ea565b8035610a9781613154565b8051610a9781613154565b60008083601f8401126122b157600080fd5b5081356001600160401b038111156122c857600080fd5b6020830191508360018202830111156122e057600080fd5b9250929050565b6000602082840312156122f957600080fd5b6000610a93848461207c565b6000806040838503121561231857600080fd5b60006123248585612071565b9250506020612335858286016121de565b9150509250929050565b60008060006060848603121561235457600080fd5b60006123608686612071565b93505060208401356001600160401b0381111561237c57600080fd5b612388868287016121f4565b9250506040612399868287016121de565b9150509250925092565b600080600080600060a086880312156123bb57600080fd5b85356001600160401b038111156123d157600080fd5b6123dd88828901612087565b95505060208601356001600160401b038111156123f957600080fd5b61240588828901612106565b94505060408601356001600160401b0381111561242157600080fd5b61242d88828901612163565b93505060608601356001600160401b0381111561244957600080fd5b612455888289016121f4565b92505060808601356001600160401b0381111561247157600080fd5b61247d888289016121f4565b9150509295509295909350565b60006020828403121561249c57600080fd5b6000610a9384846121d3565b600080604083850312156124bb57600080fd5b60006124c785856121d3565b92505060208301516001600160401b038111156124e357600080fd5b61233585828601612243565b60006020828403121561250157600080fd5b6000610a9384846121de565b60006020828403121561251f57600080fd5b6000610a9384846121e9565b6000806040838503121561253e57600080fd5b600061232485856121de565b60006020828403121561255c57600080fd5b81356001600160401b0381111561257257600080fd5b610a93848285016121f4565b600080600080600080600060c0888a03121561259957600080fd5b60006125a58a8a612289565b97505060206125b68a828b01612289565b96505060406125c78a828b016121de565b95505060606125d88a828b01612071565b94505060806125e98a828b01612071565b93505060a08801356001600160401b0381111561260557600080fd5b6126118a828b0161229f565b925092505092959891949750929550565b6000806000806080858703121561263857600080fd5b60006126448787612289565b945050602061265587828801612071565b9350506040612666878288016121de565b9250506060612677878288016121de565b91505092959194509250565b6000806040838503121561269657600080fd5b60006123248585612289565b6000602082840312156126b457600080fd5b6000610a938484612294565b6000806000606084860312156126d557600080fd5b60006126e186866121de565b935050602061238886828701612071565b6000806040838503121561270557600080fd5b600061271185856121e9565b9250506020612335858286016121e9565b600061272e8383612769565b505060200190565b600061272e8383612923565b600061272e838361292c565b60006115e8838361296d565b612763816130bd565b82525050565b6127638161307f565b600061277d82613072565b6127878185613076565b935061279283613060565b8060005b838110156127c05781516127aa8882612722565b97506127b583613060565b925050600101612796565b509495945050505050565b60006127d682613072565b6127e08185613076565b93506127eb83613060565b8060005b838110156127c05781516128038882612736565b975061280e83613060565b9250506001016127ef565b600061282482613072565b61282e8185613076565b935061283983613060565b8060005b838110156127c05781516128518882612742565b975061285c83613060565b92505060010161283d565b600061287282613072565b61287c8185613076565b93508360208202850161288e85613060565b8060005b858110156128c857848403895281516128ab858261274e565b94506128b683613060565b60209a909a0199925050600101612892565b5091979650505050505050565b60006128e082613072565b6128ea8185613076565b93506128f583613060565b8060005b838110156127c057815161290d8882612742565b975061291883613060565b9250506001016128f9565b6127638161308a565b61276381611602565b6127638161308f565b600061294982613072565b6129538185610548565b93506129638185602086016130ea565b9290920192915050565b600061297882613072565b6129828185613076565b93506129928185602086016130ea565b61299b8161311a565b9093019392505050565b6000815460018116600081146129c257600181146129e857612a27565b607f60028304166129d38187613076565b60ff1984168152955050602085019250612a27565b600282046129f68187613076565b9550612a0185613066565b60005b82811015612a2057815488820152600190910190602001612a04565b8701945050505b505092915050565b600081546001811660008114612a4c5760018114612a6f57612a27565b607f6002830416612a5d8187610548565b60ff1984168152955085019250612a27565b60028204612a7d8187610548565b9550612a8885613066565b60005b82811015612aa757815488820152600190910190602001612a8b565b5050909401949350505050565b6127638161309c565b612763816130c8565b612763816130d3565b6000612adc601c83613076565b7f6d7573742062652061207375626d69747465642070726f706f73616c00000000815260200192915050565b6000612b15601583613076565b746176617461722063616e6e6f74206265207a65726f60581b815260200192915050565b6000612b46601b83613076565b7f63616e2062652063616c6c6564206f6e6c79206f6e652074696d650000000000815260200192915050565b6000612b7f601583613076565b740d2dcecc2d8d2c840beecc2d8eaca40d8cadccee8d605b1b815260200192915050565b6000612bb0603483613076565b7f43616e7420726563656976652069662069742077696c6c206d616b652067656e81527332b934b19031b0b63639903a379030bb30ba30b960611b602082015260400192915050565b6000612c06601983610548565b7f7472616e7366657228616464726573732c75696e743235362900000000000000815260190192915050565b6000612c3f601783613076565b7f696e76616c69642063616c6c44617461206c656e677468000000000000000000815260200192915050565b6000612c78601283613076565b716f6e6c7920566f74696e674d616368696e6560701b815260200192915050565b6000612ca6601783613076565b7f696e76616c69642070726f706f73616c2063616c6c6572000000000000000000815260200192915050565b60006115e8828461293e565b60006115e88284612a2f565b6000610a9782612bf9565b60208101610a978284612769565b60208101610a97828461275a565b60808101612d1f8287612769565b612d2c602083018661275a565b612d396040830185612769565b610d7b6060830184612935565b60808101612d548287612769565b8181036020830152612d6681866129a5565b9050612d756040830185612ab4565b610d7b606083018461292c565b60408101612d908285612769565b6115e8602083018461292c565b60c08082528101612dae8189612772565b90508181036020830152612dc28188612867565b90508181036040830152612dd681876128d5565b9050612de56060830186612abd565b8181036080830152612df7818561296d565b905081810360a08301526117c6818461296d565b60408082528101612e1c81856127cb565b90508181036020830152612e308184612867565b949350505050565b602080825281016115e88184612819565b60208101610a978284612923565b60208101610a97828461292c565b60208101610a978284612935565b60208101610a978284612ab4565b60808101612e8f8287612ab4565b612e9c6020830186612769565b612ea9604083018561292c565b610d7b6060830184612ab4565b60608101612ec48286612abd565b8181036020830152612ed6818561296d565b90508181036040830152610d7b818461296d565b60808101612ef88287612ac6565b612f05602083018661292c565b612f12604083018561275a565b610d7b606083018461275a565b602080825281016115e8818461296d565b60208082528101610a9781612acf565b60208082528101610a9781612b08565b60208082528101610a9781612b39565b60208082528101610a9781612b72565b60208082528101610a9781612ba3565b60208082528101610a9781612c32565b60208082528101610a9781612c6b565b60208082528101610a9781612c99565b60608101612fbe828661292c565b612fcb6020830185612769565b612e30604083018461275a565b60408101612fe6828561292c565b6115e86020830184612ab4565b6040518181016001600160401b038111828210171561301157600080fd5b604052919050565b60006001600160401b0382111561302f57600080fd5b5060209081020190565b60006001600160401b0382111561304f57600080fd5b506020601f91909101601f19160190565b60200190565b60009081526020902090565b5190565b90815260200190565b6000610a97826130b1565b151590565b6001600160e01b03191690565b6000610a978261307f565b8061054881613124565b6001600160a01b031690565b6000610a978261309c565b6000610a97826130a7565b6000610a9782611602565b82818337506000910152565b60005b838110156131055781810151838201526020016130ed565b83811115613114576000848401525b50505050565b601f01601f191690565b6004811061206e57fe5b6131378161307f565b811461206e57600080fd5b6131378161308a565b61313781611602565b6131378161309c56fea365627a7a72315820c163dd1c8237458f63932b62c9642f6ba621a554957a9ddffb9744670eaab3736c6578706572696d656e74616cf564736f6c63430005110040",
  "linkReferences": {},
  "deployedLinkReferences": {}
}