{
  "_format": "hh-sol-artifact-1",
  "contractName": "WalletScheme",
  "sourceName": "dxdao-contracts/contracts/schemes/WalletScheme.sol",
  "abi": [
    {
      "anonymous": false,
      "inputs": [
        {
          "indexed": true,
          "internalType": "bytes32",
          "name": "_proposalId",
          "type": "bytes32"
        }
      ],
      "name": "NewCallProposal",
      "type": "event"
    },
    {
      "anonymous": false,
      "inputs": [
        {
          "indexed": true,
          "internalType": "bytes32",
          "name": "_proposalId",
          "type": "bytes32"
        },
        {
          "indexed": false,
          "internalType": "bool[]",
          "name": "_callsSucessResult",
          "type": "bool[]"
        },
        {
          "indexed": false,
          "internalType": "bytes[]",
          "name": "_callsDataResult",
          "type": "bytes[]"
        }
      ],
      "name": "ProposalExecuted",
      "type": "event"
    },
    {
      "anonymous": false,
      "inputs": [
        {
          "indexed": true,
          "internalType": "bytes32",
          "name": "_proposalId",
          "type": "bytes32"
        },
        {
          "indexed": false,
          "internalType": "int256",
          "name": "_param",
          "type": "int256"
        }
      ],
      "name": "ProposalExecutedByVotingMachine",
      "type": "event"
    },
    {
      "anonymous": false,
      "inputs": [
        {
          "indexed": true,
          "internalType": "bytes32",
          "name": "_proposalId",
          "type": "bytes32"
        }
      ],
      "name": "ProposalExecutionTimeout",
      "type": "event"
    },
    {
      "anonymous": false,
      "inputs": [
        {
          "indexed": true,
          "internalType": "bytes32",
          "name": "_proposalId",
          "type": "bytes32"
        }
      ],
      "name": "ProposalRejected",
      "type": "event"
    },
    {
      "payable": true,
      "stateMutability": "payable",
      "type": "fallback"
    },
    {
      "constant": true,
      "inputs": [],
      "name": "ANY_ADDRESS",
      "outputs": [
        {
          "internalType": "address",
          "name": "",
          "type": "address"
        }
      ],
      "payable": false,
      "stateMutability": "view",
      "type": "function"
    },
    {
      "constant": true,
      "inputs": [],
      "name": "ANY_SIGNATURE",
      "outputs": [
        {
          "internalType": "bytes4",
          "name": "",
          "type": "bytes4"
        }
      ],
      "payable": false,
      "stateMutability": "view",
      "type": "function"
    },
    {
      "constant": true,
      "inputs": [],
      "name": "ERC20_TRANSFER_SIGNATURE",
      "outputs": [
        {
          "internalType": "bytes4",
          "name": "",
          "type": "bytes4"
        }
      ],
      "payable": false,
      "stateMutability": "view",
      "type": "function"
    },
    {
      "constant": true,
      "inputs": [],
      "name": "avatar",
      "outputs": [
        {
          "internalType": "contract Avatar",
          "name": "",
          "type": "address"
        }
      ],
      "payable": false,
      "stateMutability": "view",
      "type": "function"
    },
    {
      "constant": true,
      "inputs": [
        {
          "internalType": "contract IERC20",
          "name": "_stakingToken",
          "type": "address"
        },
        {
          "internalType": "bytes32",
          "name": "_proposalId",
          "type": "bytes32"
        }
      ],
      "name": "balanceOfStakingToken",
      "outputs": [
        {
          "internalType": "uint256",
          "name": "",
          "type": "uint256"
        }
      ],
      "payable": false,
      "stateMutability": "view",
      "type": "function"
    },
    {
      "constant": false,
      "inputs": [
        {
          "internalType": "uint256",
          "name": "_amount",
          "type": "uint256"
        },
        {
          "internalType": "address",
          "name": "_beneficiary",
          "type": "address"
        },
        {
          "internalType": "bytes32",
          "name": "_proposalId",
          "type": "bytes32"
        }
      ],
      "name": "burnReputation",
      "outputs": [
        {
          "internalType": "bool",
          "name": "",
          "type": "bool"
        }
      ],
      "payable": false,
      "stateMutability": "nonpayable",
      "type": "function"
    },
    {
      "constant": true,
      "inputs": [],
      "name": "controllerAddress",
      "outputs": [
        {
          "internalType": "address",
          "name": "",
          "type": "address"
        }
      ],
      "payable": false,
      "stateMutability": "view",
      "type": "function"
    },
    {
      "constant": true,
      "inputs": [
        {
          "internalType": "bytes",
          "name": "_data",
          "type": "bytes"
        }
      ],
      "name": "erc20TransferDecode",
      "outputs": [
        {
          "internalType": "address",
          "name": "to",
          "type": "address"
        },
        {
          "internalType": "uint256",
          "name": "value",
          "type": "uint256"
        }
      ],
      "payable": false,
      "stateMutability": "pure",
      "type": "function"
    },
    {
      "constant": false,
      "inputs": [
        {
          "internalType": "bytes32",
          "name": "_proposalId",
          "type": "bytes32"
        },
        {
          "internalType": "int256",
          "name": "_decision",
          "type": "int256"
        }
      ],
      "name": "executeProposal",
      "outputs": [
        {
          "internalType": "bool",
          "name": "",
          "type": "bool"
        }
      ],
      "payable": false,
      "stateMutability": "nonpayable",
      "type": "function"
    },
    {
      "constant": true,
      "inputs": [
        {
          "internalType": "bytes",
          "name": "data",
          "type": "bytes"
        }
      ],
      "name": "getFuncSignature",
      "outputs": [
        {
          "internalType": "bytes4",
          "name": "",
          "type": "bytes4"
        }
      ],
      "payable": false,
      "stateMutability": "pure",
      "type": "function"
    },
    {
      "constant": true,
      "inputs": [
        {
          "internalType": "bytes32",
          "name": "proposalId",
          "type": "bytes32"
        }
      ],
      "name": "getOrganizationProposal",
      "outputs": [
        {
          "internalType": "address[]",
          "name": "to",
          "type": "address[]"
        },
        {
          "internalType": "bytes[]",
          "name": "callData",
          "type": "bytes[]"
        },
        {
          "internalType": "uint256[]",
          "name": "value",
          "type": "uint256[]"
        },
        {
          "internalType": "enum WalletScheme.ProposalState",
          "name": "state",
          "type": "uint8"
        },
        {
          "internalType": "string",
          "name": "title",
          "type": "string"
        },
        {
          "internalType": "string",
          "name": "descriptionHash",
          "type": "string"
        },
        {
          "internalType": "uint256",
          "name": "submittedTime",
          "type": "uint256"
        }
      ],
      "payable": false,
      "stateMutability": "view",
      "type": "function"
    },
    {
      "constant": true,
      "inputs": [
        {
          "internalType": "uint256",
          "name": "proposalIndex",
          "type": "uint256"
        }
      ],
      "name": "getOrganizationProposalByIndex",
      "outputs": [
        {
          "internalType": "address[]",
          "name": "to",
          "type": "address[]"
        },
        {
          "internalType": "bytes[]",
          "name": "callData",
          "type": "bytes[]"
        },
        {
          "internalType": "uint256[]",
          "name": "value",
          "type": "uint256[]"
        },
        {
          "internalType": "enum WalletScheme.ProposalState",
          "name": "state",
          "type": "uint8"
        },
        {
          "internalType": "string",
          "name": "title",
          "type": "string"
        },
        {
          "internalType": "string",
          "name": "descriptionHash",
          "type": "string"
        },
        {
          "internalType": "uint256",
          "name": "submittedTime",
          "type": "uint256"
        }
      ],
      "payable": false,
      "stateMutability": "view",
      "type": "function"
    },
    {
      "constant": true,
      "inputs": [],
      "name": "getOrganizationProposals",
      "outputs": [
        {
          "internalType": "bytes32[]",
          "name": "",
          "type": "bytes32[]"
        }
      ],
      "payable": false,
      "stateMutability": "view",
      "type": "function"
    },
    {
      "constant": true,
      "inputs": [],
      "name": "getOrganizationProposalsLength",
      "outputs": [
        {
          "internalType": "uint256",
          "name": "",
          "type": "uint256"
        }
      ],
      "payable": false,
      "stateMutability": "view",
      "type": "function"
    },
    {
      "constant": true,
      "inputs": [
        {
          "internalType": "bytes32",
          "name": "_proposalId",
          "type": "bytes32"
        }
      ],
      "name": "getTotalReputationSupply",
      "outputs": [
        {
          "internalType": "uint256",
          "name": "",
          "type": "uint256"
        }
      ],
      "payable": false,
      "stateMutability": "view",
      "type": "function"
    },
    {
      "constant": false,
      "inputs": [
        {
          "internalType": "contract Avatar",
          "name": "_avatar",
          "type": "address"
        },
        {
          "internalType": "contract IntVoteInterface",
          "name": "_votingMachine",
          "type": "address"
        },
        {
          "internalType": "bytes32",
          "name": "_voteParams",
          "type": "bytes32"
        },
        {
          "internalType": "address",
          "name": "_controllerAddress",
          "type": "address"
        },
        {
          "internalType": "address",
          "name": "_permissionRegistry",
          "type": "address"
        },
        {
          "internalType": "string",
          "name": "_schemeName",
          "type": "string"
        },
        {
          "internalType": "uint256",
          "name": "_maxProposalTime",
          "type": "uint256"
        }
      ],
      "name": "initialize",
      "outputs": [],
      "payable": false,
      "stateMutability": "nonpayable",
      "type": "function"
    },
    {
      "constant": true,
      "inputs": [
        {
          "internalType": "address",
          "name": "to",
          "type": "address"
        },
        {
          "internalType": "bytes",
          "name": "data",
          "type": "bytes"
        },
        {
          "internalType": "uint256",
          "name": "value",
          "type": "uint256"
        }
      ],
      "name": "isCallAllowed",
      "outputs": [
        {
          "internalType": "bool",
          "name": "",
          "type": "bool"
        }
      ],
      "payable": false,
      "stateMutability": "view",
      "type": "function"
    },
    {
      "constant": true,
      "inputs": [],
      "name": "maxProposalTime",
      "outputs": [
        {
          "internalType": "uint256",
          "name": "",
          "type": "uint256"
        }
      ],
      "payable": false,
      "stateMutability": "view",
      "type": "function"
    },
    {
      "constant": false,
      "inputs": [
        {
          "internalType": "uint256",
          "name": "_amount",
          "type": "uint256"
        },
        {
          "internalType": "address",
          "name": "_beneficiary",
          "type": "address"
        },
        {
          "internalType": "bytes32",
          "name": "_proposalId",
          "type": "bytes32"
        }
      ],
      "name": "mintReputation",
      "outputs": [
        {
          "internalType": "bool",
          "name": "",
          "type": "bool"
        }
      ],
      "payable": false,
      "stateMutability": "nonpayable",
      "type": "function"
    },
    {
      "constant": true,
      "inputs": [],
      "name": "permissionRegistry",
      "outputs": [
        {
          "internalType": "contract PermissionRegistry",
          "name": "",
          "type": "address"
        }
      ],
      "payable": false,
      "stateMutability": "view",
      "type": "function"
    },
    {
      "constant": true,
      "inputs": [
        {
          "internalType": "bytes32",
          "name": "",
          "type": "bytes32"
        }
      ],
      "name": "proposals",
      "outputs": [
        {
          "internalType": "enum WalletScheme.ProposalState",
          "name": "state",
          "type": "uint8"
        },
        {
          "internalType": "string",
          "name": "title",
          "type": "string"
        },
        {
          "internalType": "string",
          "name": "descriptionHash",
          "type": "string"
        },
        {
          "internalType": "uint256",
          "name": "submittedTime",
          "type": "uint256"
        }
      ],
      "payable": false,
      "stateMutability": "view",
      "type": "function"
    },
    {
      "constant": true,
      "inputs": [
        {
          "internalType": "address",
          "name": "",
          "type": "address"
        },
        {
          "internalType": "bytes32",
          "name": "",
          "type": "bytes32"
        }
      ],
      "name": "proposalsInfo",
      "outputs": [
        {
          "internalType": "uint256",
          "name": "blockNumber",
          "type": "uint256"
        },
        {
          "internalType": "contract Avatar",
          "name": "avatar",
          "type": "address"
        }
      ],
      "payable": false,
      "stateMutability": "view",
      "type": "function"
    },
    {
      "constant": true,
      "inputs": [
        {
          "internalType": "uint256",
          "name": "",
          "type": "uint256"
        }
      ],
      "name": "proposalsList",
      "outputs": [
        {
          "internalType": "bytes32",
          "name": "",
          "type": "bytes32"
        }
      ],
      "payable": false,
      "stateMutability": "view",
      "type": "function"
    },
    {
      "constant": false,
      "inputs": [
        {
          "internalType": "address[]",
          "name": "_to",
          "type": "address[]"
        },
        {
          "internalType": "bytes[]",
          "name": "_callData",
          "type": "bytes[]"
        },
        {
          "internalType": "uint256[]",
          "name": "_value",
          "type": "uint256[]"
        },
        {
          "internalType": "string",
          "name": "_title",
          "type": "string"
        },
        {
          "internalType": "string",
          "name": "_descriptionHash",
          "type": "string"
        }
      ],
      "name": "proposeCalls",
      "outputs": [
        {
          "internalType": "bytes32",
          "name": "",
          "type": "bytes32"
        }
      ],
      "payable": false,
      "stateMutability": "nonpayable",
      "type": "function"
    },
    {
      "constant": true,
      "inputs": [
        {
          "internalType": "address",
          "name": "_owner",
          "type": "address"
        },
        {
          "internalType": "bytes32",
          "name": "_proposalId",
          "type": "bytes32"
        }
      ],
      "name": "reputationOf",
      "outputs": [
        {
          "internalType": "uint256",
          "name": "",
          "type": "uint256"
        }
      ],
      "payable": false,
      "stateMutability": "view",
      "type": "function"
    },
    {
      "constant": true,
      "inputs": [],
      "name": "schemeName",
      "outputs": [
        {
          "internalType": "string",
          "name": "",
          "type": "string"
        }
      ],
      "payable": false,
      "stateMutability": "view",
      "type": "function"
    },
    {
      "constant": false,
      "inputs": [
        {
          "internalType": "uint256",
          "name": "_maxProposalTime",
          "type": "uint256"
        }
      ],
      "name": "setMaxProposalTime",
      "outputs": [],
      "payable": false,
      "stateMutability": "nonpayable",
      "type": "function"
    },
    {
      "constant": false,
      "inputs": [
        {
          "internalType": "contract IERC20",
          "name": "_stakingToken",
          "type": "address"
        },
        {
          "internalType": "address",
          "name": "_beneficiary",
          "type": "address"
        },
        {
          "internalType": "uint256",
          "name": "_amount",
          "type": "uint256"
        },
        {
          "internalType": "bytes32",
          "name": "_proposalId",
          "type": "bytes32"
        }
      ],
      "name": "stakingTokenTransfer",
      "outputs": [
        {
          "internalType": "bool",
          "name": "",
          "type": "bool"
        }
      ],
      "payable": false,
      "stateMutability": "nonpayable",
      "type": "function"
    },
    {
      "constant": true,
      "inputs": [],
      "name": "voteParams",
      "outputs": [
        {
          "internalType": "bytes32",
          "name": "",
          "type": "bytes32"
        }
      ],
      "payable": false,
      "stateMutability": "view",
      "type": "function"
    },
    {
      "constant": true,
      "inputs": [],
      "name": "votingMachine",
      "outputs": [
        {
          "internalType": "contract IntVoteInterface",
          "name": "",
          "type": "address"
        }
      ],
      "payable": false,
      "stateMutability": "view",
      "type": "function"
    }
  ],
  "bytecode": "0x608060405234801561001057600080fd5b5061369e806100206000396000f3fe6080604052600436106101cd5760003560e01c8063a169093b116100f7578063d29b5d2f11610095578063e595702311610064578063e595702314610576578063e5e2116414610596578063f81f8bf6146105ab578063f96ff35e146105cb576101cd565b8063d29b5d2f146104f4578063d3d1e7ba14610514578063d8708a7614610536578063db169ae014610556576101cd565b8063b632a912116100d1578063b632a9121461047d578063b9f67ac314610492578063bea75f28146104b2578063c45ff281146104d2576101cd565b8063a169093b14610428578063b551c37314610448578063b55a5c1c14610468576101cd565b80634b24ea471161016f5780636b8eb4031161013e5780636b8eb4031461038e57806372c41046146103bb5780639588378e146103db5780639d4c162d146103fb576101cd565b80634b24ea471461030357806359618a26146103185780635aef7de61461034b57806360bdbb3f14610360576101cd565b806332ed5b12116101ab57806332ed5b121461027a5780633b72b3c7146102aa5780633edf7ca1146102bf5780633f81a192146102e1576101cd565b806304a6579914610201578063069dfc5b14610238578063088af1821461025a575b6006546001600160a01b0316156101ff5760405162461bcd60e51b81526004016101f69061344e565b60405180910390fd5b005b34801561020d57600080fd5b5061022161021c3660046127ac565b6105e0565b60405161022f9291906131f2565b60405180910390f35b34801561024457600080fd5b5061024d6105ef565b60405161022f91906132e4565b34801561026657600080fd5b5061024d6102753660046127ac565b6105fa565b34801561028657600080fd5b5061029a610295366004612751565b610605565b60405161022f9493929190613335565b3480156102b657600080fd5b5061024d61074c565b3480156102cb57600080fd5b506102d4610763565b60405161022f91906132f2565b3480156102ed57600080fd5b506102f6610772565b60405161022f9190613165565b34801561030f57600080fd5b506102f661078a565b34801561032457600080fd5b50610338610333366004612751565b610799565b60405161022f979695949392919061320d565b34801561035757600080fd5b506102d4610a8d565b34801561036c57600080fd5b5061038061037b366004612567565b610a9c565b60405161022f9291906134d6565b34801561039a57600080fd5b506103ae6103a93660046128f8565b610ac6565b60405161022f91906132d6565b3480156103c757600080fd5b506103ae6103d6366004612605565b610b80565b3480156103e757600080fd5b506103ae6103f6366004612567565b610f2a565b34801561040757600080fd5b5061041b61041636600461278d565b611021565b60405161022f91906132c8565b34801561043457600080fd5b506101ff610443366004612751565b61165e565b34801561045457600080fd5b506103ae610463366004612751565b6116b0565b34801561047457600080fd5b506102d46117fb565b34801561048957600080fd5b506103ae61180a565b34801561049e57600080fd5b5061041b6104ad3660046125a1565b611811565b3480156104be57600080fd5b5061041b6104cd366004612897565b6119de565b3480156104de57600080fd5b506104e7611b56565b60405161022f91906133ad565b34801561050057600080fd5b5061041b61050f366004612935565b611be4565b34801561052057600080fd5b50610529611d59565b60405161022f91906132b7565b34801561054257600080fd5b50610338610551366004612751565b611db1565b34801561056257600080fd5b506101ff6105713660046127e0565b611df4565b34801561058257600080fd5b506103ae610591366004612751565b611ece565b3480156105a257600080fd5b506103ae611eec565b3480156105b757600080fd5b5061041b6105c6366004612935565b611ef2565b3480156105d757600080fd5b506103ae612009565b60248101516044909101519091565b635555555560e11b81565b60208101515b919050565b60016020818152600092835260409283902060038101546004820180548651600261010097831615979097026000190190911695909504601f810185900485028601850190965285855260ff909116949193929091908301828280156106ac5780601f10610681576101008083540402835291602001916106ac565b820191906000526020600020905b81548152906001019060200180831161068f57829003601f168201915b5050505060058301805460408051602060026001851615610100026000190190941693909304601f810184900484028201840190925281815294959493509083018282801561073c5780601f106107115761010080835404028352916020019161073c565b820191906000526020600020905b81548152906001019060200180831161071f57829003601f168201915b5050505050908060060154905084565b6040516107589061315a565b604051809103902081565b6003546001600160a01b031681565b73aaaaaaaaaaaaaaaaaaaaaaaaaaaaaaaaaaaaaaaa81565b6006546001600160a01b031681565b6000818152600160208181526040808420600381015460068201548254845181870281018701909552808552606097889788979196889687968996919593860194600287019460ff9092169360048801936005890193909289919083018282801561082d57602002820191906000526020600020905b81546001600160a01b0316815260019091019060200180831161080f575b5050505050965085805480602002602001604051908101604052809291908181526020016000905b828210156109005760008481526020908190208301805460408051601f60026000196101006001871615020190941693909304928301859004850281018501909152818152928301828280156108ec5780601f106108c1576101008083540402835291602001916108ec565b820191906000526020600020905b8154815290600101906020018083116108cf57829003601f168201915b505050505081526020019060010190610855565b5050505095508480548060200260200160405190810160405280929190818152602001828054801561095157602002820191906000526020600020905b81548152602001906001019080831161093d575b5050865460408051602060026001851615610100026000190190941693909304601f8101849004840282018401909252818152959a50889450925084019050828280156109df5780601f106109b4576101008083540402835291602001916109df565b820191906000526020600020905b8154815290600101906020018083116109c257829003601f168201915b5050855460408051602060026001851615610100026000190190941693909304601f810184900484028201840190925281815295985087945092508401905082828015610a6d5780601f10610a4257610100808354040283529160200191610a6d565b820191906000526020600020905b815481529060010190602001808311610a5057829003601f168201915b505050505091509650965096509650965096509650919395979092949650565b6005546001600160a01b031681565b6000602081815292815260408082209093529081522080546001909101546001600160a01b031682565b336000908152602081815260408083208484529091528120600101546001600160a01b031680610afa576000915050610b7a565b6040516370a0823160e01b81526001600160a01b038516906370a0823190610b26908490600401613173565b60206040518083038186803b158015610b3e57600080fd5b505afa158015610b52573d6000803e3d6000fd5b505050506040513d601f19601f82011682018060405250610b76919081019061276f565b9150505b92915050565b6000805b8651811015610c8357306001600160a01b0316878281518110610ba357fe5b60200260200101516001600160a01b03161415610bd25760405162461bcd60e51b81526004016101f69061349e565b73aaaaaaaaaaaaaaaaaaaaaaaaaaaaaaaaaaaaaaaa6001600160a01b0316878281518110610bfc57fe5b60200260200101516001600160a01b03161415610c2b5760405162461bcd60e51b81526004016101f6906133fe565b8551635555555560e11b90610c5390889084908110610c4657fe5b60200260200101516105fa565b6001600160e01b0319161415610c7b5760405162461bcd60e51b81526004016101f69061346e565b600101610b84565b508451865114610ca55760405162461bcd60e51b81526004016101f69061347e565b8351865114610cc65760405162461bcd60e51b81526004016101f69061342e565b60035460048054600554604051634439bdaf60e11b81526000946001600160a01b03908116946388737b5e94610d06946002949193339391169101613378565b602060405180830381600087803b158015610d2057600080fd5b505af1158015610d34573d6000803e3d6000fd5b505050506040513d601f19601f82011682018060405250610d58919081019061276f565b90506040518060e0016040528088815260200187815260200186815260200160006003811115610d8457fe5b815260200185815260200184815260200142815250600160008381526020019081526020016000206000820151816000019080519060200190610dc8929190612034565b506020828101518051610de19260018501920190612099565b5060408201518051610dfd9160028401916020909101906120f2565b5060608201518160030160006101000a81548160ff02191690836003811115610e2257fe5b021790555060808201518051610e42916004840191602090910190612139565b5060a08201518051610e5e916005840191602090910190612139565b5060c091909101516006909101556002805460018082019092557f405787fa12a823e0f2b7631cc41b3ba8828b3321ca811111fa75cd3aa3bb5ace018290556040805180820182524381526005546001600160a01b039081166020808401918252600354831660009081528082528581208882529091528481209351845590519290940180546001600160a01b031916929091169190911790555182917f24dbef3a91439361d3a67e298cca809aa4d5f61b9c43e97c5d99e8468e5471d791a290505b95945050505050565b6000610f346121a6565b5033600090815260208181526040808320858452825291829020825180840190935280548352600101546001600160a01b0316908201819052610f7b576000915050610b7a565b80602001516001600160a01b03166389ae1c906040518163ffffffff1660e01b815260040160206040518083038186803b158015610fb857600080fd5b505afa158015610fcc573d6000803e3d6000fd5b505050506040513d601f19601f82011682018060405250610ff09190810190612917565b815160405163277166bf60e11b81526001600160a01b039290921691634ee2cd7e91610b26918891906004016131f2565b3360009081526020818152604080832085845290915281206001015483906001600160a01b03166110645760405162461bcd60e51b81526004016101f69061348e565b60008481526001602052604081209060038083015460ff169081111561108657fe5b146110a35760405162461bcd60e51b81526004016101f6906133be565b83600114156115e057426110c6600954836006015461200f90919063ffffffff16565b101561110c576003818101805460ff1916909117905560405185907fedb2aa1661d4a779fd540e368a734217f10965fa04ef1dd94cb90ed75b96e52c90600090a26115db565b60038101805460ff191660021790558054604080518281526020808402820101909152606091801561115257816020015b606081526020019060019003908161113d5790505b508254604080518281526020808402820101909152919250606091908015611184578160200160208202803883390190505b50905060005b835481101561159d5761127f8460000182815481106111a557fe5b6000918252602090912001546001860180546001600160a01b0390921691849081106111cd57fe5b600091825260209182902001805460408051601f600260001961010060018716150201909416939093049283018590048502810185019091528181529283018282801561125b5780601f106112305761010080835404028352916020019161125b565b820191906000526020600020905b81548152906001019060200180831161123e57829003601f168201915b505050505086600201848154811061126f57fe5b9060005260206000200154611811565b61129b5760405162461bcd60e51b81526004016101f6906133ce565b6006546001600160a01b0316158015906112e5575060065484546001600160a01b03909116908590839081106112cd57fe5b6000918252602090912001546001600160a01b031614155b156114845760608460000182815481106112fb57fe5b6000918252602090912001546001860180546001600160a01b03909216918490811061132357fe5b90600052602060002001600560009054906101000a90046001600160a01b031687600201858154811061135257fe5b906000526020600020015460405160240161137094939291906131b6565b60408051601f198184030181529181526020820180516001600160e01b03166368db844d60e11b17905260065490519192506001600160a01b0316906000906113ba908490613142565b60006040518083038185875af1925050503d80600081146113f7576040519150601f19603f3d011682016040523d82523d6000602084013e6113fc565b606091505b50845185908590811061140b57fe5b6020026020010186858151811061141e57fe5b6020026020010182905282151515158152505050600084838151811061144057fe5b602002602001015180602001905161145b919081019061270a565b5090508084848151811061146b57fe5b6020026020010190151590811515815250505050611565565b83600001818154811061149357fe5b6000918252602090912001546002850180546001600160a01b0390921691839081106114bb57fe5b90600052602060002001548560010183815481106114d557fe5b906000526020600020016040516114ec919061314e565b60006040518083038185875af1925050503d8060008114611529576040519150601f19603f3d011682016040523d82523d6000602084013e61152e565b606091505b50835184908490811061153d57fe5b6020026020010185848151811061155057fe5b60200260200101829052821515151581525050505b81818151811061157157fe5b60200260200101516115955760405162461bcd60e51b81526004016101f69061340e565b60010161118a565b50867fe134987599ae266ec90edeff1b26125b287dbb57b10822649432d1bb26537fba82846040516115d092919061328a565b60405180910390a250505b61161b565b60038101805460ff1916600117905560405185907f55295d4ce992922fa2e5ffbf3a3dcdb367de0a15e125ace083456017fd22060f90600090a25b847fe03a9047d2647ba513689fe86f20dfb187d4a3710aacc44cda022d7900a7f9678560405161164b91906132d6565b60405180910390a2506001949350505050565b6005546001600160a01b031633146116885760405162461bcd60e51b81526004016101f69061343e565b620151808110156116ab5760405162461bcd60e51b81526004016101f69061345e565b600955565b60006116ba6121a6565b5033600090815260208181526040808320858452825291829020825180840190935280548352600101546001600160a01b0316908201819052611701576000915050610600565b80602001516001600160a01b03166389ae1c906040518163ffffffff1660e01b815260040160206040518083038186803b15801561173e57600080fd5b505afa158015611752573d6000803e3d6000fd5b505050506040513d601f19601f820116820180604052506117769190810190612917565b8151604051630981b24d60e41b81526001600160a01b03929092169163981b24d0916117a4916004016132d6565b60206040518083038186803b1580156117bc57600080fd5b505afa1580156117d0573d6000803e3d6000fd5b505050506040513d601f19601f820116820180604052506117f4919081019061276f565b9392505050565b6007546001600160a01b031681565b6002545b90565b6000806000806000611822876105fa565b9050806001600160e01b03191660405161183b9061315a565b60405180910390206001600160e01b03191614156119105787915061185f876105e0565b600754600654929a509097506001600160a01b0390811691636597c2e59185911661188a5730611897565b6005546001600160a01b03165b8b856040518563ffffffff1660e01b81526004016118b89493929190613181565b604080518083038186803b1580156118cf57600080fd5b505afa1580156118e3573d6000803e3d6000fd5b505050506040513d601f19601f820116820180604052506119079190810190612967565b945092506119b7565b6007546006546001600160a01b0391821691636597c2e5918591166119355730611942565b6005546001600160a01b03165b8b856040518563ffffffff1660e01b81526004016119639493929190613181565b604080518083038186803b15801561197a57600080fd5b505afa15801561198e573d6000803e3d6000fd5b505050506040513d601f19601f820116820180604052506119b29190810190612967565b945092505b6000841180156119c657508342115b80156119d25750858310155b98975050505050505050565b3360009081526020818152604080832084845290915281206001015482906001600160a01b0316611a215760405162461bcd60e51b81526004016101f69061348e565b336000908152602081815260408083208684529091529020600101546001600160a01b031680611a55576000925050611b4d565b806001600160a01b0316638da5cb5b6040518163ffffffff1660e01b815260040160206040518083038186803b158015611a8e57600080fd5b505afa158015611aa2573d6000803e3d6000fd5b505050506040513d601f19601f82011682018060405250611ac69190810190612549565b6001600160a01b031663b9a04cdd888888856040518563ffffffff1660e01b8152600401611af79493929190613300565b602060405180830381600087803b158015611b1157600080fd5b505af1158015611b25573d6000803e3d6000fd5b505050506040513d601f19601f82011682018060405250611b4991908101906126ec565b9250505b50949350505050565b6008805460408051602060026001851615610100026000190190941693909304601f81018490048402820184019092528181529291830182828015611bdc5780601f10611bb157610100808354040283529160200191611bdc565b820191906000526020600020905b815481529060010190602001808311611bbf57829003601f168201915b505050505081565b3360009081526020818152604080832084845290915281206001015482906001600160a01b0316611c275760405162461bcd60e51b81526004016101f69061348e565b336000908152602081815260408083208684529091529020600101546001600160a01b031680611c5b576000925050611d51565b806001600160a01b0316638da5cb5b6040518163ffffffff1660e01b815260040160206040518083038186803b158015611c9457600080fd5b505afa158015611ca8573d6000803e3d6000fd5b505050506040513d601f19601f82011682018060405250611ccc9190810190612549565b6001600160a01b031663eaf994b28787846040518463ffffffff1660e01b8152600401611cfb939291906134ae565b602060405180830381600087803b158015611d1557600080fd5b505af1158015611d29573d6000803e3d6000fd5b505050506040513d601f19601f82011682018060405250611d4d91908101906126ec565b9250505b509392505050565b60606002805480602002602001604051908101604052809291908181526020018280548015611da757602002820191906000526020600020905b815481526020019060010190808311611d93575b5050505050905090565b606080606060006060806000611ddd60028981548110611dcd57fe5b9060005260206000200154610799565b959e949d50929b5090995097509550909350915050565b6005546001600160a01b031615611e1d5760405162461bcd60e51b81526004016101f69061341e565b6001600160a01b038816611e435760405162461bcd60e51b81526004016101f6906133ee565b62015180811015611e665760405162461bcd60e51b81526004016101f69061345e565b600580546001600160a01b03808b166001600160a01b031992831617909255600380548a84169083161790556004889055600680548884169083161790556007805492871692909116919091179055611ec1600884846121bd565b5060095550505050505050565b60028181548110611edb57fe5b600091825260209091200154905081565b60045481565b3360009081526020818152604080832084845290915281206001015482906001600160a01b0316611f355760405162461bcd60e51b81526004016101f69061348e565b336000908152602081815260408083208684529091529020600101546001600160a01b031680611f69576000925050611d51565b806001600160a01b0316638da5cb5b6040518163ffffffff1660e01b815260040160206040518083038186803b158015611fa257600080fd5b505afa158015611fb6573d6000803e3d6000fd5b505050506040513d601f19601f82011682018060405250611fda9190810190612549565b6001600160a01b0316636e94d2788787846040518463ffffffff1660e01b8152600401611cfb939291906134ae565b60095481565b6000828201838110156117f45760405162461bcd60e51b81526004016101f6906133de565b828054828255906000526020600020908101928215612089579160200282015b8281111561208957825182546001600160a01b0319166001600160a01b03909116178255602090920191600190910190612054565b5061209592915061222b565b5090565b8280548282559060005260206000209081019282156120e6579160200282015b828111156120e657825180516120d6918491602090910190612139565b50916020019190600101906120b9565b5061209592915061224f565b82805482825590600052602060002090810192821561212d579160200282015b8281111561212d578251825591602001919060010190612112565b50612095929150612272565b828054600181600116156101000203166002900490600052602060002090601f016020900481019282601f1061217a57805160ff191683800117855561212d565b8280016001018555821561212d579182018281111561212d578251825591602001919060010190612112565b604080518082019091526000808252602082015290565b828054600181600116156101000203166002900490600052602060002090601f016020900481019282601f106121fe5782800160ff1982351617855561212d565b8280016001018555821561212d579182015b8281111561212d578235825591602001919060010190612210565b61180e91905b808211156120955780546001600160a01b0319168155600101612231565b61180e91905b80821115612095576000612269828261228c565b50600101612255565b61180e91905b808211156120955760008155600101612278565b50805460018160011615610100020316600290046000825580601f106122b257506122d0565b601f0160209004906000526020600020908101906122d09190612272565b50565b8035610b7a8161362c565b8051610b7a8161362c565b600082601f8301126122fa57600080fd5b813561230d61230882613517565b6134f1565b9150818183526020840193506020810190508385602084028201111561233257600080fd5b60005b8381101561235e578161234888826122d3565b8452506020928301929190910190600101612335565b5050505092915050565b600082601f83011261237957600080fd5b813561238761230882613517565b81815260209384019390925082018360005b8381101561235e57813586016123af8882612456565b8452506020928301929190910190600101612399565b600082601f8301126123d657600080fd5b81356123e461230882613517565b9150818183526020840193506020810190508385602084028201111561240957600080fd5b60005b8381101561235e578161241f8882612440565b845250602092830192919091019060010161240c565b8051610b7a81613640565b8035610b7a81613649565b8051610b7a81613649565b600082601f83011261246757600080fd5b813561247561230882613537565b9150808252602083016020830185838301111561249157600080fd5b61249c8382846135dc565b50505092915050565b600082601f8301126124b657600080fd5b81516124c461230882613537565b915080825260208301602083018583830111156124e057600080fd5b61249c8382846135e8565b8035610b7a81613652565b8051610b7a81613652565b60008083601f84011261251357600080fd5b5081356001600160401b0381111561252a57600080fd5b60208301915083600182028301111561254257600080fd5b9250929050565b60006020828403121561255b57600080fd5b6000610b7684846122de565b6000806040838503121561257a57600080fd5b600061258685856122d3565b925050602061259785828601612440565b9150509250929050565b6000806000606084860312156125b657600080fd5b60006125c286866122d3565b93505060208401356001600160401b038111156125de57600080fd5b6125ea86828701612456565b92505060406125fb86828701612440565b9150509250925092565b600080600080600060a0868803121561261d57600080fd5b85356001600160401b0381111561263357600080fd5b61263f888289016122e9565b95505060208601356001600160401b0381111561265b57600080fd5b61266788828901612368565b94505060408601356001600160401b0381111561268357600080fd5b61268f888289016123c5565b93505060608601356001600160401b038111156126ab57600080fd5b6126b788828901612456565b92505060808601356001600160401b038111156126d357600080fd5b6126df88828901612456565b9150509295509295909350565b6000602082840312156126fe57600080fd5b6000610b768484612435565b6000806040838503121561271d57600080fd5b60006127298585612435565b92505060208301516001600160401b0381111561274557600080fd5b612597858286016124a5565b60006020828403121561276357600080fd5b6000610b768484612440565b60006020828403121561278157600080fd5b6000610b76848461244b565b600080604083850312156127a057600080fd5b60006125868585612440565b6000602082840312156127be57600080fd5b81356001600160401b038111156127d457600080fd5b610b7684828501612456565b60008060008060008060008060e0898b0312156127fc57600080fd5b60006128088b8b6124eb565b98505060206128198b828c016124eb565b975050604061282a8b828c01612440565b965050606061283b8b828c016122d3565b955050608061284c8b828c016122d3565b94505060a08901356001600160401b0381111561286857600080fd5b6128748b828c01612501565b935093505060c06128878b828c01612440565b9150509295985092959890939650565b600080600080608085870312156128ad57600080fd5b60006128b987876124eb565b94505060206128ca878288016122d3565b93505060406128db87828801612440565b92505060606128ec87828801612440565b91505092959194509250565b6000806040838503121561290b57600080fd5b600061258685856124eb565b60006020828403121561292957600080fd5b6000610b7684846124f6565b60008060006060848603121561294a57600080fd5b60006129568686612440565b93505060206125ea868287016122d3565b6000806040838503121561297a57600080fd5b6000612986858561244b565b92505060206125978582860161244b565b60006129a383836129de565b505060200190565b60006129a38383612b98565b60006129a38383612ba1565b60006117f48383612be2565b6129d8816135bb565b82525050565b6129d88161357d565b60006129f282613570565b6129fc8185613574565b9350612a078361355e565b8060005b83811015612a35578151612a1f8882612997565b9750612a2a8361355e565b925050600101612a0b565b509495945050505050565b6000612a4b82613570565b612a558185613574565b9350612a608361355e565b8060005b83811015612a35578151612a7888826129ab565b9750612a838361355e565b925050600101612a64565b6000612a9982613570565b612aa38185613574565b9350612aae8361355e565b8060005b83811015612a35578151612ac688826129b7565b9750612ad18361355e565b925050600101612ab2565b6000612ae782613570565b612af18185613574565b935083602082028501612b038561355e565b8060005b85811015612b3d5784840389528151612b2085826129c3565b9450612b2b8361355e565b60209a909a0199925050600101612b07565b5091979650505050505050565b6000612b5582613570565b612b5f8185613574565b9350612b6a8361355e565b8060005b83811015612a35578151612b8288826129b7565b9750612b8d8361355e565b925050600101612b6e565b6129d881613588565b6129d88161180e565b6129d88161358d565b6000612bbe82613570565b612bc88185610600565b9350612bd88185602086016135e8565b9290920192915050565b6000612bed82613570565b612bf78185613574565b9350612c078185602086016135e8565b612c1081613618565b9093019392505050565b600081546001811660008114612c375760018114612c5d57612c9c565b607f6002830416612c488187613574565b60ff1984168152955050602085019250612c9c565b60028204612c6b8187613574565b9550612c7685613564565b60005b82811015612c9557815488820152600190910190602001612c79565b8701945050505b505092915050565b600081546001811660008114612cc15760018114612ce457612c9c565b607f6002830416612cd28187610600565b60ff1984168152955085019250612c9c565b60028204612cf28187610600565b9550612cfd85613564565b60005b82811015612d1c57815488820152600190910190602001612d00565b5050909401949350505050565b6129d88161359a565b6129d8816135c6565b6129d8816135d1565b6000612d51601c83613574565b7f6d7573742062652061207375626d69747465642070726f706f73616c00000000815260200192915050565b6000612d8a601083613574565b6f18d85b1b081b9bdd08185b1b1bddd95960821b815260200192915050565b6000612db6601b83613574565b7f536166654d6174683a206164646974696f6e206f766572666c6f770000000000815260200192915050565b6000612def601583613574565b746176617461722063616e6e6f74206265207a65726f60581b815260200192915050565b6000612e20604883613574565b7f63616e742070726f706f73652063616c6c7320746f203078614161416141616181527f4161416141616141614141414141414141616161416141614161614161614161602082015267206164647265737360c01b604082015260600192915050565b6000612e90601583613574565b7418d85b1b08195e1958dd5d1a5bdb8819985a5b1959605a1b815260200192915050565b6000612ec1601b83613574565b7f63616e2062652063616c6c6564206f6e6c79206f6e652074696d650000000000815260200192915050565b6000612efa601583613574565b740d2dcecc2d8d2c840beecc2d8eaca40d8cadccee8d605b1b815260200192915050565b6000612f2b603383613574565b7f7365744d617850726f706f73616c54696d652069732063616c6c61626c65206f81527237363c903337b936903a34329030bb30ba30b960691b602082015260400192915050565b6000612f80603483613574565b7f43616e7420726563656976652069662069742077696c6c206d616b652067656e81527332b934b19031b0b63639903a379030bb30ba30b960611b602082015260400192915050565b6000612fd6603083613574565b7f5f6d617850726f706f73616c54696d652063616e74206265206c65737320746881526f616e203836343030207365636f6e647360801b602082015260400192915050565b6000613028601983610600565b7f7472616e7366657228616464726573732c75696e743235362900000000000000815260190192915050565b6000613061602c83613574565b7f63616e742070726f706f73652063616c6c73207769746820307861616161616181526b6161207369676e617475726560a01b602082015260400192915050565b60006130af601783613574565b7f696e76616c69642063616c6c44617461206c656e677468000000000000000000815260200192915050565b60006130e8601283613574565b716f6e6c7920566f74696e674d616368696e6560701b815260200192915050565b6000613116601783613574565b7f696e76616c69642070726f706f73616c2063616c6c6572000000000000000000815260200192915050565b60006117f48284612bb3565b60006117f48284612ca4565b6000610b7a8261301b565b60208101610b7a82846129de565b60208101610b7a82846129cf565b6080810161318f82876129de565b61319c60208301866129cf565b6131a960408301856129de565b610f216060830184612baa565b608081016131c482876129de565b81810360208301526131d68186612c1a565b90506131e56040830185612d29565b610f216060830184612ba1565b6040810161320082856129de565b6117f46020830184612ba1565b60e0808252810161321e818a6129e7565b905081810360208301526132328189612adc565b905081810360408301526132468188612b4a565b90506132556060830187612d32565b81810360808301526132678186612be2565b905081810360a083015261327b8185612be2565b90506119d260c0830184612ba1565b6040808252810161329b8185612a40565b905081810360208301526132af8184612adc565b949350505050565b602080825281016117f48184612a8e565b60208101610b7a8284612b98565b60208101610b7a8284612ba1565b60208101610b7a8284612baa565b60208101610b7a8284612d29565b6080810161330e8287612d29565b61331b60208301866129de565b6133286040830185612ba1565b610f216060830184612d29565b608081016133438287612d32565b81810360208301526133558186612be2565b905081810360408301526133698185612be2565b9050610f216060830184612ba1565b608081016133868287612d3b565b6133936020830186612ba1565b6133a060408301856129cf565b610f2160608301846129cf565b602080825281016117f48184612be2565b60208082528101610b7a81612d44565b60208082528101610b7a81612d7d565b60208082528101610b7a81612da9565b60208082528101610b7a81612de2565b60208082528101610b7a81612e13565b60208082528101610b7a81612e83565b60208082528101610b7a81612eb4565b60208082528101610b7a81612eed565b60208082528101610b7a81612f1e565b60208082528101610b7a81612f73565b60208082528101610b7a81612fc9565b60208082528101610b7a81613054565b60208082528101610b7a816130a2565b60208082528101610b7a816130db565b60208082528101610b7a81613109565b606081016134bc8286612ba1565b6134c960208301856129de565b6132af60408301846129cf565b604081016134e48285612ba1565b6117f46020830184612d29565b6040518181016001600160401b038111828210171561350f57600080fd5b604052919050565b60006001600160401b0382111561352d57600080fd5b5060209081020190565b60006001600160401b0382111561354d57600080fd5b506020601f91909101601f19160190565b60200190565b60009081526020902090565b5190565b90815260200190565b6000610b7a826135af565b151590565b6001600160e01b03191690565b6000610b7a8261357d565b8061060081613622565b6001600160a01b031690565b6000610b7a8261359a565b6000610b7a826135a5565b6000610b7a8261180e565b82818337506000910152565b60005b838110156136035781810151838201526020016135eb565b83811115613612576000848401525b50505050565b601f01601f191690565b600481106122d057fe5b6136358161357d565b81146122d057600080fd5b61363581613588565b6136358161180e565b6136358161359a56fea365627a7a72315820814adff1d4b0921eba4962656e0f27023469beab077a7413a5f4fab29ba6fe7c6c6578706572696d656e74616cf564736f6c63430005110040",
  "linkReferences": {},
  "deployedLinkReferences": {}
}