{
  "contractName": "WalletScheme",
  "abi": [
    {
      "anonymous": false,
      "inputs": [
        {
          "indexed": true,
          "internalType": "bytes32",
          "name": "_proposalId",
          "type": "bytes32"
        }
      ],
      "name": "NewCallProposal",
      "type": "event"
    },
    {
      "anonymous": false,
      "inputs": [
        {
          "indexed": true,
          "internalType": "bytes32",
          "name": "_proposalId",
          "type": "bytes32"
        },
        {
          "indexed": false,
          "internalType": "bool[]",
          "name": "_callsSucessResult",
          "type": "bool[]"
        },
        {
          "indexed": false,
          "internalType": "bytes[]",
          "name": "_callsDataResult",
          "type": "bytes[]"
        }
      ],
      "name": "ProposalExecuted",
      "type": "event"
    },
    {
      "anonymous": false,
      "inputs": [
        {
          "indexed": true,
          "internalType": "bytes32",
          "name": "_proposalId",
          "type": "bytes32"
        },
        {
          "indexed": false,
          "internalType": "int256",
          "name": "_param",
          "type": "int256"
        }
      ],
      "name": "ProposalExecutedByVotingMachine",
      "type": "event"
    },
    {
      "anonymous": false,
      "inputs": [
        {
          "indexed": true,
          "internalType": "bytes32",
          "name": "_proposalId",
          "type": "bytes32"
        }
      ],
      "name": "ProposalRejected",
      "type": "event"
    },
    {
      "payable": true,
      "stateMutability": "payable",
      "type": "fallback"
    },
    {
      "constant": true,
      "inputs": [],
      "name": "avatar",
      "outputs": [
        {
          "internalType": "contract Avatar",
          "name": "",
          "type": "address"
        }
      ],
      "payable": false,
      "stateMutability": "view",
      "type": "function"
    },
    {
      "constant": true,
      "inputs": [
        {
          "internalType": "contract IERC20",
          "name": "_stakingToken",
          "type": "address"
        },
        {
          "internalType": "bytes32",
          "name": "_proposalId",
          "type": "bytes32"
        }
      ],
      "name": "balanceOfStakingToken",
      "outputs": [
        {
          "internalType": "uint256",
          "name": "",
          "type": "uint256"
        }
      ],
      "payable": false,
      "stateMutability": "view",
      "type": "function"
    },
    {
      "constant": true,
      "inputs": [
        {
          "internalType": "bytes32",
          "name": "_proposalId",
          "type": "bytes32"
        }
      ],
      "name": "getTotalReputationSupply",
      "outputs": [
        {
          "internalType": "uint256",
          "name": "",
          "type": "uint256"
        }
      ],
      "payable": false,
      "stateMutability": "view",
      "type": "function"
    },
    {
      "constant": true,
      "inputs": [
        {
          "internalType": "bytes32",
          "name": "",
          "type": "bytes32"
        }
      ],
      "name": "proposals",
      "outputs": [
        {
          "internalType": "enum WalletScheme.ProposalState",
          "name": "state",
          "type": "uint8"
        },
        {
          "internalType": "string",
          "name": "title",
          "type": "string"
        },
        {
          "internalType": "string",
          "name": "descriptionHash",
          "type": "string"
        }
      ],
      "payable": false,
      "stateMutability": "view",
      "type": "function"
    },
    {
      "constant": true,
      "inputs": [
        {
          "internalType": "address",
          "name": "",
          "type": "address"
        },
        {
          "internalType": "bytes32",
          "name": "",
          "type": "bytes32"
        }
      ],
      "name": "proposalsInfo",
      "outputs": [
        {
          "internalType": "uint256",
          "name": "blockNumber",
          "type": "uint256"
        },
        {
          "internalType": "contract Avatar",
          "name": "avatar",
          "type": "address"
        }
      ],
      "payable": false,
      "stateMutability": "view",
      "type": "function"
    },
    {
      "constant": true,
      "inputs": [
        {
          "internalType": "uint256",
          "name": "",
          "type": "uint256"
        }
      ],
      "name": "proposalsList",
      "outputs": [
        {
          "internalType": "bytes32",
          "name": "",
          "type": "bytes32"
        }
      ],
      "payable": false,
      "stateMutability": "view",
      "type": "function"
    },
    {
      "constant": true,
      "inputs": [
        {
          "internalType": "address",
          "name": "_owner",
          "type": "address"
        },
        {
          "internalType": "bytes32",
          "name": "_proposalId",
          "type": "bytes32"
        }
      ],
      "name": "reputationOf",
      "outputs": [
        {
          "internalType": "uint256",
          "name": "",
          "type": "uint256"
        }
      ],
      "payable": false,
      "stateMutability": "view",
      "type": "function"
    },
    {
      "constant": false,
      "inputs": [
        {
          "internalType": "contract IERC20",
          "name": "_stakingToken",
          "type": "address"
        },
        {
          "internalType": "address",
          "name": "_beneficiary",
          "type": "address"
        },
        {
          "internalType": "uint256",
          "name": "_amount",
          "type": "uint256"
        },
        {
          "internalType": "bytes32",
          "name": "_proposalId",
          "type": "bytes32"
        }
      ],
      "name": "stakingTokenTransfer",
      "outputs": [
        {
          "internalType": "bool",
          "name": "",
          "type": "bool"
        }
      ],
      "payable": false,
      "stateMutability": "nonpayable",
      "type": "function"
    },
    {
      "constant": true,
      "inputs": [],
      "name": "toAddress",
      "outputs": [
        {
          "internalType": "address",
          "name": "",
          "type": "address"
        }
      ],
      "payable": false,
      "stateMutability": "view",
      "type": "function"
    },
    {
      "constant": true,
      "inputs": [],
      "name": "voteParams",
      "outputs": [
        {
          "internalType": "bytes32",
          "name": "",
          "type": "bytes32"
        }
      ],
      "payable": false,
      "stateMutability": "view",
      "type": "function"
    },
    {
      "constant": true,
      "inputs": [],
      "name": "votingMachine",
      "outputs": [
        {
          "internalType": "contract IntVoteInterface",
          "name": "",
          "type": "address"
        }
      ],
      "payable": false,
      "stateMutability": "view",
      "type": "function"
    },
    {
      "constant": false,
      "inputs": [
        {
          "internalType": "contract Avatar",
          "name": "_avatar",
          "type": "address"
        },
        {
          "internalType": "contract IntVoteInterface",
          "name": "_votingMachine",
          "type": "address"
        },
        {
          "internalType": "bytes32",
          "name": "_voteParams",
          "type": "bytes32"
        },
        {
          "internalType": "address",
          "name": "_toAddress",
          "type": "address"
        }
      ],
      "name": "initialize",
      "outputs": [],
      "payable": false,
      "stateMutability": "nonpayable",
      "type": "function"
    },
    {
      "constant": false,
      "inputs": [
        {
          "internalType": "bytes32",
          "name": "_proposalId",
          "type": "bytes32"
        },
        {
          "internalType": "int256",
          "name": "_decision",
          "type": "int256"
        }
      ],
      "name": "executeProposal",
      "outputs": [
        {
          "internalType": "bool",
          "name": "",
          "type": "bool"
        }
      ],
      "payable": false,
      "stateMutability": "nonpayable",
      "type": "function"
    },
    {
      "constant": false,
      "inputs": [
        {
          "internalType": "address[]",
          "name": "_to",
          "type": "address[]"
        },
        {
          "internalType": "bytes[]",
          "name": "_callData",
          "type": "bytes[]"
        },
        {
          "internalType": "uint256[]",
          "name": "_value",
          "type": "uint256[]"
        },
        {
          "internalType": "string",
          "name": "_title",
          "type": "string"
        },
        {
          "internalType": "string",
          "name": "_descriptionHash",
          "type": "string"
        }
      ],
      "name": "proposeCalls",
      "outputs": [
        {
          "internalType": "bytes32",
          "name": "",
          "type": "bytes32"
        }
      ],
      "payable": false,
      "stateMutability": "nonpayable",
      "type": "function"
    },
    {
      "constant": true,
      "inputs": [
        {
          "internalType": "bytes32",
          "name": "proposalId",
          "type": "bytes32"
        }
      ],
      "name": "getOrganizationProposal",
      "outputs": [
        {
          "internalType": "address[]",
          "name": "to",
          "type": "address[]"
        },
        {
          "internalType": "bytes[]",
          "name": "callData",
          "type": "bytes[]"
        },
        {
          "internalType": "uint256[]",
          "name": "value",
          "type": "uint256[]"
        },
        {
          "internalType": "enum WalletScheme.ProposalState",
          "name": "state",
          "type": "uint8"
        },
        {
          "internalType": "string",
          "name": "title",
          "type": "string"
        },
        {
          "internalType": "string",
          "name": "descriptionHash",
          "type": "string"
        }
      ],
      "payable": false,
      "stateMutability": "view",
      "type": "function"
    },
    {
      "constant": true,
      "inputs": [],
      "name": "getOrganizationProposalsLength",
      "outputs": [
        {
          "internalType": "uint256",
          "name": "",
          "type": "uint256"
        }
      ],
      "payable": false,
      "stateMutability": "view",
      "type": "function"
    },
    {
      "constant": true,
      "inputs": [],
      "name": "getOrganizationProposals",
      "outputs": [
        {
          "internalType": "bytes32[]",
          "name": "",
          "type": "bytes32[]"
        }
      ],
      "payable": false,
      "stateMutability": "view",
      "type": "function"
    },
    {
      "constant": false,
      "inputs": [
        {
          "internalType": "uint256",
          "name": "_amount",
          "type": "uint256"
        },
        {
          "internalType": "address",
          "name": "_beneficiary",
          "type": "address"
        },
        {
          "internalType": "bytes32",
          "name": "_proposalId",
          "type": "bytes32"
        }
      ],
      "name": "mintReputation",
      "outputs": [
        {
          "internalType": "bool",
          "name": "",
          "type": "bool"
        }
      ],
      "payable": false,
      "stateMutability": "nonpayable",
      "type": "function"
    },
    {
      "constant": false,
      "inputs": [
        {
          "internalType": "uint256",
          "name": "_amount",
          "type": "uint256"
        },
        {
          "internalType": "address",
          "name": "_beneficiary",
          "type": "address"
        },
        {
          "internalType": "bytes32",
          "name": "_proposalId",
          "type": "bytes32"
        }
      ],
      "name": "burnReputation",
      "outputs": [
        {
          "internalType": "bool",
          "name": "",
          "type": "bool"
        }
      ],
      "payable": false,
      "stateMutability": "nonpayable",
      "type": "function"
    }
  ],
  "bytecode": "0x608060405234801561001057600080fd5b506123a8806100206000396000f3fe6080604052600436106101145760003560e01c80639d4c162d116100a0578063d29b5d2f11610064578063d29b5d2f14610316578063d3d1e7ba14610336578063e595702314610358578063e5e2116414610378578063f81f8bf61461031657610114565b80639d4c162d14610274578063a31ee5b0146102a1578063b551c373146102c1578063b632a912146102e1578063bea75f28146102f657610114565b80635aef7de6116100e75780635aef7de6146101c457806360bdbb3f146101d95780636b8eb4031461020757806372c41046146102345780639588378e1461025457610114565b806319c87f1f1461011657806332ed5b12146101415780633edf7ca11461017057806359618a2614610192575b005b34801561012257600080fd5b5061012b61038d565b6040516101389190611fc3565b60405180910390f35b34801561014d57600080fd5b5061016161015c3660046119b4565b61039c565b60405161013893929190612111565b34801561017c57600080fd5b506101856104dd565b60405161013891906120ce565b34801561019e57600080fd5b506101b26101ad3660046119b4565b6104ec565b60405161013896959493929190611ffa565b3480156101d057600080fd5b506101856107d3565b3480156101e557600080fd5b506101f96101f4366004611870565b6107e2565b6040516101389291906121ea565b34801561021357600080fd5b50610227610222366004611ac5565b61080c565b60405161013891906120c0565b34801561024057600080fd5b5061022761024f3660046118aa565b6108c6565b34801561026057600080fd5b5061022761026f366004611870565b610c0b565b34801561028057600080fd5b5061029461028f3660046119f0565b610d02565b60405161013891906120b2565b3480156102ad57600080fd5b506101146102bc366004611a0f565b61100f565b3480156102cd57600080fd5b506102276102dc3660046119b4565b6110a3565b3480156102ed57600080fd5b506102276111f0565b34801561030257600080fd5b50610294610311366004611a70565b6111f7565b34801561032257600080fd5b50610294610331366004611b02565b61136f565b34801561034257600080fd5b5061034b6113bd565b60405161013891906120a1565b34801561036457600080fd5b506102276103733660046119b4565b611415565b34801561038457600080fd5b50610227611433565b6006546001600160a01b031681565b60016020818152600092835260409283902060038101546004820180548651600261010097831615979097026000190190911695909504601f810185900485028601850190965285855260ff909116949193929091908301828280156104435780601f1061041857610100808354040283529160200191610443565b820191906000526020600020905b81548152906001019060200180831161042657829003601f168201915b5050505060058301805460408051602060026001851615610100026000190190941693909304601f81018490048402820184019092528181529495949350908301828280156104d35780601f106104a8576101008083540402835291602001916104d3565b820191906000526020600020905b8154815290600101906020018083116104b657829003601f168201915b5050505050905083565b6003546001600160a01b031681565b60008181526001602081815260408084206003810154815483518186028101860190945280845260609687968796919587958695909492850193600286019360ff909216926004870192600588019288919083018282801561057757602002820191906000526020600020905b81546001600160a01b03168152600190910190602001808311610559575b5050505050955084805480602002602001604051908101604052809291908181526020016000905b8282101561064a5760008481526020908190208301805460408051601f60026000196101006001871615020190941693909304928301859004850281018501909152818152928301828280156106365780601f1061060b57610100808354040283529160200191610636565b820191906000526020600020905b81548152906001019060200180831161061957829003601f168201915b50505050508152602001906001019061059f565b5050505094508380548060200260200160405190810160405280929190818152602001828054801561069b57602002820191906000526020600020905b815481526020019060010190808311610687575b5050855460408051602060026001851615610100026000190190941693909304601f8101849004840282018401909252818152959950879450925084019050828280156107295780601f106106fe57610100808354040283529160200191610729565b820191906000526020600020905b81548152906001019060200180831161070c57829003601f168201915b5050845460408051602060026001851615610100026000190190941693909304601f8101849004840282018401909252818152959750869450925084019050828280156107b75780601f1061078c576101008083540402835291602001916107b7565b820191906000526020600020905b81548152906001019060200180831161079a57829003601f168201915b5050505050905095509550955095509550955091939550919395565b6005546001600160a01b031681565b6000602081815292815260408082209093529081522080546001909101546001600160a01b031682565b336000908152602081815260408083208484529091528120600101546001600160a01b0316806108405760009150506108c0565b6040516370a0823160e01b81526001600160a01b038516906370a082319061086c908490600401611fd1565b60206040518083038186803b15801561088457600080fd5b505afa158015610898573d6000803e3d6000fd5b505050506040513d601f19601f820116820180604052506108bc91908101906119d2565b9150505b92915050565b6000805b865181101561098557306001600160a01b03168782815181106108e957fe5b60200260200101516001600160a01b031614156109215760405162461bcd60e51b8152600401610918906121da565b60405180910390fd5b6006546001600160a01b03161561097d5760065487516001600160a01b039091169088908390811061094f57fe5b60200260200101516001600160a01b03161461097d5760405162461bcd60e51b8152600401610918906121da565b6001016108ca565b5084518651146109a75760405162461bcd60e51b8152600401610918906121ba565b83518651146109c85760405162461bcd60e51b8152600401610918906121aa565b60035460048054600554604051634439bdaf60e11b81526000946001600160a01b03908116946388737b5e94610a08946002949193339391169101612145565b602060405180830381600087803b158015610a2257600080fd5b505af1158015610a36573d6000803e3d6000fd5b505050506040513d601f19601f82011682018060405250610a5a91908101906119d2565b90506040518060c0016040528088815260200187815260200186815260200160006004811115610a8657fe5b81526020808201879052604091820186905260008481526001825291909120825180519192610aba92849290910190611439565b506020828101518051610ad3926001850192019061149e565b5060408201518051610aef9160028401916020909101906114f7565b50606082015160038201805460ff19166001836004811115610b0d57fe5b021790555060808201518051610b2d91600484019160209091019061153e565b5060a08201518051610b4991600584019160209091019061153e565b50506002805460018082019092557f405787fa12a823e0f2b7631cc41b3ba8828b3321ca811111fa75cd3aa3bb5ace018390556040805180820182524381526005546001600160a01b039081166020808401918252600354831660009081528082528581208982529091528481209351845590519290940180546001600160a01b03191692909116919091179055518392507f24dbef3a91439361d3a67e298cca809aa4d5f61b9c43e97c5d99e8468e5471d79190a290505b95945050505050565b6000610c156115ab565b5033600090815260208181526040808320858452825291829020825180840190935280548352600101546001600160a01b0316908201819052610c5c5760009150506108c0565b80602001516001600160a01b03166389ae1c906040518163ffffffff1660e01b815260040160206040518083038186803b158015610c9957600080fd5b505afa158015610cad573d6000803e3d6000fd5b505050506040513d601f19601f82011682018060405250610cd19190810190611ae4565b815160405163277166bf60e11b81526001600160a01b039290921691634ee2cd7e9161086c91889190600401611fdf565b3360009081526020818152604080832085845290915281206001015483906001600160a01b0316610d455760405162461bcd60e51b8152600401610918906121ca565b600084815260016020526040812090600382015460ff166004811115610d6757fe5b14610d845760405162461bcd60e51b81526004016109189061217a565b8360011415610f915760038101805460ff1916600117905580546040805182815260208084028201019091526060918015610dd357816020015b6060815260200190600190039081610dbe5790505b508254604080518281526020808402820101909152919250606091908015610e05578160200160208202803883390190505b50905060606000805b8554811015610f2d57856000018181548110610e2657fe5b6000918252602090912001546002870180546001600160a01b039092169183908110610e4e57fe5b9060005260206000200154876001018381548110610e6857fe5b90600052602060002001604051610e7f9190611fb7565b60006040518083038185875af1925050503d8060008114610ebc576040519150601f19603f3d011682016040523d82523d6000602084013e610ec1565b606091505b50809450819350505082858281518110610ed757fe5b602002602001018190525081848281518110610eef57fe5b9115156020928302919091019091015281610f255760008a8152600160205260409020600301805460ff19166004179055610f2d565b600101610e0e565b50600089815260016020526040908190206003908101805460ff191690911790555189907fe134987599ae266ec90edeff1b26125b287dbb57b10822649432d1bb26537fba90610f809086908890612074565b60405180910390a250505050610fcc565b60038101805460ff1916600217905560405185907f55295d4ce992922fa2e5ffbf3a3dcdb367de0a15e125ace083456017fd22060f90600090a25b847fe03a9047d2647ba513689fe86f20dfb187d4a3710aacc44cda022d7900a7f96785604051610ffc91906120c0565b60405180910390a2506001949350505050565b6005546001600160a01b0316156110385760405162461bcd60e51b81526004016109189061219a565b6001600160a01b03841661105e5760405162461bcd60e51b81526004016109189061218a565b600580546001600160a01b039586166001600160a01b031991821617909155600380549486169482169490941790935560049190915560068054919093169116179055565b60006110ad6115ab565b5033600090815260208181526040808320858452825291829020825180840190935280548352600101546001600160a01b03169082018190526110f45760009150506111eb565b80602001516001600160a01b03166389ae1c906040518163ffffffff1660e01b815260040160206040518083038186803b15801561113157600080fd5b505afa158015611145573d6000803e3d6000fd5b505050506040513d601f19601f820116820180604052506111699190810190611ae4565b8151604051630981b24d60e41b81526001600160a01b03929092169163981b24d091611197916004016120c0565b60206040518083038186803b1580156111af57600080fd5b505afa1580156111c3573d6000803e3d6000fd5b505050506040513d601f19601f820116820180604052506111e791908101906119d2565b9150505b919050565b6002545b90565b3360009081526020818152604080832084845290915281206001015482906001600160a01b031661123a5760405162461bcd60e51b8152600401610918906121ca565b336000908152602081815260408083208684529091529020600101546001600160a01b03168061126e576000925050611366565b806001600160a01b0316638da5cb5b6040518163ffffffff1660e01b815260040160206040518083038186803b1580156112a757600080fd5b505afa1580156112bb573d6000803e3d6000fd5b505050506040513d601f19601f820116820180604052506112df9190810190611852565b6001600160a01b031663b9a04cdd888888856040518563ffffffff1660e01b815260040161131094939291906120dc565b602060405180830381600087803b15801561132a57600080fd5b505af115801561133e573d6000803e3d6000fd5b505050506040513d601f19601f820116820180604052506113629190810190611996565b9250505b50949350505050565b3360009081526020818152604080832084845290915281206001015482906001600160a01b03166113b25760405162461bcd60e51b8152600401610918906121ca565b506000949350505050565b6060600280548060200260200160405190810160405280929190818152602001828054801561140b57602002820191906000526020600020905b8154815260200190600101908083116113f7575b5050505050905090565b6002818154811061142257fe5b600091825260209091200154905081565b60045481565b82805482825590600052602060002090810192821561148e579160200282015b8281111561148e57825182546001600160a01b0319166001600160a01b03909116178255602090920191600190910190611459565b5061149a9291506115c2565b5090565b8280548282559060005260206000209081019282156114eb579160200282015b828111156114eb57825180516114db91849160209091019061153e565b50916020019190600101906114be565b5061149a9291506115e6565b828054828255906000526020600020908101928215611532579160200282015b82811115611532578251825591602001919060010190611517565b5061149a929150611609565b828054600181600116156101000203166002900490600052602060002090601f016020900481019282601f1061157f57805160ff1916838001178555611532565b828001600101855582156115325791820182811115611532578251825591602001919060010190611517565b604080518082019091526000808252602082015290565b6111f491905b8082111561149a5780546001600160a01b03191681556001016115c8565b6111f491905b8082111561149a5760006116008282611623565b506001016115ec565b6111f491905b8082111561149a576000815560010161160f565b50805460018160011615610100020316600290046000825580601f106116495750611667565b601f0160209004906000526020600020908101906116679190611609565b50565b80356108c081612336565b80516108c081612336565b600082601f83011261169157600080fd5b81356116a461169f8261222c565b612205565b915081818352602084019350602081019050838560208402820111156116c957600080fd5b60005b838110156116f557816116df888261166a565b84525060209283019291909101906001016116cc565b5050505092915050565b600082601f83011261171057600080fd5b813561171e61169f8261222c565b81815260209384019390925082018360005b838110156116f5578135860161174688826117ed565b8452506020928301929190910190600101611730565b600082601f83011261176d57600080fd5b813561177b61169f8261222c565b915081818352602084019350602081019050838560208402820111156117a057600080fd5b60005b838110156116f557816117b688826117d7565b84525060209283019291909101906001016117a3565b80516108c08161234a565b80356108c081612353565b80516108c081612353565b600082601f8301126117fe57600080fd5b813561180c61169f8261224d565b9150808252602083016020830185838301111561182857600080fd5b6118338382846122e6565b50505092915050565b80356108c08161235c565b80516108c08161235c565b60006020828403121561186457600080fd5b60006108bc8484611675565b6000806040838503121561188357600080fd5b600061188f858561166a565b92505060206118a0858286016117d7565b9150509250929050565b600080600080600060a086880312156118c257600080fd5b853567ffffffffffffffff8111156118d957600080fd5b6118e588828901611680565b955050602086013567ffffffffffffffff81111561190257600080fd5b61190e888289016116ff565b945050604086013567ffffffffffffffff81111561192b57600080fd5b6119378882890161175c565b935050606086013567ffffffffffffffff81111561195457600080fd5b611960888289016117ed565b925050608086013567ffffffffffffffff81111561197d57600080fd5b611989888289016117ed565b9150509295509295909350565b6000602082840312156119a857600080fd5b60006108bc84846117cc565b6000602082840312156119c657600080fd5b60006108bc84846117d7565b6000602082840312156119e457600080fd5b60006108bc84846117e2565b60008060408385031215611a0357600080fd5b600061188f85856117d7565b60008060008060808587031215611a2557600080fd5b6000611a31878761183c565b9450506020611a428782880161183c565b9350506040611a53878288016117d7565b9250506060611a648782880161166a565b91505092959194509250565b60008060008060808587031215611a8657600080fd5b6000611a92878761183c565b9450506020611aa38782880161166a565b9350506040611ab4878288016117d7565b9250506060611a64878288016117d7565b60008060408385031215611ad857600080fd5b600061188f858561183c565b600060208284031215611af657600080fd5b60006108bc8484611847565b600080600060608486031215611b1757600080fd5b6000611b2386866117d7565b9350506020611b348682870161166a565b9250506040611b45868287016117d7565b9150509250925092565b6000611b5b8383611b9d565b505060200190565b6000611b5b8383611d57565b6000611b5b8383611d60565b6000611b878383611d69565b9392505050565b611b97816122c5565b82525050565b611b9781612294565b6000611bb182612287565b611bbb818561228b565b9350611bc683612275565b8060005b83811015611bf4578151611bde8882611b4f565b9750611be983612275565b925050600101611bca565b509495945050505050565b6000611c0a82612287565b611c14818561228b565b9350611c1f83612275565b8060005b83811015611bf4578151611c378882611b63565b9750611c4283612275565b925050600101611c23565b6000611c5882612287565b611c62818561228b565b9350611c6d83612275565b8060005b83811015611bf4578151611c858882611b6f565b9750611c9083612275565b925050600101611c71565b6000611ca682612287565b611cb0818561228b565b935083602082028501611cc285612275565b8060005b85811015611cfc5784840389528151611cdf8582611b7b565b9450611cea83612275565b60209a909a0199925050600101611cc6565b5091979650505050505050565b6000611d1482612287565b611d1e818561228b565b9350611d2983612275565b8060005b83811015611bf4578151611d418882611b6f565b9750611d4c83612275565b925050600101611d2d565b611b978161229f565b611b97816111f4565b6000611d7482612287565b611d7e818561228b565b9350611d8e8185602086016122f2565b611d9781612322565b9093019392505050565b600081546001811660008114611dbe5760018114611de157611e20565b607f6002830416611dcf81876111eb565b60ff1984168152955085019250611e20565b60028204611def81876111eb565b9550611dfa8561227b565b60005b82811015611e1957815488820152600190910190602001611dfd565b5050850192505b505092915050565b611b97816122a4565b611b97816122d0565b611b97816122db565b6000611e50601c8361228b565b7f6d7573742062652061207375626d69747465642070726f706f73616c00000000815260200192915050565b6000611e8960158361228b565b746176617461722063616e6e6f74206265207a65726f60581b815260200192915050565b6000611eba601b8361228b565b7f63616e2062652063616c6c6564206f6e6c79206f6e652074696d650000000000815260200192915050565b6000611ef360158361228b565b740d2dcecc2d8d2c840beecc2d8eaca40d8cadccee8d605b1b815260200192915050565b6000611f2460178361228b565b7f696e76616c69642063616c6c44617461206c656e677468000000000000000000815260200192915050565b6000611f5d60128361228b565b716f6e6c7920566f74696e674d616368696e6560701b815260200192915050565b6000611f8b60178361228b565b7f696e76616c69642070726f706f73616c2063616c6c6572000000000000000000815260200192915050565b6000611b878284611da1565b602081016108c08284611b9d565b602081016108c08284611b8e565b60408101611fed8285611b9d565b611b876020830184611d60565b60c0808252810161200b8189611ba6565b9050818103602083015261201f8188611c9b565b905081810360408301526120338187611d09565b90506120426060830186611e31565b81810360808301526120548185611d69565b905081810360a08301526120688184611d69565b98975050505050505050565b604080825281016120858185611bff565b905081810360208301526120998184611c9b565b949350505050565b60208082528101611b878184611c4d565b602081016108c08284611d57565b602081016108c08284611d60565b602081016108c08284611e28565b608081016120ea8287611e28565b6120f76020830186611b9d565b6121046040830185611d60565b610c026060830184611e28565b6060810161211f8286611e31565b81810360208301526121318185611d69565b90508181036040830152610c028184611d69565b608081016121538287611e3a565b6121606020830186611d60565b61216d6040830185611b8e565b610c026060830184611b8e565b602080825281016108c081611e43565b602080825281016108c081611e7c565b602080825281016108c081611ead565b602080825281016108c081611ee6565b602080825281016108c081611f17565b602080825281016108c081611f50565b602080825281016108c081611f7e565b604081016121f88285611d60565b611b876020830184611e28565b60405181810167ffffffffffffffff8111828210171561222457600080fd5b604052919050565b600067ffffffffffffffff82111561224357600080fd5b5060209081020190565b600067ffffffffffffffff82111561226457600080fd5b506020601f91909101601f19160190565b60200190565b60009081526020902090565b5190565b90815260200190565b60006108c0826122b9565b151590565b60006108c082612294565b806111eb8161232c565b6001600160a01b031690565b60006108c0826122a4565b60006108c0826122af565b60006108c0826111f4565b82818337506000910152565b60005b8381101561230d5781810151838201526020016122f5565b8381111561231c576000848401525b50505050565b601f01601f191690565b6005811061166757fe5b61233f81612294565b811461166757600080fd5b61233f8161229f565b61233f816111f4565b61233f816122a456fea365627a7a7231582023ec7708774e8d1db1901f819208aeff9e5e2ed4df100f2f743f16b51794f9a66c6578706572696d656e74616cf564736f6c63430005110040",
  "source": "pragma solidity 0.5.17;\npragma experimental ABIEncoderV2;\n\nimport \"@daostack/infra/contracts/votingMachines/IntVoteInterface.sol\";\nimport \"@daostack/infra/contracts/votingMachines/ProposalExecuteInterface.sol\";\nimport \"../votingMachines/VotingMachineCallbacks.sol\";\n\n/**\n * @title WalletScheme.\n * @dev  A scheme for proposing and executing calls to any contract except itself\n */\ncontract WalletScheme is VotingMachineCallbacks, ProposalExecuteInterface {\n    event NewCallProposal(bytes32 indexed _proposalId);\n\n    event ProposalExecuted(bytes32 indexed _proposalId, bool[] _callsSucessResult, bytes[] _callsDataResult);\n\n    event ProposalExecutedByVotingMachine(bytes32 indexed _proposalId, int256 _param);\n\n    event ProposalRejected(bytes32 indexed _proposalId);\n\n    enum ProposalState {Submitted, Passed, Rejected, ExecutionSucceded, ExecutionFailed}\n\n    struct Proposal {\n        address[] to;\n        bytes[] callData;\n        uint256[] value;\n        ProposalState state;\n        string title;\n        string descriptionHash;\n    }\n\n    mapping(bytes32 => Proposal) public proposals;\n    bytes32[] public proposalsList;\n\n    IntVoteInterface public votingMachine;\n    bytes32 public voteParams;\n    Avatar public avatar;\n    address public toAddress;\n\n    /**\n     * @dev initialize\n     * @param _avatar the avatar address\n     * @param _votingMachine the voting machines address to\n     * @param _voteParams voting machine parameters.\n     * @param _toAddress The address to receive the calls,\n     *  if address 0x0 is used it means any address.\n     */\n    function initialize(\n        Avatar _avatar, IntVoteInterface _votingMachine, bytes32 _voteParams, address _toAddress\n    ) external {\n        require(avatar == Avatar(0), \"can be called only one time\");\n        require(_avatar != Avatar(0), \"avatar cannot be zero\");\n        avatar = _avatar;\n        votingMachine = _votingMachine;\n        voteParams = _voteParams;\n        toAddress = _toAddress;\n    }\n\n    /**\n     * @dev Fallback function that allows the wallet to receive ETH\n     */\n    function() external payable {}\n\n      /**\n       * @dev execution of proposals, can only be called by the voting machine in which the vote is held.\n       * @param _proposalId the ID of the voting in the voting machine\n       * @param _decision a parameter of the voting result, 1 yes and 2 is no.\n       * @return bool success\n       */\n      function executeProposal(bytes32 _proposalId, int256 _decision)\n        external onlyVotingMachine(_proposalId) returns(bool)\n      {\n          Proposal storage proposal = proposals[_proposalId];\n          require(proposal.state == ProposalState.Submitted, \"must be a submitted proposal\");\n\n          if (_decision == 1) {\n              proposal.state = ProposalState.Passed;\n              \n              bytes[] memory callsDataResult = new bytes[](proposal.to.length);\n              bool[] memory callsSucessResult = new bool[](proposal.to.length);\n              bytes memory callDataResult;\n              bool callSuccess;\n              for (uint256 i = 0; i < proposal.to.length; i++) {\n                  (callSuccess, callDataResult) = address(proposal.to[i]).call.value(proposal.value[i])(proposal.callData[i]);\n                  callsDataResult[i] = callDataResult;\n                  callsSucessResult[i] = callSuccess;\n                  if (!callSuccess){\n                    proposals[_proposalId].state = ProposalState.ExecutionFailed;\n                    break;\n                  } \n              }\n              proposals[_proposalId].state = ProposalState.ExecutionSucceded;\n              emit ProposalExecuted(_proposalId, callsSucessResult, callsDataResult);\n          } else {\n              proposal.state = ProposalState.Rejected;\n              emit ProposalRejected(_proposalId);\n          }\n\n          emit ProposalExecutedByVotingMachine(_proposalId, _decision);\n          return true;\n      }\n\n      /**\n      * @dev propose to call an address\n      *      The function trigger NewCallProposal event\n      * @param _to - The addresses to call\n      * @param _callData - The abi encode data for the calls\n      * @param _value value(ETH) to transfer with the calls\n      * @param _descriptionHash proposal description hash\n      * @return an id which represents the proposal\n      */\n      function proposeCalls(\n        address[] memory _to,\n        bytes[] memory _callData,\n        uint256[] memory _value,\n        string memory _title,\n        string memory _descriptionHash\n      ) public returns(bytes32) {\n          for(uint i = 0; i < _to.length; i ++) {\n            require(_to[i] != address(this), 'invalid proposal caller');\n            if (toAddress != address(0))\n              require(_to[i] == toAddress, 'invalid proposal caller');\n          }\n          require(_to.length == _callData.length, \"invalid callData length\");\n          require(_to.length == _value.length, \"invalid _value length\");\n\n          bytes32 proposalId = votingMachine.propose(2, voteParams, msg.sender, address(avatar));\n          proposals[proposalId] = Proposal({\n              to: _to,\n              callData: _callData,\n              value: _value,\n              state: ProposalState.Submitted,\n              title: _title,\n              descriptionHash: _descriptionHash\n          });\n          proposalsList.push(proposalId);\n          proposalsInfo[address(votingMachine)][proposalId] = ProposalInfo({blockNumber: block.number, avatar: avatar});\n          emit NewCallProposal(proposalId);\n          return proposalId;\n      }\n\n    /**\n    * @dev Get the information of a proposal by id\n    * @param proposalId the ID of the proposal\n    */\n    function getOrganizationProposal(bytes32 proposalId) public view \n      returns (\n        address[] memory to,\n        bytes[] memory callData,\n        uint256[] memory value,\n        ProposalState state,\n        string memory title,\n        string memory descriptionHash\n    ) {\n      return (\n        proposals[proposalId].to,\n        proposals[proposalId].callData,\n        proposals[proposalId].value,\n        proposals[proposalId].state,\n        proposals[proposalId].title,\n        proposals[proposalId].descriptionHash\n      );\n    }\n    \n    /**\n    * @dev Get the proposals length\n    */\n    function getOrganizationProposalsLength() public view returns (uint256) {\n      return proposalsList.length;\n    }\n    \n    /**\n    * @dev Get the proposals ids\n    */\n    function getOrganizationProposals() public view returns (bytes32[] memory) {\n      return proposalsList;\n    }\n    \n    /**\n    * @dev Override mintReputation function from VotingMachineCallbacks\n    */\n    function mintReputation(uint256 _amount, address _beneficiary, bytes32 _proposalId)\n      external onlyVotingMachine(_proposalId) returns(bool)\n    {\n      return false;\n    }\n    \n    /**\n    * @dev Override burnReputation function from VotingMachineCallbacks\n    */\n    function burnReputation(uint256 _amount, address _beneficiary, bytes32 _proposalId)\n      external onlyVotingMachine(_proposalId) returns(bool)\n    {\n      return false;\n    }\n}\n",
  "sourcePath": "/home/blackjak/Projects/DXdao/dxvote/contracts/schemes/WalletScheme.sol",
  "compiler": {
    "name": "solc",
    "version": "0.5.17+commit.d19bba13.Emscripten.clang"
  },
  "schemaVersion": "3.2.5",
  "updatedAt": "2020-12-30T20:07:46.552Z",
  "devdoc": {
    "details": "A scheme for proposing and executing calls to any contract except itself",
    "methods": {
      "burnReputation(uint256,address,bytes32)": {
        "details": "Override burnReputation function from VotingMachineCallbacks"
      },
      "executeProposal(bytes32,int256)": {
        "details": "execution of proposals, can only be called by the voting machine in which the vote is held.",
        "params": {
          "_decision": "a parameter of the voting result, 1 yes and 2 is no.",
          "_proposalId": "the ID of the voting in the voting machine"
        },
        "return": "bool success"
      },
      "getOrganizationProposal(bytes32)": {
        "details": "Get the information of a proposal by id",
        "params": {
          "proposalId": "the ID of the proposal"
        }
      },
      "getOrganizationProposals()": {
        "details": "Get the proposals ids"
      },
      "getOrganizationProposalsLength()": {
        "details": "Get the proposals length"
      },
      "initialize(address,address,bytes32,address)": {
        "details": "initialize",
        "params": {
          "_avatar": "the avatar address",
          "_toAddress": "The address to receive the calls, if address 0x0 is used it means any address.",
          "_voteParams": "voting machine parameters.",
          "_votingMachine": "the voting machines address to"
        }
      },
      "mintReputation(uint256,address,bytes32)": {
        "details": "Override mintReputation function from VotingMachineCallbacks"
      },
      "proposeCalls(address[],bytes[],uint256[],string,string)": {
        "details": "propose to call an address     The function trigger NewCallProposal event",
        "params": {
          "_callData": "- The abi encode data for the calls",
          "_descriptionHash": "proposal description hash",
          "_to": "- The addresses to call",
          "_value": "value(ETH) to transfer with the calls"
        },
        "return": "an id which represents the proposal"
      }
    },
    "title": "WalletScheme."
  },
  "userdoc": {
    "methods": {}
  }
}