{
  "_format": "hh-sol-artifact-1",
  "contractName": "WalletScheme",
  "sourceName": "dxdao-contracts/contracts/dxvote/WalletScheme.sol",
  "abi": [
    {
      "anonymous": false,
      "inputs": [
        {
          "indexed": true,
          "internalType": "bytes32",
          "name": "_proposalId",
          "type": "bytes32"
        },
        {
          "indexed": false,
          "internalType": "bool[]",
          "name": "_callsSucessResult",
          "type": "bool[]"
        },
        {
          "indexed": false,
          "internalType": "bytes[]",
          "name": "_callsDataResult",
          "type": "bytes[]"
        }
      ],
      "name": "ExecutionResults",
      "type": "event"
    },
    {
      "anonymous": false,
      "inputs": [
        {
          "indexed": true,
          "internalType": "bytes32",
          "name": "_proposalId",
          "type": "bytes32"
        },
        {
          "indexed": true,
          "internalType": "uint256",
          "name": "_state",
          "type": "uint256"
        }
      ],
      "name": "ProposalStateChange",
      "type": "event"
    },
    {
      "payable": true,
      "stateMutability": "payable",
      "type": "fallback"
    },
    {
      "constant": true,
      "inputs": [],
      "name": "ANY_ADDRESS",
      "outputs": [
        {
          "internalType": "address",
          "name": "",
          "type": "address"
        }
      ],
      "payable": false,
      "stateMutability": "view",
      "type": "function"
    },
    {
      "constant": true,
      "inputs": [],
      "name": "ANY_SIGNATURE",
      "outputs": [
        {
          "internalType": "bytes4",
          "name": "",
          "type": "bytes4"
        }
      ],
      "payable": false,
      "stateMutability": "view",
      "type": "function"
    },
    {
      "constant": true,
      "inputs": [],
      "name": "ERC20_APPROVE_SIGNATURE",
      "outputs": [
        {
          "internalType": "bytes4",
          "name": "",
          "type": "bytes4"
        }
      ],
      "payable": false,
      "stateMutability": "view",
      "type": "function"
    },
    {
      "constant": true,
      "inputs": [],
      "name": "ERC20_TRANSFER_SIGNATURE",
      "outputs": [
        {
          "internalType": "bytes4",
          "name": "",
          "type": "bytes4"
        }
      ],
      "payable": false,
      "stateMutability": "view",
      "type": "function"
    },
    {
      "constant": true,
      "inputs": [],
      "name": "SCHEME_TYPE",
      "outputs": [
        {
          "internalType": "string",
          "name": "",
          "type": "string"
        }
      ],
      "payable": false,
      "stateMutability": "view",
      "type": "function"
    },
    {
      "constant": true,
      "inputs": [],
      "name": "SET_MAX_SECONDS_FOR_EXECUTION_SIGNATURE",
      "outputs": [
        {
          "internalType": "bytes4",
          "name": "",
          "type": "bytes4"
        }
      ],
      "payable": false,
      "stateMutability": "view",
      "type": "function"
    },
    {
      "constant": true,
      "inputs": [],
      "name": "avatar",
      "outputs": [
        {
          "internalType": "contract Avatar",
          "name": "",
          "type": "address"
        }
      ],
      "payable": false,
      "stateMutability": "view",
      "type": "function"
    },
    {
      "constant": true,
      "inputs": [
        {
          "internalType": "contract IERC20",
          "name": "_stakingToken",
          "type": "address"
        },
        {
          "internalType": "bytes32",
          "name": "_proposalId",
          "type": "bytes32"
        }
      ],
      "name": "balanceOfStakingToken",
      "outputs": [
        {
          "internalType": "uint256",
          "name": "",
          "type": "uint256"
        }
      ],
      "payable": false,
      "stateMutability": "view",
      "type": "function"
    },
    {
      "constant": false,
      "inputs": [
        {
          "internalType": "uint256",
          "name": "_amount",
          "type": "uint256"
        },
        {
          "internalType": "address",
          "name": "_beneficiary",
          "type": "address"
        },
        {
          "internalType": "bytes32",
          "name": "_proposalId",
          "type": "bytes32"
        }
      ],
      "name": "burnReputation",
      "outputs": [
        {
          "internalType": "bool",
          "name": "",
          "type": "bool"
        }
      ],
      "payable": false,
      "stateMutability": "nonpayable",
      "type": "function"
    },
    {
      "constant": true,
      "inputs": [],
      "name": "controller",
      "outputs": [
        {
          "internalType": "contract ControllerInterface",
          "name": "",
          "type": "address"
        }
      ],
      "payable": false,
      "stateMutability": "view",
      "type": "function"
    },
    {
      "constant": true,
      "inputs": [],
      "name": "doAvatarGenericCalls",
      "outputs": [
        {
          "internalType": "bool",
          "name": "",
          "type": "bool"
        }
      ],
      "payable": false,
      "stateMutability": "view",
      "type": "function"
    },
    {
      "constant": true,
      "inputs": [
        {
          "internalType": "bytes",
          "name": "_data",
          "type": "bytes"
        }
      ],
      "name": "erc20TransferOrApproveDecode",
      "outputs": [
        {
          "internalType": "address",
          "name": "to",
          "type": "address"
        },
        {
          "internalType": "uint256",
          "name": "value",
          "type": "uint256"
        }
      ],
      "payable": false,
      "stateMutability": "pure",
      "type": "function"
    },
    {
      "constant": false,
      "inputs": [
        {
          "internalType": "bytes32",
          "name": "_proposalId",
          "type": "bytes32"
        },
        {
          "internalType": "int256",
          "name": "_decision",
          "type": "int256"
        }
      ],
      "name": "executeProposal",
      "outputs": [
        {
          "internalType": "bool",
          "name": "",
          "type": "bool"
        }
      ],
      "payable": false,
      "stateMutability": "nonpayable",
      "type": "function"
    },
    {
      "constant": true,
      "inputs": [
        {
          "internalType": "bytes",
          "name": "data",
          "type": "bytes"
        }
      ],
      "name": "getFuncSignature",
      "outputs": [
        {
          "internalType": "bytes4",
          "name": "",
          "type": "bytes4"
        }
      ],
      "payable": false,
      "stateMutability": "pure",
      "type": "function"
    },
    {
      "constant": true,
      "inputs": [
        {
          "internalType": "bytes32",
          "name": "proposalId",
          "type": "bytes32"
        }
      ],
      "name": "getOrganizationProposal",
      "outputs": [
        {
          "internalType": "address[]",
          "name": "to",
          "type": "address[]"
        },
        {
          "internalType": "bytes[]",
          "name": "callData",
          "type": "bytes[]"
        },
        {
          "internalType": "uint256[]",
          "name": "value",
          "type": "uint256[]"
        },
        {
          "internalType": "enum WalletScheme.ProposalState",
          "name": "state",
          "type": "uint8"
        },
        {
          "internalType": "string",
          "name": "title",
          "type": "string"
        },
        {
          "internalType": "string",
          "name": "descriptionHash",
          "type": "string"
        },
        {
          "internalType": "uint256",
          "name": "submittedTime",
          "type": "uint256"
        }
      ],
      "payable": false,
      "stateMutability": "view",
      "type": "function"
    },
    {
      "constant": true,
      "inputs": [
        {
          "internalType": "uint256",
          "name": "proposalIndex",
          "type": "uint256"
        }
      ],
      "name": "getOrganizationProposalByIndex",
      "outputs": [
        {
          "internalType": "address[]",
          "name": "to",
          "type": "address[]"
        },
        {
          "internalType": "bytes[]",
          "name": "callData",
          "type": "bytes[]"
        },
        {
          "internalType": "uint256[]",
          "name": "value",
          "type": "uint256[]"
        },
        {
          "internalType": "enum WalletScheme.ProposalState",
          "name": "state",
          "type": "uint8"
        },
        {
          "internalType": "string",
          "name": "title",
          "type": "string"
        },
        {
          "internalType": "string",
          "name": "descriptionHash",
          "type": "string"
        },
        {
          "internalType": "uint256",
          "name": "submittedTime",
          "type": "uint256"
        }
      ],
      "payable": false,
      "stateMutability": "view",
      "type": "function"
    },
    {
      "constant": true,
      "inputs": [],
      "name": "getOrganizationProposals",
      "outputs": [
        {
          "internalType": "bytes32[]",
          "name": "",
          "type": "bytes32[]"
        }
      ],
      "payable": false,
      "stateMutability": "view",
      "type": "function"
    },
    {
      "constant": true,
      "inputs": [],
      "name": "getOrganizationProposalsLength",
      "outputs": [
        {
          "internalType": "uint256",
          "name": "",
          "type": "uint256"
        }
      ],
      "payable": false,
      "stateMutability": "view",
      "type": "function"
    },
    {
      "constant": true,
      "inputs": [
        {
          "internalType": "bytes32",
          "name": "_proposalId",
          "type": "bytes32"
        }
      ],
      "name": "getTotalReputationSupply",
      "outputs": [
        {
          "internalType": "uint256",
          "name": "",
          "type": "uint256"
        }
      ],
      "payable": false,
      "stateMutability": "view",
      "type": "function"
    },
    {
      "constant": false,
      "inputs": [
        {
          "internalType": "contract Avatar",
          "name": "_avatar",
          "type": "address"
        },
        {
          "internalType": "contract IntVoteInterface",
          "name": "_votingMachine",
          "type": "address"
        },
        {
          "internalType": "bool",
          "name": "_doAvatarGenericCalls",
          "type": "bool"
        },
        {
          "internalType": "address",
          "name": "_controller",
          "type": "address"
        },
        {
          "internalType": "address",
          "name": "_permissionRegistry",
          "type": "address"
        },
        {
          "internalType": "string",
          "name": "_schemeName",
          "type": "string"
        },
        {
          "internalType": "uint256",
          "name": "_maxSecondsForExecution",
          "type": "uint256"
        },
        {
          "internalType": "uint256",
          "name": "_maxRepPercentageChange",
          "type": "uint256"
        }
      ],
      "name": "initialize",
      "outputs": [],
      "payable": false,
      "stateMutability": "nonpayable",
      "type": "function"
    },
    {
      "constant": true,
      "inputs": [],
      "name": "maxRepPercentageChange",
      "outputs": [
        {
          "internalType": "uint256",
          "name": "",
          "type": "uint256"
        }
      ],
      "payable": false,
      "stateMutability": "view",
      "type": "function"
    },
    {
      "constant": true,
      "inputs": [],
      "name": "maxSecondsForExecution",
      "outputs": [
        {
          "internalType": "uint256",
          "name": "",
          "type": "uint256"
        }
      ],
      "payable": false,
      "stateMutability": "view",
      "type": "function"
    },
    {
      "constant": false,
      "inputs": [
        {
          "internalType": "uint256",
          "name": "_amount",
          "type": "uint256"
        },
        {
          "internalType": "address",
          "name": "_beneficiary",
          "type": "address"
        },
        {
          "internalType": "bytes32",
          "name": "_proposalId",
          "type": "bytes32"
        }
      ],
      "name": "mintReputation",
      "outputs": [
        {
          "internalType": "bool",
          "name": "",
          "type": "bool"
        }
      ],
      "payable": false,
      "stateMutability": "nonpayable",
      "type": "function"
    },
    {
      "constant": true,
      "inputs": [],
      "name": "permissionRegistry",
      "outputs": [
        {
          "internalType": "contract PermissionRegistry",
          "name": "",
          "type": "address"
        }
      ],
      "payable": false,
      "stateMutability": "view",
      "type": "function"
    },
    {
      "constant": true,
      "inputs": [
        {
          "internalType": "bytes32",
          "name": "",
          "type": "bytes32"
        }
      ],
      "name": "proposals",
      "outputs": [
        {
          "internalType": "enum WalletScheme.ProposalState",
          "name": "state",
          "type": "uint8"
        },
        {
          "internalType": "string",
          "name": "title",
          "type": "string"
        },
        {
          "internalType": "string",
          "name": "descriptionHash",
          "type": "string"
        },
        {
          "internalType": "uint256",
          "name": "submittedTime",
          "type": "uint256"
        }
      ],
      "payable": false,
      "stateMutability": "view",
      "type": "function"
    },
    {
      "constant": true,
      "inputs": [
        {
          "internalType": "bytes32",
          "name": "",
          "type": "bytes32"
        }
      ],
      "name": "proposalsBlockNumber",
      "outputs": [
        {
          "internalType": "uint256",
          "name": "",
          "type": "uint256"
        }
      ],
      "payable": false,
      "stateMutability": "view",
      "type": "function"
    },
    {
      "constant": true,
      "inputs": [
        {
          "internalType": "uint256",
          "name": "",
          "type": "uint256"
        }
      ],
      "name": "proposalsList",
      "outputs": [
        {
          "internalType": "bytes32",
          "name": "",
          "type": "bytes32"
        }
      ],
      "payable": false,
      "stateMutability": "view",
      "type": "function"
    },
    {
      "constant": false,
      "inputs": [
        {
          "internalType": "address[]",
          "name": "_to",
          "type": "address[]"
        },
        {
          "internalType": "bytes[]",
          "name": "_callData",
          "type": "bytes[]"
        },
        {
          "internalType": "uint256[]",
          "name": "_value",
          "type": "uint256[]"
        },
        {
          "internalType": "string",
          "name": "_title",
          "type": "string"
        },
        {
          "internalType": "string",
          "name": "_descriptionHash",
          "type": "string"
        }
      ],
      "name": "proposeCalls",
      "outputs": [
        {
          "internalType": "bytes32",
          "name": "",
          "type": "bytes32"
        }
      ],
      "payable": false,
      "stateMutability": "nonpayable",
      "type": "function"
    },
    {
      "constant": true,
      "inputs": [
        {
          "internalType": "address",
          "name": "_owner",
          "type": "address"
        },
        {
          "internalType": "bytes32",
          "name": "_proposalId",
          "type": "bytes32"
        }
      ],
      "name": "reputationOf",
      "outputs": [
        {
          "internalType": "uint256",
          "name": "",
          "type": "uint256"
        }
      ],
      "payable": false,
      "stateMutability": "view",
      "type": "function"
    },
    {
      "constant": true,
      "inputs": [],
      "name": "schemeName",
      "outputs": [
        {
          "internalType": "string",
          "name": "",
          "type": "string"
        }
      ],
      "payable": false,
      "stateMutability": "view",
      "type": "function"
    },
    {
      "constant": false,
      "inputs": [
        {
          "internalType": "uint256",
          "name": "_maxSecondsForExecution",
          "type": "uint256"
        }
      ],
      "name": "setMaxSecondsForExecution",
      "outputs": [],
      "payable": false,
      "stateMutability": "nonpayable",
      "type": "function"
    },
    {
      "constant": false,
      "inputs": [
        {
          "internalType": "contract IERC20",
          "name": "_stakingToken",
          "type": "address"
        },
        {
          "internalType": "address",
          "name": "_beneficiary",
          "type": "address"
        },
        {
          "internalType": "uint256",
          "name": "_amount",
          "type": "uint256"
        },
        {
          "internalType": "bytes32",
          "name": "_proposalId",
          "type": "bytes32"
        }
      ],
      "name": "stakingTokenTransfer",
      "outputs": [
        {
          "internalType": "bool",
          "name": "",
          "type": "bool"
        }
      ],
      "payable": false,
      "stateMutability": "nonpayable",
      "type": "function"
    },
    {
      "constant": true,
      "inputs": [],
      "name": "votingMachine",
      "outputs": [
        {
          "internalType": "contract IntVoteInterface",
          "name": "",
          "type": "address"
        }
      ],
      "payable": false,
      "stateMutability": "view",
      "type": "function"
    }
  ],
  "bytecode": "0x60c0604052601260808190527157616c6c657420536368656d652076312e3160701b60a09081526200003591600391906200004a565b503480156200004357600080fd5b50620000ef565b828054600181600116156101000203166002900490600052602060002090601f016020900481019282601f106200008d57805160ff1916838001178555620000bd565b82800160010185558215620000bd579182015b82811115620000bd578251825591602001919060010190620000a0565b50620000cb929150620000cf565b5090565b620000ec91905b80821115620000cb5760008155600101620000d6565b90565b6148a080620000ff6000396000f3fe6080604052600436106101ee5760003560e01c80639588378e1161010d578063d29b5d2f116100a0578063e59570231161006f578063e595702314610589578063f389ca46146105a9578063f5447c0a146105be578063f77c4791146105ec578063f81f8bf614610601576101ee565b8063d29b5d2f14610512578063d3d1e7ba14610532578063d8708a7614610554578063db2131cd14610574576101ee565b8063b632a912116100dc578063b632a912146104b3578063bea75f28146104c8578063c45ff281146104e8578063cac7d205146104fd576101ee565b80639588378e146104315780639d4c162d14610451578063b551c3731461047e578063b55a5c1c1461049e576101ee565b80633f81a19211610185578063622c7c8d11610154578063622c7c8d146103b15780636b8eb403146103d157806372c41046146103f15780637a5cb92c14610411576101ee565b80633f81a192146103255780634f9ce2211461034757806359618a26146103695780635aef7de61461039c576101ee565b806332ed5b12116101c157806332ed5b121461029c5780633b72b3c7146102cc5780633c4c17da146102e15780633edf7ca114610303576101ee565b8063069dfc5b1461021c578063088af1821461024757806327efdab5146102675780632f4ab7be14610287575b60065460ff161561021a5760405162461bcd60e51b815260040161021190614671565b60405180910390fd5b005b34801561022857600080fd5b50610231610621565b60405161023e9190614447565b60405180910390f35b34801561025357600080fd5b5061023161026236600461345c565b61062c565b34801561027357600080fd5b5061021a610282366004613491565b610637565b34801561029357600080fd5b5061023161074d565b3480156102a857600080fd5b506102bc6102b7366004613401565b610764565b60405161023e9493929190614498565b3480156102d857600080fd5b506102316108a8565b3480156102ed57600080fd5b506102f66108b4565b60405161023e9190614510565b34801561030f57600080fd5b50610318610942565b60405161023e9190614455565b34801561033157600080fd5b5061033a610951565b60405161023e9190614273565b34801561035357600080fd5b5061035c610969565b60405161023e9190614439565b34801561037557600080fd5b50610389610384366004613401565b61096f565b60405161023e979695949392919061436c565b3480156103a857600080fd5b50610318610c65565b3480156103bd57600080fd5b5061021a6103cc366004613401565b610c74565b3480156103dd57600080fd5b5061035c6103ec3660046135be565b610cc6565b3480156103fd57600080fd5b5061035c61040c3660046132af565b610d52565b34801561041d57600080fd5b5061035c61042c366004613401565b611212565b34801561043d57600080fd5b5061035c61044c366004613275565b611224565b34801561045d57600080fd5b5061047161046c36600461343d565b6112e0565b60405161023e919061442b565b34801561048a57600080fd5b5061035c610499366004613401565b61262b565b3480156104aa57600080fd5b50610318612734565b3480156104bf57600080fd5b5061035c612743565b3480156104d457600080fd5b506104716104e336600461355d565b61274a565b3480156104f457600080fd5b506102f661288f565b34801561050957600080fd5b506102316128ea565b34801561051e57600080fd5b5061047161052d3660046135fb565b6128f6565b34801561053e57600080fd5b50610547612a37565b60405161023e919061441a565b34801561056057600080fd5b5061038961056f366004613401565b612a8f565b34801561058057600080fd5b5061035c612ad2565b34801561059557600080fd5b5061035c6105a4366004613401565b612ad8565b3480156105b557600080fd5b50610471612af6565b3480156105ca57600080fd5b506105de6105d936600461345c565b612aff565b60405161023e929190614351565b3480156105f857600080fd5b50610318612b0e565b34801561060d57600080fd5b5061047161061c3660046135fb565b612b22565b635555555560e11b81565b60208101515b919050565b6001546001600160a01b0316156106605760405162461bcd60e51b8152600401610211906145a1565b6001600160a01b0389166106865760405162461bcd60e51b815260040161021190614631565b6001600160a01b0386166106ac5760405162461bcd60e51b815260040161021190614531565b620151808210156106cf5760405162461bcd60e51b815260040161021190614571565b600180546001600160a01b03199081166001600160a01b038c8116919091179092556000805482168b84161790556006805460ff19168a151517610100600160a81b0319166101008a8516021790556007805490911691871691909117905561073a60088585612d4d565b50600991909155600a5550505050505050565b6040516107599061425d565b604051809103902081565b60046020818152600092835260409283902060038101549281018054855160026101006001841615026000190190921691909104601f810185900485028201850190965285815260ff909416949193929091908301828280156108085780601f106107dd57610100808354040283529160200191610808565b820191906000526020600020905b8154815290600101906020018083116107eb57829003601f168201915b5050505060058301805460408051602060026001851615610100026000190190941693909304601f81018490048402820184019092528181529495949350908301828280156108985780601f1061086d57610100808354040283529160200191610898565b820191906000526020600020905b81548152906001019060200180831161087b57829003601f168201915b5050505050908060060154905084565b60405161075990614268565b6003805460408051602060026001851615610100026000190190941693909304601f8101849004840282018401909252818152929183018282801561093a5780601f1061090f5761010080835404028352916020019161093a565b820191906000526020600020905b81548152906001019060200180831161091d57829003601f168201915b505050505081565b6000546001600160a01b031681565b73aaaaaaaaaaaaaaaaaaaaaaaaaaaaaaaaaaaaaaaa81565b60095481565b600081815260046020818152604080842060038101546006820154825484518187028101870190955280855260609788978897919688968796899691956001870195600288019560ff9093169492880193600589019390929091899190830182828015610a0557602002820191906000526020600020905b81546001600160a01b031681526001909101906020018083116109e7575b5050505050965085805480602002602001604051908101604052809291908181526020016000905b82821015610ad85760008481526020908190208301805460408051601f6002600019610100600187161502019094169390930492830185900485028101850190915281815292830182828015610ac45780601f10610a9957610100808354040283529160200191610ac4565b820191906000526020600020905b815481529060010190602001808311610aa757829003601f168201915b505050505081526020019060010190610a2d565b50505050955084805480602002602001604051908101604052809291908181526020018280548015610b2957602002820191906000526020600020905b815481526020019060010190808311610b15575b5050865460408051602060026001851615610100026000190190941693909304601f8101849004840282018401909252818152959a5088945092508401905082828015610bb75780601f10610b8c57610100808354040283529160200191610bb7565b820191906000526020600020905b815481529060010190602001808311610b9a57829003601f168201915b5050855460408051602060026001851615610100026000190190941693909304601f810184900484028201840190925281815295985087945092508401905082828015610c455780601f10610c1a57610100808354040283529160200191610c45565b820191906000526020600020905b815481529060010190602001808311610c2857829003601f168201915b505050505091509650965096509650965096509650919395979092949650565b6001546001600160a01b031681565b6001546001600160a01b03163314610c9e5760405162461bcd60e51b8152600401610211906145b1565b62015180811015610cc15760405162461bcd60e51b815260040161021190614571565b600955565b6001546040516370a0823160e01b81526000916001600160a01b03808616926370a0823192610cf9921690600401614281565b60206040518083038186803b158015610d1157600080fd5b505afa158015610d25573d6000803e3d6000fd5b505050506040513d601f19601f82011682018060405250610d49919081019061341f565b90505b92915050565b6000805b8651811015610f3e576000610d7d878381518110610d7057fe5b602002602001015161062c565b905073aaaaaaaaaaaaaaaaaaaaaaaaaaaaaaaaaaaaaaaa6001600160a01b0316888381518110610da957fe5b60200260200101516001600160a01b03161415610dd85760405162461bcd60e51b815260040161021190614601565b6001600160e01b03198116635555555560e11b1415610e095760405162461bcd60e51b815260040161021190614681565b306001600160a01b0316888381518110610e1f57fe5b60200260200101516001600160a01b0316141580610e815750604051610e449061425d565b60405180910390206001600160e01b031916816001600160e01b031916148015610e815750858281518110610e7557fe5b60200260200101516000145b610e9d5760405162461bcd60e51b815260040161021190614641565b604051610ea990614268565b60405180910390206001600160e01b031916816001600160e01b03191614158015610efb5750604051610edb90614252565b60405180910390206001600160e01b031916816001600160e01b03191614155b80610f195750858281518110610f0d57fe5b60200260200101516000145b610f355760405162461bcd60e51b815260040161021190614551565b50600101610d56565b508451865114610f605760405162461bcd60e51b815260040161021190614651565b8351865114610f815760405162461bcd60e51b815260040161021190614621565b600654600154604051630389aac160e31b81526000926001600160a01b03610100909104811692631c4d560892610fbe923092169060040161428f565b60206040518083038186803b158015610fd657600080fd5b505afa158015610fea573d6000803e3d6000fd5b505050506040513d601f19601f8201168201806040525061100e919081019061341f565b60008054600154604051634439bdaf60e11b815293945091926001600160a01b03918216926388737b5e9261104f92600292889233929116906004016144db565b602060405180830381600087803b15801561106957600080fd5b505af115801561107d573d6000803e3d6000fd5b505050506040513d601f19601f820116820180604052506110a1919081019061341f565b90506040518060e00160405280898152602001888152602001878152602001600160048111156110cd57fe5b815260200186815260200185815260200142815250600460008381526020019081526020016000206000820151816000019080519060200190611111929190612dcb565b50602082810151805161112a9260018501920190612e2c565b5060408201518051611146916002840191602090910190612e85565b50606082015160038201805460ff1916600183600481111561116457fe5b021790555060808201518051611184916004840191602090910190612ec0565b5060a082015180516111a0916005840191602090910190612ec0565b5060c091909101516006909101556005805460018082019092557f036b6384b5eca791c62761152d0c79bb0604c104a5fb6f4eb0703f3154bb3db00182905560008281526002602052604080822043905551839160008051602061483e83398151915291a39150505b95945050505050565b60026020526000908152604090205481565b6001546040805163089ae1c960e41b815290516000926001600160a01b0316916389ae1c90916004808301926020929190829003018186803b15801561126957600080fd5b505afa15801561127d573d6000803e3d6000fd5b505050506040513d601f19601f820116820180604052506112a191908101906135dd565b6000838152600260205260409081902054905163277166bf60e11b81526001600160a01b039290921691634ee2cd7e91610cf991879190600401614351565b600080546001600160a01b0316331461130b5760405162461bcd60e51b815260040161021190614611565b600d5460ff161561132e5760405162461bcd60e51b8152600401610211906145d1565b600d805460ff19166001908117909155600084815260046020526040902090600382015460ff16600481111561136057fe5b1461137d5760405162461bcd60e51b815260040161021190614591565b426113976009548360060154612c0790919063ffffffff16565b10156113cd5760038101805460ff19166004908117909155604051859060008051602061483e83398151915290600090a3612617565b82600114156125eb576001546040805163089ae1c960e41b815290516000926001600160a01b0316916389ae1c90916004808301926020929190829003018186803b15801561141b57600080fd5b505afa15801561142f573d6000803e3d6000fd5b505050506040513d601f19601f8201168201806040525061145391908101906135dd565b6001600160a01b03166318160ddd6040518163ffffffff1660e01b815260040160206040518083038186803b15801561148b57600080fd5b505afa15801561149f573d6000803e3d6000fd5b505050506040513d601f19601f820116820180604052506114c3919081019061341f565b9050600080606084600001805490506040519080825280602002602001820160405280156114fb578160200160208202803883390190505b50855460408051828152602080840282010190915291925060609190801561152d578160200160208202803883390190505b50905060005b8654811015611a6a576115e687600101828154811061154e57fe5b600091825260209182902001805460408051601f60026000196101006001871615020190941693909304928301859004850281018501909152818152928301828280156115dc5780601f106115b1576101008083540402835291602001916115dc565b820191906000526020600020905b8154815290600101906020018083116115bf57829003601f168201915b505050505061062c565b9450846001600160e01b0319166040516115ff90614268565b60405180910390206001600160e01b03191614806116435750846001600160e01b03191660405161162f90614252565b60405180910390206001600160e01b031916145b156118c3576000806116f589600101848154811061165d57fe5b600091825260209182902001805460408051601f60026000196101006001871615020190941693909304928301859004850281018501909152818152928301828280156116eb5780601f106116c0576101008083540402835291602001916116eb565b820191906000526020600020905b8154815290600101906020018083116116ce57829003601f168201915b5050505050612aff565b9150915088600001838154811061170857fe5b60009182526020918290200154604051611730926001600160a01b0390921691859101614214565b604051602081830303815290604052805190602001209550600c60008a600001858154811061175b57fe5b60009182526020808320909101546001600160a01b031683528201929092526040019020546117de5788600001838154811061179357fe5b9060005260206000200160009054906101000a90046001600160a01b03168484815181106117bd57fe5b60200260200101906001600160a01b031690816001600160a01b0316815250505b61182681600c60008c60000187815481106117f557fe5b60009182526020808320909101546001600160a01b031683528201929092526040019020549063ffffffff612c0716565b600c60008b600001868154811061183957fe5b60009182526020808320909101546001600160a01b03168352828101939093526040918201812093909355888352600b90915290205461188d578585848151811061188057fe5b6020026020010181815250505b6000868152600b60205260409020546118ac908263ffffffff612c0716565b6000878152600b602052604090205550611a629050565b60008760000182815481106118d457fe5b600091825260209182902001546040516118fb93926001600160a01b039092169101614214565b60408051601f19818403018152919052805160209182012060008052600c9091527f13649b2456f1b42fef0f0040b3aaeabcd21a76a0f3f5defd4f583839455116e85490945061197457600082828151811061195357fe5b60200260200101906001600160a01b031690816001600160a01b0316815250505b6119c987600201828154811061198657fe5b6000918252602080832090910154918052600c90527f13649b2456f1b42fef0f0040b3aaeabcd21a76a0f3f5defd4f583839455116e8549063ffffffff612c0716565b7f13649b2456f1b42fef0f0040b3aaeabcd21a76a0f3f5defd4f583839455116e8556000848152600b6020526040902054611a185783838281518110611a0b57fe5b6020026020010181815250505b611a52876002018281548110611a2a57fe5b6000918252602080832090910154878352600b9091526040909120549063ffffffff612c0716565b6000858152600b60205260409020555b600101611533565b5085546040805182815260208084028201019091526060918015611aa257816020015b6060815260200190600190039081611a8d5790505b508754604080518281526020808402820101909152919250606091908015611ad4578160200160208202803883390190505b509050600080805b8551811015611c5a5760075486516001600160a01b0390911690636597c2e590889084908110611b0857fe5b602090810291909101015160065460ff16611b235730611b30565b6001546001600160a01b03165b6040516001600160e01b031960e085901b168152611b5d9291903090635555555560e11b906004016142df565b604080518083038186803b158015611b7457600080fd5b505afa158015611b88573d6000803e3d6000fd5b505050506040513d601f19601f82011682018060405250611bac9190810190613648565b93509150821580611c005750600083118015611c005750600c6000878381518110611bd357fe5b60200260200101516001600160a01b03166001600160a01b03168152602001908152602001600020548210155b611c1c5760405162461bcd60e51b8152600401610211906145f1565b600c6000878381518110611c2c57fe5b6020908102919091018101516001600160a01b03168252810191909152604001600090812055600101611adc565b5060005b8a548110156122cd57611c798b600101828154811061154e57fe5b9850886001600160e01b031916604051611c9290614268565b60405180910390206001600160e01b0319161480611cd65750886001600160e01b031916604051611cc290614252565b60405180910390206001600160e01b031916145b15611e4a57600080611cf08d600101848154811061165d57fe5b6007548f549294509092506001600160a01b031690636597c2e5908f9086908110611d1757fe5b6000918252602090912001546006546001600160a01b039091169060ff16611d3f5730611d4c565b6001546001600160a01b03165b858f6040518563ffffffff1660e01b8152600401611d6d9493929190614307565b604080518083038186803b158015611d8457600080fd5b505afa158015611d98573d6000803e3d6000fd5b505050506040513d601f19601f82011682018060405250611dbc9190810190613648565b8096508195505050600b60008e6000018581548110611dd757fe5b60009182526020918290200154604051611dff926001600160a01b0390921691879101614214565b60405160208183030381529060405280519060200120815260200190815260200160002054841015611e435760405162461bcd60e51b815260040161021190614661565b5050611f9e565b6007546006546001600160a01b0390911690636597c2e59060009060ff16611e725730611e7f565b6001546001600160a01b03165b8e6000018581548110611e8e57fe5b6000918252602090912001546040516001600160e01b031960e086901b168152611ec89392916001600160a01b0316908f906004016142aa565b604080518083038186803b158015611edf57600080fd5b505afa158015611ef3573d6000803e3d6000fd5b505050506040513d601f19601f82011682018060405250611f179190810190613648565b8094508193505050600b6000808d6000018481548110611f3357fe5b60009182526020918290200154604051611f5a93926001600160a01b039092169101614214565b60405160208183030381529060405280519060200120815260200190815260200160002054821015611f9e5760405162461bcd60e51b815260040161021190614561565b600083118015611fad57508242115b611fc95760405162461bcd60e51b815260040161021190614521565b60065460ff16801561200f57506006548b546101009091046001600160a01b0316908c9083908110611ff757fe5b6000918252602090912001546001600160a01b031614155b156121b45760608b600001828154811061202557fe5b60009182526020909120015460018d0180546001600160a01b03909216918490811061204d57fe5b90600052602060002001600160009054906101000a90046001600160a01b03168e600201858154811061207c57fe5b906000526020600020015460405160240161209a9493929190614315565b60408051601f198184030181529181526020820180516001600160e01b03166368db844d60e11b17905260065490519192506001600160a01b0361010090910416906000906120ea90849061423a565b60006040518083038185875af1925050503d8060008114612127576040519150601f19603f3d011682016040523d82523d6000602084013e61212c565b606091505b50865187908590811061213b57fe5b6020026020010188858151811061214e57fe5b6020026020010182905282151515158152505050600086838151811061217057fe5b602002602001015180602001905161218b91908101906133b9565b5090508086848151811061219b57fe5b6020026020010190151590811515815250505050612295565b8a60000181815481106121c357fe5b60009182526020909120015460028c0180546001600160a01b0390921691839081106121eb57fe5b90600052602060002001548c600101838154811061220557fe5b9060005260206000200160405161221c9190614246565b60006040518083038185875af1925050503d8060008114612259576040519150601f19603f3d011682016040523d82523d6000602084013e61225e565b606091505b50855186908490811061226d57fe5b6020026020010187848151811061228057fe5b60200260200101829052821515151581525050505b8381815181106122a157fe5b60200260200101516122c55760405162461bcd60e51b8152600401610211906145c1565b600101611c5e565b50600160009054906101000a90046001600160a01b03166001600160a01b03166389ae1c906040518163ffffffff1660e01b815260040160206040518083038186803b15801561231c57600080fd5b505afa158015612330573d6000803e3d6000fd5b505050506040513d601f19601f8201168201806040525061235491908101906135dd565b6001600160a01b03166318160ddd6040518163ffffffff1660e01b815260040160206040518083038186803b15801561238c57600080fd5b505afa1580156123a0573d6000803e3d6000fd5b505050506040513d601f19601f820116820180604052506123c4919081019061341f565b6123fb60646123ef6123e2600a546064612c0790919063ffffffff16565b8d9063ffffffff612c2c16565b9063ffffffff612c6616565b1015801561251b5750600160009054906101000a90046001600160a01b03166001600160a01b03166389ae1c906040518163ffffffff1660e01b815260040160206040518083038186803b15801561245257600080fd5b505afa158015612466573d6000803e3d6000fd5b505050506040513d601f19601f8201168201806040525061248a91908101906135dd565b6001600160a01b03166318160ddd6040518163ffffffff1660e01b815260040160206040518083038186803b1580156124c257600080fd5b505afa1580156124d6573d6000803e3d6000fd5b505050506040513d601f19601f820116820180604052506124fa919081019061341f565b61251860646123ef6123e2600a546064612ca890919063ffffffff16565b11155b6125375760405162461bcd60e51b815260040161021190614581565b60005b865181101561257a57600b600088838151811061255357fe5b6020026020010151815260200190815260200160002060009055808060010191505061253a565b5060038a8101805460ff1916821790556040518e9060008051602061483e83398151915290600090a38c7f994d6e6491320bb0d97b7f84aca77e9e13ff409f1911682ddd406b5323191dcd84866040516125d59291906143f5565b60405180910390a2505050505050505050612617565b60038101805460ff19166002908117909155604051859060008051602061483e83398151915290600090a35b5050600d805460ff19169055600192915050565b6001546040805163089ae1c960e41b815290516000926001600160a01b0316916389ae1c90916004808301926020929190829003018186803b15801561267057600080fd5b505afa158015612684573d6000803e3d6000fd5b505050506040513d601f19601f820116820180604052506126a891908101906135dd565b60008381526002602052604090819020549051630981b24d60e41b81526001600160a01b03929092169163981b24d0916126e491600401614439565b60206040518083038186803b1580156126fc57600080fd5b505afa158015612710573d6000803e3d6000fd5b505050506040513d601f19601f82011682018060405250610d4c919081019061341f565b6007546001600160a01b031681565b6005545b90565b600080546001600160a01b031633146127755760405162461bcd60e51b815260040161021190614611565b600160009054906101000a90046001600160a01b03166001600160a01b0316638da5cb5b6040518163ffffffff1660e01b815260040160206040518083038186803b1580156127c357600080fd5b505afa1580156127d7573d6000803e3d6000fd5b505050506040513d601f19601f820116820180604052506127fb9190810190613257565b60015460405163b9a04cdd60e01b81526001600160a01b039283169263b9a04cdd92612832928a928a928a92911690600401614463565b602060405180830381600087803b15801561284c57600080fd5b505af1158015612860573d6000803e3d6000fd5b505050506040513d601f19601f82011682018060405250612884919081019061339b565b90505b949350505050565b6008805460408051602060026001851615610100026000190190941693909304601f8101849004840282018401909252818152929183018282801561093a5780601f1061090f5761010080835404028352916020019161093a565b60405161075990614252565b600080546001600160a01b031633146129215760405162461bcd60e51b815260040161021190614611565b600160009054906101000a90046001600160a01b03166001600160a01b0316638da5cb5b6040518163ffffffff1660e01b815260040160206040518083038186803b15801561296f57600080fd5b505afa158015612983573d6000803e3d6000fd5b505050506040513d601f19601f820116820180604052506129a79190810190613257565b60015460405163757cca5960e11b81526001600160a01b039283169263eaf994b2926129db92899289921690600401614691565b602060405180830381600087803b1580156129f557600080fd5b505af1158015612a09573d6000803e3d6000fd5b505050506040513d601f19601f82011682018060405250612a2d919081019061339b565b90505b9392505050565b60606005805480602002602001604051908101604052809291908181526020018280548015612a8557602002820191906000526020600020905b815481526020019060010190808311612a71575b5050505050905090565b606080606060006060806000612abb60058981548110612aab57fe5b906000526020600020015461096f565b959e949d50929b5090995097509550909350915050565b600a5481565b60058181548110612ae557fe5b600091825260209091200154905081565b60065460ff1681565b60248101516044909101519091565b60065461010090046001600160a01b031681565b600080546001600160a01b03163314612b4d5760405162461bcd60e51b815260040161021190614611565b600160009054906101000a90046001600160a01b03166001600160a01b0316638da5cb5b6040518163ffffffff1660e01b815260040160206040518083038186803b158015612b9b57600080fd5b505afa158015612baf573d6000803e3d6000fd5b505050506040513d601f19601f82011682018060405250612bd39190810190613257565b600154604051630dd29a4f60e31b81526001600160a01b0392831692636e94d278926129db92899289921690600401614691565b600082820183811015610d495760405162461bcd60e51b815260040161021190614541565b600082612c3b57506000610d4c565b82820282848281612c4857fe5b0414610d495760405162461bcd60e51b8152600401610211906145e1565b6000610d4983836040518060400160405280601a81526020017f536166654d6174683a206469766973696f6e206279207a65726f000000000000815250612cea565b6000610d4983836040518060400160405280601e81526020017f536166654d6174683a207375627472616374696f6e206f766572666c6f770000815250612d21565b60008183612d0b5760405162461bcd60e51b81526004016102119190614510565b506000838581612d1757fe5b0495945050505050565b60008184841115612d455760405162461bcd60e51b81526004016102119190614510565b505050900390565b828054600181600116156101000203166002900490600052602060002090601f016020900481019282601f10612d8e5782800160ff19823516178555612dbb565b82800160010185558215612dbb579182015b82811115612dbb578235825591602001919060010190612da0565b50612dc7929150612f2d565b5090565b828054828255906000526020600020908101928215612e20579160200282015b82811115612e2057825182546001600160a01b0319166001600160a01b03909116178255602090920191600190910190612deb565b50612dc7929150612f47565b828054828255906000526020600020908101928215612e79579160200282015b82811115612e795782518051612e69918491602090910190612ec0565b5091602001919060010190612e4c565b50612dc7929150612f6b565b828054828255906000526020600020908101928215612dbb579160200282015b82811115612dbb578251825591602001919060010190612ea5565b828054600181600116156101000203166002900490600052602060002090601f016020900481019282601f10612f0157805160ff1916838001178555612dbb565b82800160010185558215612dbb5791820182811115612dbb578251825591602001919060010190612ea5565b61274791905b80821115612dc75760008155600101612f33565b61274791905b80821115612dc75780546001600160a01b0319168155600101612f4d565b61274791905b80821115612dc7576000612f858282612f8e565b50600101612f71565b50805460018160011615610100020316600290046000825580601f10612fb45750612fd2565b601f016020900490600052602060002090810190612fd29190612f2d565b50565b8035610d4c8161480e565b8051610d4c8161480e565b600082601f830112612ffc57600080fd5b813561300f61300a826146e0565b6146b9565b9150818183526020840193506020810190508385602084028201111561303457600080fd5b60005b83811015613060578161304a8882612fd5565b8452506020928301929190910190600101613037565b5050505092915050565b600082601f83011261307b57600080fd5b813561308961300a826146e0565b81815260209384019390925082018360005b8381101561306057813586016130b18882613163565b845250602092830192919091019060010161309b565b600082601f8301126130d857600080fd5b81356130e661300a826146e0565b9150818183526020840193506020810190508385602084028201111561310b57600080fd5b60005b838110156130605781613121888261314d565b845250602092830192919091019060010161310e565b8035610d4c81614822565b8051610d4c81614822565b8035610d4c8161482b565b8051610d4c8161482b565b600082601f83011261317457600080fd5b813561318261300a82614701565b9150808252602083016020830185838301111561319e57600080fd5b6131a98382846147a7565b50505092915050565b600082601f8301126131c357600080fd5b81516131d161300a82614701565b915080825260208301602083018583830111156131ed57600080fd5b6131a98382846147b3565b8035610d4c81614834565b8051610d4c81614834565b60008083601f84011261322057600080fd5b50813567ffffffffffffffff81111561323857600080fd5b60208301915083600182028301111561325057600080fd5b9250929050565b60006020828403121561326957600080fd5b60006128878484612fe0565b6000806040838503121561328857600080fd5b60006132948585612fd5565b92505060206132a58582860161314d565b9150509250929050565b600080600080600060a086880312156132c757600080fd5b853567ffffffffffffffff8111156132de57600080fd5b6132ea88828901612feb565b955050602086013567ffffffffffffffff81111561330757600080fd5b6133138882890161306a565b945050604086013567ffffffffffffffff81111561333057600080fd5b61333c888289016130c7565b935050606086013567ffffffffffffffff81111561335957600080fd5b61336588828901613163565b925050608086013567ffffffffffffffff81111561338257600080fd5b61338e88828901613163565b9150509295509295909350565b6000602082840312156133ad57600080fd5b60006128878484613142565b600080604083850312156133cc57600080fd5b60006133d88585613142565b925050602083015167ffffffffffffffff8111156133f557600080fd5b6132a5858286016131b2565b60006020828403121561341357600080fd5b6000612887848461314d565b60006020828403121561343157600080fd5b60006128878484613158565b6000806040838503121561345057600080fd5b6000613294858561314d565b60006020828403121561346e57600080fd5b813567ffffffffffffffff81111561348557600080fd5b61288784828501613163565b60008060008060008060008060006101008a8c0312156134b057600080fd5b60006134bc8c8c6131f8565b99505060206134cd8c828d016131f8565b98505060406134de8c828d01613137565b97505060606134ef8c828d01612fd5565b96505060806135008c828d01612fd5565b95505060a08a013567ffffffffffffffff81111561351d57600080fd5b6135298c828d0161320e565b945094505060c061353c8c828d0161314d565b92505060e061354d8c828d0161314d565b9150509295985092959850929598565b6000806000806080858703121561357357600080fd5b600061357f87876131f8565b945050602061359087828801612fd5565b93505060406135a18782880161314d565b92505060606135b28782880161314d565b91505092959194509250565b600080604083850312156135d157600080fd5b600061329485856131f8565b6000602082840312156135ef57600080fd5b60006128878484613203565b60008060006060848603121561361057600080fd5b600061361c868661314d565b935050602061362d86828701612fd5565b925050604061363e8682870161314d565b9150509250925092565b6000806040838503121561365b57600080fd5b60006136678585613158565b92505060206132a585828601613158565b600061368483836136d0565b505060200190565b6000613684838361388a565b60006136848383613893565b6000610d4983836138d4565b6136b981614786565b82525050565b6136b96136cb82614748565b6147e3565b6136b981614748565b60006136e48261473b565b6136ee818561473f565b93506136f983614729565b8060005b838110156137275781516137118882613678565b975061371c83614729565b9250506001016136fd565b509495945050505050565b600061373d8261473b565b613747818561473f565b935061375283614729565b8060005b8381101561372757815161376a888261368c565b975061377583614729565b925050600101613756565b600061378b8261473b565b613795818561473f565b93506137a083614729565b8060005b838110156137275781516137b88882613698565b97506137c383614729565b9250506001016137a4565b60006137d98261473b565b6137e3818561473f565b9350836020820285016137f585614729565b8060005b8581101561382f578484038952815161381285826136a4565b945061381d83614729565b60209a909a01999250506001016137f9565b5091979650505050505050565b60006138478261473b565b613851818561473f565b935061385c83614729565b8060005b838110156137275781516138748882613698565b975061387f83614729565b925050600101613860565b6136b981614753565b6136b981612747565b6136b981614758565b60006138b08261473b565b6138ba8185610632565b93506138ca8185602086016147b3565b9290920192915050565b60006138df8261473b565b6138e9818561473f565b93506138f98185602086016147b3565b613902816147f4565b9093019392505050565b600081546001811660008114613929576001811461394f5761398e565b607f600283041661393a818761473f565b60ff198416815295505060208501925061398e565b6002820461395d818761473f565b95506139688561472f565b60005b828110156139875781548882015260019091019060200161396b565b8701945050505b505092915050565b6000815460018116600081146139b357600181146139d65761398e565b607f60028304166139c48187610632565b60ff198416815295508501925061398e565b600282046139e48187610632565b95506139ef8561472f565b60005b82811015613a0e578154888201526001909101906020016139f2565b5050909401949350505050565b6136b981614765565b6136b981614791565b6136b98161479c565b6000613a43601883610632565b7f617070726f766528616464726573732c75696e74323536290000000000000000815260180192915050565b6000613a7c601e8361473f565b7f57616c6c6574536368656d653a2063616c6c206e6f7420616c6c6f7765640000815260200192915050565b6000613ab560278361473f565b7f57616c6c6574536368656d653a20636f6e74726f6c6c65722063616e6e6f74208152666265207a65726f60c81b602082015260400192915050565b6000613afe601b8361473f565b7f536166654d6174683a206164646974696f6e206f766572666c6f770000000000815260200192915050565b6000613b3760358361473f565b7f57616c6c6574536368656d653a2063616e742070726f706f7365204552433230815274207472616e736665727320776974682076616c756560581b602082015260400192915050565b6000613b8e60248361473f565b7f57616c6c6574536368656d653a2076616c75652063616c6c206e6f7420616c6c8152631bddd95960e21b602082015260400192915050565b6000613bd460458361473f565b7f57616c6c6574536368656d653a205f6d61785365636f6e6473466f724578656381527f7574696f6e2063616e74206265206c657373207468616e203836343030207365602082015264636f6e647360d81b604082015260600192915050565b6000613c41602283610632565b7f7365744d61785365636f6e6473466f72457865637574696f6e2875696e743235815261362960f01b602082015260220192915050565b6000613c85602b8361473f565b7f57616c6c6574536368656d653a206d617852657050657263656e74616765436881526a185b99d9481c185cdcd95960aa1b602082015260400192915050565b6000613cd2602a8361473f565b7f57616c6c6574536368656d653a206d7573742062652061207375626d6974746581526919081c1c9bdc1bdcd85b60b21b602082015260400192915050565b6000613d1e601f8361473f565b7f57616c6c6574536368656d653a2063616e6e6f7420696e697420747769636500815260200192915050565b6000613d5760488361473f565b7f57616c6c6574536368656d653a207365744d61785365636f6e6473466f72457881527f65637574696f6e2069732063616c6c61626c65206f6e6c7920666f726d207468602082015267329030bb30ba30b960c11b604082015260600192915050565b6000613dc760238361473f565b7f57616c6c6574536368656d653a2063616c6c20657865637574696f6e206661698152621b195960ea1b602082015260400192915050565b6000613e0c60308361473f565b7f57616c6c6574536368656d653a2070726f706f73616c20657865637574696f6e81526f20616c72656164792072756e6e696e6760801b602082015260400192915050565b6000613e5e60218361473f565b7f536166654d6174683a206d756c7469706c69636174696f6e206f766572666c6f8152607760f81b602082015260400192915050565b6000613ea1601983610632565b7f7472616e7366657228616464726573732c75696e743235362900000000000000815260190192915050565b6000613eda60458361473f565b7f57616c6c6574536368656d653a20746f74616c2076616c7565207472616e736681527f65726564206f6620617373657420696e2070726f706f73616c206e6f7420616c6020820152641b1bddd95960da1b604082015260600192915050565b6000613f4760568361473f565b7f57616c6c6574536368656d653a2063616e742070726f706f73652063616c6c7381527f20746f20307861416141614161614161416141616141614141414141414141616020820152756161416141614161614161614161206164647265737360501b604082015260600192915050565b6000613fc560128361473f565b716f6e6c7920566f74696e674d616368696e6560701b815260200192915050565b6000613ff360238361473f565b7f57616c6c6574536368656d653a20696e76616c6964205f76616c7565206c656e8152620cee8d60eb1b602082015260400192915050565b600061403860238361473f565b7f57616c6c6574536368656d653a206176617461722063616e6e6f74206265207a81526265726f60e81b602082015260400192915050565b600061407d60258361473f565b7f57616c6c6574536368656d653a20696e76616c69642070726f706f73616c206381526430b63632b960d91b602082015260400192915050565b60006140c460268361473f565b7f57616c6c6574536368656d653a20696e76616c6964205f63616c6c44617461208152650d8cadccee8d60d31b602082015260400192915050565b600061410c602a8361473f565b7f57616c6c6574536368656d653a2065726332302076616c75652063616c6c206e8152691bdd08185b1b1bddd95960b21b602082015260400192915050565b600061415860428361473f565b7f57616c6c6574536368656d653a2043616e74207265636569766520696620697481527f2077696c6c206d616b652067656e657269632063616c6c7320746f206176617460208201526130b960f11b604082015260600192915050565b60006141c2603a8361473f565b7f57616c6c6574536368656d653a2063616e742070726f706f73652063616c6c7381527f20776974682030786161616161616161207369676e6174757265000000000000602082015260400192915050565b600061422082856136bf565b60148201915061423082846136bf565b5060140192915050565b6000612a3082846138a5565b6000612a308284613996565b6000610d4c82613a36565b6000610d4c82613c34565b6000610d4c82613e94565b60208101610d4c82846136d0565b60208101610d4c82846136b0565b6040810161429d82856136b0565b612a3060208301846136b0565b608081016142b882876136b0565b6142c560208301866136b0565b6142d260408301856136d0565b611209606083018461389c565b608081016142ed82876136d0565b6142fa60208301866136b0565b6142d260408301856136b0565b608081016142b882876136d0565b6080810161432382876136d0565b8181036020830152614335818661390c565b90506143446040830185613a1b565b6112096060830184613893565b6040810161435f82856136d0565b612a306020830184613893565b60e0808252810161437d818a6136d9565b9050818103602083015261439181896137ce565b905081810360408301526143a5818861383c565b90506143b46060830187613a24565b81810360808301526143c681866138d4565b905081810360a08301526143da81856138d4565b90506143e960c0830184613893565b98975050505050505050565b604080825281016144068185613732565b90508181036020830152612a2d81846137ce565b60208082528101610d498184613780565b60208101610d4c828461388a565b60208101610d4c8284613893565b60208101610d4c828461389c565b60208101610d4c8284613a1b565b608081016144718287613a1b565b61447e60208301866136d0565b61448b6040830185613893565b6112096060830184613a1b565b608081016144a68287613a24565b81810360208301526144b881866138d4565b905081810360408301526144cc81856138d4565b90506112096060830184613893565b608081016144e98287613a2d565b6144f66020830186613893565b61450360408301856136b0565b61120960608301846136b0565b60208082528101610d4981846138d4565b60208082528101610d4c81613a6f565b60208082528101610d4c81613aa8565b60208082528101610d4c81613af1565b60208082528101610d4c81613b2a565b60208082528101610d4c81613b81565b60208082528101610d4c81613bc7565b60208082528101610d4c81613c78565b60208082528101610d4c81613cc5565b60208082528101610d4c81613d11565b60208082528101610d4c81613d4a565b60208082528101610d4c81613dba565b60208082528101610d4c81613dff565b60208082528101610d4c81613e51565b60208082528101610d4c81613ecd565b60208082528101610d4c81613f3a565b60208082528101610d4c81613fb8565b60208082528101610d4c81613fe6565b60208082528101610d4c8161402b565b60208082528101610d4c81614070565b60208082528101610d4c816140b7565b60208082528101610d4c816140ff565b60208082528101610d4c8161414b565b60208082528101610d4c816141b5565b6060810161469f8286613893565b6146ac60208301856136d0565b61288760408301846136b0565b60405181810167ffffffffffffffff811182821017156146d857600080fd5b604052919050565b600067ffffffffffffffff8211156146f757600080fd5b5060209081020190565b600067ffffffffffffffff82111561471857600080fd5b506020601f91909101601f19160190565b60200190565b60009081526020902090565b5190565b90815260200190565b6000610d4c8261477a565b151590565b6001600160e01b03191690565b6000610d4c82614748565b8061063281614804565b6001600160a01b031690565b6000610d4c82614765565b6000610d4c82614770565b6000610d4c82612747565b82818337506000910152565b60005b838110156147ce5781810151838201526020016147b6565b838111156147dd576000848401525b50505050565b6000610d4c826000610d4c826147fe565b601f01601f191690565b60601b90565b60058110612fd257fe5b61481781614748565b8114612fd257600080fd5b61481781614753565b61481781612747565b6148178161476556feaa798b5c17de8359ce5a2d3b6a5da0de89d0b116dcf830f1809599da1d986dbba365627a7a7231582044096d5c008bd30e4e09c877e921666f135427ebb57062811d92b62005eb4cb86c6578706572696d656e74616cf564736f6c63430005110040",
  "linkReferences": {},
  "deployedLinkReferences": {}
}